{
  "_format": "hh-sol-artifact-1",
  "contractName": "TurboToken",
  "sourceName": "contracts/TurboToken.sol",
  "abi": [
    {
      "inputs": [
        {
          "internalType": "string",
          "name": "name_",
          "type": "string"
        },
        {
          "internalType": "string",
          "name": "symbol_",
          "type": "string"
        },
        {
          "internalType": "uint256",
          "name": "raiseTarget_",
          "type": "uint256"
        },
        {
          "internalType": "address",
          "name": "creator_",
          "type": "address"
        },
        {
          "internalType": "uint256",
          "name": "maxSupply_",
          "type": "uint256"
        },
        {
          "internalType": "address",
          "name": "platformFeeRecipient_",
          "type": "address"
        }
      ],
      "stateMutability": "nonpayable",
      "type": "constructor"
    },
    {
      "inputs": [
        {
          "internalType": "address",
          "name": "spender",
          "type": "address"
        },
        {
          "internalType": "uint256",
          "name": "allowance",
          "type": "uint256"
        },
        {
          "internalType": "uint256",
          "name": "needed",
          "type": "uint256"
        }
      ],
      "name": "ERC20InsufficientAllowance",
      "type": "error"
    },
    {
      "inputs": [
        {
          "internalType": "address",
          "name": "sender",
          "type": "address"
        },
        {
          "internalType": "uint256",
          "name": "balance",
          "type": "uint256"
        },
        {
          "internalType": "uint256",
          "name": "needed",
          "type": "uint256"
        }
      ],
      "name": "ERC20InsufficientBalance",
      "type": "error"
    },
    {
      "inputs": [
        {
          "internalType": "address",
          "name": "approver",
          "type": "address"
        }
      ],
      "name": "ERC20InvalidApprover",
      "type": "error"
    },
    {
      "inputs": [
        {
          "internalType": "address",
          "name": "receiver",
          "type": "address"
        }
      ],
      "name": "ERC20InvalidReceiver",
      "type": "error"
    },
    {
      "inputs": [
        {
          "internalType": "address",
          "name": "sender",
          "type": "address"
        }
      ],
      "name": "ERC20InvalidSender",
      "type": "error"
    },
    {
      "inputs": [
        {
          "internalType": "address",
          "name": "spender",
          "type": "address"
        }
      ],
      "name": "ERC20InvalidSpender",
      "type": "error"
    },
    {
      "inputs": [
        {
          "internalType": "address",
          "name": "owner",
          "type": "address"
        }
      ],
      "name": "OwnableInvalidOwner",
      "type": "error"
    },
    {
      "inputs": [
        {
          "internalType": "address",
          "name": "account",
          "type": "address"
        }
      ],
      "name": "OwnableUnauthorizedAccount",
      "type": "error"
    },
    {
      "anonymous": false,
      "inputs": [
        {
          "indexed": true,
          "internalType": "address",
          "name": "owner",
          "type": "address"
        },
        {
          "indexed": true,
          "internalType": "address",
          "name": "spender",
          "type": "address"
        },
        {
          "indexed": false,
          "internalType": "uint256",
          "name": "value",
          "type": "uint256"
        }
      ],
      "name": "Approval",
      "type": "event"
    },
    {
      "anonymous": false,
      "inputs": [
        {
          "indexed": false,
          "internalType": "address",
          "name": "recipient",
          "type": "address"
        },
        {
          "indexed": false,
          "internalType": "uint256",
          "name": "amount",
          "type": "uint256"
        }
      ],
      "name": "FeeAttempt",
      "type": "event"
    },
    {
      "anonymous": false,
      "inputs": [
        {
          "indexed": true,
          "internalType": "address",
          "name": "previousOwner",
          "type": "address"
        },
        {
          "indexed": true,
          "internalType": "address",
          "name": "newOwner",
          "type": "address"
        }
      ],
      "name": "OwnershipTransferred",
      "type": "event"
    },
    {
      "anonymous": false,
      "inputs": [
        {
          "indexed": true,
          "internalType": "address",
          "name": "from",
          "type": "address"
        },
        {
          "indexed": true,
          "internalType": "address",
          "name": "to",
          "type": "address"
        },
        {
          "indexed": false,
          "internalType": "uint256",
          "name": "value",
          "type": "uint256"
        }
      ],
      "name": "Transfer",
      "type": "event"
    },
    {
      "inputs": [],
      "name": "LP_AND_AIRDROP_PERCENT",
      "outputs": [
        {
          "internalType": "uint256",
          "name": "",
          "type": "uint256"
        }
      ],
      "stateMutability": "view",
      "type": "function"
    },
    {
      "inputs": [
        {
          "internalType": "address",
          "name": "",
          "type": "address"
        }
      ],
      "name": "airdropAllocations",
      "outputs": [
        {
          "internalType": "uint256",
          "name": "",
          "type": "uint256"
        }
      ],
      "stateMutability": "view",
      "type": "function"
    },
    {
      "inputs": [
        {
          "internalType": "address",
          "name": "",
          "type": "address"
        }
      ],
      "name": "airdropClaimed",
      "outputs": [
        {
          "internalType": "bool",
          "name": "",
          "type": "bool"
        }
      ],
      "stateMutability": "view",
      "type": "function"
    },
    {
      "inputs": [],
      "name": "airdropFinalized",
      "outputs": [
        {
          "internalType": "bool",
          "name": "",
          "type": "bool"
        }
      ],
      "stateMutability": "view",
      "type": "function"
    },
    {
      "inputs": [
        {
          "internalType": "uint256",
          "name": "",
          "type": "uint256"
        }
      ],
      "name": "airdropRecipients",
      "outputs": [
        {
          "internalType": "address",
          "name": "",
          "type": "address"
        }
      ],
      "stateMutability": "view",
      "type": "function"
    },
    {
      "inputs": [
        {
          "internalType": "address",
          "name": "owner",
          "type": "address"
        },
        {
          "internalType": "address",
          "name": "spender",
          "type": "address"
        }
      ],
      "name": "allowance",
      "outputs": [
        {
          "internalType": "uint256",
          "name": "",
          "type": "uint256"
        }
      ],
      "stateMutability": "view",
      "type": "function"
    },
    {
      "inputs": [
        {
          "internalType": "address",
          "name": "spender",
          "type": "address"
        },
        {
          "internalType": "uint256",
          "name": "value",
          "type": "uint256"
        }
      ],
      "name": "approve",
      "outputs": [
        {
          "internalType": "bool",
          "name": "",
          "type": "bool"
        }
      ],
      "stateMutability": "nonpayable",
      "type": "function"
    },
    {
      "inputs": [
        {
          "internalType": "address",
          "name": "account",
          "type": "address"
        }
      ],
      "name": "balanceOf",
      "outputs": [
        {
          "internalType": "uint256",
          "name": "",
          "type": "uint256"
        }
      ],
      "stateMutability": "view",
      "type": "function"
    },
    {
      "inputs": [],
      "name": "basePrice",
      "outputs": [
        {
          "internalType": "uint256",
          "name": "",
          "type": "uint256"
        }
      ],
      "stateMutability": "view",
      "type": "function"
    },
    {
      "inputs": [
        {
          "internalType": "uint256",
          "name": "amount",
          "type": "uint256"
        }
      ],
      "name": "buy",
      "outputs": [],
      "stateMutability": "payable",
      "type": "function"
    },
    {
      "inputs": [],
      "name": "claimAirdrop",
      "outputs": [],
      "stateMutability": "nonpayable",
      "type": "function"
    },
    {
      "inputs": [],
      "name": "creator",
      "outputs": [
        {
          "internalType": "address",
          "name": "",
          "type": "address"
        }
      ],
      "stateMutability": "view",
      "type": "function"
    },
    {
      "inputs": [
        {
          "internalType": "uint256",
          "name": "amount",
          "type": "uint256"
        }
      ],
      "name": "creatorBuy",
      "outputs": [],
      "stateMutability": "payable",
      "type": "function"
    },
    {
      "inputs": [],
      "name": "creatorLockAmount",
      "outputs": [
        {
          "internalType": "uint256",
          "name": "",
          "type": "uint256"
        }
      ],
      "stateMutability": "view",
      "type": "function"
    },
    {
      "inputs": [],
      "name": "decimals",
      "outputs": [
        {
          "internalType": "uint8",
          "name": "",
          "type": "uint8"
        }
      ],
      "stateMutability": "view",
      "type": "function"
    },
    {
      "inputs": [],
      "name": "getAirdropAllocations",
      "outputs": [
        {
          "internalType": "address[]",
          "name": "",
          "type": "address[]"
        },
        {
          "internalType": "uint256[]",
          "name": "",
          "type": "uint256[]"
        }
      ],
      "stateMutability": "view",
      "type": "function"
    },
    {
      "inputs": [],
      "name": "getCurrentPrice",
      "outputs": [
        {
          "internalType": "uint256",
          "name": "",
          "type": "uint256"
        }
      ],
      "stateMutability": "view",
      "type": "function"
    },
    {
      "inputs": [
        {
          "internalType": "uint256",
          "name": "amount",
          "type": "uint256"
        }
      ],
      "name": "getPrice",
      "outputs": [
        {
          "internalType": "uint256",
          "name": "",
          "type": "uint256"
        }
      ],
      "stateMutability": "view",
      "type": "function"
    },
    {
      "inputs": [
        {
          "internalType": "uint256",
          "name": "amount",
          "type": "uint256"
        }
      ],
      "name": "getSellPrice",
      "outputs": [
        {
          "internalType": "uint256",
          "name": "",
          "type": "uint256"
        }
      ],
      "stateMutability": "view",
      "type": "function"
    },
    {
      "inputs": [],
      "name": "graduate",
      "outputs": [],
      "stateMutability": "nonpayable",
      "type": "function"
    },
    {
      "inputs": [],
      "name": "graduated",
      "outputs": [
        {
          "internalType": "bool",
          "name": "",
          "type": "bool"
        }
      ],
      "stateMutability": "view",
      "type": "function"
    },
    {
      "inputs": [
        {
          "internalType": "address",
          "name": "",
          "type": "address"
        }
      ],
      "name": "lockedBalances",
      "outputs": [
        {
          "internalType": "uint256",
          "name": "",
          "type": "uint256"
        }
      ],
      "stateMutability": "view",
      "type": "function"
    },
    {
      "inputs": [],
      "name": "maxSupply",
      "outputs": [
        {
          "internalType": "uint256",
          "name": "",
          "type": "uint256"
        }
      ],
      "stateMutability": "view",
      "type": "function"
    },
    {
      "inputs": [],
      "name": "maxSupplyForSale",
      "outputs": [
        {
          "internalType": "uint256",
          "name": "",
          "type": "uint256"
        }
      ],
      "stateMutability": "view",
      "type": "function"
    },
    {
      "inputs": [],
      "name": "name",
      "outputs": [
        {
          "internalType": "string",
          "name": "",
          "type": "string"
        }
      ],
      "stateMutability": "view",
      "type": "function"
    },
    {
      "inputs": [],
      "name": "owner",
      "outputs": [
        {
          "internalType": "address",
          "name": "",
          "type": "address"
        }
      ],
      "stateMutability": "view",
      "type": "function"
    },
    {
      "inputs": [],
      "name": "platformFeeRecipient",
      "outputs": [
        {
          "internalType": "address",
          "name": "",
          "type": "address"
        }
      ],
      "stateMutability": "view",
      "type": "function"
    },
    {
      "inputs": [],
      "name": "raiseTarget",
      "outputs": [
        {
          "internalType": "uint256",
          "name": "",
          "type": "uint256"
        }
      ],
      "stateMutability": "view",
      "type": "function"
    },
    {
      "inputs": [],
      "name": "renounceOwnership",
      "outputs": [],
      "stateMutability": "nonpayable",
      "type": "function"
    },
    {
      "inputs": [],
      "name": "reservedForAirdrop",
      "outputs": [
        {
          "internalType": "uint256",
          "name": "",
          "type": "uint256"
        }
      ],
      "stateMutability": "view",
      "type": "function"
    },
    {
      "inputs": [
        {
          "internalType": "uint256",
          "name": "amount",
          "type": "uint256"
        }
      ],
      "name": "sell",
      "outputs": [],
      "stateMutability": "nonpayable",
      "type": "function"
    },
    {
      "inputs": [
        {
          "internalType": "address[]",
          "name": "recipients",
          "type": "address[]"
        },
        {
          "internalType": "uint256[]",
          "name": "amounts",
          "type": "uint256[]"
        }
      ],
      "name": "setAirdropAllocations",
      "outputs": [],
      "stateMutability": "nonpayable",
      "type": "function"
    },
    {
      "inputs": [],
      "name": "slope",
      "outputs": [
        {
          "internalType": "uint256",
          "name": "",
          "type": "uint256"
        }
      ],
      "stateMutability": "view",
      "type": "function"
    },
    {
      "inputs": [],
      "name": "symbol",
      "outputs": [
        {
          "internalType": "string",
          "name": "",
          "type": "string"
        }
      ],
      "stateMutability": "view",
      "type": "function"
    },
    {
      "inputs": [],
      "name": "tokenInfo",
      "outputs": [
        {
          "internalType": "address",
          "name": "_creator",
          "type": "address"
        },
        {
          "internalType": "address",
          "name": "_platformFeeRecipient",
          "type": "address"
        },
        {
          "internalType": "uint256",
          "name": "_raiseTarget",
          "type": "uint256"
        },
        {
          "internalType": "uint256",
          "name": "_maxSupply",
          "type": "uint256"
        },
        {
          "internalType": "uint256",
          "name": "_basePrice",
          "type": "uint256"
        },
        {
          "internalType": "uint256",
          "name": "_slope",
          "type": "uint256"
        },
        {
          "internalType": "uint256",
          "name": "_totalRaised",
          "type": "uint256"
        },
        {
          "internalType": "bool",
          "name": "_graduated",
          "type": "bool"
        },
        {
          "internalType": "uint256",
          "name": "_creatorLockAmount",
          "type": "uint256"
        }
      ],
      "stateMutability": "view",
      "type": "function"
    },
    {
      "inputs": [],
      "name": "totalRaised",
      "outputs": [
        {
          "internalType": "uint256",
          "name": "",
          "type": "uint256"
        }
      ],
      "stateMutability": "view",
      "type": "function"
    },
    {
      "inputs": [],
      "name": "totalSupply",
      "outputs": [
        {
          "internalType": "uint256",
          "name": "",
          "type": "uint256"
        }
      ],
      "stateMutability": "view",
      "type": "function"
    },
    {
      "inputs": [
        {
          "internalType": "address",
          "name": "to",
          "type": "address"
        },
        {
          "internalType": "uint256",
          "name": "value",
          "type": "uint256"
        }
      ],
      "name": "transfer",
      "outputs": [
        {
          "internalType": "bool",
          "name": "",
          "type": "bool"
        }
      ],
      "stateMutability": "nonpayable",
      "type": "function"
    },
    {
      "inputs": [
        {
          "internalType": "address",
          "name": "from",
          "type": "address"
        },
        {
          "internalType": "address",
          "name": "to",
          "type": "address"
        },
        {
          "internalType": "uint256",
          "name": "value",
          "type": "uint256"
        }
      ],
      "name": "transferFrom",
      "outputs": [
        {
          "internalType": "bool",
          "name": "",
          "type": "bool"
        }
      ],
      "stateMutability": "nonpayable",
      "type": "function"
    },
    {
      "inputs": [
        {
          "internalType": "address",
          "name": "newOwner",
          "type": "address"
        }
      ],
      "name": "transferOwnership",
      "outputs": [],
      "stateMutability": "nonpayable",
      "type": "function"
    },
    {
      "inputs": [],
      "name": "unclaimedAirdropAmount",
      "outputs": [
        {
          "internalType": "uint256",
          "name": "total",
          "type": "uint256"
        }
      ],
      "stateMutability": "view",
      "type": "function"
    },
    {
      "inputs": [],
      "name": "unlockCreatorTokens",
      "outputs": [],
      "stateMutability": "nonpayable",
      "type": "function"
    },
    {
      "inputs": [],
      "name": "withdraw",
      "outputs": [],
      "stateMutability": "nonpayable",
      "type": "function"
    },
    {
      "stateMutability": "payable",
      "type": "receive"
    }
  ],
  "bytecode": "0x60a060405234801561001057600080fd5b5060405161509a38038061509a833981810160405281019061003291906104f0565b828686816003908161004491906107cc565b50806004908161005491906107cc565b505050600073ffffffffffffffffffffffffffffffffffffffff168173ffffffffffffffffffffffffffffffffffffffff16036100c95760006040517f1e4fbdf70000000000000000000000000000000000000000000000000000000081526004016100c091906108ad565b60405180910390fd5b6100d88161022160201b60201c565b508360068190555082600860006101000a81548173ffffffffffffffffffffffffffffffffffffffff021916908373ffffffffffffffffffffffffffffffffffffffff160217905550816080818152505080600760006101000a81548173ffffffffffffffffffffffffffffffffffffffff021916908373ffffffffffffffffffffffffffffffffffffffff1602179055506000606460508461017b91906108f7565b6101859190610968565b905060006104e1905080600161019b9190610999565b826101a691906108f7565b670de0b6b3a76400008760026101bc91906108f7565b6101c691906108f7565b6101d09190610968565b60108190555081670de0b6b3a76400006010546001846101f091906109cd565b6101fa91906108f7565b61020491906108f7565b61020e9190610968565b6011819055505050505050505050610a01565b6000600560009054906101000a900473ffffffffffffffffffffffffffffffffffffffff16905081600560006101000a81548173ffffffffffffffffffffffffffffffffffffffff021916908373ffffffffffffffffffffffffffffffffffffffff1602179055508173ffffffffffffffffffffffffffffffffffffffff168173ffffffffffffffffffffffffffffffffffffffff167f8be0079c531659141344cd1fd0a4f28419497f9722a3daafe3b4186f6b6457e060405160405180910390a35050565b6000604051905090565b600080fd5b600080fd5b600080fd5b600080fd5b6000601f19601f8301169050919050565b7f4e487b7100000000000000000000000000000000000000000000000000000000600052604160045260246000fd5b61034e82610305565b810181811067ffffffffffffffff8211171561036d5761036c610316565b5b80604052505050565b60006103806102e7565b905061038c8282610345565b919050565b600067ffffffffffffffff8211156103ac576103ab610316565b5b6103b582610305565b9050602081019050919050565b60005b838110156103e05780820151818401526020810190506103c5565b60008484015250505050565b60006103ff6103fa84610391565b610376565b90508281526020810184848401111561041b5761041a610300565b5b6104268482856103c2565b509392505050565b600082601f830112610443576104426102fb565b5b81516104538482602086016103ec565b91505092915050565b6000819050919050565b61046f8161045c565b811461047a57600080fd5b50565b60008151905061048c81610466565b92915050565b600073ffffffffffffffffffffffffffffffffffffffff82169050919050565b60006104bd82610492565b9050919050565b6104cd816104b2565b81146104d857600080fd5b50565b6000815190506104ea816104c4565b92915050565b60008060008060008060c0878903121561050d5761050c6102f1565b5b600087015167ffffffffffffffff81111561052b5761052a6102f6565b5b61053789828a0161042e565b965050602087015167ffffffffffffffff811115610558576105576102f6565b5b61056489828a0161042e565b955050604061057589828a0161047d565b945050606061058689828a016104db565b935050608061059789828a0161047d565b92505060a06105a889828a016104db565b9150509295509295509295565b600081519050919050565b7f4e487b7100000000000000000000000000000000000000000000000000000000600052602260045260246000fd5b6000600282049050600182168061060757607f821691505b60208210810361061a576106196105c0565b5b50919050565b60008190508160005260206000209050919050565b60006020601f8301049050919050565b600082821b905092915050565b6000600883026106827fffffffffffffffffffffffffffffffffffffffffffffffffffffffffffffffff82610645565b61068c8683610645565b95508019841693508086168417925050509392505050565b6000819050919050565b60006106c96106c46106bf8461045c565b6106a4565b61045c565b9050919050565b6000819050919050565b6106e3836106ae565b6106f76106ef826106d0565b848454610652565b825550505050565b600090565b61070c6106ff565b6107178184846106da565b505050565b5b8181101561073b57610730600082610704565b60018101905061071d565b5050565b601f8211156107805761075181610620565b61075a84610635565b81016020851015610769578190505b61077d61077585610635565b83018261071c565b50505b505050565b600082821c905092915050565b60006107a360001984600802610785565b1980831691505092915050565b60006107bc8383610792565b9150826002028217905092915050565b6107d5826105b5565b67ffffffffffffffff8111156107ee576107ed610316565b5b6107f882546105ef565b61080382828561073f565b600060209050601f8311600181146108365760008415610824578287015190505b61082e85826107b0565b865550610896565b601f19841661084486610620565b60005b8281101561086c57848901518255600182019150602085019450602081019050610847565b868310156108895784890151610885601f891682610792565b8355505b6001600288020188555050505b505050505050565b6108a7816104b2565b82525050565b60006020820190506108c2600083018461089e565b92915050565b7f4e487b7100000000000000000000000000000000000000000000000000000000600052601160045260246000fd5b60006109028261045c565b915061090d8361045c565b925082820261091b8161045c565b91508282048414831517610932576109316108c8565b5b5092915050565b7f4e487b7100000000000000000000000000000000000000000000000000000000600052601260045260246000fd5b60006109738261045c565b915061097e8361045c565b92508261098e5761098d610939565b5b828204905092915050565b60006109a48261045c565b91506109af8361045c565b92508282019050808211156109c7576109c66108c8565b5b92915050565b60006109d88261045c565b91506109e38361045c565b92508282039050818111156109fb576109fa6108c8565b5b92915050565b608051614669610a31600039600081816111e401528181611d1201528181611e95015261221c01526146696000f3fe6080604052600436106102605760003560e01c8063a9059cbb11610144578063d96a094a116100b6578063e7c2b7721161007a578063e7c2b772146108ee578063eb13554f14610919578063eb91d37e14610944578063f2fde38b1461096f578063f4227e9514610998578063fc6fec4c146109c357610267565b8063d96a094a14610804578063dd62ed3e14610820578063e388010d1461085d578063e4849b3214610888578063e7572230146108b157610267565b8063c5c4744c11610108578063c5c4744c146106f2578063c7876ea41461071d578063cdbbf18614610748578063d1b6dd3014610785578063d3618cca146107c2578063d5abeb01146107d957610267565b8063a9059cbb1461061a578063b34ffc5f14610657578063b4105e0614610673578063ba730e531461068a578063be8755a9146106c757610267565b80635b88349d116101dd5780638375f21b116101a15780638375f21b1461051857806383caf27514610543578063851319761461056e5780638da5cb5b1461059957806395d89b41146105c45780639a241247146105ef57610267565b80635b88349d1461043d578063646304a1146104545780636addb6631461049157806370a08231146104c4578063715018a61461050157610267565b806318160ddd1161022457806318160ddd1461036857806323b872dd1461039357806324d4de70146103d0578063313ce567146103fb5780633ccfd60b1461042657610267565b806302d05d3f1461026c5780630483a7f61461029757806306fdde03146102d4578063095ea7b3146102ff5780630b579f1f1461033c57610267565b3661026757005b600080fd5b34801561027857600080fd5b506102816109ec565b60405161028e9190613291565b60405180910390f35b3480156102a357600080fd5b506102be60048036038101906102b991906132e2565b610a12565b6040516102cb9190613328565b60405180910390f35b3480156102e057600080fd5b506102e9610a2a565b6040516102f691906133d3565b60405180910390f35b34801561030b57600080fd5b5061032660048036038101906103219190613421565b610abc565b604051610333919061347c565b60405180910390f35b34801561034857600080fd5b50610351610adf565b60405161035f929190613613565b60405180910390f35b34801561037457600080fd5b5061037d610cb1565b60405161038a9190613328565b60405180910390f35b34801561039f57600080fd5b506103ba60048036038101906103b5919061364a565b610cbb565b6040516103c7919061347c565b60405180910390f35b3480156103dc57600080fd5b506103e5610cea565b6040516103f29190613328565b60405180910390f35b34801561040757600080fd5b50610410610cef565b60405161041d91906136b9565b60405180910390f35b34801561043257600080fd5b5061043b610cf8565b005b34801561044957600080fd5b50610452610f84565b005b34801561046057600080fd5b5061047b600480360381019061047691906136d4565b61114c565b6040516104889190613291565b60405180910390f35b34801561049d57600080fd5b506104a661118b565b6040516104bb99989796959493929190613701565b60405180910390f35b3480156104d057600080fd5b506104eb60048036038101906104e691906132e2565b61123c565b6040516104f89190613328565b60405180910390f35b34801561050d57600080fd5b50610516611284565b005b34801561052457600080fd5b5061052d611298565b60405161053a9190613328565b60405180910390f35b34801561054f57600080fd5b506105586113a1565b6040516105659190613328565b60405180910390f35b34801561057a57600080fd5b506105836113a7565b6040516105909190613328565b60405180910390f35b3480156105a557600080fd5b506105ae6113ad565b6040516105bb9190613291565b60405180910390f35b3480156105d057600080fd5b506105d96113d7565b6040516105e691906133d3565b60405180910390f35b3480156105fb57600080fd5b50610604611469565b604051610611919061347c565b60405180910390f35b34801561062657600080fd5b50610641600480360381019061063c9190613421565b611478565b60405161064e919061347c565b60405180910390f35b610671600480360381019061066c91906136d4565b61149b565b005b34801561067f57600080fd5b506106886119aa565b005b34801561069657600080fd5b506106b160048036038101906106ac91906136d4565b611c32565b6040516106be9190613328565b60405180910390f35b3480156106d357600080fd5b506106dc611d0a565b6040516106e99190613328565b60405180910390f35b3480156106fe57600080fd5b50610707611d4a565b6040516107149190613328565b60405180910390f35b34801561072957600080fd5b50610732611d50565b60405161073f9190613328565b60405180910390f35b34801561075457600080fd5b5061076f600480360381019061076a91906132e2565b611d56565b60405161077c9190613328565b60405180910390f35b34801561079157600080fd5b506107ac60048036038101906107a791906132e2565b611d6e565b6040516107b9919061347c565b60405180910390f35b3480156107ce57600080fd5b506107d7611d8e565b005b3480156107e557600080fd5b506107ee611e93565b6040516107fb9190613328565b60405180910390f35b61081e600480360381019061081991906136d4565b611eb7565b005b34801561082c57600080fd5b506108476004803603810190610842919061378e565b612189565b6040516108549190613328565b60405180910390f35b34801561086957600080fd5b50610872612210565b60405161087f9190613328565b60405180910390f35b34801561089457600080fd5b506108af60048036038101906108aa91906136d4565b61224a565b005b3480156108bd57600080fd5b506108d860048036038101906108d391906136d4565b6125eb565b6040516108e59190613328565b60405180910390f35b3480156108fa57600080fd5b50610903612673565b604051610910919061347c565b60405180910390f35b34801561092557600080fd5b5061092e612686565b60405161093b9190613291565b60405180910390f35b34801561095057600080fd5b506109596126ac565b6040516109669190613328565b60405180910390f35b34801561097b57600080fd5b50610996600480360381019061099191906132e2565b6126e8565b005b3480156109a457600080fd5b506109ad61276e565b6040516109ba9190613328565b60405180910390f35b3480156109cf57600080fd5b506109ea60048036038101906109e59190613889565b612774565b005b600860009054906101000a900473ffffffffffffffffffffffffffffffffffffffff1681565b600c6020528060005260406000206000915090505481565b606060038054610a3990613939565b80601f0160208091040260200160405190810160405280929190818152602001828054610a6590613939565b8015610ab25780601f10610a8757610100808354040283529160200191610ab2565b820191906000526020600020905b815481529060010190602001808311610a9557829003601f168201915b5050505050905090565b600080610ac7612a60565b9050610ad4818585612a68565b600191505092915050565b6060806000600f80549050905060008167ffffffffffffffff811115610b0857610b0761396a565b5b604051908082528060200260200182016040528015610b365781602001602082028036833780820191505090505b50905060008267ffffffffffffffff811115610b5557610b5461396a565b5b604051908082528060200260200182016040528015610b835781602001602082028036833780820191505090505b50905060005b83811015610ca357600f8181548110610ba557610ba4613999565b5b9060005260206000200160009054906101000a900473ffffffffffffffffffffffffffffffffffffffff16838281518110610be357610be2613999565b5b602002602001019073ffffffffffffffffffffffffffffffffffffffff16908173ffffffffffffffffffffffffffffffffffffffff1681525050600d6000848381518110610c3457610c33613999565b5b602002602001015173ffffffffffffffffffffffffffffffffffffffff1673ffffffffffffffffffffffffffffffffffffffff16815260200190815260200160002054828281518110610c8a57610c89613999565b5b6020026020010181815250508080600101915050610b89565b508181945094505050509091565b6000600254905090565b600080610cc6612a60565b9050610cd3858285612a7a565b610cde858585612b0f565b60019150509392505050565b601481565b60006012905090565b600860009054906101000a900473ffffffffffffffffffffffffffffffffffffffff1673ffffffffffffffffffffffffffffffffffffffff163373ffffffffffffffffffffffffffffffffffffffff1614610d88576040517f08c379a0000000000000000000000000000000000000000000000000000000008152600401610d7f90613a14565b60405180910390fd5b60004711610dcb576040517f08c379a0000000000000000000000000000000000000000000000000000000008152600401610dc290613a80565b60405180910390fd5b600a60009054906101000a900460ff16610e1a576040517f08c379a0000000000000000000000000000000000000000000000000000000008152600401610e1190613aec565b60405180910390fd5b600061271060c847610e2c9190613b3b565b610e369190613bac565b905060008147610e469190613bdd565b90506000600760009054906101000a900473ffffffffffffffffffffffffffffffffffffffff1673ffffffffffffffffffffffffffffffffffffffff1683604051610e9090613c42565b60006040518083038185875af1925050503d8060008114610ecd576040519150601f19603f3d011682016040523d82523d6000602084013e610ed2565b606091505b5050905080610f16576040517f08c379a0000000000000000000000000000000000000000000000000000000008152600401610f0d90613ca3565b60405180910390fd5b600860009054906101000a900473ffffffffffffffffffffffffffffffffffffffff1673ffffffffffffffffffffffffffffffffffffffff166108fc839081150290604051600060405180830381858888f19350505050158015610f7e573d6000803e3d6000fd5b50505050565b600a60009054906101000a900460ff16610fd3576040517f08c379a0000000000000000000000000000000000000000000000000000000008152600401610fca90613d0f565b60405180910390fd5b600e60003373ffffffffffffffffffffffffffffffffffffffff1673ffffffffffffffffffffffffffffffffffffffff16815260200190815260200160002060009054906101000a900460ff1615611060576040517f08c379a000000000000000000000000000000000000000000000000000000000815260040161105790613d7b565b60405180910390fd5b6000600d60003373ffffffffffffffffffffffffffffffffffffffff1673ffffffffffffffffffffffffffffffffffffffff168152602001908152602001600020549050600081116110e7576040517f08c379a00000000000000000000000000000000000000000000000000000000081526004016110de90613de7565b60405180910390fd5b6001600e60003373ffffffffffffffffffffffffffffffffffffffff1673ffffffffffffffffffffffffffffffffffffffff16815260200190815260200160002060006101000a81548160ff0219169083151502179055506111493382612c03565b50565b600f818154811061115c57600080fd5b906000526020600020016000915054906101000a900473ffffffffffffffffffffffffffffffffffffffff1681565b6000806000806000806000806000600860009054906101000a900473ffffffffffffffffffffffffffffffffffffffff16600760009054906101000a900473ffffffffffffffffffffffffffffffffffffffff166006547f0000000000000000000000000000000000000000000000000000000000000000601054601154600954600a60009054906101000a900460ff16600b54985098509850985098509850985098509850909192939495969798565b60008060008373ffffffffffffffffffffffffffffffffffffffff1673ffffffffffffffffffffffffffffffffffffffff168152602001908152602001600020549050919050565b61128c612c85565b6112966000612d0c565b565b600080600090505b600f8054905081101561139d576000600f82815481106112c3576112c2613999565b5b9060005260206000200160009054906101000a900473ffffffffffffffffffffffffffffffffffffffff169050600e60008273ffffffffffffffffffffffffffffffffffffffff1673ffffffffffffffffffffffffffffffffffffffff16815260200190815260200160002060009054906101000a900460ff1661138f57600d60008273ffffffffffffffffffffffffffffffffffffffff1673ffffffffffffffffffffffffffffffffffffffff168152602001908152602001600020548361138c9190613e07565b92505b5080806001019150506112a0565b5090565b60115481565b60065481565b6000600560009054906101000a900473ffffffffffffffffffffffffffffffffffffffff16905090565b6060600480546113e690613939565b80601f016020809104026020016040519081016040528092919081815260200182805461141290613939565b801561145f5780601f106114345761010080835404028352916020019161145f565b820191906000526020600020905b81548152906001019060200180831161144257829003601f168201915b5050505050905090565b600080600f8054905011905090565b600080611483612a60565b9050611490818585612b0f565b600191505092915050565b600860009054906101000a900473ffffffffffffffffffffffffffffffffffffffff1673ffffffffffffffffffffffffffffffffffffffff163373ffffffffffffffffffffffffffffffffffffffff161461152b576040517f08c379a000000000000000000000000000000000000000000000000000000000815260040161152290613a14565b60405180910390fd5b600a60009054906101000a900460ff161561157b576040517f08c379a000000000000000000000000000000000000000000000000000000000815260040161157290613e87565b60405180910390fd5b6000611586826125eb565b9050803410156115cb576040517f08c379a00000000000000000000000000000000000000000000000000000000081526004016115c290613ef3565b60405180910390fd5b6115d3612210565b826115dc610cb1565b6115e69190613e07565b1115611627576040517f08c379a000000000000000000000000000000000000000000000000000000000815260040161161e90613f5f565b60405180910390fd5b61162f611d0a565b82600c6000600860009054906101000a900473ffffffffffffffffffffffffffffffffffffffff1673ffffffffffffffffffffffffffffffffffffffff1673ffffffffffffffffffffffffffffffffffffffff1681526020019081526020016000205461169c9190613e07565b11156116dd576040517f08c379a00000000000000000000000000000000000000000000000000000000081526004016116d490613fcb565b60405180910390fd5b60006127106064836116ef9190613b3b565b6116f99190613bac565b905080826117079190613bdd565b600960008282546117189190613e07565b925050819055506117293084612c03565b82600c6000600860009054906101000a900473ffffffffffffffffffffffffffffffffffffffff1673ffffffffffffffffffffffffffffffffffffffff1673ffffffffffffffffffffffffffffffffffffffff168152602001908152602001600020600082825461179a9190613e07565b9250508190555082600b60008282546117b39190613e07565b925050819055507f77c4ff2d3de977cf4bd36aa220db7839bc74bdd1c7a1c3d47bbb34ba89d16a61600760009054906101000a900473ffffffffffffffffffffffffffffffffffffffff168260405161180d929190613feb565b60405180910390a16000600760009054906101000a900473ffffffffffffffffffffffffffffffffffffffff1673ffffffffffffffffffffffffffffffffffffffff168260405161185d90613c42565b60006040518083038185875af1925050503d806000811461189a576040519150601f19603f3d011682016040523d82523d6000602084013e61189f565b606091505b50509050806118e3576040517f08c379a00000000000000000000000000000000000000000000000000000000081526004016118da90614060565b60405180910390fd5b823411156119a45760003373ffffffffffffffffffffffffffffffffffffffff1684346119109190613bdd565b60405161191c90613c42565b60006040518083038185875af1925050503d8060008114611959576040519150601f19603f3d011682016040523d82523d6000602084013e61195e565b606091505b50509050806119a2576040517f08c379a0000000000000000000000000000000000000000000000000000000008152600401611999906140cc565b60405180910390fd5b505b50505050565b600860009054906101000a900473ffffffffffffffffffffffffffffffffffffffff1673ffffffffffffffffffffffffffffffffffffffff163373ffffffffffffffffffffffffffffffffffffffff1614611a3a576040517f08c379a0000000000000000000000000000000000000000000000000000000008152600401611a3190613a14565b60405180910390fd5b600a60009054906101000a900460ff16611a89576040517f08c379a0000000000000000000000000000000000000000000000000000000008152600401611a8090613aec565b60405180910390fd5b6000600c6000600860009054906101000a900473ffffffffffffffffffffffffffffffffffffffff1673ffffffffffffffffffffffffffffffffffffffff1673ffffffffffffffffffffffffffffffffffffffff1681526020019081526020016000205411611b2d576040517f08c379a0000000000000000000000000000000000000000000000000000000008152600401611b2490614138565b60405180910390fd5b6000600c6000600860009054906101000a900473ffffffffffffffffffffffffffffffffffffffff1673ffffffffffffffffffffffffffffffffffffffff1673ffffffffffffffffffffffffffffffffffffffff1681526020019081526020016000205490506000600c6000600860009054906101000a900473ffffffffffffffffffffffffffffffffffffffff1673ffffffffffffffffffffffffffffffffffffffff1673ffffffffffffffffffffffffffffffffffffffff168152602001908152602001600020819055506000600b81905550611c2f30600860009054906101000a900473ffffffffffffffffffffffffffffffffffffffff1683612b0f565b50565b600080611c3d610cb1565b905080831115611c82576040517f08c379a0000000000000000000000000000000000000000000000000000000008152600401611c79906141a4565b60405180910390fd5b6000611c8c6126ac565b90506000670de0b6b3a764000085601154611ca79190613b3b565b611cb19190613bac565b82611cbc9190613bdd565b9050600060028284611cce9190613e07565b611cd89190613bac565b90506000670de0b6b3a76400008288611cf19190613b3b565b611cfb9190613bac565b90508095505050505050919050565b6000606460147f0000000000000000000000000000000000000000000000000000000000000000611d3b9190613b3b565b611d459190613bac565b905090565b60095481565b60105481565b600d6020528060005260406000206000915090505481565b600e6020528060005260406000206000915054906101000a900460ff1681565b600a60009054906101000a900460ff1615611dde576040517f08c379a0000000000000000000000000000000000000000000000000000000008152600401611dd590613e87565b60405180910390fd5b6006546009541015611e25576040517f08c379a0000000000000000000000000000000000000000000000000000000008152600401611e1c90614210565b60405180910390fd5b611e2d612210565b611e35610cb1565b1115611e76576040517f08c379a0000000000000000000000000000000000000000000000000000000008152600401611e6d9061427c565b60405180910390fd5b6001600a60006101000a81548160ff021916908315150217905550565b7f000000000000000000000000000000000000000000000000000000000000000081565b600a60009054906101000a900460ff1615611f07576040517f08c379a0000000000000000000000000000000000000000000000000000000008152600401611efe90613e87565b60405180910390fd5b6000611f12826125eb565b905080341015611f57576040517f08c379a0000000000000000000000000000000000000000000000000000000008152600401611f4e90613ef3565b60405180910390fd5b611f5f612210565b82611f68610cb1565b611f729190613e07565b1115611fb3576040517f08c379a0000000000000000000000000000000000000000000000000000000008152600401611faa90613f5f565b60405180910390fd5b6000612710606483611fc59190613b3b565b611fcf9190613bac565b90508082611fdd9190613bdd565b60096000828254611fee9190613e07565b92505081905550611fff3384612c03565b7f77c4ff2d3de977cf4bd36aa220db7839bc74bdd1c7a1c3d47bbb34ba89d16a61600760009054906101000a900473ffffffffffffffffffffffffffffffffffffffff1682604051612052929190613feb565b60405180910390a16000600760009054906101000a900473ffffffffffffffffffffffffffffffffffffffff1673ffffffffffffffffffffffffffffffffffffffff16826040516120a290613c42565b60006040518083038185875af1925050503d80600081146120df576040519150601f19603f3d011682016040523d82523d6000602084013e6120e4565b606091505b5050905080612128576040517f08c379a000000000000000000000000000000000000000000000000000000000815260040161211f906142e8565b60405180910390fd5b82341115612183573373ffffffffffffffffffffffffffffffffffffffff166108fc84346121569190613bdd565b9081150290604051600060405180830381858888f19350505050158015612181573d6000803e3d6000fd5b505b50505050565b6000600160008473ffffffffffffffffffffffffffffffffffffffff1673ffffffffffffffffffffffffffffffffffffffff16815260200190815260200160002060008373ffffffffffffffffffffffffffffffffffffffff1673ffffffffffffffffffffffffffffffffffffffff16815260200190815260200160002054905092915050565b600061221a611298565b7f00000000000000000000000000000000000000000000000000000000000000006122459190613bdd565b905090565b600a60009054906101000a900460ff161561229a576040517f08c379a000000000000000000000000000000000000000000000000000000000815260040161229190613e87565b60405180910390fd5b600081116122dd576040517f08c379a00000000000000000000000000000000000000000000000000000000081526004016122d490614354565b60405180910390fd5b806122e73361123c565b1015612328576040517f08c379a000000000000000000000000000000000000000000000000000000000815260040161231f906143c0565b60405180910390fd5b600061233382611c32565b905080471015612378576040517f08c379a000000000000000000000000000000000000000000000000000000000815260040161236f9061442c565b60405180910390fd5b600061271060968361238a9190613b3b565b6123949190613bac565b9050600081836123a49190613bdd565b90506123b03385612dd2565b60003373ffffffffffffffffffffffffffffffffffffffff16826040516123d690613c42565b60006040518083038185875af1925050503d8060008114612413576040519150601f19603f3d011682016040523d82523d6000602084013e612418565b606091505b505090508061245c576040517f08c379a000000000000000000000000000000000000000000000000000000000815260040161245390614498565b60405180910390fd5b8160095410156124a1576040517f08c379a000000000000000000000000000000000000000000000000000000000815260040161249890614504565b60405180910390fd5b81600960008282546124b39190613bdd565b925050819055507f77c4ff2d3de977cf4bd36aa220db7839bc74bdd1c7a1c3d47bbb34ba89d16a61600760009054906101000a900473ffffffffffffffffffffffffffffffffffffffff168460405161250d929190613feb565b60405180910390a16000600760009054906101000a900473ffffffffffffffffffffffffffffffffffffffff1673ffffffffffffffffffffffffffffffffffffffff168460405161255d90613c42565b60006040518083038185875af1925050503d806000811461259a576040519150601f19603f3d011682016040523d82523d6000602084013e61259f565b606091505b50509050806125e3576040517f08c379a00000000000000000000000000000000000000000000000000000000081526004016125da906142e8565b60405180910390fd5b505050505050565b6000806125f66126ac565b90506000670de0b6b3a7640000846011546126119190613b3b565b61261b9190613bac565b826126269190613e07565b90506000600282846126389190613e07565b6126429190613bac565b90506000670de0b6b3a7640000828761265b9190613b3b565b6126659190613bac565b905080945050505050919050565b600a60009054906101000a900460ff1681565b600760009054906101000a900473ffffffffffffffffffffffffffffffffffffffff1681565b6000670de0b6b3a76400006126bf610cb1565b6011546126cc9190613b3b565b6126d69190613bac565b6010546126e39190613e07565b905090565b6126f0612c85565b600073ffffffffffffffffffffffffffffffffffffffff168173ffffffffffffffffffffffffffffffffffffffff16036127625760006040517f1e4fbdf70000000000000000000000000000000000000000000000000000000081526004016127599190613291565b60405180910390fd5b61276b81612d0c565b50565b600b5481565b600860009054906101000a900473ffffffffffffffffffffffffffffffffffffffff1673ffffffffffffffffffffffffffffffffffffffff163373ffffffffffffffffffffffffffffffffffffffff1614612804576040517f08c379a00000000000000000000000000000000000000000000000000000000081526004016127fb90613a14565b60405180910390fd5b600a60009054906101000a900460ff1615612854576040517f08c379a000000000000000000000000000000000000000000000000000000000815260040161284b90613e87565b60405180910390fd5b81819050848490501461289c576040517f08c379a000000000000000000000000000000000000000000000000000000000815260040161289390614570565b60405180910390fd5b6000805b85859050811015612a0e5760008686838181106128c0576128bf613999565b5b90506020020160208101906128d591906132e2565b905060008585848181106128ec576128eb613999565b5b9050602002013590506000600d60008473ffffffffffffffffffffffffffffffffffffffff1673ffffffffffffffffffffffffffffffffffffffff168152602001908152602001600020541480156129445750600081115b156129ad57600f829080600181540180825580915050600190039060005260206000200160009091909190916101000a81548173ffffffffffffffffffffffffffffffffffffffff021916908373ffffffffffffffffffffffffffffffffffffffff1602179055505b80600d60008473ffffffffffffffffffffffffffffffffffffffff1673ffffffffffffffffffffffffffffffffffffffff1681526020019081526020016000208190555080846129fd9190613e07565b9350505080806001019150506128a0565b50612a17611d0a565b811115612a59576040517f08c379a0000000000000000000000000000000000000000000000000000000008152600401612a50906145dc565b60405180910390fd5b5050505050565b600033905090565b612a758383836001612e54565b505050565b6000612a868484612189565b90507fffffffffffffffffffffffffffffffffffffffffffffffffffffffffffffffff811015612b095781811015612af9578281836040517ffb8f41b2000000000000000000000000000000000000000000000000000000008152600401612af0939291906145fc565b60405180910390fd5b612b0884848484036000612e54565b5b50505050565b600073ffffffffffffffffffffffffffffffffffffffff168373ffffffffffffffffffffffffffffffffffffffff1603612b815760006040517f96c6fd1e000000000000000000000000000000000000000000000000000000008152600401612b789190613291565b60405180910390fd5b600073ffffffffffffffffffffffffffffffffffffffff168273ffffffffffffffffffffffffffffffffffffffff1603612bf35760006040517fec442f05000000000000000000000000000000000000000000000000000000008152600401612bea9190613291565b60405180910390fd5b612bfe83838361302b565b505050565b600073ffffffffffffffffffffffffffffffffffffffff168273ffffffffffffffffffffffffffffffffffffffff1603612c755760006040517fec442f05000000000000000000000000000000000000000000000000000000008152600401612c6c9190613291565b60405180910390fd5b612c816000838361302b565b5050565b612c8d612a60565b73ffffffffffffffffffffffffffffffffffffffff16612cab6113ad565b73ffffffffffffffffffffffffffffffffffffffff1614612d0a57612cce612a60565b6040517f118cdaa7000000000000000000000000000000000000000000000000000000008152600401612d019190613291565b60405180910390fd5b565b6000600560009054906101000a900473ffffffffffffffffffffffffffffffffffffffff16905081600560006101000a81548173ffffffffffffffffffffffffffffffffffffffff021916908373ffffffffffffffffffffffffffffffffffffffff1602179055508173ffffffffffffffffffffffffffffffffffffffff168173ffffffffffffffffffffffffffffffffffffffff167f8be0079c531659141344cd1fd0a4f28419497f9722a3daafe3b4186f6b6457e060405160405180910390a35050565b600073ffffffffffffffffffffffffffffffffffffffff168273ffffffffffffffffffffffffffffffffffffffff1603612e445760006040517f96c6fd1e000000000000000000000000000000000000000000000000000000008152600401612e3b9190613291565b60405180910390fd5b612e508260008361302b565b5050565b600073ffffffffffffffffffffffffffffffffffffffff168473ffffffffffffffffffffffffffffffffffffffff1603612ec65760006040517fe602df05000000000000000000000000000000000000000000000000000000008152600401612ebd9190613291565b60405180910390fd5b600073ffffffffffffffffffffffffffffffffffffffff168373ffffffffffffffffffffffffffffffffffffffff1603612f385760006040517f94280d62000000000000000000000000000000000000000000000000000000008152600401612f2f9190613291565b60405180910390fd5b81600160008673ffffffffffffffffffffffffffffffffffffffff1673ffffffffffffffffffffffffffffffffffffffff16815260200190815260200160002060008573ffffffffffffffffffffffffffffffffffffffff1673ffffffffffffffffffffffffffffffffffffffff168152602001908152602001600020819055508015613025578273ffffffffffffffffffffffffffffffffffffffff168473ffffffffffffffffffffffffffffffffffffffff167f8c5be1e5ebec7d5bd14f71427d1e84f3dd0314c0f7b2291e5b200ac8c7c3b9258460405161301c9190613328565b60405180910390a35b50505050565b600073ffffffffffffffffffffffffffffffffffffffff168373ffffffffffffffffffffffffffffffffffffffff160361307d5780600260008282546130719190613e07565b92505081905550613150565b60008060008573ffffffffffffffffffffffffffffffffffffffff1673ffffffffffffffffffffffffffffffffffffffff16815260200190815260200160002054905081811015613109578381836040517fe450d38c000000000000000000000000000000000000000000000000000000008152600401613100939291906145fc565b60405180910390fd5b8181036000808673ffffffffffffffffffffffffffffffffffffffff1673ffffffffffffffffffffffffffffffffffffffff16815260200190815260200160002081905550505b600073ffffffffffffffffffffffffffffffffffffffff168273ffffffffffffffffffffffffffffffffffffffff160361319957806002600082825403925050819055506131e6565b806000808473ffffffffffffffffffffffffffffffffffffffff1673ffffffffffffffffffffffffffffffffffffffff168152602001908152602001600020600082825401925050819055505b8173ffffffffffffffffffffffffffffffffffffffff168373ffffffffffffffffffffffffffffffffffffffff167fddf252ad1be2c89b69c2b068fc378daa952ba7f163c4a11628f55a4df523b3ef836040516132439190613328565b60405180910390a3505050565b600073ffffffffffffffffffffffffffffffffffffffff82169050919050565b600061327b82613250565b9050919050565b61328b81613270565b82525050565b60006020820190506132a66000830184613282565b92915050565b600080fd5b600080fd5b6132bf81613270565b81146132ca57600080fd5b50565b6000813590506132dc816132b6565b92915050565b6000602082840312156132f8576132f76132ac565b5b6000613306848285016132cd565b91505092915050565b6000819050919050565b6133228161330f565b82525050565b600060208201905061333d6000830184613319565b92915050565b600081519050919050565b600082825260208201905092915050565b60005b8381101561337d578082015181840152602081019050613362565b60008484015250505050565b6000601f19601f8301169050919050565b60006133a582613343565b6133af818561334e565b93506133bf81856020860161335f565b6133c881613389565b840191505092915050565b600060208201905081810360008301526133ed818461339a565b905092915050565b6133fe8161330f565b811461340957600080fd5b50565b60008135905061341b816133f5565b92915050565b60008060408385031215613438576134376132ac565b5b6000613446858286016132cd565b92505060206134578582860161340c565b9150509250929050565b60008115159050919050565b61347681613461565b82525050565b6000602082019050613491600083018461346d565b92915050565b600081519050919050565b600082825260208201905092915050565b6000819050602082019050919050565b6134cc81613270565b82525050565b60006134de83836134c3565b60208301905092915050565b6000602082019050919050565b600061350282613497565b61350c81856134a2565b9350613517836134b3565b8060005b8381101561354857815161352f88826134d2565b975061353a836134ea565b92505060018101905061351b565b5085935050505092915050565b600081519050919050565b600082825260208201905092915050565b6000819050602082019050919050565b61358a8161330f565b82525050565b600061359c8383613581565b60208301905092915050565b6000602082019050919050565b60006135c082613555565b6135ca8185613560565b93506135d583613571565b8060005b838110156136065781516135ed8882613590565b97506135f8836135a8565b9250506001810190506135d9565b5085935050505092915050565b6000604082019050818103600083015261362d81856134f7565b9050818103602083015261364181846135b5565b90509392505050565b600080600060608486031215613663576136626132ac565b5b6000613671868287016132cd565b9350506020613682868287016132cd565b92505060406136938682870161340c565b9150509250925092565b600060ff82169050919050565b6136b38161369d565b82525050565b60006020820190506136ce60008301846136aa565b92915050565b6000602082840312156136ea576136e96132ac565b5b60006136f88482850161340c565b91505092915050565b600061012082019050613717600083018c613282565b613724602083018b613282565b613731604083018a613319565b61373e6060830189613319565b61374b6080830188613319565b61375860a0830187613319565b61376560c0830186613319565b61377260e083018561346d565b613780610100830184613319565b9a9950505050505050505050565b600080604083850312156137a5576137a46132ac565b5b60006137b3858286016132cd565b92505060206137c4858286016132cd565b9150509250929050565b600080fd5b600080fd5b600080fd5b60008083601f8401126137f3576137f26137ce565b5b8235905067ffffffffffffffff8111156138105761380f6137d3565b5b60208301915083602082028301111561382c5761382b6137d8565b5b9250929050565b60008083601f840112613849576138486137ce565b5b8235905067ffffffffffffffff811115613866576138656137d3565b5b602083019150836020820283011115613882576138816137d8565b5b9250929050565b600080600080604085870312156138a3576138a26132ac565b5b600085013567ffffffffffffffff8111156138c1576138c06132b1565b5b6138cd878288016137dd565b9450945050602085013567ffffffffffffffff8111156138f0576138ef6132b1565b5b6138fc87828801613833565b925092505092959194509250565b7f4e487b7100000000000000000000000000000000000000000000000000000000600052602260045260246000fd5b6000600282049050600182168061395157607f821691505b6020821081036139645761396361390a565b5b50919050565b7f4e487b7100000000000000000000000000000000000000000000000000000000600052604160045260246000fd5b7f4e487b7100000000000000000000000000000000000000000000000000000000600052603260045260246000fd5b7f4e6f742063726561746f72000000000000000000000000000000000000000000600082015250565b60006139fe600b8361334e565b9150613a09826139c8565b602082019050919050565b60006020820190508181036000830152613a2d816139f1565b9050919050565b7f4e6f7468696e6720746f20776974686472617700000000000000000000000000600082015250565b6000613a6a60138361334e565b9150613a7582613a34565b602082019050919050565b60006020820190508181036000830152613a9981613a5d565b9050919050565b7f4e6f742067726164756174656420796574000000000000000000000000000000600082015250565b6000613ad660118361334e565b9150613ae182613aa0565b602082019050919050565b60006020820190508181036000830152613b0581613ac9565b9050919050565b7f4e487b7100000000000000000000000000000000000000000000000000000000600052601160045260246000fd5b6000613b468261330f565b9150613b518361330f565b9250828202613b5f8161330f565b91508282048414831517613b7657613b75613b0c565b5b5092915050565b7f4e487b7100000000000000000000000000000000000000000000000000000000600052601260045260246000fd5b6000613bb78261330f565b9150613bc28361330f565b925082613bd257613bd1613b7d565b5b828204905092915050565b6000613be88261330f565b9150613bf38361330f565b9250828203905081811115613c0b57613c0a613b0c565b5b92915050565b600081905092915050565b50565b6000613c2c600083613c11565b9150613c3782613c1c565b600082019050919050565b6000613c4d82613c1f565b9150819050919050565b7f506c6174666f726d207769746864726177616c206661696c6564000000000000600082015250565b6000613c8d601a8361334e565b9150613c9882613c57565b602082019050919050565b60006020820190508181036000830152613cbc81613c80565b9050919050565b7f4e6f742067726164756174656400000000000000000000000000000000000000600082015250565b6000613cf9600d8361334e565b9150613d0482613cc3565b602082019050919050565b60006020820190508181036000830152613d2881613cec565b9050919050565b7f416c726561647920636c61696d65640000000000000000000000000000000000600082015250565b6000613d65600f8361334e565b9150613d7082613d2f565b602082019050919050565b60006020820190508181036000830152613d9481613d58565b9050919050565b7f4e6f20616c6c6f636174696f6e00000000000000000000000000000000000000600082015250565b6000613dd1600d8361334e565b9150613ddc82613d9b565b602082019050919050565b60006020820190508181036000830152613e0081613dc4565b9050919050565b6000613e128261330f565b9150613e1d8361330f565b9250828201905080821115613e3557613e34613b0c565b5b92915050565b7f416c726561647920677261647561746564000000000000000000000000000000600082015250565b6000613e7160118361334e565b9150613e7c82613e3b565b602082019050919050565b60006020820190508181036000830152613ea081613e64565b9050919050565b7f496e73756666696369656e74204554482073656e740000000000000000000000600082015250565b6000613edd60158361334e565b9150613ee882613ea7565b602082019050919050565b60006020820190508181036000830152613f0c81613ed0565b9050919050565b7f4578636565647320617661696c61626c6520737570706c790000000000000000600082015250565b6000613f4960188361334e565b9150613f5482613f13565b602082019050919050565b60006020820190508181036000830152613f7881613f3c565b9050919050565b7f45786365656473206c6f636b20616c6c6f636174696f6e000000000000000000600082015250565b6000613fb560178361334e565b9150613fc082613f7f565b602082019050919050565b60006020820190508181036000830152613fe481613fa8565b9050919050565b60006040820190506140006000830185613282565b61400d6020830184613319565b9392505050565b7f506c6174666f726d206665652063616c6c206661696c65640000000000000000600082015250565b600061404a60188361334e565b915061405582614014565b602082019050919050565b600060208201905081810360008301526140798161403d565b9050919050565b7f526566756e64206661696c656400000000000000000000000000000000000000600082015250565b60006140b6600d8361334e565b91506140c182614080565b602082019050919050565b600060208201905081810360008301526140e5816140a9565b9050919050565b7f4e6f206c6f636b656420746f6b656e7300000000000000000000000000000000600082015250565b600061412260108361334e565b915061412d826140ec565b602082019050919050565b6000602082019050818103600083015261415181614115565b9050919050565b7f416d6f756e74206578636565647320737570706c790000000000000000000000600082015250565b600061418e60158361334e565b915061419982614158565b602082019050919050565b600060208201905081810360008301526141bd81614181565b9050919050565b7f526169736520746172676574206e6f74206d6574000000000000000000000000600082015250565b60006141fa60148361334e565b9150614205826141c4565b602082019050919050565b60006020820190508181036000830152614229816141ed565b9050919050565b7f4d7573742072657365727665204c502f61697264726f70000000000000000000600082015250565b600061426660178361334e565b915061427182614230565b602082019050919050565b6000602082019050818103600083015261429581614259565b9050919050565b7f506c6174666f726d20666565207472616e73666572206661696c656400000000600082015250565b60006142d2601c8361334e565b91506142dd8261429c565b602082019050919050565b60006020820190508181036000830152614301816142c5565b9050919050565b7f416d6f756e74206d7573742062652067726561746572207468616e207a65726f600082015250565b600061433e60208361334e565b915061434982614308565b602082019050919050565b6000602082019050818103600083015261436d81614331565b9050919050565b7f496e73756666696369656e7420746f6b656e2062616c616e6365000000000000600082015250565b60006143aa601a8361334e565b91506143b582614374565b602082019050919050565b600060208201905081810360008301526143d98161439d565b9050919050565b7f436f6e74726163742068617320696e73756666696369656e7420455448000000600082015250565b6000614416601d8361334e565b9150614421826143e0565b602082019050919050565b6000602082019050818103600083015261444581614409565b9050919050565b7f455448207061796f7574206661696c6564000000000000000000000000000000600082015250565b600061448260118361334e565b915061448d8261444c565b602082019050919050565b600060208201905081810360008301526144b181614475565b9050919050565b7f746f74616c52616973656420756e646572666c6f770000000000000000000000600082015250565b60006144ee60158361334e565b91506144f9826144b8565b602082019050919050565b6000602082019050818103600083015261451d816144e1565b9050919050565b7f4c656e677468206d69736d617463680000000000000000000000000000000000600082015250565b600061455a600f8361334e565b915061456582614524565b602082019050919050565b600060208201905081810360008301526145898161454d565b9050919050565b7f457863656564732061697264726f702072657365727665000000000000000000600082015250565b60006145c660178361334e565b91506145d182614590565b602082019050919050565b600060208201905081810360008301526145f5816145b9565b9050919050565b60006060820190506146116000830186613282565b61461e6020830185613319565b61462b6040830184613319565b94935050505056fea264697066735822122036685aedc33e0381e51c5e417183256e21116ad199e1a0a627b53fb48cce635d64736f6c634300081c0033",
  "linkReferences": {},
  "deployedLinkReferences": {}
}