{
  "_format": "hh-sol-artifact-1",
  "contractName": "TurboToken",
  "sourceName": "contracts/TurboToken.sol",
  "abi": [
    {
      "inputs": [
        {
          "internalType": "string",
          "name": "name_",
          "type": "string"
        },
        {
          "internalType": "string",
          "name": "symbol_",
          "type": "string"
        },
        {
          "internalType": "uint256",
          "name": "raiseTarget_",
          "type": "uint256"
        },
        {
          "internalType": "address",
          "name": "creator_",
          "type": "address"
        },
        {
          "internalType": "uint256",
          "name": "maxSupply_",
          "type": "uint256"
        },
        {
          "internalType": "address",
          "name": "platformFeeRecipient_",
          "type": "address"
        }
      ],
      "stateMutability": "nonpayable",
      "type": "constructor"
    },
    {
      "inputs": [
        {
          "internalType": "address",
          "name": "spender",
          "type": "address"
        },
        {
          "internalType": "uint256",
          "name": "allowance",
          "type": "uint256"
        },
        {
          "internalType": "uint256",
          "name": "needed",
          "type": "uint256"
        }
      ],
      "name": "ERC20InsufficientAllowance",
      "type": "error"
    },
    {
      "inputs": [
        {
          "internalType": "address",
          "name": "sender",
          "type": "address"
        },
        {
          "internalType": "uint256",
          "name": "balance",
          "type": "uint256"
        },
        {
          "internalType": "uint256",
          "name": "needed",
          "type": "uint256"
        }
      ],
      "name": "ERC20InsufficientBalance",
      "type": "error"
    },
    {
      "inputs": [
        {
          "internalType": "address",
          "name": "approver",
          "type": "address"
        }
      ],
      "name": "ERC20InvalidApprover",
      "type": "error"
    },
    {
      "inputs": [
        {
          "internalType": "address",
          "name": "receiver",
          "type": "address"
        }
      ],
      "name": "ERC20InvalidReceiver",
      "type": "error"
    },
    {
      "inputs": [
        {
          "internalType": "address",
          "name": "sender",
          "type": "address"
        }
      ],
      "name": "ERC20InvalidSender",
      "type": "error"
    },
    {
      "inputs": [
        {
          "internalType": "address",
          "name": "spender",
          "type": "address"
        }
      ],
      "name": "ERC20InvalidSpender",
      "type": "error"
    },
    {
      "inputs": [
        {
          "internalType": "address",
          "name": "owner",
          "type": "address"
        }
      ],
      "name": "OwnableInvalidOwner",
      "type": "error"
    },
    {
      "inputs": [
        {
          "internalType": "address",
          "name": "account",
          "type": "address"
        }
      ],
      "name": "OwnableUnauthorizedAccount",
      "type": "error"
    },
    {
      "anonymous": false,
      "inputs": [
        {
          "indexed": true,
          "internalType": "address",
          "name": "owner",
          "type": "address"
        },
        {
          "indexed": true,
          "internalType": "address",
          "name": "spender",
          "type": "address"
        },
        {
          "indexed": false,
          "internalType": "uint256",
          "name": "value",
          "type": "uint256"
        }
      ],
      "name": "Approval",
      "type": "event"
    },
    {
      "anonymous": false,
      "inputs": [
        {
          "indexed": false,
          "internalType": "address",
          "name": "recipient",
          "type": "address"
        },
        {
          "indexed": false,
          "internalType": "uint256",
          "name": "amount",
          "type": "uint256"
        }
      ],
      "name": "FeeAttempt",
      "type": "event"
    },
    {
      "anonymous": false,
      "inputs": [
        {
          "indexed": true,
          "internalType": "address",
          "name": "previousOwner",
          "type": "address"
        },
        {
          "indexed": true,
          "internalType": "address",
          "name": "newOwner",
          "type": "address"
        }
      ],
      "name": "OwnershipTransferred",
      "type": "event"
    },
    {
      "anonymous": false,
      "inputs": [
        {
          "indexed": true,
          "internalType": "address",
          "name": "from",
          "type": "address"
        },
        {
          "indexed": true,
          "internalType": "address",
          "name": "to",
          "type": "address"
        },
        {
          "indexed": false,
          "internalType": "uint256",
          "name": "value",
          "type": "uint256"
        }
      ],
      "name": "Transfer",
      "type": "event"
    },
    {
      "inputs": [],
      "name": "LP_AND_AIRDROP_PERCENT",
      "outputs": [
        {
          "internalType": "uint256",
          "name": "",
          "type": "uint256"
        }
      ],
      "stateMutability": "view",
      "type": "function"
    },
    {
      "inputs": [
        {
          "internalType": "address",
          "name": "",
          "type": "address"
        }
      ],
      "name": "airdropAllocations",
      "outputs": [
        {
          "internalType": "uint256",
          "name": "",
          "type": "uint256"
        }
      ],
      "stateMutability": "view",
      "type": "function"
    },
    {
      "inputs": [
        {
          "internalType": "address",
          "name": "",
          "type": "address"
        }
      ],
      "name": "airdropClaimed",
      "outputs": [
        {
          "internalType": "bool",
          "name": "",
          "type": "bool"
        }
      ],
      "stateMutability": "view",
      "type": "function"
    },
    {
      "inputs": [
        {
          "internalType": "address",
          "name": "owner",
          "type": "address"
        },
        {
          "internalType": "address",
          "name": "spender",
          "type": "address"
        }
      ],
      "name": "allowance",
      "outputs": [
        {
          "internalType": "uint256",
          "name": "",
          "type": "uint256"
        }
      ],
      "stateMutability": "view",
      "type": "function"
    },
    {
      "inputs": [
        {
          "internalType": "address",
          "name": "spender",
          "type": "address"
        },
        {
          "internalType": "uint256",
          "name": "value",
          "type": "uint256"
        }
      ],
      "name": "approve",
      "outputs": [
        {
          "internalType": "bool",
          "name": "",
          "type": "bool"
        }
      ],
      "stateMutability": "nonpayable",
      "type": "function"
    },
    {
      "inputs": [
        {
          "internalType": "address",
          "name": "account",
          "type": "address"
        }
      ],
      "name": "balanceOf",
      "outputs": [
        {
          "internalType": "uint256",
          "name": "",
          "type": "uint256"
        }
      ],
      "stateMutability": "view",
      "type": "function"
    },
    {
      "inputs": [],
      "name": "basePrice",
      "outputs": [
        {
          "internalType": "uint256",
          "name": "",
          "type": "uint256"
        }
      ],
      "stateMutability": "view",
      "type": "function"
    },
    {
      "inputs": [
        {
          "internalType": "uint256",
          "name": "amount",
          "type": "uint256"
        }
      ],
      "name": "buy",
      "outputs": [],
      "stateMutability": "payable",
      "type": "function"
    },
    {
      "inputs": [],
      "name": "claimAirdrop",
      "outputs": [],
      "stateMutability": "nonpayable",
      "type": "function"
    },
    {
      "inputs": [],
      "name": "creator",
      "outputs": [
        {
          "internalType": "address",
          "name": "",
          "type": "address"
        }
      ],
      "stateMutability": "view",
      "type": "function"
    },
    {
      "inputs": [
        {
          "internalType": "uint256",
          "name": "amount",
          "type": "uint256"
        }
      ],
      "name": "creatorBuy",
      "outputs": [],
      "stateMutability": "payable",
      "type": "function"
    },
    {
      "inputs": [],
      "name": "creatorLockAmount",
      "outputs": [
        {
          "internalType": "uint256",
          "name": "",
          "type": "uint256"
        }
      ],
      "stateMutability": "view",
      "type": "function"
    },
    {
      "inputs": [],
      "name": "decimals",
      "outputs": [
        {
          "internalType": "uint8",
          "name": "",
          "type": "uint8"
        }
      ],
      "stateMutability": "view",
      "type": "function"
    },
    {
      "inputs": [],
      "name": "getCurrentPrice",
      "outputs": [
        {
          "internalType": "uint256",
          "name": "",
          "type": "uint256"
        }
      ],
      "stateMutability": "view",
      "type": "function"
    },
    {
      "inputs": [
        {
          "internalType": "uint256",
          "name": "amount",
          "type": "uint256"
        }
      ],
      "name": "getPrice",
      "outputs": [
        {
          "internalType": "uint256",
          "name": "",
          "type": "uint256"
        }
      ],
      "stateMutability": "view",
      "type": "function"
    },
    {
      "inputs": [],
      "name": "graduate",
      "outputs": [],
      "stateMutability": "nonpayable",
      "type": "function"
    },
    {
      "inputs": [],
      "name": "graduated",
      "outputs": [
        {
          "internalType": "bool",
          "name": "",
          "type": "bool"
        }
      ],
      "stateMutability": "view",
      "type": "function"
    },
    {
      "inputs": [
        {
          "internalType": "address",
          "name": "",
          "type": "address"
        }
      ],
      "name": "lockedBalances",
      "outputs": [
        {
          "internalType": "uint256",
          "name": "",
          "type": "uint256"
        }
      ],
      "stateMutability": "view",
      "type": "function"
    },
    {
      "inputs": [],
      "name": "maxSupply",
      "outputs": [
        {
          "internalType": "uint256",
          "name": "",
          "type": "uint256"
        }
      ],
      "stateMutability": "view",
      "type": "function"
    },
    {
      "inputs": [],
      "name": "maxSupplyForSale",
      "outputs": [
        {
          "internalType": "uint256",
          "name": "",
          "type": "uint256"
        }
      ],
      "stateMutability": "view",
      "type": "function"
    },
    {
      "inputs": [],
      "name": "name",
      "outputs": [
        {
          "internalType": "string",
          "name": "",
          "type": "string"
        }
      ],
      "stateMutability": "view",
      "type": "function"
    },
    {
      "inputs": [],
      "name": "owner",
      "outputs": [
        {
          "internalType": "address",
          "name": "",
          "type": "address"
        }
      ],
      "stateMutability": "view",
      "type": "function"
    },
    {
      "inputs": [],
      "name": "platformFeeRecipient",
      "outputs": [
        {
          "internalType": "address",
          "name": "",
          "type": "address"
        }
      ],
      "stateMutability": "view",
      "type": "function"
    },
    {
      "inputs": [],
      "name": "raiseTarget",
      "outputs": [
        {
          "internalType": "uint256",
          "name": "",
          "type": "uint256"
        }
      ],
      "stateMutability": "view",
      "type": "function"
    },
    {
      "inputs": [],
      "name": "renounceOwnership",
      "outputs": [],
      "stateMutability": "nonpayable",
      "type": "function"
    },
    {
      "inputs": [],
      "name": "reservedForAirdrop",
      "outputs": [
        {
          "internalType": "uint256",
          "name": "",
          "type": "uint256"
        }
      ],
      "stateMutability": "view",
      "type": "function"
    },
    {
      "inputs": [
        {
          "internalType": "address[]",
          "name": "recipients",
          "type": "address[]"
        },
        {
          "internalType": "uint256[]",
          "name": "amounts",
          "type": "uint256[]"
        }
      ],
      "name": "setAirdropAllocations",
      "outputs": [],
      "stateMutability": "nonpayable",
      "type": "function"
    },
    {
      "inputs": [],
      "name": "slope",
      "outputs": [
        {
          "internalType": "uint256",
          "name": "",
          "type": "uint256"
        }
      ],
      "stateMutability": "view",
      "type": "function"
    },
    {
      "inputs": [],
      "name": "symbol",
      "outputs": [
        {
          "internalType": "string",
          "name": "",
          "type": "string"
        }
      ],
      "stateMutability": "view",
      "type": "function"
    },
    {
      "inputs": [],
      "name": "tokenInfo",
      "outputs": [
        {
          "internalType": "address",
          "name": "_creator",
          "type": "address"
        },
        {
          "internalType": "address",
          "name": "_platformFeeRecipient",
          "type": "address"
        },
        {
          "internalType": "uint256",
          "name": "_raiseTarget",
          "type": "uint256"
        },
        {
          "internalType": "uint256",
          "name": "_maxSupply",
          "type": "uint256"
        },
        {
          "internalType": "uint256",
          "name": "_basePrice",
          "type": "uint256"
        },
        {
          "internalType": "uint256",
          "name": "_slope",
          "type": "uint256"
        },
        {
          "internalType": "uint256",
          "name": "_totalRaised",
          "type": "uint256"
        },
        {
          "internalType": "bool",
          "name": "_graduated",
          "type": "bool"
        },
        {
          "internalType": "uint256",
          "name": "_creatorLockAmount",
          "type": "uint256"
        }
      ],
      "stateMutability": "view",
      "type": "function"
    },
    {
      "inputs": [],
      "name": "totalRaised",
      "outputs": [
        {
          "internalType": "uint256",
          "name": "",
          "type": "uint256"
        }
      ],
      "stateMutability": "view",
      "type": "function"
    },
    {
      "inputs": [],
      "name": "totalSupply",
      "outputs": [
        {
          "internalType": "uint256",
          "name": "",
          "type": "uint256"
        }
      ],
      "stateMutability": "view",
      "type": "function"
    },
    {
      "inputs": [
        {
          "internalType": "address",
          "name": "to",
          "type": "address"
        },
        {
          "internalType": "uint256",
          "name": "value",
          "type": "uint256"
        }
      ],
      "name": "transfer",
      "outputs": [
        {
          "internalType": "bool",
          "name": "",
          "type": "bool"
        }
      ],
      "stateMutability": "nonpayable",
      "type": "function"
    },
    {
      "inputs": [
        {
          "internalType": "address",
          "name": "from",
          "type": "address"
        },
        {
          "internalType": "address",
          "name": "to",
          "type": "address"
        },
        {
          "internalType": "uint256",
          "name": "value",
          "type": "uint256"
        }
      ],
      "name": "transferFrom",
      "outputs": [
        {
          "internalType": "bool",
          "name": "",
          "type": "bool"
        }
      ],
      "stateMutability": "nonpayable",
      "type": "function"
    },
    {
      "inputs": [
        {
          "internalType": "address",
          "name": "newOwner",
          "type": "address"
        }
      ],
      "name": "transferOwnership",
      "outputs": [],
      "stateMutability": "nonpayable",
      "type": "function"
    },
    {
      "inputs": [],
      "name": "unlockCreatorTokens",
      "outputs": [],
      "stateMutability": "nonpayable",
      "type": "function"
    },
    {
      "inputs": [],
      "name": "withdraw",
      "outputs": [],
      "stateMutability": "nonpayable",
      "type": "function"
    },
    {
      "stateMutability": "payable",
      "type": "receive"
    }
  ],
  "bytecode": "0x60a060405234801561001057600080fd5b50604051614067380380614067833981810160405281019061003291906104ae565b8286868160039081610044919061078a565b508060049081610054919061078a565b505050600073ffffffffffffffffffffffffffffffffffffffff168173ffffffffffffffffffffffffffffffffffffffff16036100c95760006040517f1e4fbdf70000000000000000000000000000000000000000000000000000000081526004016100c0919061086b565b60405180910390fd5b6100d8816101df60201b60201c565b508360068190555082600860006101000a81548173ffffffffffffffffffffffffffffffffffffffff021916908373ffffffffffffffffffffffffffffffffffffffff160217905550816080818152505080600760006101000a81548173ffffffffffffffffffffffffffffffffffffffff021916908373ffffffffffffffffffffffffffffffffffffffff160217905550600060648361017991906108e4565b90506002816101889190610915565b670de0b6b3a76400008661019c9190610915565b6101a691906108e4565b600f8190555080670de0b6b3a7640000600f546101c39190610915565b6101cd91906108e4565b60108190555050505050505050610957565b6000600560009054906101000a900473ffffffffffffffffffffffffffffffffffffffff16905081600560006101000a81548173ffffffffffffffffffffffffffffffffffffffff021916908373ffffffffffffffffffffffffffffffffffffffff1602179055508173ffffffffffffffffffffffffffffffffffffffff168173ffffffffffffffffffffffffffffffffffffffff167f8be0079c531659141344cd1fd0a4f28419497f9722a3daafe3b4186f6b6457e060405160405180910390a35050565b6000604051905090565b600080fd5b600080fd5b600080fd5b600080fd5b6000601f19601f8301169050919050565b7f4e487b7100000000000000000000000000000000000000000000000000000000600052604160045260246000fd5b61030c826102c3565b810181811067ffffffffffffffff8211171561032b5761032a6102d4565b5b80604052505050565b600061033e6102a5565b905061034a8282610303565b919050565b600067ffffffffffffffff82111561036a576103696102d4565b5b610373826102c3565b9050602081019050919050565b60005b8381101561039e578082015181840152602081019050610383565b60008484015250505050565b60006103bd6103b88461034f565b610334565b9050828152602081018484840111156103d9576103d86102be565b5b6103e4848285610380565b509392505050565b600082601f830112610401576104006102b9565b5b81516104118482602086016103aa565b91505092915050565b6000819050919050565b61042d8161041a565b811461043857600080fd5b50565b60008151905061044a81610424565b92915050565b600073ffffffffffffffffffffffffffffffffffffffff82169050919050565b600061047b82610450565b9050919050565b61048b81610470565b811461049657600080fd5b50565b6000815190506104a881610482565b92915050565b60008060008060008060c087890312156104cb576104ca6102af565b5b600087015167ffffffffffffffff8111156104e9576104e86102b4565b5b6104f589828a016103ec565b965050602087015167ffffffffffffffff811115610516576105156102b4565b5b61052289828a016103ec565b955050604061053389828a0161043b565b945050606061054489828a01610499565b935050608061055589828a0161043b565b92505060a061056689828a01610499565b9150509295509295509295565b600081519050919050565b7f4e487b7100000000000000000000000000000000000000000000000000000000600052602260045260246000fd5b600060028204905060018216806105c557607f821691505b6020821081036105d8576105d761057e565b5b50919050565b60008190508160005260206000209050919050565b60006020601f8301049050919050565b600082821b905092915050565b6000600883026106407fffffffffffffffffffffffffffffffffffffffffffffffffffffffffffffffff82610603565b61064a8683610603565b95508019841693508086168417925050509392505050565b6000819050919050565b600061068761068261067d8461041a565b610662565b61041a565b9050919050565b6000819050919050565b6106a18361066c565b6106b56106ad8261068e565b848454610610565b825550505050565b600090565b6106ca6106bd565b6106d5818484610698565b505050565b5b818110156106f9576106ee6000826106c2565b6001810190506106db565b5050565b601f82111561073e5761070f816105de565b610718846105f3565b81016020851015610727578190505b61073b610733856105f3565b8301826106da565b50505b505050565b600082821c905092915050565b600061076160001984600802610743565b1980831691505092915050565b600061077a8383610750565b9150826002028217905092915050565b61079382610573565b67ffffffffffffffff8111156107ac576107ab6102d4565b5b6107b682546105ad565b6107c18282856106fd565b600060209050601f8311600181146107f457600084156107e2578287015190505b6107ec858261076e565b865550610854565b601f198416610802866105de565b60005b8281101561082a57848901518255600182019150602085019450602081019050610805565b868310156108475784890151610843601f891682610750565b8355505b6001600288020188555050505b505050505050565b61086581610470565b82525050565b6000602082019050610880600083018461085c565b92915050565b7f4e487b7100000000000000000000000000000000000000000000000000000000600052601260045260246000fd5b7f4e487b7100000000000000000000000000000000000000000000000000000000600052601160045260246000fd5b60006108ef8261041a565b91506108fa8361041a565b92508261090a57610909610886565b5b828204905092915050565b60006109208261041a565b915061092b8361041a565b92508282026109398161041a565b915082820484148315176109505761094f6108b5565b5b5092915050565b6080516136e061098760003960008181610e7401528181611711015281816118940152611c2301526136e06000f3fe60806040526004361061021e5760003560e01c8063b34ffc5f11610123578063d96a094a116100ab578063eb13554f1161006f578063eb13554f146107b2578063eb91d37e146107dd578063f2fde38b14610808578063f4227e9514610831578063fc6fec4c1461085c57610225565b8063d96a094a146106c6578063dd62ed3e146106e2578063e388010d1461071f578063e75722301461074a578063e7c2b7721461078757610225565b8063c7876ea4116100f2578063c7876ea4146105df578063cdbbf1861461060a578063d1b6dd3014610647578063d3618cca14610684578063d5abeb011461069b57610225565b8063b34ffc5f14610556578063b4105e0614610572578063be8755a914610589578063c5c4744c146105b457610225565b80635b88349d116101a657806383caf2751161017557806383caf2751461046d57806385131976146104985780638da5cb5b146104c357806395d89b41146104ee578063a9059cbb1461051957610225565b80635b88349d146103cf5780636addb663146103e657806370a0823114610419578063715018a61461045657610225565b806318160ddd116101ed57806318160ddd146102fa57806323b872dd1461032557806324d4de7014610362578063313ce5671461038d5780633ccfd60b146103b857610225565b806302d05d3f1461022a5780630483a7f61461025557806306fdde0314610292578063095ea7b3146102bd57610225565b3661022557005b600080fd5b34801561023657600080fd5b5061023f610885565b60405161024c91906127de565b60405180910390f35b34801561026157600080fd5b5061027c6004803603810190610277919061282f565b6108ab565b6040516102899190612875565b60405180910390f35b34801561029e57600080fd5b506102a76108c3565b6040516102b49190612920565b60405180910390f35b3480156102c957600080fd5b506102e460048036038101906102df919061296e565b610955565b6040516102f191906129c9565b60405180910390f35b34801561030657600080fd5b5061030f610978565b60405161031c9190612875565b60405180910390f35b34801561033157600080fd5b5061034c600480360381019061034791906129e4565b610982565b60405161035991906129c9565b60405180910390f35b34801561036e57600080fd5b506103776109b1565b6040516103849190612875565b60405180910390f35b34801561039957600080fd5b506103a26109b6565b6040516103af9190612a53565b60405180910390f35b3480156103c457600080fd5b506103cd6109bf565b005b3480156103db57600080fd5b506103e4610c53565b005b3480156103f257600080fd5b506103fb610e1b565b60405161041099989796959493929190612a6e565b60405180910390f35b34801561042557600080fd5b50610440600480360381019061043b919061282f565b610ecc565b60405161044d9190612875565b60405180910390f35b34801561046257600080fd5b5061046b610f14565b005b34801561047957600080fd5b50610482610f28565b60405161048f9190612875565b60405180910390f35b3480156104a457600080fd5b506104ad610f2e565b6040516104ba9190612875565b60405180910390f35b3480156104cf57600080fd5b506104d8610f34565b6040516104e591906127de565b60405180910390f35b3480156104fa57600080fd5b50610503610f5e565b6040516105109190612920565b60405180910390f35b34801561052557600080fd5b50610540600480360381019061053b919061296e565b610ff0565b60405161054d91906129c9565b60405180910390f35b610570600480360381019061056b9190612afb565b611013565b005b34801561057e57600080fd5b50610587611489565b005b34801561059557600080fd5b5061059e611709565b6040516105ab9190612875565b60405180910390f35b3480156105c057600080fd5b506105c9611749565b6040516105d69190612875565b60405180910390f35b3480156105eb57600080fd5b506105f461174f565b6040516106019190612875565b60405180910390f35b34801561061657600080fd5b50610631600480360381019061062c919061282f565b611755565b60405161063e9190612875565b60405180910390f35b34801561065357600080fd5b5061066e6004803603810190610669919061282f565b61176d565b60405161067b91906129c9565b60405180910390f35b34801561069057600080fd5b5061069961178d565b005b3480156106a757600080fd5b506106b0611892565b6040516106bd9190612875565b60405180910390f35b6106e060048036038101906106db9190612afb565b6118b6565b005b3480156106ee57600080fd5b5061070960048036038101906107049190612b28565b611b88565b6040516107169190612875565b60405180910390f35b34801561072b57600080fd5b50610734611c0f565b6040516107419190612875565b60405180910390f35b34801561075657600080fd5b50610771600480360381019061076c9190612afb565b611c5b565b60405161077e9190612875565b60405180910390f35b34801561079357600080fd5b5061079c611ced565b6040516107a991906129c9565b60405180910390f35b3480156107be57600080fd5b506107c7611d00565b6040516107d491906127de565b60405180910390f35b3480156107e957600080fd5b506107f2611d26565b6040516107ff9190612875565b60405180910390f35b34801561081457600080fd5b5061082f600480360381019061082a919061282f565b611d62565b005b34801561083d57600080fd5b50610846611de8565b6040516108539190612875565b60405180910390f35b34801561086857600080fd5b50610883600480360381019061087e9190612c23565b611dee565b005b600860009054906101000a900473ffffffffffffffffffffffffffffffffffffffff1681565b600c6020528060005260406000206000915090505481565b6060600380546108d290612cd3565b80601f01602080910402602001604051908101604052809291908181526020018280546108fe90612cd3565b801561094b5780601f106109205761010080835404028352916020019161094b565b820191906000526020600020905b81548152906001019060200180831161092e57829003601f168201915b5050505050905090565b60008061096061202f565b905061096d818585612037565b600191505092915050565b6000600254905090565b60008061098d61202f565b905061099a858285612049565b6109a58585856120de565b60019150509392505050565b601481565b60006012905090565b600860009054906101000a900473ffffffffffffffffffffffffffffffffffffffff1673ffffffffffffffffffffffffffffffffffffffff163373ffffffffffffffffffffffffffffffffffffffff1614610a4f576040517f08c379a0000000000000000000000000000000000000000000000000000000008152600401610a4690612d50565b60405180910390fd5b60004711610a92576040517f08c379a0000000000000000000000000000000000000000000000000000000008152600401610a8990612dbc565b60405180910390fd5b600a60009054906101000a900460ff16610ae1576040517f08c379a0000000000000000000000000000000000000000000000000000000008152600401610ad890612e28565b60405180910390fd5b600061271060c847610af39190612e77565b610afd9190612ee8565b905060008147610b0d9190612f19565b90506000600760009054906101000a900473ffffffffffffffffffffffffffffffffffffffff1673ffffffffffffffffffffffffffffffffffffffff1683604051610b5790612f7e565b60006040518083038185875af1925050503d8060008114610b94576040519150601f19603f3d011682016040523d82523d6000602084013e610b99565b606091505b5050905080610bdd576040517f08c379a0000000000000000000000000000000000000000000000000000000008152600401610bd490612fdf565b60405180910390fd5b600860009054906101000a900473ffffffffffffffffffffffffffffffffffffffff1673ffffffffffffffffffffffffffffffffffffffff166108fc839081150290604051600060405180830381858888f19350505050158015610c45573d6000803e3d6000fd5b506000600981905550505050565b600a60009054906101000a900460ff16610ca2576040517f08c379a0000000000000000000000000000000000000000000000000000000008152600401610c999061304b565b60405180910390fd5b600e60003373ffffffffffffffffffffffffffffffffffffffff1673ffffffffffffffffffffffffffffffffffffffff16815260200190815260200160002060009054906101000a900460ff1615610d2f576040517f08c379a0000000000000000000000000000000000000000000000000000000008152600401610d26906130b7565b60405180910390fd5b6000600d60003373ffffffffffffffffffffffffffffffffffffffff1673ffffffffffffffffffffffffffffffffffffffff16815260200190815260200160002054905060008111610db6576040517f08c379a0000000000000000000000000000000000000000000000000000000008152600401610dad90613123565b60405180910390fd5b6001600e60003373ffffffffffffffffffffffffffffffffffffffff1673ffffffffffffffffffffffffffffffffffffffff16815260200190815260200160002060006101000a81548160ff021916908315150217905550610e1833826121d2565b50565b6000806000806000806000806000600860009054906101000a900473ffffffffffffffffffffffffffffffffffffffff16600760009054906101000a900473ffffffffffffffffffffffffffffffffffffffff166006547f0000000000000000000000000000000000000000000000000000000000000000600f54601054600954600a60009054906101000a900460ff16600b54985098509850985098509850985098509850909192939495969798565b60008060008373ffffffffffffffffffffffffffffffffffffffff1673ffffffffffffffffffffffffffffffffffffffff168152602001908152602001600020549050919050565b610f1c612254565b610f2660006122db565b565b60105481565b60065481565b6000600560009054906101000a900473ffffffffffffffffffffffffffffffffffffffff16905090565b606060048054610f6d90612cd3565b80601f0160208091040260200160405190810160405280929190818152602001828054610f9990612cd3565b8015610fe65780601f10610fbb57610100808354040283529160200191610fe6565b820191906000526020600020905b815481529060010190602001808311610fc957829003601f168201915b5050505050905090565b600080610ffb61202f565b90506110088185856120de565b600191505092915050565b600860009054906101000a900473ffffffffffffffffffffffffffffffffffffffff1673ffffffffffffffffffffffffffffffffffffffff163373ffffffffffffffffffffffffffffffffffffffff16146110a3576040517f08c379a000000000000000000000000000000000000000000000000000000000815260040161109a90612d50565b60405180910390fd5b600a60009054906101000a900460ff16156110f3576040517f08c379a00000000000000000000000000000000000000000000000000000000081526004016110ea9061318f565b60405180910390fd5b60006110fe82611c5b565b905080341015611143576040517f08c379a000000000000000000000000000000000000000000000000000000000815260040161113a906131fb565b60405180910390fd5b61114b611c0f565b82611154610978565b61115e919061321b565b111561119f576040517f08c379a00000000000000000000000000000000000000000000000000000000081526004016111969061329b565b60405180910390fd5b6111a7611709565b82600c6000600860009054906101000a900473ffffffffffffffffffffffffffffffffffffffff1673ffffffffffffffffffffffffffffffffffffffff1673ffffffffffffffffffffffffffffffffffffffff16815260200190815260200160002054611214919061321b565b1115611255576040517f08c379a000000000000000000000000000000000000000000000000000000000815260040161124c90613307565b60405180910390fd5b60006127106064836112679190612e77565b6112719190612ee8565b9050808261127f9190612f19565b60096000828254611290919061321b565b925050819055506112a130846121d2565b82600c6000600860009054906101000a900473ffffffffffffffffffffffffffffffffffffffff1673ffffffffffffffffffffffffffffffffffffffff1673ffffffffffffffffffffffffffffffffffffffff1681526020019081526020016000206000828254611312919061321b565b9250508190555082600b600082825461132b919061321b565b925050819055507f77c4ff2d3de977cf4bd36aa220db7839bc74bdd1c7a1c3d47bbb34ba89d16a61600760009054906101000a900473ffffffffffffffffffffffffffffffffffffffff1682604051611385929190613327565b60405180910390a16000600760009054906101000a900473ffffffffffffffffffffffffffffffffffffffff1673ffffffffffffffffffffffffffffffffffffffff166108fc839081150290604051600060405180830381858888f19350505050905080611428576040517f08c379a000000000000000000000000000000000000000000000000000000000815260040161141f9061339c565b60405180910390fd5b82341115611483573373ffffffffffffffffffffffffffffffffffffffff166108fc84346114569190612f19565b9081150290604051600060405180830381858888f19350505050158015611481573d6000803e3d6000fd5b505b50505050565b600860009054906101000a900473ffffffffffffffffffffffffffffffffffffffff1673ffffffffffffffffffffffffffffffffffffffff163373ffffffffffffffffffffffffffffffffffffffff1614611519576040517f08c379a000000000000000000000000000000000000000000000000000000000815260040161151090612d50565b60405180910390fd5b600a60009054906101000a900460ff16611568576040517f08c379a000000000000000000000000000000000000000000000000000000000815260040161155f90612e28565b60405180910390fd5b6000600c6000600860009054906101000a900473ffffffffffffffffffffffffffffffffffffffff1673ffffffffffffffffffffffffffffffffffffffff1673ffffffffffffffffffffffffffffffffffffffff168152602001908152602001600020541161160c576040517f08c379a000000000000000000000000000000000000000000000000000000000815260040161160390613408565b60405180910390fd5b6000600c6000600860009054906101000a900473ffffffffffffffffffffffffffffffffffffffff1673ffffffffffffffffffffffffffffffffffffffff1673ffffffffffffffffffffffffffffffffffffffff1681526020019081526020016000205490506000600c6000600860009054906101000a900473ffffffffffffffffffffffffffffffffffffffff1673ffffffffffffffffffffffffffffffffffffffff1673ffffffffffffffffffffffffffffffffffffffff1681526020019081526020016000208190555061170630600860009054906101000a900473ffffffffffffffffffffffffffffffffffffffff16836120de565b50565b6000606460147f000000000000000000000000000000000000000000000000000000000000000061173a9190612e77565b6117449190612ee8565b905090565b60095481565b600f5481565b600d6020528060005260406000206000915090505481565b600e6020528060005260406000206000915054906101000a900460ff1681565b600a60009054906101000a900460ff16156117dd576040517f08c379a00000000000000000000000000000000000000000000000000000000081526004016117d49061318f565b60405180910390fd5b6006546009541015611824576040517f08c379a000000000000000000000000000000000000000000000000000000000815260040161181b90613474565b60405180910390fd5b61182c611c0f565b611834610978565b1115611875576040517f08c379a000000000000000000000000000000000000000000000000000000000815260040161186c906134e0565b60405180910390fd5b6001600a60006101000a81548160ff021916908315150217905550565b7f000000000000000000000000000000000000000000000000000000000000000081565b600a60009054906101000a900460ff1615611906576040517f08c379a00000000000000000000000000000000000000000000000000000000081526004016118fd9061318f565b60405180910390fd5b600061191182611c5b565b905080341015611956576040517f08c379a000000000000000000000000000000000000000000000000000000000815260040161194d906131fb565b60405180910390fd5b61195e611c0f565b82611967610978565b611971919061321b565b11156119b2576040517f08c379a00000000000000000000000000000000000000000000000000000000081526004016119a99061329b565b60405180910390fd5b60006127106064836119c49190612e77565b6119ce9190612ee8565b905080826119dc9190612f19565b600960008282546119ed919061321b565b925050819055506119fe33846121d2565b7f77c4ff2d3de977cf4bd36aa220db7839bc74bdd1c7a1c3d47bbb34ba89d16a61600760009054906101000a900473ffffffffffffffffffffffffffffffffffffffff1682604051611a51929190613327565b60405180910390a16000600760009054906101000a900473ffffffffffffffffffffffffffffffffffffffff1673ffffffffffffffffffffffffffffffffffffffff1682604051611aa190612f7e565b60006040518083038185875af1925050503d8060008114611ade576040519150601f19603f3d011682016040523d82523d6000602084013e611ae3565b606091505b5050905080611b27576040517f08c379a0000000000000000000000000000000000000000000000000000000008152600401611b1e9061354c565b60405180910390fd5b82341115611b82573373ffffffffffffffffffffffffffffffffffffffff166108fc8434611b559190612f19565b9081150290604051600060405180830381858888f19350505050158015611b80573d6000803e3d6000fd5b505b50505050565b6000600160008473ffffffffffffffffffffffffffffffffffffffff1673ffffffffffffffffffffffffffffffffffffffff16815260200190815260200160002060008373ffffffffffffffffffffffffffffffffffffffff1673ffffffffffffffffffffffffffffffffffffffff16815260200190815260200160002054905092915050565b6000606460146064611c219190612f19565b7f0000000000000000000000000000000000000000000000000000000000000000611c4c9190612e77565b611c569190612ee8565b905090565b600080611c66610978565b90506000600f5484611c789190612e77565b905060008285611c889190612e77565b905060006002600187611c9b9190612f19565b87611ca69190612e77565b611cb09190612ee8565b905060008183611cc0919061321b565b601054611ccd9190612e77565b905060008185611cdd919061321b565b9050809650505050505050919050565b600a60009054906101000a900460ff1681565b600760009054906101000a900473ffffffffffffffffffffffffffffffffffffffff1681565b6000670de0b6b3a7640000611d39610978565b601054611d469190612e77565b611d509190612ee8565b600f54611d5d919061321b565b905090565b611d6a612254565b600073ffffffffffffffffffffffffffffffffffffffff168173ffffffffffffffffffffffffffffffffffffffff1603611ddc5760006040517f1e4fbdf7000000000000000000000000000000000000000000000000000000008152600401611dd391906127de565b60405180910390fd5b611de5816122db565b50565b600b5481565b600860009054906101000a900473ffffffffffffffffffffffffffffffffffffffff1673ffffffffffffffffffffffffffffffffffffffff163373ffffffffffffffffffffffffffffffffffffffff1614611e7e576040517f08c379a0000000000000000000000000000000000000000000000000000000008152600401611e7590612d50565b60405180910390fd5b600a60009054906101000a900460ff1615611ece576040517f08c379a0000000000000000000000000000000000000000000000000000000008152600401611ec59061318f565b60405180910390fd5b818190508484905014611f16576040517f08c379a0000000000000000000000000000000000000000000000000000000008152600401611f0d906135b8565b60405180910390fd5b6000805b85859050811015611fdd57838382818110611f3857611f376135d8565b5b90506020020135600d6000888885818110611f5657611f556135d8565b5b9050602002016020810190611f6b919061282f565b73ffffffffffffffffffffffffffffffffffffffff1673ffffffffffffffffffffffffffffffffffffffff16815260200190815260200160002081905550838382818110611fbc57611fbb6135d8565b5b9050602002013582611fce919061321b565b91508080600101915050611f1a565b50611fe6611709565b811115612028576040517f08c379a000000000000000000000000000000000000000000000000000000000815260040161201f90613653565b60405180910390fd5b5050505050565b600033905090565b61204483838360016123a1565b505050565b60006120558484611b88565b90507fffffffffffffffffffffffffffffffffffffffffffffffffffffffffffffffff8110156120d857818110156120c8578281836040517ffb8f41b20000000000000000000000000000000000000000000000000000000081526004016120bf93929190613673565b60405180910390fd5b6120d7848484840360006123a1565b5b50505050565b600073ffffffffffffffffffffffffffffffffffffffff168373ffffffffffffffffffffffffffffffffffffffff16036121505760006040517f96c6fd1e00000000000000000000000000000000000000000000000000000000815260040161214791906127de565b60405180910390fd5b600073ffffffffffffffffffffffffffffffffffffffff168273ffffffffffffffffffffffffffffffffffffffff16036121c25760006040517fec442f050000000000000000000000000000000000000000000000000000000081526004016121b991906127de565b60405180910390fd5b6121cd838383612578565b505050565b600073ffffffffffffffffffffffffffffffffffffffff168273ffffffffffffffffffffffffffffffffffffffff16036122445760006040517fec442f0500000000000000000000000000000000000000000000000000000000815260040161223b91906127de565b60405180910390fd5b61225060008383612578565b5050565b61225c61202f565b73ffffffffffffffffffffffffffffffffffffffff1661227a610f34565b73ffffffffffffffffffffffffffffffffffffffff16146122d95761229d61202f565b6040517f118cdaa70000000000000000000000000000000000000000000000000000000081526004016122d091906127de565b60405180910390fd5b565b6000600560009054906101000a900473ffffffffffffffffffffffffffffffffffffffff16905081600560006101000a81548173ffffffffffffffffffffffffffffffffffffffff021916908373ffffffffffffffffffffffffffffffffffffffff1602179055508173ffffffffffffffffffffffffffffffffffffffff168173ffffffffffffffffffffffffffffffffffffffff167f8be0079c531659141344cd1fd0a4f28419497f9722a3daafe3b4186f6b6457e060405160405180910390a35050565b600073ffffffffffffffffffffffffffffffffffffffff168473ffffffffffffffffffffffffffffffffffffffff16036124135760006040517fe602df0500000000000000000000000000000000000000000000000000000000815260040161240a91906127de565b60405180910390fd5b600073ffffffffffffffffffffffffffffffffffffffff168373ffffffffffffffffffffffffffffffffffffffff16036124855760006040517f94280d6200000000000000000000000000000000000000000000000000000000815260040161247c91906127de565b60405180910390fd5b81600160008673ffffffffffffffffffffffffffffffffffffffff1673ffffffffffffffffffffffffffffffffffffffff16815260200190815260200160002060008573ffffffffffffffffffffffffffffffffffffffff1673ffffffffffffffffffffffffffffffffffffffff168152602001908152602001600020819055508015612572578273ffffffffffffffffffffffffffffffffffffffff168473ffffffffffffffffffffffffffffffffffffffff167f8c5be1e5ebec7d5bd14f71427d1e84f3dd0314c0f7b2291e5b200ac8c7c3b925846040516125699190612875565b60405180910390a35b50505050565b600073ffffffffffffffffffffffffffffffffffffffff168373ffffffffffffffffffffffffffffffffffffffff16036125ca5780600260008282546125be919061321b565b9250508190555061269d565b60008060008573ffffffffffffffffffffffffffffffffffffffff1673ffffffffffffffffffffffffffffffffffffffff16815260200190815260200160002054905081811015612656578381836040517fe450d38c00000000000000000000000000000000000000000000000000000000815260040161264d93929190613673565b60405180910390fd5b8181036000808673ffffffffffffffffffffffffffffffffffffffff1673ffffffffffffffffffffffffffffffffffffffff16815260200190815260200160002081905550505b600073ffffffffffffffffffffffffffffffffffffffff168273ffffffffffffffffffffffffffffffffffffffff16036126e65780600260008282540392505081905550612733565b806000808473ffffffffffffffffffffffffffffffffffffffff1673ffffffffffffffffffffffffffffffffffffffff168152602001908152602001600020600082825401925050819055505b8173ffffffffffffffffffffffffffffffffffffffff168373ffffffffffffffffffffffffffffffffffffffff167fddf252ad1be2c89b69c2b068fc378daa952ba7f163c4a11628f55a4df523b3ef836040516127909190612875565b60405180910390a3505050565b600073ffffffffffffffffffffffffffffffffffffffff82169050919050565b60006127c88261279d565b9050919050565b6127d8816127bd565b82525050565b60006020820190506127f360008301846127cf565b92915050565b600080fd5b600080fd5b61280c816127bd565b811461281757600080fd5b50565b60008135905061282981612803565b92915050565b600060208284031215612845576128446127f9565b5b60006128538482850161281a565b91505092915050565b6000819050919050565b61286f8161285c565b82525050565b600060208201905061288a6000830184612866565b92915050565b600081519050919050565b600082825260208201905092915050565b60005b838110156128ca5780820151818401526020810190506128af565b60008484015250505050565b6000601f19601f8301169050919050565b60006128f282612890565b6128fc818561289b565b935061290c8185602086016128ac565b612915816128d6565b840191505092915050565b6000602082019050818103600083015261293a81846128e7565b905092915050565b61294b8161285c565b811461295657600080fd5b50565b60008135905061296881612942565b92915050565b60008060408385031215612985576129846127f9565b5b60006129938582860161281a565b92505060206129a485828601612959565b9150509250929050565b60008115159050919050565b6129c3816129ae565b82525050565b60006020820190506129de60008301846129ba565b92915050565b6000806000606084860312156129fd576129fc6127f9565b5b6000612a0b8682870161281a565b9350506020612a1c8682870161281a565b9250506040612a2d86828701612959565b9150509250925092565b600060ff82169050919050565b612a4d81612a37565b82525050565b6000602082019050612a686000830184612a44565b92915050565b600061012082019050612a84600083018c6127cf565b612a91602083018b6127cf565b612a9e604083018a612866565b612aab6060830189612866565b612ab86080830188612866565b612ac560a0830187612866565b612ad260c0830186612866565b612adf60e08301856129ba565b612aed610100830184612866565b9a9950505050505050505050565b600060208284031215612b1157612b106127f9565b5b6000612b1f84828501612959565b91505092915050565b60008060408385031215612b3f57612b3e6127f9565b5b6000612b4d8582860161281a565b9250506020612b5e8582860161281a565b9150509250929050565b600080fd5b600080fd5b600080fd5b60008083601f840112612b8d57612b8c612b68565b5b8235905067ffffffffffffffff811115612baa57612ba9612b6d565b5b602083019150836020820283011115612bc657612bc5612b72565b5b9250929050565b60008083601f840112612be357612be2612b68565b5b8235905067ffffffffffffffff811115612c0057612bff612b6d565b5b602083019150836020820283011115612c1c57612c1b612b72565b5b9250929050565b60008060008060408587031215612c3d57612c3c6127f9565b5b600085013567ffffffffffffffff811115612c5b57612c5a6127fe565b5b612c6787828801612b77565b9450945050602085013567ffffffffffffffff811115612c8a57612c896127fe565b5b612c9687828801612bcd565b925092505092959194509250565b7f4e487b7100000000000000000000000000000000000000000000000000000000600052602260045260246000fd5b60006002820490506001821680612ceb57607f821691505b602082108103612cfe57612cfd612ca4565b5b50919050565b7f4e6f742063726561746f72000000000000000000000000000000000000000000600082015250565b6000612d3a600b8361289b565b9150612d4582612d04565b602082019050919050565b60006020820190508181036000830152612d6981612d2d565b9050919050565b7f4e6f7468696e6720746f20776974686472617700000000000000000000000000600082015250565b6000612da660138361289b565b9150612db182612d70565b602082019050919050565b60006020820190508181036000830152612dd581612d99565b9050919050565b7f4e6f742067726164756174656420796574000000000000000000000000000000600082015250565b6000612e1260118361289b565b9150612e1d82612ddc565b602082019050919050565b60006020820190508181036000830152612e4181612e05565b9050919050565b7f4e487b7100000000000000000000000000000000000000000000000000000000600052601160045260246000fd5b6000612e828261285c565b9150612e8d8361285c565b9250828202612e9b8161285c565b91508282048414831517612eb257612eb1612e48565b5b5092915050565b7f4e487b7100000000000000000000000000000000000000000000000000000000600052601260045260246000fd5b6000612ef38261285c565b9150612efe8361285c565b925082612f0e57612f0d612eb9565b5b828204905092915050565b6000612f248261285c565b9150612f2f8361285c565b9250828203905081811115612f4757612f46612e48565b5b92915050565b600081905092915050565b50565b6000612f68600083612f4d565b9150612f7382612f58565b600082019050919050565b6000612f8982612f5b565b9150819050919050565b7f506c6174666f726d207769746864726177616c206661696c6564000000000000600082015250565b6000612fc9601a8361289b565b9150612fd482612f93565b602082019050919050565b60006020820190508181036000830152612ff881612fbc565b9050919050565b7f4e6f742067726164756174656400000000000000000000000000000000000000600082015250565b6000613035600d8361289b565b915061304082612fff565b602082019050919050565b6000602082019050818103600083015261306481613028565b9050919050565b7f416c726561647920636c61696d65640000000000000000000000000000000000600082015250565b60006130a1600f8361289b565b91506130ac8261306b565b602082019050919050565b600060208201905081810360008301526130d081613094565b9050919050565b7f4e6f20616c6c6f636174696f6e00000000000000000000000000000000000000600082015250565b600061310d600d8361289b565b9150613118826130d7565b602082019050919050565b6000602082019050818103600083015261313c81613100565b9050919050565b7f416c726561647920677261647561746564000000000000000000000000000000600082015250565b600061317960118361289b565b915061318482613143565b602082019050919050565b600060208201905081810360008301526131a88161316c565b9050919050565b7f496e73756666696369656e74204554482073656e740000000000000000000000600082015250565b60006131e560158361289b565b91506131f0826131af565b602082019050919050565b60006020820190508181036000830152613214816131d8565b9050919050565b60006132268261285c565b91506132318361285c565b925082820190508082111561324957613248612e48565b5b92915050565b7f4578636565647320617661696c61626c6520737570706c790000000000000000600082015250565b600061328560188361289b565b91506132908261324f565b602082019050919050565b600060208201905081810360008301526132b481613278565b9050919050565b7f45786365656473206c6f636b20616c6c6f636174696f6e000000000000000000600082015250565b60006132f160178361289b565b91506132fc826132bb565b602082019050919050565b60006020820190508181036000830152613320816132e4565b9050919050565b600060408201905061333c60008301856127cf565b6133496020830184612866565b9392505050565b7f506c6174666f726d206665652073656e64206661696c65640000000000000000600082015250565b600061338660188361289b565b915061339182613350565b602082019050919050565b600060208201905081810360008301526133b581613379565b9050919050565b7f4e6f206c6f636b656420746f6b656e7300000000000000000000000000000000600082015250565b60006133f260108361289b565b91506133fd826133bc565b602082019050919050565b60006020820190508181036000830152613421816133e5565b9050919050565b7f526169736520746172676574206e6f74206d6574000000000000000000000000600082015250565b600061345e60148361289b565b915061346982613428565b602082019050919050565b6000602082019050818103600083015261348d81613451565b9050919050565b7f4d7573742072657365727665204c502f61697264726f70000000000000000000600082015250565b60006134ca60178361289b565b91506134d582613494565b602082019050919050565b600060208201905081810360008301526134f9816134bd565b9050919050565b7f506c6174666f726d20666565207472616e73666572206661696c656400000000600082015250565b6000613536601c8361289b565b915061354182613500565b602082019050919050565b6000602082019050818103600083015261356581613529565b9050919050565b7f4c656e677468206d69736d617463680000000000000000000000000000000000600082015250565b60006135a2600f8361289b565b91506135ad8261356c565b602082019050919050565b600060208201905081810360008301526135d181613595565b9050919050565b7f4e487b7100000000000000000000000000000000000000000000000000000000600052603260045260246000fd5b7f457863656564732061697264726f702072657365727665000000000000000000600082015250565b600061363d60178361289b565b915061364882613607565b602082019050919050565b6000602082019050818103600083015261366c81613630565b9050919050565b600060608201905061368860008301866127cf565b6136956020830185612866565b6136a26040830184612866565b94935050505056fea26469706673582212205b86ab3233a5bce955749ac15eee2a1d943fd9123519d626b30267297bfeaa9464736f6c634300081c0033",
  "linkReferences": {},
  "deployedLinkReferences": {}
}