{
  "_format": "hh-sol-artifact-1",
  "contractName": "TurboToken",
  "sourceName": "contracts/TurboToken.sol",
  "abi": [
    {
      "inputs": [
        {
          "internalType": "string",
          "name": "name_",
          "type": "string"
        },
        {
          "internalType": "string",
          "name": "symbol_",
          "type": "string"
        },
        {
          "internalType": "uint256",
          "name": "raiseTarget_",
          "type": "uint256"
        },
        {
          "internalType": "address",
          "name": "creator_",
          "type": "address"
        },
        {
          "internalType": "uint256",
          "name": "maxSupply_",
          "type": "uint256"
        },
        {
          "internalType": "address",
          "name": "platformFeeRecipient_",
          "type": "address"
        },
        {
          "internalType": "address",
          "name": "dexRouter_",
          "type": "address"
        },
        {
          "internalType": "uint16",
          "name": "minUnlockDays_",
          "type": "uint16"
        }
      ],
      "stateMutability": "nonpayable",
      "type": "constructor"
    },
    {
      "inputs": [
        {
          "internalType": "address",
          "name": "spender",
          "type": "address"
        },
        {
          "internalType": "uint256",
          "name": "allowance",
          "type": "uint256"
        },
        {
          "internalType": "uint256",
          "name": "needed",
          "type": "uint256"
        }
      ],
      "name": "ERC20InsufficientAllowance",
      "type": "error"
    },
    {
      "inputs": [
        {
          "internalType": "address",
          "name": "sender",
          "type": "address"
        },
        {
          "internalType": "uint256",
          "name": "balance",
          "type": "uint256"
        },
        {
          "internalType": "uint256",
          "name": "needed",
          "type": "uint256"
        }
      ],
      "name": "ERC20InsufficientBalance",
      "type": "error"
    },
    {
      "inputs": [
        {
          "internalType": "address",
          "name": "approver",
          "type": "address"
        }
      ],
      "name": "ERC20InvalidApprover",
      "type": "error"
    },
    {
      "inputs": [
        {
          "internalType": "address",
          "name": "receiver",
          "type": "address"
        }
      ],
      "name": "ERC20InvalidReceiver",
      "type": "error"
    },
    {
      "inputs": [
        {
          "internalType": "address",
          "name": "sender",
          "type": "address"
        }
      ],
      "name": "ERC20InvalidSender",
      "type": "error"
    },
    {
      "inputs": [
        {
          "internalType": "address",
          "name": "spender",
          "type": "address"
        }
      ],
      "name": "ERC20InvalidSpender",
      "type": "error"
    },
    {
      "inputs": [
        {
          "internalType": "address",
          "name": "owner",
          "type": "address"
        }
      ],
      "name": "OwnableInvalidOwner",
      "type": "error"
    },
    {
      "inputs": [
        {
          "internalType": "address",
          "name": "account",
          "type": "address"
        }
      ],
      "name": "OwnableUnauthorizedAccount",
      "type": "error"
    },
    {
      "inputs": [],
      "name": "ReentrancyGuardReentrantCall",
      "type": "error"
    },
    {
      "anonymous": false,
      "inputs": [
        {
          "indexed": true,
          "internalType": "address",
          "name": "owner",
          "type": "address"
        },
        {
          "indexed": true,
          "internalType": "address",
          "name": "spender",
          "type": "address"
        },
        {
          "indexed": false,
          "internalType": "uint256",
          "name": "value",
          "type": "uint256"
        }
      ],
      "name": "Approval",
      "type": "event"
    },
    {
      "anonymous": false,
      "inputs": [
        {
          "indexed": false,
          "internalType": "uint256",
          "name": "amount",
          "type": "uint256"
        }
      ],
      "name": "CreatorUnlocked",
      "type": "event"
    },
    {
      "anonymous": false,
      "inputs": [
        {
          "indexed": true,
          "internalType": "address",
          "name": "to",
          "type": "address"
        },
        {
          "indexed": false,
          "internalType": "uint256",
          "name": "amount",
          "type": "uint256"
        }
      ],
      "name": "FeesTransferred",
      "type": "event"
    },
    {
      "anonymous": false,
      "inputs": [
        {
          "indexed": true,
          "internalType": "address",
          "name": "by",
          "type": "address"
        },
        {
          "indexed": false,
          "internalType": "uint256",
          "name": "ethAddedToLP",
          "type": "uint256"
        },
        {
          "indexed": false,
          "internalType": "uint256",
          "name": "tokensAddedToLP",
          "type": "uint256"
        }
      ],
      "name": "Graduated",
      "type": "event"
    },
    {
      "anonymous": false,
      "inputs": [
        {
          "indexed": true,
          "internalType": "address",
          "name": "pair",
          "type": "address"
        },
        {
          "indexed": false,
          "internalType": "uint256",
          "name": "creatorLP",
          "type": "uint256"
        },
        {
          "indexed": false,
          "internalType": "uint256",
          "name": "platformLP",
          "type": "uint256"
        }
      ],
      "name": "LPSplit",
      "type": "event"
    },
    {
      "anonymous": false,
      "inputs": [
        {
          "indexed": true,
          "internalType": "address",
          "name": "previousOwner",
          "type": "address"
        },
        {
          "indexed": true,
          "internalType": "address",
          "name": "newOwner",
          "type": "address"
        }
      ],
      "name": "OwnershipTransferred",
      "type": "event"
    },
    {
      "anonymous": false,
      "inputs": [
        {
          "indexed": true,
          "internalType": "address",
          "name": "pair",
          "type": "address"
        },
        {
          "indexed": false,
          "internalType": "uint256",
          "name": "liquidity",
          "type": "uint256"
        }
      ],
      "name": "PoolCreated",
      "type": "event"
    },
    {
      "anonymous": false,
      "inputs": [
        {
          "indexed": true,
          "internalType": "address",
          "name": "from",
          "type": "address"
        },
        {
          "indexed": true,
          "internalType": "address",
          "name": "to",
          "type": "address"
        },
        {
          "indexed": false,
          "internalType": "uint256",
          "name": "value",
          "type": "uint256"
        }
      ],
      "name": "Transfer",
      "type": "event"
    },
    {
      "inputs": [],
      "name": "MAX_AIRDROP_BPS",
      "outputs": [
        {
          "internalType": "uint256",
          "name": "",
          "type": "uint256"
        }
      ],
      "stateMutability": "view",
      "type": "function"
    },
    {
      "inputs": [],
      "name": "MAX_CREATOR_LOCK_BPS",
      "outputs": [
        {
          "internalType": "uint256",
          "name": "",
          "type": "uint256"
        }
      ],
      "stateMutability": "view",
      "type": "function"
    },
    {
      "inputs": [],
      "name": "MAX_SALE_BPS",
      "outputs": [
        {
          "internalType": "uint256",
          "name": "",
          "type": "uint256"
        }
      ],
      "stateMutability": "view",
      "type": "function"
    },
    {
      "inputs": [
        {
          "internalType": "address",
          "name": "",
          "type": "address"
        }
      ],
      "name": "airdropAllocations",
      "outputs": [
        {
          "internalType": "uint256",
          "name": "",
          "type": "uint256"
        }
      ],
      "stateMutability": "view",
      "type": "function"
    },
    {
      "inputs": [
        {
          "internalType": "address",
          "name": "",
          "type": "address"
        }
      ],
      "name": "airdropClaimed",
      "outputs": [
        {
          "internalType": "bool",
          "name": "",
          "type": "bool"
        }
      ],
      "stateMutability": "view",
      "type": "function"
    },
    {
      "inputs": [],
      "name": "airdropFinalized",
      "outputs": [
        {
          "internalType": "bool",
          "name": "",
          "type": "bool"
        }
      ],
      "stateMutability": "view",
      "type": "function"
    },
    {
      "inputs": [
        {
          "internalType": "uint256",
          "name": "",
          "type": "uint256"
        }
      ],
      "name": "airdropRecipients",
      "outputs": [
        {
          "internalType": "address",
          "name": "",
          "type": "address"
        }
      ],
      "stateMutability": "view",
      "type": "function"
    },
    {
      "inputs": [
        {
          "internalType": "address",
          "name": "owner",
          "type": "address"
        },
        {
          "internalType": "address",
          "name": "spender",
          "type": "address"
        }
      ],
      "name": "allowance",
      "outputs": [
        {
          "internalType": "uint256",
          "name": "",
          "type": "uint256"
        }
      ],
      "stateMutability": "view",
      "type": "function"
    },
    {
      "inputs": [
        {
          "internalType": "address",
          "name": "spender",
          "type": "address"
        },
        {
          "internalType": "uint256",
          "name": "value",
          "type": "uint256"
        }
      ],
      "name": "approve",
      "outputs": [
        {
          "internalType": "bool",
          "name": "",
          "type": "bool"
        }
      ],
      "stateMutability": "nonpayable",
      "type": "function"
    },
    {
      "inputs": [
        {
          "internalType": "address",
          "name": "account",
          "type": "address"
        }
      ],
      "name": "balanceOf",
      "outputs": [
        {
          "internalType": "uint256",
          "name": "",
          "type": "uint256"
        }
      ],
      "stateMutability": "view",
      "type": "function"
    },
    {
      "inputs": [],
      "name": "basePrice",
      "outputs": [
        {
          "internalType": "uint256",
          "name": "",
          "type": "uint256"
        }
      ],
      "stateMutability": "view",
      "type": "function"
    },
    {
      "inputs": [
        {
          "internalType": "uint256",
          "name": "amount",
          "type": "uint256"
        }
      ],
      "name": "buy",
      "outputs": [],
      "stateMutability": "payable",
      "type": "function"
    },
    {
      "inputs": [],
      "name": "claimAirdrop",
      "outputs": [],
      "stateMutability": "nonpayable",
      "type": "function"
    },
    {
      "inputs": [],
      "name": "creator",
      "outputs": [
        {
          "internalType": "address",
          "name": "",
          "type": "address"
        }
      ],
      "stateMutability": "view",
      "type": "function"
    },
    {
      "inputs": [
        {
          "internalType": "uint256",
          "name": "amount",
          "type": "uint256"
        }
      ],
      "name": "creatorBuy",
      "outputs": [],
      "stateMutability": "payable",
      "type": "function"
    },
    {
      "inputs": [],
      "name": "creatorLockAmount",
      "outputs": [
        {
          "internalType": "uint256",
          "name": "",
          "type": "uint256"
        }
      ],
      "stateMutability": "view",
      "type": "function"
    },
    {
      "inputs": [],
      "name": "creatorUnlockTime",
      "outputs": [
        {
          "internalType": "uint64",
          "name": "",
          "type": "uint64"
        }
      ],
      "stateMutability": "view",
      "type": "function"
    },
    {
      "inputs": [],
      "name": "decimals",
      "outputs": [
        {
          "internalType": "uint8",
          "name": "",
          "type": "uint8"
        }
      ],
      "stateMutability": "view",
      "type": "function"
    },
    {
      "inputs": [],
      "name": "dexRouter",
      "outputs": [
        {
          "internalType": "address",
          "name": "",
          "type": "address"
        }
      ],
      "stateMutability": "view",
      "type": "function"
    },
    {
      "inputs": [],
      "name": "feesAccruedWei",
      "outputs": [
        {
          "internalType": "uint256",
          "name": "",
          "type": "uint256"
        }
      ],
      "stateMutability": "view",
      "type": "function"
    },
    {
      "inputs": [],
      "name": "finalizeIfReady",
      "outputs": [],
      "stateMutability": "nonpayable",
      "type": "function"
    },
    {
      "inputs": [],
      "name": "getAirdropAllocations",
      "outputs": [
        {
          "internalType": "address[]",
          "name": "",
          "type": "address[]"
        },
        {
          "internalType": "uint256[]",
          "name": "",
          "type": "uint256[]"
        }
      ],
      "stateMutability": "view",
      "type": "function"
    },
    {
      "inputs": [],
      "name": "getCurrentPrice",
      "outputs": [
        {
          "internalType": "uint256",
          "name": "",
          "type": "uint256"
        }
      ],
      "stateMutability": "view",
      "type": "function"
    },
    {
      "inputs": [
        {
          "internalType": "uint256",
          "name": "amount",
          "type": "uint256"
        }
      ],
      "name": "getPrice",
      "outputs": [
        {
          "internalType": "uint256",
          "name": "",
          "type": "uint256"
        }
      ],
      "stateMutability": "view",
      "type": "function"
    },
    {
      "inputs": [
        {
          "internalType": "uint256",
          "name": "amount",
          "type": "uint256"
        }
      ],
      "name": "getSellPrice",
      "outputs": [
        {
          "internalType": "uint256",
          "name": "",
          "type": "uint256"
        }
      ],
      "stateMutability": "view",
      "type": "function"
    },
    {
      "inputs": [],
      "name": "graduate",
      "outputs": [],
      "stateMutability": "nonpayable",
      "type": "function"
    },
    {
      "inputs": [],
      "name": "graduated",
      "outputs": [
        {
          "internalType": "bool",
          "name": "",
          "type": "bool"
        }
      ],
      "stateMutability": "view",
      "type": "function"
    },
    {
      "inputs": [
        {
          "internalType": "address",
          "name": "",
          "type": "address"
        }
      ],
      "name": "lockedBalances",
      "outputs": [
        {
          "internalType": "uint256",
          "name": "",
          "type": "uint256"
        }
      ],
      "stateMutability": "view",
      "type": "function"
    },
    {
      "inputs": [],
      "name": "maxAirdropSupply",
      "outputs": [
        {
          "internalType": "uint256",
          "name": "",
          "type": "uint256"
        }
      ],
      "stateMutability": "view",
      "type": "function"
    },
    {
      "inputs": [],
      "name": "maxCreatorLock",
      "outputs": [
        {
          "internalType": "uint256",
          "name": "",
          "type": "uint256"
        }
      ],
      "stateMutability": "view",
      "type": "function"
    },
    {
      "inputs": [],
      "name": "maxSaleSupply",
      "outputs": [
        {
          "internalType": "uint256",
          "name": "",
          "type": "uint256"
        }
      ],
      "stateMutability": "view",
      "type": "function"
    },
    {
      "inputs": [],
      "name": "maxSupply",
      "outputs": [
        {
          "internalType": "uint256",
          "name": "",
          "type": "uint256"
        }
      ],
      "stateMutability": "view",
      "type": "function"
    },
    {
      "inputs": [],
      "name": "minTokenAgeForUnlockSeconds",
      "outputs": [
        {
          "internalType": "uint32",
          "name": "",
          "type": "uint32"
        }
      ],
      "stateMutability": "view",
      "type": "function"
    },
    {
      "inputs": [],
      "name": "name",
      "outputs": [
        {
          "internalType": "string",
          "name": "",
          "type": "string"
        }
      ],
      "stateMutability": "view",
      "type": "function"
    },
    {
      "inputs": [],
      "name": "owner",
      "outputs": [
        {
          "internalType": "address",
          "name": "",
          "type": "address"
        }
      ],
      "stateMutability": "view",
      "type": "function"
    },
    {
      "inputs": [],
      "name": "platformFeeRecipient",
      "outputs": [
        {
          "internalType": "address",
          "name": "",
          "type": "address"
        }
      ],
      "stateMutability": "view",
      "type": "function"
    },
    {
      "inputs": [],
      "name": "raiseTarget",
      "outputs": [
        {
          "internalType": "uint256",
          "name": "",
          "type": "uint256"
        }
      ],
      "stateMutability": "view",
      "type": "function"
    },
    {
      "inputs": [],
      "name": "remainingForLP",
      "outputs": [
        {
          "internalType": "uint256",
          "name": "",
          "type": "uint256"
        }
      ],
      "stateMutability": "view",
      "type": "function"
    },
    {
      "inputs": [],
      "name": "renounceOwnership",
      "outputs": [],
      "stateMutability": "nonpayable",
      "type": "function"
    },
    {
      "inputs": [],
      "name": "reservedForAirdrop",
      "outputs": [
        {
          "internalType": "uint256",
          "name": "",
          "type": "uint256"
        }
      ],
      "stateMutability": "view",
      "type": "function"
    },
    {
      "inputs": [
        {
          "internalType": "uint256",
          "name": "amount",
          "type": "uint256"
        }
      ],
      "name": "sell",
      "outputs": [],
      "stateMutability": "nonpayable",
      "type": "function"
    },
    {
      "inputs": [
        {
          "internalType": "address[]",
          "name": "recipients",
          "type": "address[]"
        },
        {
          "internalType": "uint256[]",
          "name": "amounts",
          "type": "uint256[]"
        }
      ],
      "name": "setAirdropAllocations",
      "outputs": [],
      "stateMutability": "nonpayable",
      "type": "function"
    },
    {
      "inputs": [],
      "name": "slope",
      "outputs": [
        {
          "internalType": "uint256",
          "name": "",
          "type": "uint256"
        }
      ],
      "stateMutability": "view",
      "type": "function"
    },
    {
      "inputs": [],
      "name": "symbol",
      "outputs": [
        {
          "internalType": "string",
          "name": "",
          "type": "string"
        }
      ],
      "stateMutability": "view",
      "type": "function"
    },
    {
      "inputs": [],
      "name": "tokenInfo",
      "outputs": [
        {
          "internalType": "address",
          "name": "_creator",
          "type": "address"
        },
        {
          "internalType": "address",
          "name": "_platformFeeRecipient",
          "type": "address"
        },
        {
          "internalType": "uint256",
          "name": "_raiseTarget",
          "type": "uint256"
        },
        {
          "internalType": "uint256",
          "name": "_maxSupply",
          "type": "uint256"
        },
        {
          "internalType": "uint256",
          "name": "_basePrice",
          "type": "uint256"
        },
        {
          "internalType": "uint256",
          "name": "_slope",
          "type": "uint256"
        },
        {
          "internalType": "uint256",
          "name": "_totalRaised",
          "type": "uint256"
        },
        {
          "internalType": "bool",
          "name": "_graduated",
          "type": "bool"
        },
        {
          "internalType": "uint256",
          "name": "_creatorLockAmount",
          "type": "uint256"
        }
      ],
      "stateMutability": "view",
      "type": "function"
    },
    {
      "inputs": [],
      "name": "totalAirdropAllocated",
      "outputs": [
        {
          "internalType": "uint256",
          "name": "total",
          "type": "uint256"
        }
      ],
      "stateMutability": "view",
      "type": "function"
    },
    {
      "inputs": [],
      "name": "totalRaised",
      "outputs": [
        {
          "internalType": "uint256",
          "name": "",
          "type": "uint256"
        }
      ],
      "stateMutability": "view",
      "type": "function"
    },
    {
      "inputs": [],
      "name": "totalSupply",
      "outputs": [
        {
          "internalType": "uint256",
          "name": "",
          "type": "uint256"
        }
      ],
      "stateMutability": "view",
      "type": "function"
    },
    {
      "inputs": [
        {
          "internalType": "address",
          "name": "to",
          "type": "address"
        },
        {
          "internalType": "uint256",
          "name": "value",
          "type": "uint256"
        }
      ],
      "name": "transfer",
      "outputs": [
        {
          "internalType": "bool",
          "name": "",
          "type": "bool"
        }
      ],
      "stateMutability": "nonpayable",
      "type": "function"
    },
    {
      "inputs": [
        {
          "internalType": "address",
          "name": "from",
          "type": "address"
        },
        {
          "internalType": "address",
          "name": "to",
          "type": "address"
        },
        {
          "internalType": "uint256",
          "name": "value",
          "type": "uint256"
        }
      ],
      "name": "transferFrom",
      "outputs": [
        {
          "internalType": "bool",
          "name": "",
          "type": "bool"
        }
      ],
      "stateMutability": "nonpayable",
      "type": "function"
    },
    {
      "inputs": [
        {
          "internalType": "address",
          "name": "newOwner",
          "type": "address"
        }
      ],
      "name": "transferOwnership",
      "outputs": [],
      "stateMutability": "nonpayable",
      "type": "function"
    },
    {
      "inputs": [],
      "name": "unclaimedAirdropAmount",
      "outputs": [
        {
          "internalType": "uint256",
          "name": "total",
          "type": "uint256"
        }
      ],
      "stateMutability": "view",
      "type": "function"
    },
    {
      "inputs": [],
      "name": "unlockCreatorTokens",
      "outputs": [],
      "stateMutability": "nonpayable",
      "type": "function"
    },
    {
      "inputs": [],
      "name": "withdraw",
      "outputs": [],
      "stateMutability": "pure",
      "type": "function"
    },
    {
      "stateMutability": "payable",
      "type": "receive"
    }
  ],
  "bytecode": "0x60c060405234801561001057600080fd5b5060405161627f38038061627f833981810160405281019061003291906107b8565b84888881600390816100449190610abd565b5080600490816100549190610abd565b505050600073ffffffffffffffffffffffffffffffffffffffff168173ffffffffffffffffffffffffffffffffffffffff16036100c95760006040517f1e4fbdf70000000000000000000000000000000000000000000000000000000081526004016100c09190610b9e565b60405180910390fd5b6100d88161048260201b60201c565b506001600681905550600073ffffffffffffffffffffffffffffffffffffffff168573ffffffffffffffffffffffffffffffffffffffff1603610150576040517f08c379a000000000000000000000000000000000000000000000000000000000815260040161014790610c16565b60405180910390fd5b600073ffffffffffffffffffffffffffffffffffffffff168373ffffffffffffffffffffffffffffffffffffffff16036101bf576040517f08c379a00000000000000000000000000000000000000000000000000000000081526004016101b690610c82565b60405180910390fd5b600073ffffffffffffffffffffffffffffffffffffffff168273ffffffffffffffffffffffffffffffffffffffff160361022e576040517f08c379a000000000000000000000000000000000000000000000000000000000815260040161022590610cee565b60405180910390fd5b60028161ffff16101580156102485750601e8161ffff1611155b610287576040517f08c379a000000000000000000000000000000000000000000000000000000000815260040161027e90610d5a565b60405180910390fd5b8560078190555084600960006101000a81548173ffffffffffffffffffffffffffffffffffffffff021916908373ffffffffffffffffffffffffffffffffffffffff160217905550836080818152505082600860006101000a81548173ffffffffffffffffffffffffffffffffffffffff021916908373ffffffffffffffffffffffffffffffffffffffff1602179055508173ffffffffffffffffffffffffffffffffffffffff1660a08173ffffffffffffffffffffffffffffffffffffffff16815250506000620151808261ffff166103619190610db9565b905080600f60086101000a81548163ffffffff021916908363ffffffff1602179055508063ffffffff16426103969190610e0a565b600f60006101000a81548167ffffffffffffffff021916908367ffffffffffffffff1602179055506000612710611b58876103d19190610e46565b6103db9190610eb7565b905060006104e1905061042a670de0b6b3a76400008a60026103fd9190610e46565b6104079190610e46565b8260016104149190610ee8565b8461041f9190610e46565b61054860201b60201c565b60138190555061046c670de0b6b3a764000060135460018461044c9190610f1c565b6104569190610e46565b6104609190610e46565b8361054860201b60201c565b6014819055505050505050505050505050610f50565b6000600560009054906101000a900473ffffffffffffffffffffffffffffffffffffffff16905081600560006101000a81548173ffffffffffffffffffffffffffffffffffffffff021916908373ffffffffffffffffffffffffffffffffffffffff1602179055508173ffffffffffffffffffffffffffffffffffffffff168173ffffffffffffffffffffffffffffffffffffffff167f8be0079c531659141344cd1fd0a4f28419497f9722a3daafe3b4186f6b6457e060405160405180910390a35050565b600081600183856105599190610ee8565b6105639190610f1c565b61056d9190610eb7565b905092915050565b6000604051905090565b600080fd5b600080fd5b600080fd5b600080fd5b6000601f19601f8301169050919050565b7f4e487b7100000000000000000000000000000000000000000000000000000000600052604160045260246000fd5b6105dc82610593565b810181811067ffffffffffffffff821117156105fb576105fa6105a4565b5b80604052505050565b600061060e610575565b905061061a82826105d3565b919050565b600067ffffffffffffffff82111561063a576106396105a4565b5b61064382610593565b9050602081019050919050565b60005b8381101561066e578082015181840152602081019050610653565b60008484015250505050565b600061068d6106888461061f565b610604565b9050828152602081018484840111156106a9576106a861058e565b5b6106b4848285610650565b509392505050565b600082601f8301126106d1576106d0610589565b5b81516106e184826020860161067a565b91505092915050565b6000819050919050565b6106fd816106ea565b811461070857600080fd5b50565b60008151905061071a816106f4565b92915050565b600073ffffffffffffffffffffffffffffffffffffffff82169050919050565b600061074b82610720565b9050919050565b61075b81610740565b811461076657600080fd5b50565b60008151905061077881610752565b92915050565b600061ffff82169050919050565b6107958161077e565b81146107a057600080fd5b50565b6000815190506107b28161078c565b92915050565b600080600080600080600080610100898b0312156107d9576107d861057f565b5b600089015167ffffffffffffffff8111156107f7576107f6610584565b5b6108038b828c016106bc565b985050602089015167ffffffffffffffff81111561082457610823610584565b5b6108308b828c016106bc565b97505060406108418b828c0161070b565b96505060606108528b828c01610769565b95505060806108638b828c0161070b565b94505060a06108748b828c01610769565b93505060c06108858b828c01610769565b92505060e06108968b828c016107a3565b9150509295985092959890939650565b600081519050919050565b7f4e487b7100000000000000000000000000000000000000000000000000000000600052602260045260246000fd5b600060028204905060018216806108f857607f821691505b60208210810361090b5761090a6108b1565b5b50919050565b60008190508160005260206000209050919050565b60006020601f8301049050919050565b600082821b905092915050565b6000600883026109737fffffffffffffffffffffffffffffffffffffffffffffffffffffffffffffffff82610936565b61097d8683610936565b95508019841693508086168417925050509392505050565b6000819050919050565b60006109ba6109b56109b0846106ea565b610995565b6106ea565b9050919050565b6000819050919050565b6109d48361099f565b6109e86109e0826109c1565b848454610943565b825550505050565b600090565b6109fd6109f0565b610a088184846109cb565b505050565b5b81811015610a2c57610a216000826109f5565b600181019050610a0e565b5050565b601f821115610a7157610a4281610911565b610a4b84610926565b81016020851015610a5a578190505b610a6e610a6685610926565b830182610a0d565b50505b505050565b600082821c905092915050565b6000610a9460001984600802610a76565b1980831691505092915050565b6000610aad8383610a83565b9150826002028217905092915050565b610ac6826108a6565b67ffffffffffffffff811115610adf57610ade6105a4565b5b610ae982546108e0565b610af4828285610a30565b600060209050601f831160018114610b275760008415610b15578287015190505b610b1f8582610aa1565b865550610b87565b601f198416610b3586610911565b60005b82811015610b5d57848901518255600182019150602085019450602081019050610b38565b86831015610b7a5784890151610b76601f891682610a83565b8355505b6001600288020188555050505b505050505050565b610b9881610740565b82525050565b6000602082019050610bb36000830184610b8f565b92915050565b600082825260208201905092915050565b7f63726561746f723d300000000000000000000000000000000000000000000000600082015250565b6000610c00600983610bb9565b9150610c0b82610bca565b602082019050919050565b60006020820190508181036000830152610c2f81610bf3565b9050919050565b7f706c6174666f726d3d3000000000000000000000000000000000000000000000600082015250565b6000610c6c600a83610bb9565b9150610c7782610c36565b602082019050919050565b60006020820190508181036000830152610c9b81610c5f565b9050919050565b7f726f757465723d30000000000000000000000000000000000000000000000000600082015250565b6000610cd8600883610bb9565b9150610ce382610ca2565b602082019050919050565b60006020820190508181036000830152610d0781610ccb565b9050919050565b7f626164206d696e556e6c6f636b44617973000000000000000000000000000000600082015250565b6000610d44601183610bb9565b9150610d4f82610d0e565b602082019050919050565b60006020820190508181036000830152610d7381610d37565b9050919050565b600063ffffffff82169050919050565b7f4e487b7100000000000000000000000000000000000000000000000000000000600052601160045260246000fd5b6000610dc482610d7a565b9150610dcf83610d7a565b9250828202610ddd81610d7a565b9150808214610def57610dee610d8a565b5b5092915050565b600067ffffffffffffffff82169050919050565b6000610e1582610df6565b9150610e2083610df6565b9250828201905067ffffffffffffffff811115610e4057610e3f610d8a565b5b92915050565b6000610e51826106ea565b9150610e5c836106ea565b9250828202610e6a816106ea565b91508282048414831517610e8157610e80610d8a565b5b5092915050565b7f4e487b7100000000000000000000000000000000000000000000000000000000600052601260045260246000fd5b6000610ec2826106ea565b9150610ecd836106ea565b925082610edd57610edc610e88565b5b828204905092915050565b6000610ef3826106ea565b9150610efe836106ea565b9250828201905080821115610f1657610f15610d8a565b5b92915050565b6000610f27826106ea565b9150610f32836106ea565b9250828203905081811115610f4a57610f49610d8a565b5b92915050565b60805160a0516152d2610fad60003960008181610d62015281816131bc0152613203015260008181611329015281816114fc015281816116000152818161172b015281816120b10152818161283f015261287201526152d26000f3fe6080604052600436106103395760003560e01c80639a241247116101ab578063d3618cca116100f7578063e7c2b77211610095578063f0cf9e5a1161006f578063f0cf9e5a14610be2578063f2fde38b14610c0d578063f4227e9514610c36578063fc6fec4c14610c6157610340565b8063e7c2b77214610b61578063eb13554f14610b8c578063eb91d37e14610bb757610340565b8063dbe00340116100d1578063dbe0034014610a93578063dd62ed3e14610abe578063e4849b3214610afb578063e757223014610b2457610340565b8063d3618cca14610a35578063d5abeb0114610a4c578063d96a094a14610a7757610340565b8063b4105e0611610164578063c5c4744c1161013e578063c5c4744c14610965578063c7876ea414610990578063cdbbf186146109bb578063d1b6dd30146109f857610340565b8063b4105e06146108e6578063ba730e53146108fd578063be8755a91461093a57610340565b80639a241247146107f5578063a9059cbb14610820578063aa85be801461085d578063ae762a0e14610874578063b29418d51461089f578063b34ffc5f146108ca57610340565b80635b88349d1161028557806383caf275116102235780638da5cb5b116101fd5780638da5cb5b1461074957806391961e321461077457806395d89b411461079f57806398423182146107ca57610340565b806383caf275146106c857806385131976146106f35780638b93b0f51461071e57610340565b80636addb6631161025f5780636addb6631461061657806370a0823114610649578063715018a6146106865780638375f21b1461069d57610340565b80635b88349d14610597578063646304a1146105ae57806369437dca146105eb57610340565b80630b579f1f116102f25780631df80815116102cc5780631df80815146104ed57806323b872dd14610518578063313ce567146105555780633ccfd60b1461058057610340565b80630b579f1f1461046b57806318160ddd146104975780631d970ada146104c257610340565b806302d05d3f14610345578063040bf0dd146103705780630483a7f61461039b57806306fdde03146103d85780630758d92414610403578063095ea7b31461042e57610340565b3661034057005b600080fd5b34801561035157600080fd5b5061035a610c8a565b6040516103679190613bf5565b60405180910390f35b34801561037c57600080fd5b50610385610cb0565b6040516103929190613c29565b60405180910390f35b3480156103a757600080fd5b506103c260048036038101906103bd9190613c7a565b610cb6565b6040516103cf9190613c29565b60405180910390f35b3480156103e457600080fd5b506103ed610cce565b6040516103fa9190613d37565b60405180910390f35b34801561040f57600080fd5b50610418610d60565b6040516104259190613bf5565b60405180910390f35b34801561043a57600080fd5b5061045560048036038101906104509190613d85565b610d84565b6040516104629190613de0565b60405180910390f35b34801561047757600080fd5b50610480610da7565b60405161048e929190613f77565b60405180910390f35b3480156104a357600080fd5b506104ac610f79565b6040516104b99190613c29565b60405180910390f35b3480156104ce57600080fd5b506104d7610f83565b6040516104e49190613fcd565b60405180910390f35b3480156104f957600080fd5b50610502610f99565b60405161050f9190613c29565b60405180910390f35b34801561052457600080fd5b5061053f600480360381019061053a9190613fe8565b611050565b60405161054c9190613de0565b60405180910390f35b34801561056157600080fd5b5061056a61107f565b6040516105779190614057565b60405180910390f35b34801561058c57600080fd5b50610595611088565b005b3480156105a357600080fd5b506105ac6110c3565b005b3480156105ba57600080fd5b506105d560048036038101906105d09190614072565b61128b565b6040516105e29190613bf5565b60405180910390f35b3480156105f757600080fd5b506106006112ca565b60405161060d9190613c29565b60405180910390f35b34801561062257600080fd5b5061062b6112d0565b6040516106409998979695949392919061409f565b60405180910390f35b34801561065557600080fd5b50610670600480360381019061066b9190613c7a565b611381565b60405161067d9190613c29565b60405180910390f35b34801561069257600080fd5b5061069b6113c9565b005b3480156106a957600080fd5b506106b26113dd565b6040516106bf9190613c29565b60405180910390f35b3480156106d457600080fd5b506106dd6114e6565b6040516106ea9190613c29565b60405180910390f35b3480156106ff57600080fd5b506107086114ec565b6040516107159190613c29565b60405180910390f35b34801561072a57600080fd5b506107336114f2565b6040516107409190613c29565b60405180910390f35b34801561075557600080fd5b5061075e611534565b60405161076b9190613bf5565b60405180910390f35b34801561078057600080fd5b5061078961155e565b6040516107969190613c29565b60405180910390f35b3480156107ab57600080fd5b506107b4611564565b6040516107c19190613d37565b60405180910390f35b3480156107d657600080fd5b506107df6115f6565b6040516107ec9190613c29565b60405180910390f35b34801561080157600080fd5b5061080a611638565b6040516108179190613de0565b60405180910390f35b34801561082c57600080fd5b5061084760048036038101906108429190613d85565b611647565b6040516108549190613de0565b60405180910390f35b34801561086957600080fd5b5061087261166a565b005b34801561088057600080fd5b5061088961171b565b6040516108969190613c29565b60405180910390f35b3480156108ab57600080fd5b506108b4611721565b6040516108c19190613c29565b60405180910390f35b6108e460048036038101906108df9190614072565b611763565b005b3480156108f257600080fd5b506108fb611bb1565b005b34801561090957600080fd5b50610924600480360381019061091f9190614072565b611ed3565b6040516109319190613c29565b60405180910390f35b34801561094657600080fd5b5061094f611fab565b60405161095c9190613c29565b60405180910390f35b34801561097157600080fd5b5061097a611fba565b6040516109879190613c29565b60405180910390f35b34801561099c57600080fd5b506109a5611fc0565b6040516109b29190613c29565b60405180910390f35b3480156109c757600080fd5b506109e260048036038101906109dd9190613c7a565b611fc6565b6040516109ef9190613c29565b60405180910390f35b348015610a0457600080fd5b50610a1f6004803603810190610a1a9190613c7a565b611fde565b604051610a2c9190613de0565b60405180910390f35b348015610a4157600080fd5b50610a4a611ffe565b005b348015610a5857600080fd5b50610a616120af565b604051610a6e9190613c29565b60405180910390f35b610a916004803603810190610a8c9190614072565b6120d3565b005b348015610a9f57600080fd5b50610aa86123da565b604051610ab5919061414f565b60405180910390f35b348015610aca57600080fd5b50610ae56004803603810190610ae0919061416a565b6123f4565b604051610af29190613c29565b60405180910390f35b348015610b0757600080fd5b50610b226004803603810190610b1d9190614072565b61247b565b005b348015610b3057600080fd5b50610b4b6004803603810190610b469190614072565b61271b565b604051610b589190613c29565b60405180910390f35b348015610b6d57600080fd5b50610b766127a3565b604051610b839190613de0565b60405180910390f35b348015610b9857600080fd5b50610ba16127b6565b604051610bae9190613bf5565b60405180910390f35b348015610bc357600080fd5b50610bcc6127dc565b604051610bd99190613c29565b60405180910390f35b348015610bee57600080fd5b50610bf7612818565b604051610c049190613c29565b60405180910390f35b348015610c1957600080fd5b50610c346004803603810190610c2f9190613c7a565b6128ad565b005b348015610c4257600080fd5b50610c4b612933565b604051610c589190613c29565b60405180910390f35b348015610c6d57600080fd5b50610c886004803603810190610c839190614265565b612939565b005b600960009054906101000a900473ffffffffffffffffffffffffffffffffffffffff1681565b6103e881565b600e6020528060005260406000206000915090505481565b606060038054610cdd90614315565b80601f0160208091040260200160405190810160405280929190818152602001828054610d0990614315565b8015610d565780601f10610d2b57610100808354040283529160200191610d56565b820191906000526020600020905b815481529060010190602001808311610d3957829003601f168201915b5050505050905090565b7f000000000000000000000000000000000000000000000000000000000000000081565b600080610d8f612c1c565b9050610d9c818585612c24565b600191505092915050565b6060806000601280549050905060008167ffffffffffffffff811115610dd057610dcf614346565b5b604051908082528060200260200182016040528015610dfe5781602001602082028036833780820191505090505b50905060008267ffffffffffffffff811115610e1d57610e1c614346565b5b604051908082528060200260200182016040528015610e4b5781602001602082028036833780820191505090505b50905060005b83811015610f6b5760128181548110610e6d57610e6c614375565b5b9060005260206000200160009054906101000a900473ffffffffffffffffffffffffffffffffffffffff16838281518110610eab57610eaa614375565b5b602002602001019073ffffffffffffffffffffffffffffffffffffffff16908173ffffffffffffffffffffffffffffffffffffffff168152505060106000848381518110610efc57610efb614375565b5b602002602001015173ffffffffffffffffffffffffffffffffffffffff1673ffffffffffffffffffffffffffffffffffffffff16815260200190815260200160002054828281518110610f5257610f51614375565b5b6020026020010181815250508080600101915050610e51565b508181945094505050509091565b6000600254905090565b600f60089054906101000a900463ffffffff1681565b600080600090505b60128054905081101561104c57600060128281548110610fc457610fc3614375565b5b9060005260206000200160009054906101000a900473ffffffffffffffffffffffffffffffffffffffff169050601060008273ffffffffffffffffffffffffffffffffffffffff1673ffffffffffffffffffffffffffffffffffffffff168152602001908152602001600020548361103c91906143d3565b9250508080600101915050610fa1565b5090565b60008061105b612c1c565b9050611068858285612c36565b611073858585612ccb565b60019150509392505050565b60006012905090565b6040517f08c379a00000000000000000000000000000000000000000000000000000000081526004016110ba90614479565b60405180910390fd5b600c60009054906101000a900460ff16611112576040517f08c379a0000000000000000000000000000000000000000000000000000000008152600401611109906144e5565b60405180910390fd5b601160003373ffffffffffffffffffffffffffffffffffffffff1673ffffffffffffffffffffffffffffffffffffffff16815260200190815260200160002060009054906101000a900460ff161561119f576040517f08c379a000000000000000000000000000000000000000000000000000000000815260040161119690614551565b60405180910390fd5b6000601060003373ffffffffffffffffffffffffffffffffffffffff1673ffffffffffffffffffffffffffffffffffffffff16815260200190815260200160002054905060008111611226576040517f08c379a000000000000000000000000000000000000000000000000000000000815260040161121d906145bd565b60405180910390fd5b6001601160003373ffffffffffffffffffffffffffffffffffffffff1673ffffffffffffffffffffffffffffffffffffffff16815260200190815260200160002060006101000a81548160ff0219169083151502179055506112883382612dbf565b50565b6012818154811061129b57600080fd5b906000526020600020016000915054906101000a900473ffffffffffffffffffffffffffffffffffffffff1681565b600b5481565b6000806000806000806000806000600960009054906101000a900473ffffffffffffffffffffffffffffffffffffffff16600860009054906101000a900473ffffffffffffffffffffffffffffffffffffffff166007547f0000000000000000000000000000000000000000000000000000000000000000601354601454600a54600c60009054906101000a900460ff16600d54985098509850985098509850985098509850909192939495969798565b60008060008373ffffffffffffffffffffffffffffffffffffffff1673ffffffffffffffffffffffffffffffffffffffff168152602001908152602001600020549050919050565b6113d1612e41565b6113db6000612ec8565b565b600080600090505b6012805490508110156114e25760006012828154811061140857611407614375565b5b9060005260206000200160009054906101000a900473ffffffffffffffffffffffffffffffffffffffff169050601160008273ffffffffffffffffffffffffffffffffffffffff1673ffffffffffffffffffffffffffffffffffffffff16815260200190815260200160002060009054906101000a900460ff166114d457601060008273ffffffffffffffffffffffffffffffffffffffff1673ffffffffffffffffffffffffffffffffffffffff16815260200190815260200160002054836114d191906143d3565b92505b5080806001019150506113e5565b5090565b60145481565b60075481565b60006127106103e87f000000000000000000000000000000000000000000000000000000000000000061152591906145dd565b61152f919061464e565b905090565b6000600560009054906101000a900473ffffffffffffffffffffffffffffffffffffffff16905090565b6107d081565b60606004805461157390614315565b80601f016020809104026020016040519081016040528092919081815260200182805461159f90614315565b80156115ec5780601f106115c1576101008083540402835291602001916115ec565b820191906000526020600020905b8154815290600101906020018083116115cf57829003601f168201915b5050505050905090565b60006127106107d07f000000000000000000000000000000000000000000000000000000000000000061162991906145dd565b611633919061464e565b905090565b60008060128054905011905090565b600080611652612c1c565b905061165f818585612ccb565b600191505092915050565b611672612f8e565b600c60009054906101000a900460ff16156116c2576040517f08c379a00000000000000000000000000000000000000000000000000000000081526004016116b9906146cb565b60405180910390fd5b600754600a541015611709576040517f08c379a000000000000000000000000000000000000000000000000000000000815260040161170090614737565b60405180910390fd5b611711612fd4565b6117196136fb565b565b611b5881565b6000612710611b587f000000000000000000000000000000000000000000000000000000000000000061175491906145dd565b61175e919061464e565b905090565b600960009054906101000a900473ffffffffffffffffffffffffffffffffffffffff1673ffffffffffffffffffffffffffffffffffffffff163373ffffffffffffffffffffffffffffffffffffffff16146117f3576040517f08c379a00000000000000000000000000000000000000000000000000000000081526004016117ea906147a3565b60405180910390fd5b600c60009054906101000a900460ff1615611843576040517f08c379a000000000000000000000000000000000000000000000000000000000815260040161183a906146cb565b60405180910390fd5b61184b612f8e565b6000811161188e576040517f08c379a00000000000000000000000000000000000000000000000000000000081526004016118859061480f565b60405180910390fd5b60006118998261271b565b9050803410156118de576040517f08c379a00000000000000000000000000000000000000000000000000000000081526004016118d59061487b565b60405180910390fd5b6118e6611721565b826118ef610f79565b6118f991906143d3565b111561193a576040517f08c379a0000000000000000000000000000000000000000000000000000000008152600401611931906148e7565b60405180910390fd5b6119426115f6565b82600e6000600960009054906101000a900473ffffffffffffffffffffffffffffffffffffffff1673ffffffffffffffffffffffffffffffffffffffff1673ffffffffffffffffffffffffffffffffffffffff168152602001908152602001600020546119af91906143d3565b11156119f0576040517f08c379a00000000000000000000000000000000000000000000000000000000081526004016119e790614953565b60405180910390fd5b6000612710606483611a0291906145dd565b611a0c919061464e565b905081600a6000828254611a2091906143d3565b9250508190555080600b6000828254611a3991906143d3565b92505081905550611a4a3084612dbf565b82600e6000600960009054906101000a900473ffffffffffffffffffffffffffffffffffffffff1673ffffffffffffffffffffffffffffffffffffffff1673ffffffffffffffffffffffffffffffffffffffff1681526020019081526020016000206000828254611abb91906143d3565b9250508190555082600d6000828254611ad491906143d3565b9250508190555081341115611b9c5760003373ffffffffffffffffffffffffffffffffffffffff168334611b089190614973565b604051611b14906149d8565b60006040518083038185875af1925050503d8060008114611b51576040519150601f19603f3d011682016040523d82523d6000602084013e611b56565b606091505b5050905080611b9a576040517f08c379a0000000000000000000000000000000000000000000000000000000008152600401611b9190614a39565b60405180910390fd5b505b611ba4613705565b5050611bae6136fb565b50565b600960009054906101000a900473ffffffffffffffffffffffffffffffffffffffff1673ffffffffffffffffffffffffffffffffffffffff163373ffffffffffffffffffffffffffffffffffffffff1614611c41576040517f08c379a0000000000000000000000000000000000000000000000000000000008152600401611c38906147a3565b60405180910390fd5b611c49612f8e565b6000600e6000600960009054906101000a900473ffffffffffffffffffffffffffffffffffffffff1673ffffffffffffffffffffffffffffffffffffffff1673ffffffffffffffffffffffffffffffffffffffff1681526020019081526020016000205411611ced576040517f08c379a0000000000000000000000000000000000000000000000000000000008152600401611ce490614aa5565b60405180910390fd5b600c60009054906101000a900460ff1680611d285750600f60009054906101000a900467ffffffffffffffff1667ffffffffffffffff164210155b611d67576040517f08c379a0000000000000000000000000000000000000000000000000000000008152600401611d5e90614b11565b60405180910390fd5b6000600e6000600960009054906101000a900473ffffffffffffffffffffffffffffffffffffffff1673ffffffffffffffffffffffffffffffffffffffff1673ffffffffffffffffffffffffffffffffffffffff1681526020019081526020016000205490506000600e6000600960009054906101000a900473ffffffffffffffffffffffffffffffffffffffff1673ffffffffffffffffffffffffffffffffffffffff1673ffffffffffffffffffffffffffffffffffffffff1681526020019081526020016000208190555080600d5410611e5b5780600d6000828254611e4f9190614973565b92505081905550611e64565b6000600d819055505b611e9130600960009054906101000a900473ffffffffffffffffffffffffffffffffffffffff1683612ccb565b7fd343895567c3166ca6f92747487914c3463a28005874ca3dde7e7b0c2d86bf1581604051611ec09190613c29565b60405180910390a150611ed16136fb565b565b600080611ede610f79565b905080831115611f23576040517f08c379a0000000000000000000000000000000000000000000000000000000008152600401611f1a90614b7d565b60405180910390fd5b6000611f2d6127dc565b90506000670de0b6b3a764000085601454611f4891906145dd565b611f52919061464e565b82611f5d9190614973565b9050600060028284611f6f91906143d3565b611f79919061464e565b90506000670de0b6b3a76400008288611f9291906145dd565b611f9c919061464e565b90508095505050505050919050565b6000611fb56114f2565b905090565b600a5481565b60135481565b60106020528060005260406000206000915090505481565b60116020528060005260406000206000915054906101000a900460ff1681565b612006612f8e565b600c60009054906101000a900460ff1615612056576040517f08c379a000000000000000000000000000000000000000000000000000000000815260040161204d906146cb565b60405180910390fd5b600754600a54101561209d576040517f08c379a000000000000000000000000000000000000000000000000000000000815260040161209490614be9565b60405180910390fd5b6120a5612fd4565b6120ad6136fb565b565b7f000000000000000000000000000000000000000000000000000000000000000081565b600c60009054906101000a900460ff1615612123576040517f08c379a000000000000000000000000000000000000000000000000000000000815260040161211a906146cb565b60405180910390fd5b61212b612f8e565b6000811161216e576040517f08c379a00000000000000000000000000000000000000000000000000000000081526004016121659061480f565b60405180910390fd5b600960009054906101000a900473ffffffffffffffffffffffffffffffffffffffff1673ffffffffffffffffffffffffffffffffffffffff163373ffffffffffffffffffffffffffffffffffffffff16036121fe576040517f08c379a00000000000000000000000000000000000000000000000000000000081526004016121f590614c55565b60405180910390fd5b60006122098261271b565b90508034101561224e576040517f08c379a00000000000000000000000000000000000000000000000000000000081526004016122459061487b565b60405180910390fd5b612256611721565b8261225f610f79565b61226991906143d3565b11156122aa576040517f08c379a00000000000000000000000000000000000000000000000000000000081526004016122a1906148e7565b60405180910390fd5b60006127106064836122bc91906145dd565b6122c6919061464e565b905081600a60008282546122da91906143d3565b9250508190555080600b60008282546122f391906143d3565b925050819055506123043384612dbf565b813411156123c55760003373ffffffffffffffffffffffffffffffffffffffff1683346123319190614973565b60405161233d906149d8565b60006040518083038185875af1925050503d806000811461237a576040519150601f19603f3d011682016040523d82523d6000602084013e61237f565b606091505b50509050806123c3576040517f08c379a00000000000000000000000000000000000000000000000000000000081526004016123ba90614a39565b60405180910390fd5b505b6123cd613705565b50506123d76136fb565b50565b600f60009054906101000a900467ffffffffffffffff1681565b6000600160008473ffffffffffffffffffffffffffffffffffffffff1673ffffffffffffffffffffffffffffffffffffffff16815260200190815260200160002060008373ffffffffffffffffffffffffffffffffffffffff1673ffffffffffffffffffffffffffffffffffffffff16815260200190815260200160002054905092915050565b600c60009054906101000a900460ff16156124cb576040517f08c379a00000000000000000000000000000000000000000000000000000000081526004016124c2906146cb565b60405180910390fd5b6124d3612f8e565b60008111612516576040517f08c379a000000000000000000000000000000000000000000000000000000000815260040161250d90614cc1565b60405180910390fd5b8061252033611381565b1015612561576040517f08c379a000000000000000000000000000000000000000000000000000000000815260040161255890614d2d565b60405180910390fd5b600061256c82611ed3565b9050804710156125b1576040517f08c379a00000000000000000000000000000000000000000000000000000000081526004016125a890614d99565b60405180910390fd5b60006127106096836125c391906145dd565b6125cd919061464e565b9050600081836125dd9190614973565b90506125e93385613736565b60003373ffffffffffffffffffffffffffffffffffffffff168260405161260f906149d8565b60006040518083038185875af1925050503d806000811461264c576040519150601f19603f3d011682016040523d82523d6000602084013e612651565b606091505b5050905080612695576040517f08c379a000000000000000000000000000000000000000000000000000000000815260040161268c90614e05565b60405180910390fd5b83600a5410156126da576040517f08c379a00000000000000000000000000000000000000000000000000000000081526004016126d190614e71565b60405180910390fd5b83600a60008282546126ec9190614973565b9250508190555082600b600082825461270591906143d3565b92505081905550505050506127186136fb565b50565b6000806127266127dc565b90506000670de0b6b3a76400008460145461274191906145dd565b61274b919061464e565b8261275691906143d3565b905060006002828461276891906143d3565b612772919061464e565b90506000670de0b6b3a7640000828761278b91906145dd565b612795919061464e565b905080945050505050919050565b600c60009054906101000a900460ff1681565b600860009054906101000a900473ffffffffffffffffffffffffffffffffffffffff1681565b6000670de0b6b3a76400006127ef610f79565b6014546127fc91906145dd565b612806919061464e565b60135461281391906143d3565b905090565b600080612823610f79565b9050600061282f6113dd565b9050808261283d91906143d3565b7f00000000000000000000000000000000000000000000000000000000000000001161286e576000925050506128aa565b80827f000000000000000000000000000000000000000000000000000000000000000061289b9190614973565b6128a59190614973565b925050505b90565b6128b5612e41565b600073ffffffffffffffffffffffffffffffffffffffff168173ffffffffffffffffffffffffffffffffffffffff16036129275760006040517f1e4fbdf700000000000000000000000000000000000000000000000000000000815260040161291e9190613bf5565b60405180910390fd5b61293081612ec8565b50565b600d5481565b600960009054906101000a900473ffffffffffffffffffffffffffffffffffffffff1673ffffffffffffffffffffffffffffffffffffffff163373ffffffffffffffffffffffffffffffffffffffff16146129c9576040517f08c379a00000000000000000000000000000000000000000000000000000000081526004016129c0906147a3565b60405180910390fd5b600c60009054906101000a900460ff1615612a19576040517f08c379a0000000000000000000000000000000000000000000000000000000008152600401612a10906146cb565b60405180910390fd5b818190508484905014612a61576040517f08c379a0000000000000000000000000000000000000000000000000000000008152600401612a5890614edd565b60405180910390fd5b60005b84849050811015612bc4576000858583818110612a8457612a83614375565b5b9050602002016020810190612a999190613c7a565b90506000848484818110612ab057612aaf614375565b5b9050602002013590506000601060008473ffffffffffffffffffffffffffffffffffffffff1673ffffffffffffffffffffffffffffffffffffffff16815260200190815260200160002054148015612b085750600081115b15612b71576012829080600181540180825580915050600190039060005260206000200160009091909190916101000a81548173ffffffffffffffffffffffffffffffffffffffff021916908373ffffffffffffffffffffffffffffffffffffffff1602179055505b80601060008473ffffffffffffffffffffffffffffffffffffffff1673ffffffffffffffffffffffffffffffffffffffff1681526020019081526020016000208190555050508080600101915050612a64565b50612bcd6114f2565b612bd5610f99565b1115612c16576040517f08c379a0000000000000000000000000000000000000000000000000000000008152600401612c0d90614f49565b60405180910390fd5b50505050565b600033905090565b612c3183838360016137b8565b505050565b6000612c4284846123f4565b90507fffffffffffffffffffffffffffffffffffffffffffffffffffffffffffffffff811015612cc55781811015612cb5578281836040517ffb8f41b2000000000000000000000000000000000000000000000000000000008152600401612cac93929190614f69565b60405180910390fd5b612cc4848484840360006137b8565b5b50505050565b600073ffffffffffffffffffffffffffffffffffffffff168373ffffffffffffffffffffffffffffffffffffffff1603612d3d5760006040517f96c6fd1e000000000000000000000000000000000000000000000000000000008152600401612d349190613bf5565b60405180910390fd5b600073ffffffffffffffffffffffffffffffffffffffff168273ffffffffffffffffffffffffffffffffffffffff1603612daf5760006040517fec442f05000000000000000000000000000000000000000000000000000000008152600401612da69190613bf5565b60405180910390fd5b612dba83838361398f565b505050565b600073ffffffffffffffffffffffffffffffffffffffff168273ffffffffffffffffffffffffffffffffffffffff1603612e315760006040517fec442f05000000000000000000000000000000000000000000000000000000008152600401612e289190613bf5565b60405180910390fd5b612e3d6000838361398f565b5050565b612e49612c1c565b73ffffffffffffffffffffffffffffffffffffffff16612e67611534565b73ffffffffffffffffffffffffffffffffffffffff1614612ec657612e8a612c1c565b6040517f118cdaa7000000000000000000000000000000000000000000000000000000008152600401612ebd9190613bf5565b60405180910390fd5b565b6000600560009054906101000a900473ffffffffffffffffffffffffffffffffffffffff16905081600560006101000a81548173ffffffffffffffffffffffffffffffffffffffff021916908373ffffffffffffffffffffffffffffffffffffffff1602179055508173ffffffffffffffffffffffffffffffffffffffff168173ffffffffffffffffffffffffffffffffffffffff167f8be0079c531659141344cd1fd0a4f28419497f9722a3daafe3b4186f6b6457e060405160405180910390a35050565b600260065403612fca576040517f3ee5aeb500000000000000000000000000000000000000000000000000000000815260040160405180910390fd5b6002600681905550565b600c60009054906101000a900460ff1615613024576040517f08c379a000000000000000000000000000000000000000000000000000000000815260040161301b906146cb565b60405180910390fd5b600061302e612818565b90506001600c60006101000a81548160ff0219169083151502179055506000600b54905060008111156131a3576000600b819055506000600860009054906101000a900473ffffffffffffffffffffffffffffffffffffffff1673ffffffffffffffffffffffffffffffffffffffff16826040516130ab906149d8565b60006040518083038185875af1925050503d80600081146130e8576040519150601f19603f3d011682016040523d82523d6000602084013e6130ed565b606091505b5050905080613131576040517f08c379a000000000000000000000000000000000000000000000000000000000815260040161312890614fec565b60405180910390fd5b600860009054906101000a900473ffffffffffffffffffffffffffffffffffffffff1673ffffffffffffffffffffffffffffffffffffffff167fc812aa15be10cc23ff245a12080e7de523f13b7fd4a16277a703c4f8e3113709836040516131999190613c29565b60405180910390a2505b60008211156131e2576131b63083612dbf565b6131e1307f000000000000000000000000000000000000000000000000000000000000000084612c24565b5b60004790506000806000831180156131fa5750600085115b156136a45760007f000000000000000000000000000000000000000000000000000000000000000090508073ffffffffffffffffffffffffffffffffffffffff1663f305d719853089600080306103844261325591906143d3565b6040518863ffffffff1660e01b815260040161327696959493929190615051565b60606040518083038185885af1158015613294573d6000803e3d6000fd5b50505050506040513d601f19601f820116820180604052508101906132b991906150c7565b90915090508093505060008173ffffffffffffffffffffffffffffffffffffffff1663c45a01556040518163ffffffff1660e01b8152600401602060405180830381865afa15801561330f573d6000803e3d6000fd5b505050506040513d601f19601f82011682018060405250810190613333919061512f565b90508073ffffffffffffffffffffffffffffffffffffffff1663e6a43905308473ffffffffffffffffffffffffffffffffffffffff1663ad5c46486040518163ffffffff1660e01b8152600401602060405180830381865afa15801561339d573d6000803e3d6000fd5b505050506040513d601f19601f820116820180604052508101906133c1919061512f565b6040518363ffffffff1660e01b81526004016133de92919061515c565b602060405180830381865afa1580156133fb573d6000803e3d6000fd5b505050506040513d601f19601f8201168201806040525081019061341f919061512f565b9250600073ffffffffffffffffffffffffffffffffffffffff168373ffffffffffffffffffffffffffffffffffffffff1603613490576040517f08c379a0000000000000000000000000000000000000000000000000000000008152600401613487906151d1565b60405180910390fd5b8273ffffffffffffffffffffffffffffffffffffffff167f641e49906554552c8c33d7e09e02d1270590f405bc1da0c7b99a9c2808abdd05856040516134d69190613c29565b60405180910390a26000612710611b58866134f191906145dd565b6134fb919061464e565b90506000818661350b9190614973565b90508473ffffffffffffffffffffffffffffffffffffffff1663a9059cbb600960009054906101000a900473ffffffffffffffffffffffffffffffffffffffff16846040518363ffffffff1660e01b815260040161356a9291906151f1565b6020604051808303816000875af1158015613589573d6000803e3d6000fd5b505050506040513d601f19601f820116820180604052508101906135ad9190615246565b508473ffffffffffffffffffffffffffffffffffffffff1663a9059cbb600860009054906101000a900473ffffffffffffffffffffffffffffffffffffffff16836040518363ffffffff1660e01b815260040161360b9291906151f1565b6020604051808303816000875af115801561362a573d6000803e3d6000fd5b505050506040513d601f19601f8201168201806040525081019061364e9190615246565b508473ffffffffffffffffffffffffffffffffffffffff167fab871a7f4724bcb6daa61a02ba6f11ac923ae12ff155179a9bfffb377c7861f98383604051613697929190615273565b60405180910390a2505050505b3373ffffffffffffffffffffffffffffffffffffffff167f1c858049e704460ab9455025be4078f9e746e3fd426a56040d06389edb8197db84876040516136ec929190615273565b60405180910390a25050505050565b6001600681905550565b600c60009054906101000a900460ff161580156137265750600754600a5410155b1561373457613733612fd4565b5b565b600073ffffffffffffffffffffffffffffffffffffffff168273ffffffffffffffffffffffffffffffffffffffff16036137a85760006040517f96c6fd1e00000000000000000000000000000000000000000000000000000000815260040161379f9190613bf5565b60405180910390fd5b6137b48260008361398f565b5050565b600073ffffffffffffffffffffffffffffffffffffffff168473ffffffffffffffffffffffffffffffffffffffff160361382a5760006040517fe602df050000000000000000000000000000000000000000000000000000000081526004016138219190613bf5565b60405180910390fd5b600073ffffffffffffffffffffffffffffffffffffffff168373ffffffffffffffffffffffffffffffffffffffff160361389c5760006040517f94280d620000000000000000000000000000000000000000000000000000000081526004016138939190613bf5565b60405180910390fd5b81600160008673ffffffffffffffffffffffffffffffffffffffff1673ffffffffffffffffffffffffffffffffffffffff16815260200190815260200160002060008573ffffffffffffffffffffffffffffffffffffffff1673ffffffffffffffffffffffffffffffffffffffff168152602001908152602001600020819055508015613989578273ffffffffffffffffffffffffffffffffffffffff168473ffffffffffffffffffffffffffffffffffffffff167f8c5be1e5ebec7d5bd14f71427d1e84f3dd0314c0f7b2291e5b200ac8c7c3b925846040516139809190613c29565b60405180910390a35b50505050565b600073ffffffffffffffffffffffffffffffffffffffff168373ffffffffffffffffffffffffffffffffffffffff16036139e15780600260008282546139d591906143d3565b92505081905550613ab4565b60008060008573ffffffffffffffffffffffffffffffffffffffff1673ffffffffffffffffffffffffffffffffffffffff16815260200190815260200160002054905081811015613a6d578381836040517fe450d38c000000000000000000000000000000000000000000000000000000008152600401613a6493929190614f69565b60405180910390fd5b8181036000808673ffffffffffffffffffffffffffffffffffffffff1673ffffffffffffffffffffffffffffffffffffffff16815260200190815260200160002081905550505b600073ffffffffffffffffffffffffffffffffffffffff168273ffffffffffffffffffffffffffffffffffffffff1603613afd5780600260008282540392505081905550613b4a565b806000808473ffffffffffffffffffffffffffffffffffffffff1673ffffffffffffffffffffffffffffffffffffffff168152602001908152602001600020600082825401925050819055505b8173ffffffffffffffffffffffffffffffffffffffff168373ffffffffffffffffffffffffffffffffffffffff167fddf252ad1be2c89b69c2b068fc378daa952ba7f163c4a11628f55a4df523b3ef83604051613ba79190613c29565b60405180910390a3505050565b600073ffffffffffffffffffffffffffffffffffffffff82169050919050565b6000613bdf82613bb4565b9050919050565b613bef81613bd4565b82525050565b6000602082019050613c0a6000830184613be6565b92915050565b6000819050919050565b613c2381613c10565b82525050565b6000602082019050613c3e6000830184613c1a565b92915050565b600080fd5b600080fd5b613c5781613bd4565b8114613c6257600080fd5b50565b600081359050613c7481613c4e565b92915050565b600060208284031215613c9057613c8f613c44565b5b6000613c9e84828501613c65565b91505092915050565b600081519050919050565b600082825260208201905092915050565b60005b83811015613ce1578082015181840152602081019050613cc6565b60008484015250505050565b6000601f19601f8301169050919050565b6000613d0982613ca7565b613d138185613cb2565b9350613d23818560208601613cc3565b613d2c81613ced565b840191505092915050565b60006020820190508181036000830152613d518184613cfe565b905092915050565b613d6281613c10565b8114613d6d57600080fd5b50565b600081359050613d7f81613d59565b92915050565b60008060408385031215613d9c57613d9b613c44565b5b6000613daa85828601613c65565b9250506020613dbb85828601613d70565b9150509250929050565b60008115159050919050565b613dda81613dc5565b82525050565b6000602082019050613df56000830184613dd1565b92915050565b600081519050919050565b600082825260208201905092915050565b6000819050602082019050919050565b613e3081613bd4565b82525050565b6000613e428383613e27565b60208301905092915050565b6000602082019050919050565b6000613e6682613dfb565b613e708185613e06565b9350613e7b83613e17565b8060005b83811015613eac578151613e938882613e36565b9750613e9e83613e4e565b925050600181019050613e7f565b5085935050505092915050565b600081519050919050565b600082825260208201905092915050565b6000819050602082019050919050565b613eee81613c10565b82525050565b6000613f008383613ee5565b60208301905092915050565b6000602082019050919050565b6000613f2482613eb9565b613f2e8185613ec4565b9350613f3983613ed5565b8060005b83811015613f6a578151613f518882613ef4565b9750613f5c83613f0c565b925050600181019050613f3d565b5085935050505092915050565b60006040820190508181036000830152613f918185613e5b565b90508181036020830152613fa58184613f19565b90509392505050565b600063ffffffff82169050919050565b613fc781613fae565b82525050565b6000602082019050613fe26000830184613fbe565b92915050565b60008060006060848603121561400157614000613c44565b5b600061400f86828701613c65565b935050602061402086828701613c65565b925050604061403186828701613d70565b9150509250925092565b600060ff82169050919050565b6140518161403b565b82525050565b600060208201905061406c6000830184614048565b92915050565b60006020828403121561408857614087613c44565b5b600061409684828501613d70565b91505092915050565b6000610120820190506140b5600083018c613be6565b6140c2602083018b613be6565b6140cf604083018a613c1a565b6140dc6060830189613c1a565b6140e96080830188613c1a565b6140f660a0830187613c1a565b61410360c0830186613c1a565b61411060e0830185613dd1565b61411e610100830184613c1a565b9a9950505050505050505050565b600067ffffffffffffffff82169050919050565b6141498161412c565b82525050565b60006020820190506141646000830184614140565b92915050565b6000806040838503121561418157614180613c44565b5b600061418f85828601613c65565b92505060206141a085828601613c65565b9150509250929050565b600080fd5b600080fd5b600080fd5b60008083601f8401126141cf576141ce6141aa565b5b8235905067ffffffffffffffff8111156141ec576141eb6141af565b5b602083019150836020820283011115614208576142076141b4565b5b9250929050565b60008083601f840112614225576142246141aa565b5b8235905067ffffffffffffffff811115614242576142416141af565b5b60208301915083602082028301111561425e5761425d6141b4565b5b9250929050565b6000806000806040858703121561427f5761427e613c44565b5b600085013567ffffffffffffffff81111561429d5761429c613c49565b5b6142a9878288016141b9565b9450945050602085013567ffffffffffffffff8111156142cc576142cb613c49565b5b6142d88782880161420f565b925092505092959194509250565b7f4e487b7100000000000000000000000000000000000000000000000000000000600052602260045260246000fd5b6000600282049050600182168061432d57607f821691505b6020821081036143405761433f6142e6565b5b50919050565b7f4e487b7100000000000000000000000000000000000000000000000000000000600052604160045260246000fd5b7f4e487b7100000000000000000000000000000000000000000000000000000000600052603260045260246000fd5b7f4e487b7100000000000000000000000000000000000000000000000000000000600052601160045260246000fd5b60006143de82613c10565b91506143e983613c10565b9250828201905080821115614401576144006143a4565b5b92915050565b7f57697468647261772064697361626c65643a20455448207573656420666f722060008201527f4c502061742067726164756174696f6e00000000000000000000000000000000602082015250565b6000614463603083613cb2565b915061446e82614407565b604082019050919050565b6000602082019050818103600083015261449281614456565b9050919050565b7f4e6f742067726164756174656400000000000000000000000000000000000000600082015250565b60006144cf600d83613cb2565b91506144da82614499565b602082019050919050565b600060208201905081810360008301526144fe816144c2565b9050919050565b7f416c726561647920636c61696d65640000000000000000000000000000000000600082015250565b600061453b600f83613cb2565b915061454682614505565b602082019050919050565b6000602082019050818103600083015261456a8161452e565b9050919050565b7f4e6f20616c6c6f636174696f6e00000000000000000000000000000000000000600082015250565b60006145a7600d83613cb2565b91506145b282614571565b602082019050919050565b600060208201905081810360008301526145d68161459a565b9050919050565b60006145e882613c10565b91506145f383613c10565b925082820261460181613c10565b91508282048414831517614618576146176143a4565b5b5092915050565b7f4e487b7100000000000000000000000000000000000000000000000000000000600052601260045260246000fd5b600061465982613c10565b915061466483613c10565b9250826146745761467361461f565b5b828204905092915050565b7f416c726561647920677261647561746564000000000000000000000000000000600082015250565b60006146b5601183613cb2565b91506146c08261467f565b602082019050919050565b600060208201905081810360008301526146e4816146a8565b9050919050565b7f546172676574206e6f7420726561636865640000000000000000000000000000600082015250565b6000614721601283613cb2565b915061472c826146eb565b602082019050919050565b6000602082019050818103600083015261475081614714565b9050919050565b7f4e6f742063726561746f72000000000000000000000000000000000000000000600082015250565b600061478d600b83613cb2565b915061479882614757565b602082019050919050565b600060208201905081810360008301526147bc81614780565b9050919050565b7f616d6f756e743d30000000000000000000000000000000000000000000000000600082015250565b60006147f9600883613cb2565b9150614804826147c3565b602082019050919050565b60006020820190508181036000830152614828816147ec565b9050919050565b7f496e73756666696369656e74204554482073656e740000000000000000000000600082015250565b6000614865601583613cb2565b91506148708261482f565b602082019050919050565b6000602082019050818103600083015261489481614858565b9050919050565b7f457863656564732073616c652063617020283730252900000000000000000000600082015250565b60006148d1601683613cb2565b91506148dc8261489b565b602082019050919050565b60006020820190508181036000830152614900816148c4565b9050919050565b7f457863656564732063726561746f72206c6f636b206361702028323025290000600082015250565b600061493d601e83613cb2565b915061494882614907565b602082019050919050565b6000602082019050818103600083015261496c81614930565b9050919050565b600061497e82613c10565b915061498983613c10565b92508282039050818111156149a1576149a06143a4565b5b92915050565b600081905092915050565b50565b60006149c26000836149a7565b91506149cd826149b2565b600082019050919050565b60006149e3826149b5565b9150819050919050565b7f526566756e64206661696c656400000000000000000000000000000000000000600082015250565b6000614a23600d83613cb2565b9150614a2e826149ed565b602082019050919050565b60006020820190508181036000830152614a5281614a16565b9050919050565b7f4e6f206c6f636b656420746f6b656e7300000000000000000000000000000000600082015250565b6000614a8f601083613cb2565b9150614a9a82614a59565b602082019050919050565b60006020820190508181036000830152614abe81614a82565b9050919050565b7f4c6f636b20616374697665000000000000000000000000000000000000000000600082015250565b6000614afb600b83613cb2565b9150614b0682614ac5565b602082019050919050565b60006020820190508181036000830152614b2a81614aee565b9050919050565b7f416d6f756e74206578636565647320737570706c790000000000000000000000600082015250565b6000614b67601583613cb2565b9150614b7282614b31565b602082019050919050565b60006020820190508181036000830152614b9681614b5a565b9050919050565b7f526169736520746172676574206e6f74206d6574000000000000000000000000600082015250565b6000614bd3601483613cb2565b9150614bde82614b9d565b602082019050919050565b60006020820190508181036000830152614c0281614bc6565b9050919050565b7f43524541544f525f4d5553545f5553455f4255594c4f434b0000000000000000600082015250565b6000614c3f601883613cb2565b9150614c4a82614c09565b602082019050919050565b60006020820190508181036000830152614c6e81614c32565b9050919050565b7f416d6f756e74206d757374206265203e20300000000000000000000000000000600082015250565b6000614cab601283613cb2565b9150614cb682614c75565b602082019050919050565b60006020820190508181036000830152614cda81614c9e565b9050919050565b7f496e73756666696369656e7420746f6b656e2062616c616e6365000000000000600082015250565b6000614d17601a83613cb2565b9150614d2282614ce1565b602082019050919050565b60006020820190508181036000830152614d4681614d0a565b9050919050565b7f436f6e74726163742068617320696e73756666696369656e7420455448000000600082015250565b6000614d83601d83613cb2565b9150614d8e82614d4d565b602082019050919050565b60006020820190508181036000830152614db281614d76565b9050919050565b7f455448207061796f7574206661696c6564000000000000000000000000000000600082015250565b6000614def601183613cb2565b9150614dfa82614db9565b602082019050919050565b60006020820190508181036000830152614e1e81614de2565b9050919050565b7f746f74616c52616973656420756e646572666c6f770000000000000000000000600082015250565b6000614e5b601583613cb2565b9150614e6682614e25565b602082019050919050565b60006020820190508181036000830152614e8a81614e4e565b9050919050565b7f4c656e677468206d69736d617463680000000000000000000000000000000000600082015250565b6000614ec7600f83613cb2565b9150614ed282614e91565b602082019050919050565b60006020820190508181036000830152614ef681614eba565b9050919050565b7f457863656564732061697264726f702031302520636170000000000000000000600082015250565b6000614f33601783613cb2565b9150614f3e82614efd565b602082019050919050565b60006020820190508181036000830152614f6281614f26565b9050919050565b6000606082019050614f7e6000830186613be6565b614f8b6020830185613c1a565b614f986040830184613c1a565b949350505050565b7f466565207472616e73666572206661696c656400000000000000000000000000600082015250565b6000614fd6601383613cb2565b9150614fe182614fa0565b602082019050919050565b6000602082019050818103600083015261500581614fc9565b9050919050565b6000819050919050565b6000819050919050565b600061503b6150366150318461500c565b615016565b613c10565b9050919050565b61504b81615020565b82525050565b600060c0820190506150666000830189613be6565b6150736020830188613c1a565b6150806040830187615042565b61508d6060830186615042565b61509a6080830185613be6565b6150a760a0830184613c1a565b979650505050505050565b6000815190506150c181613d59565b92915050565b6000806000606084860312156150e0576150df613c44565b5b60006150ee868287016150b2565b93505060206150ff868287016150b2565b9250506040615110868287016150b2565b9150509250925092565b60008151905061512981613c4e565b92915050565b60006020828403121561514557615144613c44565b5b60006151538482850161511a565b91505092915050565b60006040820190506151716000830185613be6565b61517e6020830184613be6565b9392505050565b7f50616972206e6f74206372656174656400000000000000000000000000000000600082015250565b60006151bb601083613cb2565b91506151c682615185565b602082019050919050565b600060208201905081810360008301526151ea816151ae565b9050919050565b60006040820190506152066000830185613be6565b6152136020830184613c1a565b9392505050565b61522381613dc5565b811461522e57600080fd5b50565b6000815190506152408161521a565b92915050565b60006020828403121561525c5761525b613c44565b5b600061526a84828501615231565b91505092915050565b60006040820190506152886000830185613c1a565b6152956020830184613c1a565b939250505056fea264697066735822122054e4a9170fdd4b41a2f8b0c04c5ab15388c72086cd8a3ef3cd3c52fa61b2f43e64736f6c634300081c0033",
  "linkReferences": {},
  "deployedLinkReferences": {}
}