{
  "_format": "hh-sol-artifact-1",
  "contractName": "TurboToken",
  "sourceName": "contracts/TurboToken.sol",
  "abi": [
    {
      "inputs": [
        {
          "internalType": "string",
          "name": "name_",
          "type": "string"
        },
        {
          "internalType": "string",
          "name": "symbol_",
          "type": "string"
        },
        {
          "internalType": "uint256",
          "name": "raiseTarget_",
          "type": "uint256"
        },
        {
          "internalType": "address",
          "name": "creator_",
          "type": "address"
        },
        {
          "internalType": "uint256",
          "name": "maxSupply_",
          "type": "uint256"
        },
        {
          "internalType": "address",
          "name": "platformFeeRecipient_",
          "type": "address"
        }
      ],
      "stateMutability": "nonpayable",
      "type": "constructor"
    },
    {
      "inputs": [
        {
          "internalType": "address",
          "name": "spender",
          "type": "address"
        },
        {
          "internalType": "uint256",
          "name": "allowance",
          "type": "uint256"
        },
        {
          "internalType": "uint256",
          "name": "needed",
          "type": "uint256"
        }
      ],
      "name": "ERC20InsufficientAllowance",
      "type": "error"
    },
    {
      "inputs": [
        {
          "internalType": "address",
          "name": "sender",
          "type": "address"
        },
        {
          "internalType": "uint256",
          "name": "balance",
          "type": "uint256"
        },
        {
          "internalType": "uint256",
          "name": "needed",
          "type": "uint256"
        }
      ],
      "name": "ERC20InsufficientBalance",
      "type": "error"
    },
    {
      "inputs": [
        {
          "internalType": "address",
          "name": "approver",
          "type": "address"
        }
      ],
      "name": "ERC20InvalidApprover",
      "type": "error"
    },
    {
      "inputs": [
        {
          "internalType": "address",
          "name": "receiver",
          "type": "address"
        }
      ],
      "name": "ERC20InvalidReceiver",
      "type": "error"
    },
    {
      "inputs": [
        {
          "internalType": "address",
          "name": "sender",
          "type": "address"
        }
      ],
      "name": "ERC20InvalidSender",
      "type": "error"
    },
    {
      "inputs": [
        {
          "internalType": "address",
          "name": "spender",
          "type": "address"
        }
      ],
      "name": "ERC20InvalidSpender",
      "type": "error"
    },
    {
      "inputs": [
        {
          "internalType": "address",
          "name": "owner",
          "type": "address"
        }
      ],
      "name": "OwnableInvalidOwner",
      "type": "error"
    },
    {
      "inputs": [
        {
          "internalType": "address",
          "name": "account",
          "type": "address"
        }
      ],
      "name": "OwnableUnauthorizedAccount",
      "type": "error"
    },
    {
      "anonymous": false,
      "inputs": [
        {
          "indexed": true,
          "internalType": "address",
          "name": "owner",
          "type": "address"
        },
        {
          "indexed": true,
          "internalType": "address",
          "name": "spender",
          "type": "address"
        },
        {
          "indexed": false,
          "internalType": "uint256",
          "name": "value",
          "type": "uint256"
        }
      ],
      "name": "Approval",
      "type": "event"
    },
    {
      "anonymous": false,
      "inputs": [
        {
          "indexed": false,
          "internalType": "address",
          "name": "recipient",
          "type": "address"
        },
        {
          "indexed": false,
          "internalType": "uint256",
          "name": "amount",
          "type": "uint256"
        }
      ],
      "name": "FeeAttempt",
      "type": "event"
    },
    {
      "anonymous": false,
      "inputs": [
        {
          "indexed": true,
          "internalType": "address",
          "name": "previousOwner",
          "type": "address"
        },
        {
          "indexed": true,
          "internalType": "address",
          "name": "newOwner",
          "type": "address"
        }
      ],
      "name": "OwnershipTransferred",
      "type": "event"
    },
    {
      "anonymous": false,
      "inputs": [
        {
          "indexed": true,
          "internalType": "address",
          "name": "from",
          "type": "address"
        },
        {
          "indexed": true,
          "internalType": "address",
          "name": "to",
          "type": "address"
        },
        {
          "indexed": false,
          "internalType": "uint256",
          "name": "value",
          "type": "uint256"
        }
      ],
      "name": "Transfer",
      "type": "event"
    },
    {
      "inputs": [],
      "name": "LP_AND_AIRDROP_PERCENT",
      "outputs": [
        {
          "internalType": "uint256",
          "name": "",
          "type": "uint256"
        }
      ],
      "stateMutability": "view",
      "type": "function"
    },
    {
      "inputs": [
        {
          "internalType": "address",
          "name": "",
          "type": "address"
        }
      ],
      "name": "airdropAllocations",
      "outputs": [
        {
          "internalType": "uint256",
          "name": "",
          "type": "uint256"
        }
      ],
      "stateMutability": "view",
      "type": "function"
    },
    {
      "inputs": [
        {
          "internalType": "address",
          "name": "",
          "type": "address"
        }
      ],
      "name": "airdropClaimed",
      "outputs": [
        {
          "internalType": "bool",
          "name": "",
          "type": "bool"
        }
      ],
      "stateMutability": "view",
      "type": "function"
    },
    {
      "inputs": [],
      "name": "airdropFinalized",
      "outputs": [
        {
          "internalType": "bool",
          "name": "",
          "type": "bool"
        }
      ],
      "stateMutability": "view",
      "type": "function"
    },
    {
      "inputs": [
        {
          "internalType": "uint256",
          "name": "",
          "type": "uint256"
        }
      ],
      "name": "airdropRecipients",
      "outputs": [
        {
          "internalType": "address",
          "name": "",
          "type": "address"
        }
      ],
      "stateMutability": "view",
      "type": "function"
    },
    {
      "inputs": [
        {
          "internalType": "address",
          "name": "owner",
          "type": "address"
        },
        {
          "internalType": "address",
          "name": "spender",
          "type": "address"
        }
      ],
      "name": "allowance",
      "outputs": [
        {
          "internalType": "uint256",
          "name": "",
          "type": "uint256"
        }
      ],
      "stateMutability": "view",
      "type": "function"
    },
    {
      "inputs": [
        {
          "internalType": "address",
          "name": "spender",
          "type": "address"
        },
        {
          "internalType": "uint256",
          "name": "value",
          "type": "uint256"
        }
      ],
      "name": "approve",
      "outputs": [
        {
          "internalType": "bool",
          "name": "",
          "type": "bool"
        }
      ],
      "stateMutability": "nonpayable",
      "type": "function"
    },
    {
      "inputs": [
        {
          "internalType": "address",
          "name": "account",
          "type": "address"
        }
      ],
      "name": "balanceOf",
      "outputs": [
        {
          "internalType": "uint256",
          "name": "",
          "type": "uint256"
        }
      ],
      "stateMutability": "view",
      "type": "function"
    },
    {
      "inputs": [],
      "name": "basePrice",
      "outputs": [
        {
          "internalType": "uint256",
          "name": "",
          "type": "uint256"
        }
      ],
      "stateMutability": "view",
      "type": "function"
    },
    {
      "inputs": [
        {
          "internalType": "uint256",
          "name": "amount",
          "type": "uint256"
        }
      ],
      "name": "buy",
      "outputs": [],
      "stateMutability": "payable",
      "type": "function"
    },
    {
      "inputs": [],
      "name": "claimAirdrop",
      "outputs": [],
      "stateMutability": "nonpayable",
      "type": "function"
    },
    {
      "inputs": [],
      "name": "creator",
      "outputs": [
        {
          "internalType": "address",
          "name": "",
          "type": "address"
        }
      ],
      "stateMutability": "view",
      "type": "function"
    },
    {
      "inputs": [
        {
          "internalType": "uint256",
          "name": "amount",
          "type": "uint256"
        }
      ],
      "name": "creatorBuy",
      "outputs": [],
      "stateMutability": "payable",
      "type": "function"
    },
    {
      "inputs": [],
      "name": "creatorLockAmount",
      "outputs": [
        {
          "internalType": "uint256",
          "name": "",
          "type": "uint256"
        }
      ],
      "stateMutability": "view",
      "type": "function"
    },
    {
      "inputs": [],
      "name": "decimals",
      "outputs": [
        {
          "internalType": "uint8",
          "name": "",
          "type": "uint8"
        }
      ],
      "stateMutability": "view",
      "type": "function"
    },
    {
      "inputs": [],
      "name": "getAirdropAllocations",
      "outputs": [
        {
          "internalType": "address[]",
          "name": "",
          "type": "address[]"
        },
        {
          "internalType": "uint256[]",
          "name": "",
          "type": "uint256[]"
        }
      ],
      "stateMutability": "view",
      "type": "function"
    },
    {
      "inputs": [],
      "name": "getCurrentPrice",
      "outputs": [
        {
          "internalType": "uint256",
          "name": "",
          "type": "uint256"
        }
      ],
      "stateMutability": "view",
      "type": "function"
    },
    {
      "inputs": [
        {
          "internalType": "uint256",
          "name": "amount",
          "type": "uint256"
        }
      ],
      "name": "getPrice",
      "outputs": [
        {
          "internalType": "uint256",
          "name": "",
          "type": "uint256"
        }
      ],
      "stateMutability": "view",
      "type": "function"
    },
    {
      "inputs": [],
      "name": "graduate",
      "outputs": [],
      "stateMutability": "nonpayable",
      "type": "function"
    },
    {
      "inputs": [],
      "name": "graduated",
      "outputs": [
        {
          "internalType": "bool",
          "name": "",
          "type": "bool"
        }
      ],
      "stateMutability": "view",
      "type": "function"
    },
    {
      "inputs": [
        {
          "internalType": "address",
          "name": "",
          "type": "address"
        }
      ],
      "name": "lockedBalances",
      "outputs": [
        {
          "internalType": "uint256",
          "name": "",
          "type": "uint256"
        }
      ],
      "stateMutability": "view",
      "type": "function"
    },
    {
      "inputs": [],
      "name": "maxSupply",
      "outputs": [
        {
          "internalType": "uint256",
          "name": "",
          "type": "uint256"
        }
      ],
      "stateMutability": "view",
      "type": "function"
    },
    {
      "inputs": [],
      "name": "maxSupplyForSale",
      "outputs": [
        {
          "internalType": "uint256",
          "name": "",
          "type": "uint256"
        }
      ],
      "stateMutability": "view",
      "type": "function"
    },
    {
      "inputs": [],
      "name": "name",
      "outputs": [
        {
          "internalType": "string",
          "name": "",
          "type": "string"
        }
      ],
      "stateMutability": "view",
      "type": "function"
    },
    {
      "inputs": [],
      "name": "owner",
      "outputs": [
        {
          "internalType": "address",
          "name": "",
          "type": "address"
        }
      ],
      "stateMutability": "view",
      "type": "function"
    },
    {
      "inputs": [],
      "name": "platformFeeRecipient",
      "outputs": [
        {
          "internalType": "address",
          "name": "",
          "type": "address"
        }
      ],
      "stateMutability": "view",
      "type": "function"
    },
    {
      "inputs": [],
      "name": "raiseTarget",
      "outputs": [
        {
          "internalType": "uint256",
          "name": "",
          "type": "uint256"
        }
      ],
      "stateMutability": "view",
      "type": "function"
    },
    {
      "inputs": [],
      "name": "renounceOwnership",
      "outputs": [],
      "stateMutability": "nonpayable",
      "type": "function"
    },
    {
      "inputs": [],
      "name": "reservedForAirdrop",
      "outputs": [
        {
          "internalType": "uint256",
          "name": "",
          "type": "uint256"
        }
      ],
      "stateMutability": "view",
      "type": "function"
    },
    {
      "inputs": [
        {
          "internalType": "address[]",
          "name": "recipients",
          "type": "address[]"
        },
        {
          "internalType": "uint256[]",
          "name": "amounts",
          "type": "uint256[]"
        }
      ],
      "name": "setAirdropAllocations",
      "outputs": [],
      "stateMutability": "nonpayable",
      "type": "function"
    },
    {
      "inputs": [],
      "name": "slope",
      "outputs": [
        {
          "internalType": "uint256",
          "name": "",
          "type": "uint256"
        }
      ],
      "stateMutability": "view",
      "type": "function"
    },
    {
      "inputs": [],
      "name": "symbol",
      "outputs": [
        {
          "internalType": "string",
          "name": "",
          "type": "string"
        }
      ],
      "stateMutability": "view",
      "type": "function"
    },
    {
      "inputs": [],
      "name": "tokenInfo",
      "outputs": [
        {
          "internalType": "address",
          "name": "_creator",
          "type": "address"
        },
        {
          "internalType": "address",
          "name": "_platformFeeRecipient",
          "type": "address"
        },
        {
          "internalType": "uint256",
          "name": "_raiseTarget",
          "type": "uint256"
        },
        {
          "internalType": "uint256",
          "name": "_maxSupply",
          "type": "uint256"
        },
        {
          "internalType": "uint256",
          "name": "_basePrice",
          "type": "uint256"
        },
        {
          "internalType": "uint256",
          "name": "_slope",
          "type": "uint256"
        },
        {
          "internalType": "uint256",
          "name": "_totalRaised",
          "type": "uint256"
        },
        {
          "internalType": "bool",
          "name": "_graduated",
          "type": "bool"
        },
        {
          "internalType": "uint256",
          "name": "_creatorLockAmount",
          "type": "uint256"
        }
      ],
      "stateMutability": "view",
      "type": "function"
    },
    {
      "inputs": [],
      "name": "totalRaised",
      "outputs": [
        {
          "internalType": "uint256",
          "name": "",
          "type": "uint256"
        }
      ],
      "stateMutability": "view",
      "type": "function"
    },
    {
      "inputs": [],
      "name": "totalSupply",
      "outputs": [
        {
          "internalType": "uint256",
          "name": "",
          "type": "uint256"
        }
      ],
      "stateMutability": "view",
      "type": "function"
    },
    {
      "inputs": [
        {
          "internalType": "address",
          "name": "to",
          "type": "address"
        },
        {
          "internalType": "uint256",
          "name": "value",
          "type": "uint256"
        }
      ],
      "name": "transfer",
      "outputs": [
        {
          "internalType": "bool",
          "name": "",
          "type": "bool"
        }
      ],
      "stateMutability": "nonpayable",
      "type": "function"
    },
    {
      "inputs": [
        {
          "internalType": "address",
          "name": "from",
          "type": "address"
        },
        {
          "internalType": "address",
          "name": "to",
          "type": "address"
        },
        {
          "internalType": "uint256",
          "name": "value",
          "type": "uint256"
        }
      ],
      "name": "transferFrom",
      "outputs": [
        {
          "internalType": "bool",
          "name": "",
          "type": "bool"
        }
      ],
      "stateMutability": "nonpayable",
      "type": "function"
    },
    {
      "inputs": [
        {
          "internalType": "address",
          "name": "newOwner",
          "type": "address"
        }
      ],
      "name": "transferOwnership",
      "outputs": [],
      "stateMutability": "nonpayable",
      "type": "function"
    },
    {
      "inputs": [],
      "name": "unlockCreatorTokens",
      "outputs": [],
      "stateMutability": "nonpayable",
      "type": "function"
    },
    {
      "inputs": [],
      "name": "withdraw",
      "outputs": [],
      "stateMutability": "nonpayable",
      "type": "function"
    },
    {
      "stateMutability": "payable",
      "type": "receive"
    }
  ],
  "bytecode": "0x60a060405234801561001057600080fd5b506040516146ce3803806146ce833981810160405281019061003291906104ae565b8286868160039081610044919061078a565b508060049081610054919061078a565b505050600073ffffffffffffffffffffffffffffffffffffffff168173ffffffffffffffffffffffffffffffffffffffff16036100c95760006040517f1e4fbdf70000000000000000000000000000000000000000000000000000000081526004016100c0919061086b565b60405180910390fd5b6100d8816101df60201b60201c565b508360068190555082600860006101000a81548173ffffffffffffffffffffffffffffffffffffffff021916908373ffffffffffffffffffffffffffffffffffffffff160217905550816080818152505080600760006101000a81548173ffffffffffffffffffffffffffffffffffffffff021916908373ffffffffffffffffffffffffffffffffffffffff160217905550600060648361017991906108e4565b90506002816101889190610915565b670de0b6b3a76400008661019c9190610915565b6101a691906108e4565b60108190555080670de0b6b3a76400006010546101c39190610915565b6101cd91906108e4565b60118190555050505050505050610957565b6000600560009054906101000a900473ffffffffffffffffffffffffffffffffffffffff16905081600560006101000a81548173ffffffffffffffffffffffffffffffffffffffff021916908373ffffffffffffffffffffffffffffffffffffffff1602179055508173ffffffffffffffffffffffffffffffffffffffff168173ffffffffffffffffffffffffffffffffffffffff167f8be0079c531659141344cd1fd0a4f28419497f9722a3daafe3b4186f6b6457e060405160405180910390a35050565b6000604051905090565b600080fd5b600080fd5b600080fd5b600080fd5b6000601f19601f8301169050919050565b7f4e487b7100000000000000000000000000000000000000000000000000000000600052604160045260246000fd5b61030c826102c3565b810181811067ffffffffffffffff8211171561032b5761032a6102d4565b5b80604052505050565b600061033e6102a5565b905061034a8282610303565b919050565b600067ffffffffffffffff82111561036a576103696102d4565b5b610373826102c3565b9050602081019050919050565b60005b8381101561039e578082015181840152602081019050610383565b60008484015250505050565b60006103bd6103b88461034f565b610334565b9050828152602081018484840111156103d9576103d86102be565b5b6103e4848285610380565b509392505050565b600082601f830112610401576104006102b9565b5b81516104118482602086016103aa565b91505092915050565b6000819050919050565b61042d8161041a565b811461043857600080fd5b50565b60008151905061044a81610424565b92915050565b600073ffffffffffffffffffffffffffffffffffffffff82169050919050565b600061047b82610450565b9050919050565b61048b81610470565b811461049657600080fd5b50565b6000815190506104a881610482565b92915050565b60008060008060008060c087890312156104cb576104ca6102af565b5b600087015167ffffffffffffffff8111156104e9576104e86102b4565b5b6104f589828a016103ec565b965050602087015167ffffffffffffffff811115610516576105156102b4565b5b61052289828a016103ec565b955050604061053389828a0161043b565b945050606061054489828a01610499565b935050608061055589828a0161043b565b92505060a061056689828a01610499565b9150509295509295509295565b600081519050919050565b7f4e487b7100000000000000000000000000000000000000000000000000000000600052602260045260246000fd5b600060028204905060018216806105c557607f821691505b6020821081036105d8576105d761057e565b5b50919050565b60008190508160005260206000209050919050565b60006020601f8301049050919050565b600082821b905092915050565b6000600883026106407fffffffffffffffffffffffffffffffffffffffffffffffffffffffffffffffff82610603565b61064a8683610603565b95508019841693508086168417925050509392505050565b6000819050919050565b600061068761068261067d8461041a565b610662565b61041a565b9050919050565b6000819050919050565b6106a18361066c565b6106b56106ad8261068e565b848454610610565b825550505050565b600090565b6106ca6106bd565b6106d5818484610698565b505050565b5b818110156106f9576106ee6000826106c2565b6001810190506106db565b5050565b601f82111561073e5761070f816105de565b610718846105f3565b81016020851015610727578190505b61073b610733856105f3565b8301826106da565b50505b505050565b600082821c905092915050565b600061076160001984600802610743565b1980831691505092915050565b600061077a8383610750565b9150826002028217905092915050565b61079382610573565b67ffffffffffffffff8111156107ac576107ab6102d4565b5b6107b682546105ad565b6107c18282856106fd565b600060209050601f8311600181146107f457600084156107e2578287015190505b6107ec858261076e565b865550610854565b601f198416610802866105de565b60005b8281101561082a57848901518255600182019150602085019450602081019050610805565b868310156108475784890151610843601f891682610750565b8355505b6001600288020188555050505b505050505050565b61086581610470565b82525050565b6000602082019050610880600083018461085c565b92915050565b7f4e487b7100000000000000000000000000000000000000000000000000000000600052601260045260246000fd5b7f4e487b7100000000000000000000000000000000000000000000000000000000600052601160045260246000fd5b60006108ef8261041a565b91506108fa8361041a565b92508261090a57610909610886565b5b828204905092915050565b60006109208261041a565b915061092b8361041a565b92508282026109398161041a565b915082820484148315176109505761094f6108b5565b5b5092915050565b608051613d476109876000396000818161113a01528181611a7f01528181611c020152611f910152613d476000f3fe60806040526004361061023f5760003560e01c8063a9059cbb1161012e578063d96a094a116100ab578063eb13554f1161006f578063eb13554f14610867578063eb91d37e14610892578063f2fde38b146108bd578063f4227e95146108e6578063fc6fec4c1461091157610246565b8063d96a094a1461077b578063dd62ed3e14610797578063e388010d146107d4578063e7572230146107ff578063e7c2b7721461083c57610246565b8063c7876ea4116100f2578063c7876ea414610694578063cdbbf186146106bf578063d1b6dd30146106fc578063d3618cca14610739578063d5abeb011461075057610246565b8063a9059cbb146105ce578063b34ffc5f1461060b578063b4105e0614610627578063be8755a91461063e578063c5c4744c1461066957610246565b80635b88349d116101bc57806383caf2751161018057806383caf275146104f757806385131976146105225780638da5cb5b1461054d57806395d89b41146105785780639a241247146105a357610246565b80635b88349d1461041c578063646304a1146104335780636addb6631461047057806370a08231146104a3578063715018a6146104e057610246565b806318160ddd1161020357806318160ddd1461034757806323b872dd1461037257806324d4de70146103af578063313ce567146103da5780633ccfd60b1461040557610246565b806302d05d3f1461024b5780630483a7f61461027657806306fdde03146102b3578063095ea7b3146102de5780630b579f1f1461031b57610246565b3661024657005b600080fd5b34801561025757600080fd5b5061026061093a565b60405161026d9190612bf7565b60405180910390f35b34801561028257600080fd5b5061029d60048036038101906102989190612c48565b610960565b6040516102aa9190612c8e565b60405180910390f35b3480156102bf57600080fd5b506102c8610978565b6040516102d59190612d39565b60405180910390f35b3480156102ea57600080fd5b5061030560048036038101906103009190612d87565b610a0a565b6040516103129190612de2565b60405180910390f35b34801561032757600080fd5b50610330610a2d565b60405161033e929190612f79565b60405180910390f35b34801561035357600080fd5b5061035c610bff565b6040516103699190612c8e565b60405180910390f35b34801561037e57600080fd5b5061039960048036038101906103949190612fb0565b610c09565b6040516103a69190612de2565b60405180910390f35b3480156103bb57600080fd5b506103c4610c38565b6040516103d19190612c8e565b60405180910390f35b3480156103e657600080fd5b506103ef610c3d565b6040516103fc919061301f565b60405180910390f35b34801561041157600080fd5b5061041a610c46565b005b34801561042857600080fd5b50610431610eda565b005b34801561043f57600080fd5b5061045a6004803603810190610455919061303a565b6110a2565b6040516104679190612bf7565b60405180910390f35b34801561047c57600080fd5b506104856110e1565b60405161049a99989796959493929190613067565b60405180910390f35b3480156104af57600080fd5b506104ca60048036038101906104c59190612c48565b611192565b6040516104d79190612c8e565b60405180910390f35b3480156104ec57600080fd5b506104f56111da565b005b34801561050357600080fd5b5061050c6111ee565b6040516105199190612c8e565b60405180910390f35b34801561052e57600080fd5b506105376111f4565b6040516105449190612c8e565b60405180910390f35b34801561055957600080fd5b506105626111fa565b60405161056f9190612bf7565b60405180910390f35b34801561058457600080fd5b5061058d611224565b60405161059a9190612d39565b60405180910390f35b3480156105af57600080fd5b506105b86112b6565b6040516105c59190612de2565b60405180910390f35b3480156105da57600080fd5b506105f560048036038101906105f09190612d87565b6112c5565b6040516106029190612de2565b60405180910390f35b6106256004803603810190610620919061303a565b6112e8565b005b34801561063357600080fd5b5061063c6117f7565b005b34801561064a57600080fd5b50610653611a77565b6040516106609190612c8e565b60405180910390f35b34801561067557600080fd5b5061067e611ab7565b60405161068b9190612c8e565b60405180910390f35b3480156106a057600080fd5b506106a9611abd565b6040516106b69190612c8e565b60405180910390f35b3480156106cb57600080fd5b506106e660048036038101906106e19190612c48565b611ac3565b6040516106f39190612c8e565b60405180910390f35b34801561070857600080fd5b50610723600480360381019061071e9190612c48565b611adb565b6040516107309190612de2565b60405180910390f35b34801561074557600080fd5b5061074e611afb565b005b34801561075c57600080fd5b50610765611c00565b6040516107729190612c8e565b60405180910390f35b6107956004803603810190610790919061303a565b611c24565b005b3480156107a357600080fd5b506107be60048036038101906107b991906130f4565b611ef6565b6040516107cb9190612c8e565b60405180910390f35b3480156107e057600080fd5b506107e9611f7d565b6040516107f69190612c8e565b60405180910390f35b34801561080b57600080fd5b506108266004803603810190610821919061303a565b611fc9565b6040516108339190612c8e565b60405180910390f35b34801561084857600080fd5b5061085161205b565b60405161085e9190612de2565b60405180910390f35b34801561087357600080fd5b5061087c61206e565b6040516108899190612bf7565b60405180910390f35b34801561089e57600080fd5b506108a7612094565b6040516108b49190612c8e565b60405180910390f35b3480156108c957600080fd5b506108e460048036038101906108df9190612c48565b6120d0565b005b3480156108f257600080fd5b506108fb612156565b6040516109089190612c8e565b60405180910390f35b34801561091d57600080fd5b50610938600480360381019061093391906131ef565b61215c565b005b600860009054906101000a900473ffffffffffffffffffffffffffffffffffffffff1681565b600c6020528060005260406000206000915090505481565b6060600380546109879061329f565b80601f01602080910402602001604051908101604052809291908181526020018280546109b39061329f565b8015610a005780601f106109d557610100808354040283529160200191610a00565b820191906000526020600020905b8154815290600101906020018083116109e357829003601f168201915b5050505050905090565b600080610a15612448565b9050610a22818585612450565b600191505092915050565b6060806000600f80549050905060008167ffffffffffffffff811115610a5657610a556132d0565b5b604051908082528060200260200182016040528015610a845781602001602082028036833780820191505090505b50905060008267ffffffffffffffff811115610aa357610aa26132d0565b5b604051908082528060200260200182016040528015610ad15781602001602082028036833780820191505090505b50905060005b83811015610bf157600f8181548110610af357610af26132ff565b5b9060005260206000200160009054906101000a900473ffffffffffffffffffffffffffffffffffffffff16838281518110610b3157610b306132ff565b5b602002602001019073ffffffffffffffffffffffffffffffffffffffff16908173ffffffffffffffffffffffffffffffffffffffff1681525050600d6000848381518110610b8257610b816132ff565b5b602002602001015173ffffffffffffffffffffffffffffffffffffffff1673ffffffffffffffffffffffffffffffffffffffff16815260200190815260200160002054828281518110610bd857610bd76132ff565b5b6020026020010181815250508080600101915050610ad7565b508181945094505050509091565b6000600254905090565b600080610c14612448565b9050610c21858285612462565b610c2c8585856124f7565b60019150509392505050565b601481565b60006012905090565b600860009054906101000a900473ffffffffffffffffffffffffffffffffffffffff1673ffffffffffffffffffffffffffffffffffffffff163373ffffffffffffffffffffffffffffffffffffffff1614610cd6576040517f08c379a0000000000000000000000000000000000000000000000000000000008152600401610ccd9061337a565b60405180910390fd5b60004711610d19576040517f08c379a0000000000000000000000000000000000000000000000000000000008152600401610d10906133e6565b60405180910390fd5b600a60009054906101000a900460ff16610d68576040517f08c379a0000000000000000000000000000000000000000000000000000000008152600401610d5f90613452565b60405180910390fd5b600061271060c847610d7a91906134a1565b610d849190613512565b905060008147610d949190613543565b90506000600760009054906101000a900473ffffffffffffffffffffffffffffffffffffffff1673ffffffffffffffffffffffffffffffffffffffff1683604051610dde906135a8565b60006040518083038185875af1925050503d8060008114610e1b576040519150601f19603f3d011682016040523d82523d6000602084013e610e20565b606091505b5050905080610e64576040517f08c379a0000000000000000000000000000000000000000000000000000000008152600401610e5b90613609565b60405180910390fd5b600860009054906101000a900473ffffffffffffffffffffffffffffffffffffffff1673ffffffffffffffffffffffffffffffffffffffff166108fc839081150290604051600060405180830381858888f19350505050158015610ecc573d6000803e3d6000fd5b506000600981905550505050565b600a60009054906101000a900460ff16610f29576040517f08c379a0000000000000000000000000000000000000000000000000000000008152600401610f2090613675565b60405180910390fd5b600e60003373ffffffffffffffffffffffffffffffffffffffff1673ffffffffffffffffffffffffffffffffffffffff16815260200190815260200160002060009054906101000a900460ff1615610fb6576040517f08c379a0000000000000000000000000000000000000000000000000000000008152600401610fad906136e1565b60405180910390fd5b6000600d60003373ffffffffffffffffffffffffffffffffffffffff1673ffffffffffffffffffffffffffffffffffffffff1681526020019081526020016000205490506000811161103d576040517f08c379a00000000000000000000000000000000000000000000000000000000081526004016110349061374d565b60405180910390fd5b6001600e60003373ffffffffffffffffffffffffffffffffffffffff1673ffffffffffffffffffffffffffffffffffffffff16815260200190815260200160002060006101000a81548160ff02191690831515021790555061109f33826125eb565b50565b600f81815481106110b257600080fd5b906000526020600020016000915054906101000a900473ffffffffffffffffffffffffffffffffffffffff1681565b6000806000806000806000806000600860009054906101000a900473ffffffffffffffffffffffffffffffffffffffff16600760009054906101000a900473ffffffffffffffffffffffffffffffffffffffff166006547f0000000000000000000000000000000000000000000000000000000000000000601054601154600954600a60009054906101000a900460ff16600b54985098509850985098509850985098509850909192939495969798565b60008060008373ffffffffffffffffffffffffffffffffffffffff1673ffffffffffffffffffffffffffffffffffffffff168152602001908152602001600020549050919050565b6111e261266d565b6111ec60006126f4565b565b60115481565b60065481565b6000600560009054906101000a900473ffffffffffffffffffffffffffffffffffffffff16905090565b6060600480546112339061329f565b80601f016020809104026020016040519081016040528092919081815260200182805461125f9061329f565b80156112ac5780601f10611281576101008083540402835291602001916112ac565b820191906000526020600020905b81548152906001019060200180831161128f57829003601f168201915b5050505050905090565b600080600f8054905011905090565b6000806112d0612448565b90506112dd8185856124f7565b600191505092915050565b600860009054906101000a900473ffffffffffffffffffffffffffffffffffffffff1673ffffffffffffffffffffffffffffffffffffffff163373ffffffffffffffffffffffffffffffffffffffff1614611378576040517f08c379a000000000000000000000000000000000000000000000000000000000815260040161136f9061337a565b60405180910390fd5b600a60009054906101000a900460ff16156113c8576040517f08c379a00000000000000000000000000000000000000000000000000000000081526004016113bf906137b9565b60405180910390fd5b60006113d382611fc9565b905080341015611418576040517f08c379a000000000000000000000000000000000000000000000000000000000815260040161140f90613825565b60405180910390fd5b611420611f7d565b82611429610bff565b6114339190613845565b1115611474576040517f08c379a000000000000000000000000000000000000000000000000000000000815260040161146b906138c5565b60405180910390fd5b61147c611a77565b82600c6000600860009054906101000a900473ffffffffffffffffffffffffffffffffffffffff1673ffffffffffffffffffffffffffffffffffffffff1673ffffffffffffffffffffffffffffffffffffffff168152602001908152602001600020546114e99190613845565b111561152a576040517f08c379a000000000000000000000000000000000000000000000000000000000815260040161152190613931565b60405180910390fd5b600061271060648361153c91906134a1565b6115469190613512565b905080826115549190613543565b600960008282546115659190613845565b9250508190555061157630846125eb565b82600c6000600860009054906101000a900473ffffffffffffffffffffffffffffffffffffffff1673ffffffffffffffffffffffffffffffffffffffff1673ffffffffffffffffffffffffffffffffffffffff16815260200190815260200160002060008282546115e79190613845565b9250508190555082600b60008282546116009190613845565b925050819055507f77c4ff2d3de977cf4bd36aa220db7839bc74bdd1c7a1c3d47bbb34ba89d16a61600760009054906101000a900473ffffffffffffffffffffffffffffffffffffffff168260405161165a929190613951565b60405180910390a16000600760009054906101000a900473ffffffffffffffffffffffffffffffffffffffff1673ffffffffffffffffffffffffffffffffffffffff16826040516116aa906135a8565b60006040518083038185875af1925050503d80600081146116e7576040519150601f19603f3d011682016040523d82523d6000602084013e6116ec565b606091505b5050905080611730576040517f08c379a0000000000000000000000000000000000000000000000000000000008152600401611727906139c6565b60405180910390fd5b823411156117f15760003373ffffffffffffffffffffffffffffffffffffffff16843461175d9190613543565b604051611769906135a8565b60006040518083038185875af1925050503d80600081146117a6576040519150601f19603f3d011682016040523d82523d6000602084013e6117ab565b606091505b50509050806117ef576040517f08c379a00000000000000000000000000000000000000000000000000000000081526004016117e690613a32565b60405180910390fd5b505b50505050565b600860009054906101000a900473ffffffffffffffffffffffffffffffffffffffff1673ffffffffffffffffffffffffffffffffffffffff163373ffffffffffffffffffffffffffffffffffffffff1614611887576040517f08c379a000000000000000000000000000000000000000000000000000000000815260040161187e9061337a565b60405180910390fd5b600a60009054906101000a900460ff166118d6576040517f08c379a00000000000000000000000000000000000000000000000000000000081526004016118cd90613452565b60405180910390fd5b6000600c6000600860009054906101000a900473ffffffffffffffffffffffffffffffffffffffff1673ffffffffffffffffffffffffffffffffffffffff1673ffffffffffffffffffffffffffffffffffffffff168152602001908152602001600020541161197a576040517f08c379a000000000000000000000000000000000000000000000000000000000815260040161197190613a9e565b60405180910390fd5b6000600c6000600860009054906101000a900473ffffffffffffffffffffffffffffffffffffffff1673ffffffffffffffffffffffffffffffffffffffff1673ffffffffffffffffffffffffffffffffffffffff1681526020019081526020016000205490506000600c6000600860009054906101000a900473ffffffffffffffffffffffffffffffffffffffff1673ffffffffffffffffffffffffffffffffffffffff1673ffffffffffffffffffffffffffffffffffffffff16815260200190815260200160002081905550611a7430600860009054906101000a900473ffffffffffffffffffffffffffffffffffffffff16836124f7565b50565b6000606460147f0000000000000000000000000000000000000000000000000000000000000000611aa891906134a1565b611ab29190613512565b905090565b60095481565b60105481565b600d6020528060005260406000206000915090505481565b600e6020528060005260406000206000915054906101000a900460ff1681565b600a60009054906101000a900460ff1615611b4b576040517f08c379a0000000000000000000000000000000000000000000000000000000008152600401611b42906137b9565b60405180910390fd5b6006546009541015611b92576040517f08c379a0000000000000000000000000000000000000000000000000000000008152600401611b8990613b0a565b60405180910390fd5b611b9a611f7d565b611ba2610bff565b1115611be3576040517f08c379a0000000000000000000000000000000000000000000000000000000008152600401611bda90613b76565b60405180910390fd5b6001600a60006101000a81548160ff021916908315150217905550565b7f000000000000000000000000000000000000000000000000000000000000000081565b600a60009054906101000a900460ff1615611c74576040517f08c379a0000000000000000000000000000000000000000000000000000000008152600401611c6b906137b9565b60405180910390fd5b6000611c7f82611fc9565b905080341015611cc4576040517f08c379a0000000000000000000000000000000000000000000000000000000008152600401611cbb90613825565b60405180910390fd5b611ccc611f7d565b82611cd5610bff565b611cdf9190613845565b1115611d20576040517f08c379a0000000000000000000000000000000000000000000000000000000008152600401611d17906138c5565b60405180910390fd5b6000612710606483611d3291906134a1565b611d3c9190613512565b90508082611d4a9190613543565b60096000828254611d5b9190613845565b92505081905550611d6c33846125eb565b7f77c4ff2d3de977cf4bd36aa220db7839bc74bdd1c7a1c3d47bbb34ba89d16a61600760009054906101000a900473ffffffffffffffffffffffffffffffffffffffff1682604051611dbf929190613951565b60405180910390a16000600760009054906101000a900473ffffffffffffffffffffffffffffffffffffffff1673ffffffffffffffffffffffffffffffffffffffff1682604051611e0f906135a8565b60006040518083038185875af1925050503d8060008114611e4c576040519150601f19603f3d011682016040523d82523d6000602084013e611e51565b606091505b5050905080611e95576040517f08c379a0000000000000000000000000000000000000000000000000000000008152600401611e8c90613be2565b60405180910390fd5b82341115611ef0573373ffffffffffffffffffffffffffffffffffffffff166108fc8434611ec39190613543565b9081150290604051600060405180830381858888f19350505050158015611eee573d6000803e3d6000fd5b505b50505050565b6000600160008473ffffffffffffffffffffffffffffffffffffffff1673ffffffffffffffffffffffffffffffffffffffff16815260200190815260200160002060008373ffffffffffffffffffffffffffffffffffffffff1673ffffffffffffffffffffffffffffffffffffffff16815260200190815260200160002054905092915050565b6000606460146064611f8f9190613543565b7f0000000000000000000000000000000000000000000000000000000000000000611fba91906134a1565b611fc49190613512565b905090565b600080611fd4610bff565b9050600060105484611fe691906134a1565b905060008285611ff691906134a1565b9050600060026001876120099190613543565b8761201491906134a1565b61201e9190613512565b90506000818361202e9190613845565b60115461203b91906134a1565b90506000818561204b9190613845565b9050809650505050505050919050565b600a60009054906101000a900460ff1681565b600760009054906101000a900473ffffffffffffffffffffffffffffffffffffffff1681565b6000670de0b6b3a76400006120a7610bff565b6011546120b491906134a1565b6120be9190613512565b6010546120cb9190613845565b905090565b6120d861266d565b600073ffffffffffffffffffffffffffffffffffffffff168173ffffffffffffffffffffffffffffffffffffffff160361214a5760006040517f1e4fbdf70000000000000000000000000000000000000000000000000000000081526004016121419190612bf7565b60405180910390fd5b612153816126f4565b50565b600b5481565b600860009054906101000a900473ffffffffffffffffffffffffffffffffffffffff1673ffffffffffffffffffffffffffffffffffffffff163373ffffffffffffffffffffffffffffffffffffffff16146121ec576040517f08c379a00000000000000000000000000000000000000000000000000000000081526004016121e39061337a565b60405180910390fd5b600a60009054906101000a900460ff161561223c576040517f08c379a0000000000000000000000000000000000000000000000000000000008152600401612233906137b9565b60405180910390fd5b818190508484905014612284576040517f08c379a000000000000000000000000000000000000000000000000000000000815260040161227b90613c4e565b60405180910390fd5b6000805b858590508110156123f65760008686838181106122a8576122a76132ff565b5b90506020020160208101906122bd9190612c48565b905060008585848181106122d4576122d36132ff565b5b9050602002013590506000600d60008473ffffffffffffffffffffffffffffffffffffffff1673ffffffffffffffffffffffffffffffffffffffff1681526020019081526020016000205414801561232c5750600081115b1561239557600f829080600181540180825580915050600190039060005260206000200160009091909190916101000a81548173ffffffffffffffffffffffffffffffffffffffff021916908373ffffffffffffffffffffffffffffffffffffffff1602179055505b80600d60008473ffffffffffffffffffffffffffffffffffffffff1673ffffffffffffffffffffffffffffffffffffffff1681526020019081526020016000208190555080846123e59190613845565b935050508080600101915050612288565b506123ff611a77565b811115612441576040517f08c379a000000000000000000000000000000000000000000000000000000000815260040161243890613cba565b60405180910390fd5b5050505050565b600033905090565b61245d83838360016127ba565b505050565b600061246e8484611ef6565b90507fffffffffffffffffffffffffffffffffffffffffffffffffffffffffffffffff8110156124f157818110156124e1578281836040517ffb8f41b20000000000000000000000000000000000000000000000000000000081526004016124d893929190613cda565b60405180910390fd5b6124f0848484840360006127ba565b5b50505050565b600073ffffffffffffffffffffffffffffffffffffffff168373ffffffffffffffffffffffffffffffffffffffff16036125695760006040517f96c6fd1e0000000000000000000000000000000000000000000000000000000081526004016125609190612bf7565b60405180910390fd5b600073ffffffffffffffffffffffffffffffffffffffff168273ffffffffffffffffffffffffffffffffffffffff16036125db5760006040517fec442f050000000000000000000000000000000000000000000000000000000081526004016125d29190612bf7565b60405180910390fd5b6125e6838383612991565b505050565b600073ffffffffffffffffffffffffffffffffffffffff168273ffffffffffffffffffffffffffffffffffffffff160361265d5760006040517fec442f050000000000000000000000000000000000000000000000000000000081526004016126549190612bf7565b60405180910390fd5b61266960008383612991565b5050565b612675612448565b73ffffffffffffffffffffffffffffffffffffffff166126936111fa565b73ffffffffffffffffffffffffffffffffffffffff16146126f2576126b6612448565b6040517f118cdaa70000000000000000000000000000000000000000000000000000000081526004016126e99190612bf7565b60405180910390fd5b565b6000600560009054906101000a900473ffffffffffffffffffffffffffffffffffffffff16905081600560006101000a81548173ffffffffffffffffffffffffffffffffffffffff021916908373ffffffffffffffffffffffffffffffffffffffff1602179055508173ffffffffffffffffffffffffffffffffffffffff168173ffffffffffffffffffffffffffffffffffffffff167f8be0079c531659141344cd1fd0a4f28419497f9722a3daafe3b4186f6b6457e060405160405180910390a35050565b600073ffffffffffffffffffffffffffffffffffffffff168473ffffffffffffffffffffffffffffffffffffffff160361282c5760006040517fe602df050000000000000000000000000000000000000000000000000000000081526004016128239190612bf7565b60405180910390fd5b600073ffffffffffffffffffffffffffffffffffffffff168373ffffffffffffffffffffffffffffffffffffffff160361289e5760006040517f94280d620000000000000000000000000000000000000000000000000000000081526004016128959190612bf7565b60405180910390fd5b81600160008673ffffffffffffffffffffffffffffffffffffffff1673ffffffffffffffffffffffffffffffffffffffff16815260200190815260200160002060008573ffffffffffffffffffffffffffffffffffffffff1673ffffffffffffffffffffffffffffffffffffffff16815260200190815260200160002081905550801561298b578273ffffffffffffffffffffffffffffffffffffffff168473ffffffffffffffffffffffffffffffffffffffff167f8c5be1e5ebec7d5bd14f71427d1e84f3dd0314c0f7b2291e5b200ac8c7c3b925846040516129829190612c8e565b60405180910390a35b50505050565b600073ffffffffffffffffffffffffffffffffffffffff168373ffffffffffffffffffffffffffffffffffffffff16036129e35780600260008282546129d79190613845565b92505081905550612ab6565b60008060008573ffffffffffffffffffffffffffffffffffffffff1673ffffffffffffffffffffffffffffffffffffffff16815260200190815260200160002054905081811015612a6f578381836040517fe450d38c000000000000000000000000000000000000000000000000000000008152600401612a6693929190613cda565b60405180910390fd5b8181036000808673ffffffffffffffffffffffffffffffffffffffff1673ffffffffffffffffffffffffffffffffffffffff16815260200190815260200160002081905550505b600073ffffffffffffffffffffffffffffffffffffffff168273ffffffffffffffffffffffffffffffffffffffff1603612aff5780600260008282540392505081905550612b4c565b806000808473ffffffffffffffffffffffffffffffffffffffff1673ffffffffffffffffffffffffffffffffffffffff168152602001908152602001600020600082825401925050819055505b8173ffffffffffffffffffffffffffffffffffffffff168373ffffffffffffffffffffffffffffffffffffffff167fddf252ad1be2c89b69c2b068fc378daa952ba7f163c4a11628f55a4df523b3ef83604051612ba99190612c8e565b60405180910390a3505050565b600073ffffffffffffffffffffffffffffffffffffffff82169050919050565b6000612be182612bb6565b9050919050565b612bf181612bd6565b82525050565b6000602082019050612c0c6000830184612be8565b92915050565b600080fd5b600080fd5b612c2581612bd6565b8114612c3057600080fd5b50565b600081359050612c4281612c1c565b92915050565b600060208284031215612c5e57612c5d612c12565b5b6000612c6c84828501612c33565b91505092915050565b6000819050919050565b612c8881612c75565b82525050565b6000602082019050612ca36000830184612c7f565b92915050565b600081519050919050565b600082825260208201905092915050565b60005b83811015612ce3578082015181840152602081019050612cc8565b60008484015250505050565b6000601f19601f8301169050919050565b6000612d0b82612ca9565b612d158185612cb4565b9350612d25818560208601612cc5565b612d2e81612cef565b840191505092915050565b60006020820190508181036000830152612d538184612d00565b905092915050565b612d6481612c75565b8114612d6f57600080fd5b50565b600081359050612d8181612d5b565b92915050565b60008060408385031215612d9e57612d9d612c12565b5b6000612dac85828601612c33565b9250506020612dbd85828601612d72565b9150509250929050565b60008115159050919050565b612ddc81612dc7565b82525050565b6000602082019050612df76000830184612dd3565b92915050565b600081519050919050565b600082825260208201905092915050565b6000819050602082019050919050565b612e3281612bd6565b82525050565b6000612e448383612e29565b60208301905092915050565b6000602082019050919050565b6000612e6882612dfd565b612e728185612e08565b9350612e7d83612e19565b8060005b83811015612eae578151612e958882612e38565b9750612ea083612e50565b925050600181019050612e81565b5085935050505092915050565b600081519050919050565b600082825260208201905092915050565b6000819050602082019050919050565b612ef081612c75565b82525050565b6000612f028383612ee7565b60208301905092915050565b6000602082019050919050565b6000612f2682612ebb565b612f308185612ec6565b9350612f3b83612ed7565b8060005b83811015612f6c578151612f538882612ef6565b9750612f5e83612f0e565b925050600181019050612f3f565b5085935050505092915050565b60006040820190508181036000830152612f938185612e5d565b90508181036020830152612fa78184612f1b565b90509392505050565b600080600060608486031215612fc957612fc8612c12565b5b6000612fd786828701612c33565b9350506020612fe886828701612c33565b9250506040612ff986828701612d72565b9150509250925092565b600060ff82169050919050565b61301981613003565b82525050565b60006020820190506130346000830184613010565b92915050565b6000602082840312156130505761304f612c12565b5b600061305e84828501612d72565b91505092915050565b60006101208201905061307d600083018c612be8565b61308a602083018b612be8565b613097604083018a612c7f565b6130a46060830189612c7f565b6130b16080830188612c7f565b6130be60a0830187612c7f565b6130cb60c0830186612c7f565b6130d860e0830185612dd3565b6130e6610100830184612c7f565b9a9950505050505050505050565b6000806040838503121561310b5761310a612c12565b5b600061311985828601612c33565b925050602061312a85828601612c33565b9150509250929050565b600080fd5b600080fd5b600080fd5b60008083601f84011261315957613158613134565b5b8235905067ffffffffffffffff81111561317657613175613139565b5b6020830191508360208202830111156131925761319161313e565b5b9250929050565b60008083601f8401126131af576131ae613134565b5b8235905067ffffffffffffffff8111156131cc576131cb613139565b5b6020830191508360208202830111156131e8576131e761313e565b5b9250929050565b6000806000806040858703121561320957613208612c12565b5b600085013567ffffffffffffffff81111561322757613226612c17565b5b61323387828801613143565b9450945050602085013567ffffffffffffffff81111561325657613255612c17565b5b61326287828801613199565b925092505092959194509250565b7f4e487b7100000000000000000000000000000000000000000000000000000000600052602260045260246000fd5b600060028204905060018216806132b757607f821691505b6020821081036132ca576132c9613270565b5b50919050565b7f4e487b7100000000000000000000000000000000000000000000000000000000600052604160045260246000fd5b7f4e487b7100000000000000000000000000000000000000000000000000000000600052603260045260246000fd5b7f4e6f742063726561746f72000000000000000000000000000000000000000000600082015250565b6000613364600b83612cb4565b915061336f8261332e565b602082019050919050565b6000602082019050818103600083015261339381613357565b9050919050565b7f4e6f7468696e6720746f20776974686472617700000000000000000000000000600082015250565b60006133d0601383612cb4565b91506133db8261339a565b602082019050919050565b600060208201905081810360008301526133ff816133c3565b9050919050565b7f4e6f742067726164756174656420796574000000000000000000000000000000600082015250565b600061343c601183612cb4565b915061344782613406565b602082019050919050565b6000602082019050818103600083015261346b8161342f565b9050919050565b7f4e487b7100000000000000000000000000000000000000000000000000000000600052601160045260246000fd5b60006134ac82612c75565b91506134b783612c75565b92508282026134c581612c75565b915082820484148315176134dc576134db613472565b5b5092915050565b7f4e487b7100000000000000000000000000000000000000000000000000000000600052601260045260246000fd5b600061351d82612c75565b915061352883612c75565b925082613538576135376134e3565b5b828204905092915050565b600061354e82612c75565b915061355983612c75565b925082820390508181111561357157613570613472565b5b92915050565b600081905092915050565b50565b6000613592600083613577565b915061359d82613582565b600082019050919050565b60006135b382613585565b9150819050919050565b7f506c6174666f726d207769746864726177616c206661696c6564000000000000600082015250565b60006135f3601a83612cb4565b91506135fe826135bd565b602082019050919050565b60006020820190508181036000830152613622816135e6565b9050919050565b7f4e6f742067726164756174656400000000000000000000000000000000000000600082015250565b600061365f600d83612cb4565b915061366a82613629565b602082019050919050565b6000602082019050818103600083015261368e81613652565b9050919050565b7f416c726561647920636c61696d65640000000000000000000000000000000000600082015250565b60006136cb600f83612cb4565b91506136d682613695565b602082019050919050565b600060208201905081810360008301526136fa816136be565b9050919050565b7f4e6f20616c6c6f636174696f6e00000000000000000000000000000000000000600082015250565b6000613737600d83612cb4565b915061374282613701565b602082019050919050565b600060208201905081810360008301526137668161372a565b9050919050565b7f416c726561647920677261647561746564000000000000000000000000000000600082015250565b60006137a3601183612cb4565b91506137ae8261376d565b602082019050919050565b600060208201905081810360008301526137d281613796565b9050919050565b7f496e73756666696369656e74204554482073656e740000000000000000000000600082015250565b600061380f601583612cb4565b915061381a826137d9565b602082019050919050565b6000602082019050818103600083015261383e81613802565b9050919050565b600061385082612c75565b915061385b83612c75565b925082820190508082111561387357613872613472565b5b92915050565b7f4578636565647320617661696c61626c6520737570706c790000000000000000600082015250565b60006138af601883612cb4565b91506138ba82613879565b602082019050919050565b600060208201905081810360008301526138de816138a2565b9050919050565b7f45786365656473206c6f636b20616c6c6f636174696f6e000000000000000000600082015250565b600061391b601783612cb4565b9150613926826138e5565b602082019050919050565b6000602082019050818103600083015261394a8161390e565b9050919050565b60006040820190506139666000830185612be8565b6139736020830184612c7f565b9392505050565b7f506c6174666f726d206665652063616c6c206661696c65640000000000000000600082015250565b60006139b0601883612cb4565b91506139bb8261397a565b602082019050919050565b600060208201905081810360008301526139df816139a3565b9050919050565b7f526566756e64206661696c656400000000000000000000000000000000000000600082015250565b6000613a1c600d83612cb4565b9150613a27826139e6565b602082019050919050565b60006020820190508181036000830152613a4b81613a0f565b9050919050565b7f4e6f206c6f636b656420746f6b656e7300000000000000000000000000000000600082015250565b6000613a88601083612cb4565b9150613a9382613a52565b602082019050919050565b60006020820190508181036000830152613ab781613a7b565b9050919050565b7f526169736520746172676574206e6f74206d6574000000000000000000000000600082015250565b6000613af4601483612cb4565b9150613aff82613abe565b602082019050919050565b60006020820190508181036000830152613b2381613ae7565b9050919050565b7f4d7573742072657365727665204c502f61697264726f70000000000000000000600082015250565b6000613b60601783612cb4565b9150613b6b82613b2a565b602082019050919050565b60006020820190508181036000830152613b8f81613b53565b9050919050565b7f506c6174666f726d20666565207472616e73666572206661696c656400000000600082015250565b6000613bcc601c83612cb4565b9150613bd782613b96565b602082019050919050565b60006020820190508181036000830152613bfb81613bbf565b9050919050565b7f4c656e677468206d69736d617463680000000000000000000000000000000000600082015250565b6000613c38600f83612cb4565b9150613c4382613c02565b602082019050919050565b60006020820190508181036000830152613c6781613c2b565b9050919050565b7f457863656564732061697264726f702072657365727665000000000000000000600082015250565b6000613ca4601783612cb4565b9150613caf82613c6e565b602082019050919050565b60006020820190508181036000830152613cd381613c97565b9050919050565b6000606082019050613cef6000830186612be8565b613cfc6020830185612c7f565b613d096040830184612c7f565b94935050505056fea264697066735822122007d6a3a3a386772181909626573c20fda7e1d611e7a569e8f9d8869596df7f9064736f6c634300081c0033",
  "linkReferences": {},
  "deployedLinkReferences": {}
}