{
  "_format": "hh-sol-artifact-1",
  "contractName": "TurboToken",
  "sourceName": "contracts/TurboToken.sol",
  "abi": [
    {
      "inputs": [
        {
          "internalType": "string",
          "name": "name_",
          "type": "string"
        },
        {
          "internalType": "string",
          "name": "symbol_",
          "type": "string"
        },
        {
          "internalType": "uint256",
          "name": "raiseTarget_",
          "type": "uint256"
        },
        {
          "internalType": "address",
          "name": "creator_",
          "type": "address"
        },
        {
          "internalType": "uint256",
          "name": "maxSupply_",
          "type": "uint256"
        },
        {
          "internalType": "address",
          "name": "platformFeeRecipient_",
          "type": "address"
        }
      ],
      "stateMutability": "nonpayable",
      "type": "constructor"
    },
    {
      "inputs": [
        {
          "internalType": "address",
          "name": "spender",
          "type": "address"
        },
        {
          "internalType": "uint256",
          "name": "allowance",
          "type": "uint256"
        },
        {
          "internalType": "uint256",
          "name": "needed",
          "type": "uint256"
        }
      ],
      "name": "ERC20InsufficientAllowance",
      "type": "error"
    },
    {
      "inputs": [
        {
          "internalType": "address",
          "name": "sender",
          "type": "address"
        },
        {
          "internalType": "uint256",
          "name": "balance",
          "type": "uint256"
        },
        {
          "internalType": "uint256",
          "name": "needed",
          "type": "uint256"
        }
      ],
      "name": "ERC20InsufficientBalance",
      "type": "error"
    },
    {
      "inputs": [
        {
          "internalType": "address",
          "name": "approver",
          "type": "address"
        }
      ],
      "name": "ERC20InvalidApprover",
      "type": "error"
    },
    {
      "inputs": [
        {
          "internalType": "address",
          "name": "receiver",
          "type": "address"
        }
      ],
      "name": "ERC20InvalidReceiver",
      "type": "error"
    },
    {
      "inputs": [
        {
          "internalType": "address",
          "name": "sender",
          "type": "address"
        }
      ],
      "name": "ERC20InvalidSender",
      "type": "error"
    },
    {
      "inputs": [
        {
          "internalType": "address",
          "name": "spender",
          "type": "address"
        }
      ],
      "name": "ERC20InvalidSpender",
      "type": "error"
    },
    {
      "inputs": [
        {
          "internalType": "address",
          "name": "owner",
          "type": "address"
        }
      ],
      "name": "OwnableInvalidOwner",
      "type": "error"
    },
    {
      "inputs": [
        {
          "internalType": "address",
          "name": "account",
          "type": "address"
        }
      ],
      "name": "OwnableUnauthorizedAccount",
      "type": "error"
    },
    {
      "anonymous": false,
      "inputs": [
        {
          "indexed": true,
          "internalType": "address",
          "name": "owner",
          "type": "address"
        },
        {
          "indexed": true,
          "internalType": "address",
          "name": "spender",
          "type": "address"
        },
        {
          "indexed": false,
          "internalType": "uint256",
          "name": "value",
          "type": "uint256"
        }
      ],
      "name": "Approval",
      "type": "event"
    },
    {
      "anonymous": false,
      "inputs": [
        {
          "indexed": false,
          "internalType": "address",
          "name": "recipient",
          "type": "address"
        },
        {
          "indexed": false,
          "internalType": "uint256",
          "name": "amount",
          "type": "uint256"
        }
      ],
      "name": "FeeAttempt",
      "type": "event"
    },
    {
      "anonymous": false,
      "inputs": [
        {
          "indexed": true,
          "internalType": "address",
          "name": "previousOwner",
          "type": "address"
        },
        {
          "indexed": true,
          "internalType": "address",
          "name": "newOwner",
          "type": "address"
        }
      ],
      "name": "OwnershipTransferred",
      "type": "event"
    },
    {
      "anonymous": false,
      "inputs": [
        {
          "indexed": true,
          "internalType": "address",
          "name": "from",
          "type": "address"
        },
        {
          "indexed": true,
          "internalType": "address",
          "name": "to",
          "type": "address"
        },
        {
          "indexed": false,
          "internalType": "uint256",
          "name": "value",
          "type": "uint256"
        }
      ],
      "name": "Transfer",
      "type": "event"
    },
    {
      "inputs": [],
      "name": "LP_AND_AIRDROP_PERCENT",
      "outputs": [
        {
          "internalType": "uint256",
          "name": "",
          "type": "uint256"
        }
      ],
      "stateMutability": "view",
      "type": "function"
    },
    {
      "inputs": [
        {
          "internalType": "address",
          "name": "",
          "type": "address"
        }
      ],
      "name": "airdropAllocations",
      "outputs": [
        {
          "internalType": "uint256",
          "name": "",
          "type": "uint256"
        }
      ],
      "stateMutability": "view",
      "type": "function"
    },
    {
      "inputs": [
        {
          "internalType": "address",
          "name": "",
          "type": "address"
        }
      ],
      "name": "airdropClaimed",
      "outputs": [
        {
          "internalType": "bool",
          "name": "",
          "type": "bool"
        }
      ],
      "stateMutability": "view",
      "type": "function"
    },
    {
      "inputs": [
        {
          "internalType": "uint256",
          "name": "",
          "type": "uint256"
        }
      ],
      "name": "airdropRecipients",
      "outputs": [
        {
          "internalType": "address",
          "name": "",
          "type": "address"
        }
      ],
      "stateMutability": "view",
      "type": "function"
    },
    {
      "inputs": [
        {
          "internalType": "address",
          "name": "owner",
          "type": "address"
        },
        {
          "internalType": "address",
          "name": "spender",
          "type": "address"
        }
      ],
      "name": "allowance",
      "outputs": [
        {
          "internalType": "uint256",
          "name": "",
          "type": "uint256"
        }
      ],
      "stateMutability": "view",
      "type": "function"
    },
    {
      "inputs": [
        {
          "internalType": "address",
          "name": "spender",
          "type": "address"
        },
        {
          "internalType": "uint256",
          "name": "value",
          "type": "uint256"
        }
      ],
      "name": "approve",
      "outputs": [
        {
          "internalType": "bool",
          "name": "",
          "type": "bool"
        }
      ],
      "stateMutability": "nonpayable",
      "type": "function"
    },
    {
      "inputs": [
        {
          "internalType": "address",
          "name": "account",
          "type": "address"
        }
      ],
      "name": "balanceOf",
      "outputs": [
        {
          "internalType": "uint256",
          "name": "",
          "type": "uint256"
        }
      ],
      "stateMutability": "view",
      "type": "function"
    },
    {
      "inputs": [],
      "name": "basePrice",
      "outputs": [
        {
          "internalType": "uint256",
          "name": "",
          "type": "uint256"
        }
      ],
      "stateMutability": "view",
      "type": "function"
    },
    {
      "inputs": [
        {
          "internalType": "uint256",
          "name": "amount",
          "type": "uint256"
        }
      ],
      "name": "buy",
      "outputs": [],
      "stateMutability": "payable",
      "type": "function"
    },
    {
      "inputs": [],
      "name": "claimAirdrop",
      "outputs": [],
      "stateMutability": "nonpayable",
      "type": "function"
    },
    {
      "inputs": [],
      "name": "creator",
      "outputs": [
        {
          "internalType": "address",
          "name": "",
          "type": "address"
        }
      ],
      "stateMutability": "view",
      "type": "function"
    },
    {
      "inputs": [
        {
          "internalType": "uint256",
          "name": "amount",
          "type": "uint256"
        }
      ],
      "name": "creatorBuy",
      "outputs": [],
      "stateMutability": "payable",
      "type": "function"
    },
    {
      "inputs": [],
      "name": "creatorLockAmount",
      "outputs": [
        {
          "internalType": "uint256",
          "name": "",
          "type": "uint256"
        }
      ],
      "stateMutability": "view",
      "type": "function"
    },
    {
      "inputs": [],
      "name": "decimals",
      "outputs": [
        {
          "internalType": "uint8",
          "name": "",
          "type": "uint8"
        }
      ],
      "stateMutability": "view",
      "type": "function"
    },
    {
      "inputs": [],
      "name": "getAirdropAllocations",
      "outputs": [
        {
          "internalType": "address[]",
          "name": "",
          "type": "address[]"
        },
        {
          "internalType": "uint256[]",
          "name": "",
          "type": "uint256[]"
        }
      ],
      "stateMutability": "view",
      "type": "function"
    },
    {
      "inputs": [],
      "name": "getCurrentPrice",
      "outputs": [
        {
          "internalType": "uint256",
          "name": "",
          "type": "uint256"
        }
      ],
      "stateMutability": "view",
      "type": "function"
    },
    {
      "inputs": [
        {
          "internalType": "uint256",
          "name": "amount",
          "type": "uint256"
        }
      ],
      "name": "getPrice",
      "outputs": [
        {
          "internalType": "uint256",
          "name": "",
          "type": "uint256"
        }
      ],
      "stateMutability": "view",
      "type": "function"
    },
    {
      "inputs": [],
      "name": "graduate",
      "outputs": [],
      "stateMutability": "nonpayable",
      "type": "function"
    },
    {
      "inputs": [],
      "name": "graduated",
      "outputs": [
        {
          "internalType": "bool",
          "name": "",
          "type": "bool"
        }
      ],
      "stateMutability": "view",
      "type": "function"
    },
    {
      "inputs": [
        {
          "internalType": "address",
          "name": "",
          "type": "address"
        }
      ],
      "name": "lockedBalances",
      "outputs": [
        {
          "internalType": "uint256",
          "name": "",
          "type": "uint256"
        }
      ],
      "stateMutability": "view",
      "type": "function"
    },
    {
      "inputs": [],
      "name": "maxSupply",
      "outputs": [
        {
          "internalType": "uint256",
          "name": "",
          "type": "uint256"
        }
      ],
      "stateMutability": "view",
      "type": "function"
    },
    {
      "inputs": [],
      "name": "maxSupplyForSale",
      "outputs": [
        {
          "internalType": "uint256",
          "name": "",
          "type": "uint256"
        }
      ],
      "stateMutability": "view",
      "type": "function"
    },
    {
      "inputs": [],
      "name": "name",
      "outputs": [
        {
          "internalType": "string",
          "name": "",
          "type": "string"
        }
      ],
      "stateMutability": "view",
      "type": "function"
    },
    {
      "inputs": [],
      "name": "owner",
      "outputs": [
        {
          "internalType": "address",
          "name": "",
          "type": "address"
        }
      ],
      "stateMutability": "view",
      "type": "function"
    },
    {
      "inputs": [],
      "name": "platformFeeRecipient",
      "outputs": [
        {
          "internalType": "address",
          "name": "",
          "type": "address"
        }
      ],
      "stateMutability": "view",
      "type": "function"
    },
    {
      "inputs": [],
      "name": "raiseTarget",
      "outputs": [
        {
          "internalType": "uint256",
          "name": "",
          "type": "uint256"
        }
      ],
      "stateMutability": "view",
      "type": "function"
    },
    {
      "inputs": [],
      "name": "renounceOwnership",
      "outputs": [],
      "stateMutability": "nonpayable",
      "type": "function"
    },
    {
      "inputs": [],
      "name": "reservedForAirdrop",
      "outputs": [
        {
          "internalType": "uint256",
          "name": "",
          "type": "uint256"
        }
      ],
      "stateMutability": "view",
      "type": "function"
    },
    {
      "inputs": [
        {
          "internalType": "address[]",
          "name": "recipients",
          "type": "address[]"
        },
        {
          "internalType": "uint256[]",
          "name": "amounts",
          "type": "uint256[]"
        }
      ],
      "name": "setAirdropAllocations",
      "outputs": [],
      "stateMutability": "nonpayable",
      "type": "function"
    },
    {
      "inputs": [],
      "name": "slope",
      "outputs": [
        {
          "internalType": "uint256",
          "name": "",
          "type": "uint256"
        }
      ],
      "stateMutability": "view",
      "type": "function"
    },
    {
      "inputs": [],
      "name": "symbol",
      "outputs": [
        {
          "internalType": "string",
          "name": "",
          "type": "string"
        }
      ],
      "stateMutability": "view",
      "type": "function"
    },
    {
      "inputs": [],
      "name": "tokenInfo",
      "outputs": [
        {
          "internalType": "address",
          "name": "_creator",
          "type": "address"
        },
        {
          "internalType": "address",
          "name": "_platformFeeRecipient",
          "type": "address"
        },
        {
          "internalType": "uint256",
          "name": "_raiseTarget",
          "type": "uint256"
        },
        {
          "internalType": "uint256",
          "name": "_maxSupply",
          "type": "uint256"
        },
        {
          "internalType": "uint256",
          "name": "_basePrice",
          "type": "uint256"
        },
        {
          "internalType": "uint256",
          "name": "_slope",
          "type": "uint256"
        },
        {
          "internalType": "uint256",
          "name": "_totalRaised",
          "type": "uint256"
        },
        {
          "internalType": "bool",
          "name": "_graduated",
          "type": "bool"
        },
        {
          "internalType": "uint256",
          "name": "_creatorLockAmount",
          "type": "uint256"
        }
      ],
      "stateMutability": "view",
      "type": "function"
    },
    {
      "inputs": [],
      "name": "totalRaised",
      "outputs": [
        {
          "internalType": "uint256",
          "name": "",
          "type": "uint256"
        }
      ],
      "stateMutability": "view",
      "type": "function"
    },
    {
      "inputs": [],
      "name": "totalSupply",
      "outputs": [
        {
          "internalType": "uint256",
          "name": "",
          "type": "uint256"
        }
      ],
      "stateMutability": "view",
      "type": "function"
    },
    {
      "inputs": [
        {
          "internalType": "address",
          "name": "to",
          "type": "address"
        },
        {
          "internalType": "uint256",
          "name": "value",
          "type": "uint256"
        }
      ],
      "name": "transfer",
      "outputs": [
        {
          "internalType": "bool",
          "name": "",
          "type": "bool"
        }
      ],
      "stateMutability": "nonpayable",
      "type": "function"
    },
    {
      "inputs": [
        {
          "internalType": "address",
          "name": "from",
          "type": "address"
        },
        {
          "internalType": "address",
          "name": "to",
          "type": "address"
        },
        {
          "internalType": "uint256",
          "name": "value",
          "type": "uint256"
        }
      ],
      "name": "transferFrom",
      "outputs": [
        {
          "internalType": "bool",
          "name": "",
          "type": "bool"
        }
      ],
      "stateMutability": "nonpayable",
      "type": "function"
    },
    {
      "inputs": [
        {
          "internalType": "address",
          "name": "newOwner",
          "type": "address"
        }
      ],
      "name": "transferOwnership",
      "outputs": [],
      "stateMutability": "nonpayable",
      "type": "function"
    },
    {
      "inputs": [],
      "name": "unlockCreatorTokens",
      "outputs": [],
      "stateMutability": "nonpayable",
      "type": "function"
    },
    {
      "inputs": [],
      "name": "withdraw",
      "outputs": [],
      "stateMutability": "nonpayable",
      "type": "function"
    },
    {
      "stateMutability": "payable",
      "type": "receive"
    }
  ],
  "bytecode": "0x60a060405234801561001057600080fd5b50604051614584380380614584833981810160405281019061003291906104ae565b8286868160039081610044919061078a565b508060049081610054919061078a565b505050600073ffffffffffffffffffffffffffffffffffffffff168173ffffffffffffffffffffffffffffffffffffffff16036100c95760006040517f1e4fbdf70000000000000000000000000000000000000000000000000000000081526004016100c0919061086b565b60405180910390fd5b6100d8816101df60201b60201c565b508360068190555082600860006101000a81548173ffffffffffffffffffffffffffffffffffffffff021916908373ffffffffffffffffffffffffffffffffffffffff160217905550816080818152505080600760006101000a81548173ffffffffffffffffffffffffffffffffffffffff021916908373ffffffffffffffffffffffffffffffffffffffff160217905550600060648361017991906108e4565b90506002816101889190610915565b670de0b6b3a76400008661019c9190610915565b6101a691906108e4565b60108190555080670de0b6b3a76400006010546101c39190610915565b6101cd91906108e4565b60118190555050505050505050610957565b6000600560009054906101000a900473ffffffffffffffffffffffffffffffffffffffff16905081600560006101000a81548173ffffffffffffffffffffffffffffffffffffffff021916908373ffffffffffffffffffffffffffffffffffffffff1602179055508173ffffffffffffffffffffffffffffffffffffffff168173ffffffffffffffffffffffffffffffffffffffff167f8be0079c531659141344cd1fd0a4f28419497f9722a3daafe3b4186f6b6457e060405160405180910390a35050565b6000604051905090565b600080fd5b600080fd5b600080fd5b600080fd5b6000601f19601f8301169050919050565b7f4e487b7100000000000000000000000000000000000000000000000000000000600052604160045260246000fd5b61030c826102c3565b810181811067ffffffffffffffff8211171561032b5761032a6102d4565b5b80604052505050565b600061033e6102a5565b905061034a8282610303565b919050565b600067ffffffffffffffff82111561036a576103696102d4565b5b610373826102c3565b9050602081019050919050565b60005b8381101561039e578082015181840152602081019050610383565b60008484015250505050565b60006103bd6103b88461034f565b610334565b9050828152602081018484840111156103d9576103d86102be565b5b6103e4848285610380565b509392505050565b600082601f830112610401576104006102b9565b5b81516104118482602086016103aa565b91505092915050565b6000819050919050565b61042d8161041a565b811461043857600080fd5b50565b60008151905061044a81610424565b92915050565b600073ffffffffffffffffffffffffffffffffffffffff82169050919050565b600061047b82610450565b9050919050565b61048b81610470565b811461049657600080fd5b50565b6000815190506104a881610482565b92915050565b60008060008060008060c087890312156104cb576104ca6102af565b5b600087015167ffffffffffffffff8111156104e9576104e86102b4565b5b6104f589828a016103ec565b965050602087015167ffffffffffffffff811115610516576105156102b4565b5b61052289828a016103ec565b955050604061053389828a0161043b565b945050606061054489828a01610499565b935050608061055589828a0161043b565b92505060a061056689828a01610499565b9150509295509295509295565b600081519050919050565b7f4e487b7100000000000000000000000000000000000000000000000000000000600052602260045260246000fd5b600060028204905060018216806105c557607f821691505b6020821081036105d8576105d761057e565b5b50919050565b60008190508160005260206000209050919050565b60006020601f8301049050919050565b600082821b905092915050565b6000600883026106407fffffffffffffffffffffffffffffffffffffffffffffffffffffffffffffffff82610603565b61064a8683610603565b95508019841693508086168417925050509392505050565b6000819050919050565b600061068761068261067d8461041a565b610662565b61041a565b9050919050565b6000819050919050565b6106a18361066c565b6106b56106ad8261068e565b848454610610565b825550505050565b600090565b6106ca6106bd565b6106d5818484610698565b505050565b5b818110156106f9576106ee6000826106c2565b6001810190506106db565b5050565b601f82111561073e5761070f816105de565b610718846105f3565b81016020851015610727578190505b61073b610733856105f3565b8301826106da565b50505b505050565b600082821c905092915050565b600061076160001984600802610743565b1980831691505092915050565b600061077a8383610750565b9150826002028217905092915050565b61079382610573565b67ffffffffffffffff8111156107ac576107ab6102d4565b5b6107b682546105ad565b6107c18282856106fd565b600060209050601f8311600181146107f457600084156107e2578287015190505b6107ec858261076e565b865550610854565b601f198416610802866105de565b60005b8281101561082a57848901518255600182019150602085019450602081019050610805565b868310156108475784890151610843601f891682610750565b8355505b6001600288020188555050505b505050505050565b61086581610470565b82525050565b6000602082019050610880600083018461085c565b92915050565b7f4e487b7100000000000000000000000000000000000000000000000000000000600052601260045260246000fd5b7f4e487b7100000000000000000000000000000000000000000000000000000000600052601160045260246000fd5b60006108ef8261041a565b91506108fa8361041a565b92508261090a57610909610886565b5b828204905092915050565b60006109208261041a565b915061092b8361041a565b92508282026109398161041a565b915082820484148315176109505761094f6108b5565b5b5092915050565b608051613bfd61098760003960008181611104015281816119a101528181611b240152611eb30152613bfd6000f3fe6080604052600436106102345760003560e01c8063a9059cbb1161012e578063d96a094a116100ab578063eb13554f1161006f578063eb13554f14610831578063eb91d37e1461085c578063f2fde38b14610887578063f4227e95146108b0578063fc6fec4c146108db5761023b565b8063d96a094a14610745578063dd62ed3e14610761578063e388010d1461079e578063e7572230146107c9578063e7c2b772146108065761023b565b8063c7876ea4116100f2578063c7876ea41461065e578063cdbbf18614610689578063d1b6dd30146106c6578063d3618cca14610703578063d5abeb011461071a5761023b565b8063a9059cbb14610598578063b34ffc5f146105d5578063b4105e06146105f1578063be8755a914610608578063c5c4744c146106335761023b565b80633ccfd60b116101bc578063715018a611610180578063715018a6146104d557806383caf275146104ec57806385131976146105175780638da5cb5b1461054257806395d89b411461056d5761023b565b80633ccfd60b146103fa5780635b88349d14610411578063646304a1146104285780636addb6631461046557806370a08231146104985761023b565b80630b579f1f116102035780630b579f1f1461031057806318160ddd1461033c57806323b872dd1461036757806324d4de70146103a4578063313ce567146103cf5761023b565b806302d05d3f146102405780630483a7f61461026b57806306fdde03146102a8578063095ea7b3146102d35761023b565b3661023b57005b600080fd5b34801561024c57600080fd5b50610255610904565b6040516102629190612b19565b60405180910390f35b34801561027757600080fd5b50610292600480360381019061028d9190612b6a565b61092a565b60405161029f9190612bb0565b60405180910390f35b3480156102b457600080fd5b506102bd610942565b6040516102ca9190612c5b565b60405180910390f35b3480156102df57600080fd5b506102fa60048036038101906102f59190612ca9565b6109d4565b6040516103079190612d04565b60405180910390f35b34801561031c57600080fd5b506103256109f7565b604051610333929190612e9b565b60405180910390f35b34801561034857600080fd5b50610351610bc9565b60405161035e9190612bb0565b60405180910390f35b34801561037357600080fd5b5061038e60048036038101906103899190612ed2565b610bd3565b60405161039b9190612d04565b60405180910390f35b3480156103b057600080fd5b506103b9610c02565b6040516103c69190612bb0565b60405180910390f35b3480156103db57600080fd5b506103e4610c07565b6040516103f19190612f41565b60405180910390f35b34801561040657600080fd5b5061040f610c10565b005b34801561041d57600080fd5b50610426610ea4565b005b34801561043457600080fd5b5061044f600480360381019061044a9190612f5c565b61106c565b60405161045c9190612b19565b60405180910390f35b34801561047157600080fd5b5061047a6110ab565b60405161048f99989796959493929190612f89565b60405180910390f35b3480156104a457600080fd5b506104bf60048036038101906104ba9190612b6a565b61115c565b6040516104cc9190612bb0565b60405180910390f35b3480156104e157600080fd5b506104ea6111a4565b005b3480156104f857600080fd5b506105016111b8565b60405161050e9190612bb0565b60405180910390f35b34801561052357600080fd5b5061052c6111be565b6040516105399190612bb0565b60405180910390f35b34801561054e57600080fd5b506105576111c4565b6040516105649190612b19565b60405180910390f35b34801561057957600080fd5b506105826111ee565b60405161058f9190612c5b565b60405180910390f35b3480156105a457600080fd5b506105bf60048036038101906105ba9190612ca9565b611280565b6040516105cc9190612d04565b60405180910390f35b6105ef60048036038101906105ea9190612f5c565b6112a3565b005b3480156105fd57600080fd5b50610606611719565b005b34801561061457600080fd5b5061061d611999565b60405161062a9190612bb0565b60405180910390f35b34801561063f57600080fd5b506106486119d9565b6040516106559190612bb0565b60405180910390f35b34801561066a57600080fd5b506106736119df565b6040516106809190612bb0565b60405180910390f35b34801561069557600080fd5b506106b060048036038101906106ab9190612b6a565b6119e5565b6040516106bd9190612bb0565b60405180910390f35b3480156106d257600080fd5b506106ed60048036038101906106e89190612b6a565b6119fd565b6040516106fa9190612d04565b60405180910390f35b34801561070f57600080fd5b50610718611a1d565b005b34801561072657600080fd5b5061072f611b22565b60405161073c9190612bb0565b60405180910390f35b61075f600480360381019061075a9190612f5c565b611b46565b005b34801561076d57600080fd5b5061078860048036038101906107839190613016565b611e18565b6040516107959190612bb0565b60405180910390f35b3480156107aa57600080fd5b506107b3611e9f565b6040516107c09190612bb0565b60405180910390f35b3480156107d557600080fd5b506107f060048036038101906107eb9190612f5c565b611eeb565b6040516107fd9190612bb0565b60405180910390f35b34801561081257600080fd5b5061081b611f7d565b6040516108289190612d04565b60405180910390f35b34801561083d57600080fd5b50610846611f90565b6040516108539190612b19565b60405180910390f35b34801561086857600080fd5b50610871611fb6565b60405161087e9190612bb0565b60405180910390f35b34801561089357600080fd5b506108ae60048036038101906108a99190612b6a565b611ff2565b005b3480156108bc57600080fd5b506108c5612078565b6040516108d29190612bb0565b60405180910390f35b3480156108e757600080fd5b5061090260048036038101906108fd9190613111565b61207e565b005b600860009054906101000a900473ffffffffffffffffffffffffffffffffffffffff1681565b600c6020528060005260406000206000915090505481565b606060038054610951906131c1565b80601f016020809104026020016040519081016040528092919081815260200182805461097d906131c1565b80156109ca5780601f1061099f576101008083540402835291602001916109ca565b820191906000526020600020905b8154815290600101906020018083116109ad57829003601f168201915b5050505050905090565b6000806109df61236a565b90506109ec818585612372565b600191505092915050565b6060806000600f80549050905060008167ffffffffffffffff811115610a2057610a1f6131f2565b5b604051908082528060200260200182016040528015610a4e5781602001602082028036833780820191505090505b50905060008267ffffffffffffffff811115610a6d57610a6c6131f2565b5b604051908082528060200260200182016040528015610a9b5781602001602082028036833780820191505090505b50905060005b83811015610bbb57600f8181548110610abd57610abc613221565b5b9060005260206000200160009054906101000a900473ffffffffffffffffffffffffffffffffffffffff16838281518110610afb57610afa613221565b5b602002602001019073ffffffffffffffffffffffffffffffffffffffff16908173ffffffffffffffffffffffffffffffffffffffff1681525050600d6000848381518110610b4c57610b4b613221565b5b602002602001015173ffffffffffffffffffffffffffffffffffffffff1673ffffffffffffffffffffffffffffffffffffffff16815260200190815260200160002054828281518110610ba257610ba1613221565b5b6020026020010181815250508080600101915050610aa1565b508181945094505050509091565b6000600254905090565b600080610bde61236a565b9050610beb858285612384565b610bf6858585612419565b60019150509392505050565b601481565b60006012905090565b600860009054906101000a900473ffffffffffffffffffffffffffffffffffffffff1673ffffffffffffffffffffffffffffffffffffffff163373ffffffffffffffffffffffffffffffffffffffff1614610ca0576040517f08c379a0000000000000000000000000000000000000000000000000000000008152600401610c979061329c565b60405180910390fd5b60004711610ce3576040517f08c379a0000000000000000000000000000000000000000000000000000000008152600401610cda90613308565b60405180910390fd5b600a60009054906101000a900460ff16610d32576040517f08c379a0000000000000000000000000000000000000000000000000000000008152600401610d2990613374565b60405180910390fd5b600061271060c847610d4491906133c3565b610d4e9190613434565b905060008147610d5e9190613465565b90506000600760009054906101000a900473ffffffffffffffffffffffffffffffffffffffff1673ffffffffffffffffffffffffffffffffffffffff1683604051610da8906134ca565b60006040518083038185875af1925050503d8060008114610de5576040519150601f19603f3d011682016040523d82523d6000602084013e610dea565b606091505b5050905080610e2e576040517f08c379a0000000000000000000000000000000000000000000000000000000008152600401610e259061352b565b60405180910390fd5b600860009054906101000a900473ffffffffffffffffffffffffffffffffffffffff1673ffffffffffffffffffffffffffffffffffffffff166108fc839081150290604051600060405180830381858888f19350505050158015610e96573d6000803e3d6000fd5b506000600981905550505050565b600a60009054906101000a900460ff16610ef3576040517f08c379a0000000000000000000000000000000000000000000000000000000008152600401610eea90613597565b60405180910390fd5b600e60003373ffffffffffffffffffffffffffffffffffffffff1673ffffffffffffffffffffffffffffffffffffffff16815260200190815260200160002060009054906101000a900460ff1615610f80576040517f08c379a0000000000000000000000000000000000000000000000000000000008152600401610f7790613603565b60405180910390fd5b6000600d60003373ffffffffffffffffffffffffffffffffffffffff1673ffffffffffffffffffffffffffffffffffffffff16815260200190815260200160002054905060008111611007576040517f08c379a0000000000000000000000000000000000000000000000000000000008152600401610ffe9061366f565b60405180910390fd5b6001600e60003373ffffffffffffffffffffffffffffffffffffffff1673ffffffffffffffffffffffffffffffffffffffff16815260200190815260200160002060006101000a81548160ff021916908315150217905550611069338261250d565b50565b600f818154811061107c57600080fd5b906000526020600020016000915054906101000a900473ffffffffffffffffffffffffffffffffffffffff1681565b6000806000806000806000806000600860009054906101000a900473ffffffffffffffffffffffffffffffffffffffff16600760009054906101000a900473ffffffffffffffffffffffffffffffffffffffff166006547f0000000000000000000000000000000000000000000000000000000000000000601054601154600954600a60009054906101000a900460ff16600b54985098509850985098509850985098509850909192939495969798565b60008060008373ffffffffffffffffffffffffffffffffffffffff1673ffffffffffffffffffffffffffffffffffffffff168152602001908152602001600020549050919050565b6111ac61258f565b6111b66000612616565b565b60115481565b60065481565b6000600560009054906101000a900473ffffffffffffffffffffffffffffffffffffffff16905090565b6060600480546111fd906131c1565b80601f0160208091040260200160405190810160405280929190818152602001828054611229906131c1565b80156112765780601f1061124b57610100808354040283529160200191611276565b820191906000526020600020905b81548152906001019060200180831161125957829003601f168201915b5050505050905090565b60008061128b61236a565b9050611298818585612419565b600191505092915050565b600860009054906101000a900473ffffffffffffffffffffffffffffffffffffffff1673ffffffffffffffffffffffffffffffffffffffff163373ffffffffffffffffffffffffffffffffffffffff1614611333576040517f08c379a000000000000000000000000000000000000000000000000000000000815260040161132a9061329c565b60405180910390fd5b600a60009054906101000a900460ff1615611383576040517f08c379a000000000000000000000000000000000000000000000000000000000815260040161137a906136db565b60405180910390fd5b600061138e82611eeb565b9050803410156113d3576040517f08c379a00000000000000000000000000000000000000000000000000000000081526004016113ca90613747565b60405180910390fd5b6113db611e9f565b826113e4610bc9565b6113ee9190613767565b111561142f576040517f08c379a0000000000000000000000000000000000000000000000000000000008152600401611426906137e7565b60405180910390fd5b611437611999565b82600c6000600860009054906101000a900473ffffffffffffffffffffffffffffffffffffffff1673ffffffffffffffffffffffffffffffffffffffff1673ffffffffffffffffffffffffffffffffffffffff168152602001908152602001600020546114a49190613767565b11156114e5576040517f08c379a00000000000000000000000000000000000000000000000000000000081526004016114dc90613853565b60405180910390fd5b60006127106064836114f791906133c3565b6115019190613434565b9050808261150f9190613465565b600960008282546115209190613767565b92505081905550611531308461250d565b82600c6000600860009054906101000a900473ffffffffffffffffffffffffffffffffffffffff1673ffffffffffffffffffffffffffffffffffffffff1673ffffffffffffffffffffffffffffffffffffffff16815260200190815260200160002060008282546115a29190613767565b9250508190555082600b60008282546115bb9190613767565b925050819055507f77c4ff2d3de977cf4bd36aa220db7839bc74bdd1c7a1c3d47bbb34ba89d16a61600760009054906101000a900473ffffffffffffffffffffffffffffffffffffffff1682604051611615929190613873565b60405180910390a16000600760009054906101000a900473ffffffffffffffffffffffffffffffffffffffff1673ffffffffffffffffffffffffffffffffffffffff166108fc839081150290604051600060405180830381858888f193505050509050806116b8576040517f08c379a00000000000000000000000000000000000000000000000000000000081526004016116af906138e8565b60405180910390fd5b82341115611713573373ffffffffffffffffffffffffffffffffffffffff166108fc84346116e69190613465565b9081150290604051600060405180830381858888f19350505050158015611711573d6000803e3d6000fd5b505b50505050565b600860009054906101000a900473ffffffffffffffffffffffffffffffffffffffff1673ffffffffffffffffffffffffffffffffffffffff163373ffffffffffffffffffffffffffffffffffffffff16146117a9576040517f08c379a00000000000000000000000000000000000000000000000000000000081526004016117a09061329c565b60405180910390fd5b600a60009054906101000a900460ff166117f8576040517f08c379a00000000000000000000000000000000000000000000000000000000081526004016117ef90613374565b60405180910390fd5b6000600c6000600860009054906101000a900473ffffffffffffffffffffffffffffffffffffffff1673ffffffffffffffffffffffffffffffffffffffff1673ffffffffffffffffffffffffffffffffffffffff168152602001908152602001600020541161189c576040517f08c379a000000000000000000000000000000000000000000000000000000000815260040161189390613954565b60405180910390fd5b6000600c6000600860009054906101000a900473ffffffffffffffffffffffffffffffffffffffff1673ffffffffffffffffffffffffffffffffffffffff1673ffffffffffffffffffffffffffffffffffffffff1681526020019081526020016000205490506000600c6000600860009054906101000a900473ffffffffffffffffffffffffffffffffffffffff1673ffffffffffffffffffffffffffffffffffffffff1673ffffffffffffffffffffffffffffffffffffffff1681526020019081526020016000208190555061199630600860009054906101000a900473ffffffffffffffffffffffffffffffffffffffff1683612419565b50565b6000606460147f00000000000000000000000000000000000000000000000000000000000000006119ca91906133c3565b6119d49190613434565b905090565b60095481565b60105481565b600d6020528060005260406000206000915090505481565b600e6020528060005260406000206000915054906101000a900460ff1681565b600a60009054906101000a900460ff1615611a6d576040517f08c379a0000000000000000000000000000000000000000000000000000000008152600401611a64906136db565b60405180910390fd5b6006546009541015611ab4576040517f08c379a0000000000000000000000000000000000000000000000000000000008152600401611aab906139c0565b60405180910390fd5b611abc611e9f565b611ac4610bc9565b1115611b05576040517f08c379a0000000000000000000000000000000000000000000000000000000008152600401611afc90613a2c565b60405180910390fd5b6001600a60006101000a81548160ff021916908315150217905550565b7f000000000000000000000000000000000000000000000000000000000000000081565b600a60009054906101000a900460ff1615611b96576040517f08c379a0000000000000000000000000000000000000000000000000000000008152600401611b8d906136db565b60405180910390fd5b6000611ba182611eeb565b905080341015611be6576040517f08c379a0000000000000000000000000000000000000000000000000000000008152600401611bdd90613747565b60405180910390fd5b611bee611e9f565b82611bf7610bc9565b611c019190613767565b1115611c42576040517f08c379a0000000000000000000000000000000000000000000000000000000008152600401611c39906137e7565b60405180910390fd5b6000612710606483611c5491906133c3565b611c5e9190613434565b90508082611c6c9190613465565b60096000828254611c7d9190613767565b92505081905550611c8e338461250d565b7f77c4ff2d3de977cf4bd36aa220db7839bc74bdd1c7a1c3d47bbb34ba89d16a61600760009054906101000a900473ffffffffffffffffffffffffffffffffffffffff1682604051611ce1929190613873565b60405180910390a16000600760009054906101000a900473ffffffffffffffffffffffffffffffffffffffff1673ffffffffffffffffffffffffffffffffffffffff1682604051611d31906134ca565b60006040518083038185875af1925050503d8060008114611d6e576040519150601f19603f3d011682016040523d82523d6000602084013e611d73565b606091505b5050905080611db7576040517f08c379a0000000000000000000000000000000000000000000000000000000008152600401611dae90613a98565b60405180910390fd5b82341115611e12573373ffffffffffffffffffffffffffffffffffffffff166108fc8434611de59190613465565b9081150290604051600060405180830381858888f19350505050158015611e10573d6000803e3d6000fd5b505b50505050565b6000600160008473ffffffffffffffffffffffffffffffffffffffff1673ffffffffffffffffffffffffffffffffffffffff16815260200190815260200160002060008373ffffffffffffffffffffffffffffffffffffffff1673ffffffffffffffffffffffffffffffffffffffff16815260200190815260200160002054905092915050565b6000606460146064611eb19190613465565b7f0000000000000000000000000000000000000000000000000000000000000000611edc91906133c3565b611ee69190613434565b905090565b600080611ef6610bc9565b9050600060105484611f0891906133c3565b905060008285611f1891906133c3565b905060006002600187611f2b9190613465565b87611f3691906133c3565b611f409190613434565b905060008183611f509190613767565b601154611f5d91906133c3565b905060008185611f6d9190613767565b9050809650505050505050919050565b600a60009054906101000a900460ff1681565b600760009054906101000a900473ffffffffffffffffffffffffffffffffffffffff1681565b6000670de0b6b3a7640000611fc9610bc9565b601154611fd691906133c3565b611fe09190613434565b601054611fed9190613767565b905090565b611ffa61258f565b600073ffffffffffffffffffffffffffffffffffffffff168173ffffffffffffffffffffffffffffffffffffffff160361206c5760006040517f1e4fbdf70000000000000000000000000000000000000000000000000000000081526004016120639190612b19565b60405180910390fd5b61207581612616565b50565b600b5481565b600860009054906101000a900473ffffffffffffffffffffffffffffffffffffffff1673ffffffffffffffffffffffffffffffffffffffff163373ffffffffffffffffffffffffffffffffffffffff161461210e576040517f08c379a00000000000000000000000000000000000000000000000000000000081526004016121059061329c565b60405180910390fd5b600a60009054906101000a900460ff161561215e576040517f08c379a0000000000000000000000000000000000000000000000000000000008152600401612155906136db565b60405180910390fd5b8181905084849050146121a6576040517f08c379a000000000000000000000000000000000000000000000000000000000815260040161219d90613b04565b60405180910390fd5b6000805b858590508110156123185760008686838181106121ca576121c9613221565b5b90506020020160208101906121df9190612b6a565b905060008585848181106121f6576121f5613221565b5b9050602002013590506000600d60008473ffffffffffffffffffffffffffffffffffffffff1673ffffffffffffffffffffffffffffffffffffffff1681526020019081526020016000205414801561224e5750600081115b156122b757600f829080600181540180825580915050600190039060005260206000200160009091909190916101000a81548173ffffffffffffffffffffffffffffffffffffffff021916908373ffffffffffffffffffffffffffffffffffffffff1602179055505b80600d60008473ffffffffffffffffffffffffffffffffffffffff1673ffffffffffffffffffffffffffffffffffffffff1681526020019081526020016000208190555080846123079190613767565b9350505080806001019150506121aa565b50612321611999565b811115612363576040517f08c379a000000000000000000000000000000000000000000000000000000000815260040161235a90613b70565b60405180910390fd5b5050505050565b600033905090565b61237f83838360016126dc565b505050565b60006123908484611e18565b90507fffffffffffffffffffffffffffffffffffffffffffffffffffffffffffffffff8110156124135781811015612403578281836040517ffb8f41b20000000000000000000000000000000000000000000000000000000081526004016123fa93929190613b90565b60405180910390fd5b612412848484840360006126dc565b5b50505050565b600073ffffffffffffffffffffffffffffffffffffffff168373ffffffffffffffffffffffffffffffffffffffff160361248b5760006040517f96c6fd1e0000000000000000000000000000000000000000000000000000000081526004016124829190612b19565b60405180910390fd5b600073ffffffffffffffffffffffffffffffffffffffff168273ffffffffffffffffffffffffffffffffffffffff16036124fd5760006040517fec442f050000000000000000000000000000000000000000000000000000000081526004016124f49190612b19565b60405180910390fd5b6125088383836128b3565b505050565b600073ffffffffffffffffffffffffffffffffffffffff168273ffffffffffffffffffffffffffffffffffffffff160361257f5760006040517fec442f050000000000000000000000000000000000000000000000000000000081526004016125769190612b19565b60405180910390fd5b61258b600083836128b3565b5050565b61259761236a565b73ffffffffffffffffffffffffffffffffffffffff166125b56111c4565b73ffffffffffffffffffffffffffffffffffffffff1614612614576125d861236a565b6040517f118cdaa700000000000000000000000000000000000000000000000000000000815260040161260b9190612b19565b60405180910390fd5b565b6000600560009054906101000a900473ffffffffffffffffffffffffffffffffffffffff16905081600560006101000a81548173ffffffffffffffffffffffffffffffffffffffff021916908373ffffffffffffffffffffffffffffffffffffffff1602179055508173ffffffffffffffffffffffffffffffffffffffff168173ffffffffffffffffffffffffffffffffffffffff167f8be0079c531659141344cd1fd0a4f28419497f9722a3daafe3b4186f6b6457e060405160405180910390a35050565b600073ffffffffffffffffffffffffffffffffffffffff168473ffffffffffffffffffffffffffffffffffffffff160361274e5760006040517fe602df050000000000000000000000000000000000000000000000000000000081526004016127459190612b19565b60405180910390fd5b600073ffffffffffffffffffffffffffffffffffffffff168373ffffffffffffffffffffffffffffffffffffffff16036127c05760006040517f94280d620000000000000000000000000000000000000000000000000000000081526004016127b79190612b19565b60405180910390fd5b81600160008673ffffffffffffffffffffffffffffffffffffffff1673ffffffffffffffffffffffffffffffffffffffff16815260200190815260200160002060008573ffffffffffffffffffffffffffffffffffffffff1673ffffffffffffffffffffffffffffffffffffffff1681526020019081526020016000208190555080156128ad578273ffffffffffffffffffffffffffffffffffffffff168473ffffffffffffffffffffffffffffffffffffffff167f8c5be1e5ebec7d5bd14f71427d1e84f3dd0314c0f7b2291e5b200ac8c7c3b925846040516128a49190612bb0565b60405180910390a35b50505050565b600073ffffffffffffffffffffffffffffffffffffffff168373ffffffffffffffffffffffffffffffffffffffff16036129055780600260008282546128f99190613767565b925050819055506129d8565b60008060008573ffffffffffffffffffffffffffffffffffffffff1673ffffffffffffffffffffffffffffffffffffffff16815260200190815260200160002054905081811015612991578381836040517fe450d38c00000000000000000000000000000000000000000000000000000000815260040161298893929190613b90565b60405180910390fd5b8181036000808673ffffffffffffffffffffffffffffffffffffffff1673ffffffffffffffffffffffffffffffffffffffff16815260200190815260200160002081905550505b600073ffffffffffffffffffffffffffffffffffffffff168273ffffffffffffffffffffffffffffffffffffffff1603612a215780600260008282540392505081905550612a6e565b806000808473ffffffffffffffffffffffffffffffffffffffff1673ffffffffffffffffffffffffffffffffffffffff168152602001908152602001600020600082825401925050819055505b8173ffffffffffffffffffffffffffffffffffffffff168373ffffffffffffffffffffffffffffffffffffffff167fddf252ad1be2c89b69c2b068fc378daa952ba7f163c4a11628f55a4df523b3ef83604051612acb9190612bb0565b60405180910390a3505050565b600073ffffffffffffffffffffffffffffffffffffffff82169050919050565b6000612b0382612ad8565b9050919050565b612b1381612af8565b82525050565b6000602082019050612b2e6000830184612b0a565b92915050565b600080fd5b600080fd5b612b4781612af8565b8114612b5257600080fd5b50565b600081359050612b6481612b3e565b92915050565b600060208284031215612b8057612b7f612b34565b5b6000612b8e84828501612b55565b91505092915050565b6000819050919050565b612baa81612b97565b82525050565b6000602082019050612bc56000830184612ba1565b92915050565b600081519050919050565b600082825260208201905092915050565b60005b83811015612c05578082015181840152602081019050612bea565b60008484015250505050565b6000601f19601f8301169050919050565b6000612c2d82612bcb565b612c378185612bd6565b9350612c47818560208601612be7565b612c5081612c11565b840191505092915050565b60006020820190508181036000830152612c758184612c22565b905092915050565b612c8681612b97565b8114612c9157600080fd5b50565b600081359050612ca381612c7d565b92915050565b60008060408385031215612cc057612cbf612b34565b5b6000612cce85828601612b55565b9250506020612cdf85828601612c94565b9150509250929050565b60008115159050919050565b612cfe81612ce9565b82525050565b6000602082019050612d196000830184612cf5565b92915050565b600081519050919050565b600082825260208201905092915050565b6000819050602082019050919050565b612d5481612af8565b82525050565b6000612d668383612d4b565b60208301905092915050565b6000602082019050919050565b6000612d8a82612d1f565b612d948185612d2a565b9350612d9f83612d3b565b8060005b83811015612dd0578151612db78882612d5a565b9750612dc283612d72565b925050600181019050612da3565b5085935050505092915050565b600081519050919050565b600082825260208201905092915050565b6000819050602082019050919050565b612e1281612b97565b82525050565b6000612e248383612e09565b60208301905092915050565b6000602082019050919050565b6000612e4882612ddd565b612e528185612de8565b9350612e5d83612df9565b8060005b83811015612e8e578151612e758882612e18565b9750612e8083612e30565b925050600181019050612e61565b5085935050505092915050565b60006040820190508181036000830152612eb58185612d7f565b90508181036020830152612ec98184612e3d565b90509392505050565b600080600060608486031215612eeb57612eea612b34565b5b6000612ef986828701612b55565b9350506020612f0a86828701612b55565b9250506040612f1b86828701612c94565b9150509250925092565b600060ff82169050919050565b612f3b81612f25565b82525050565b6000602082019050612f566000830184612f32565b92915050565b600060208284031215612f7257612f71612b34565b5b6000612f8084828501612c94565b91505092915050565b600061012082019050612f9f600083018c612b0a565b612fac602083018b612b0a565b612fb9604083018a612ba1565b612fc66060830189612ba1565b612fd36080830188612ba1565b612fe060a0830187612ba1565b612fed60c0830186612ba1565b612ffa60e0830185612cf5565b613008610100830184612ba1565b9a9950505050505050505050565b6000806040838503121561302d5761302c612b34565b5b600061303b85828601612b55565b925050602061304c85828601612b55565b9150509250929050565b600080fd5b600080fd5b600080fd5b60008083601f84011261307b5761307a613056565b5b8235905067ffffffffffffffff8111156130985761309761305b565b5b6020830191508360208202830111156130b4576130b3613060565b5b9250929050565b60008083601f8401126130d1576130d0613056565b5b8235905067ffffffffffffffff8111156130ee576130ed61305b565b5b60208301915083602082028301111561310a57613109613060565b5b9250929050565b6000806000806040858703121561312b5761312a612b34565b5b600085013567ffffffffffffffff81111561314957613148612b39565b5b61315587828801613065565b9450945050602085013567ffffffffffffffff81111561317857613177612b39565b5b613184878288016130bb565b925092505092959194509250565b7f4e487b7100000000000000000000000000000000000000000000000000000000600052602260045260246000fd5b600060028204905060018216806131d957607f821691505b6020821081036131ec576131eb613192565b5b50919050565b7f4e487b7100000000000000000000000000000000000000000000000000000000600052604160045260246000fd5b7f4e487b7100000000000000000000000000000000000000000000000000000000600052603260045260246000fd5b7f4e6f742063726561746f72000000000000000000000000000000000000000000600082015250565b6000613286600b83612bd6565b915061329182613250565b602082019050919050565b600060208201905081810360008301526132b581613279565b9050919050565b7f4e6f7468696e6720746f20776974686472617700000000000000000000000000600082015250565b60006132f2601383612bd6565b91506132fd826132bc565b602082019050919050565b60006020820190508181036000830152613321816132e5565b9050919050565b7f4e6f742067726164756174656420796574000000000000000000000000000000600082015250565b600061335e601183612bd6565b915061336982613328565b602082019050919050565b6000602082019050818103600083015261338d81613351565b9050919050565b7f4e487b7100000000000000000000000000000000000000000000000000000000600052601160045260246000fd5b60006133ce82612b97565b91506133d983612b97565b92508282026133e781612b97565b915082820484148315176133fe576133fd613394565b5b5092915050565b7f4e487b7100000000000000000000000000000000000000000000000000000000600052601260045260246000fd5b600061343f82612b97565b915061344a83612b97565b92508261345a57613459613405565b5b828204905092915050565b600061347082612b97565b915061347b83612b97565b925082820390508181111561349357613492613394565b5b92915050565b600081905092915050565b50565b60006134b4600083613499565b91506134bf826134a4565b600082019050919050565b60006134d5826134a7565b9150819050919050565b7f506c6174666f726d207769746864726177616c206661696c6564000000000000600082015250565b6000613515601a83612bd6565b9150613520826134df565b602082019050919050565b6000602082019050818103600083015261354481613508565b9050919050565b7f4e6f742067726164756174656400000000000000000000000000000000000000600082015250565b6000613581600d83612bd6565b915061358c8261354b565b602082019050919050565b600060208201905081810360008301526135b081613574565b9050919050565b7f416c726561647920636c61696d65640000000000000000000000000000000000600082015250565b60006135ed600f83612bd6565b91506135f8826135b7565b602082019050919050565b6000602082019050818103600083015261361c816135e0565b9050919050565b7f4e6f20616c6c6f636174696f6e00000000000000000000000000000000000000600082015250565b6000613659600d83612bd6565b915061366482613623565b602082019050919050565b600060208201905081810360008301526136888161364c565b9050919050565b7f416c726561647920677261647561746564000000000000000000000000000000600082015250565b60006136c5601183612bd6565b91506136d08261368f565b602082019050919050565b600060208201905081810360008301526136f4816136b8565b9050919050565b7f496e73756666696369656e74204554482073656e740000000000000000000000600082015250565b6000613731601583612bd6565b915061373c826136fb565b602082019050919050565b6000602082019050818103600083015261376081613724565b9050919050565b600061377282612b97565b915061377d83612b97565b925082820190508082111561379557613794613394565b5b92915050565b7f4578636565647320617661696c61626c6520737570706c790000000000000000600082015250565b60006137d1601883612bd6565b91506137dc8261379b565b602082019050919050565b60006020820190508181036000830152613800816137c4565b9050919050565b7f45786365656473206c6f636b20616c6c6f636174696f6e000000000000000000600082015250565b600061383d601783612bd6565b915061384882613807565b602082019050919050565b6000602082019050818103600083015261386c81613830565b9050919050565b60006040820190506138886000830185612b0a565b6138956020830184612ba1565b9392505050565b7f506c6174666f726d206665652073656e64206661696c65640000000000000000600082015250565b60006138d2601883612bd6565b91506138dd8261389c565b602082019050919050565b60006020820190508181036000830152613901816138c5565b9050919050565b7f4e6f206c6f636b656420746f6b656e7300000000000000000000000000000000600082015250565b600061393e601083612bd6565b915061394982613908565b602082019050919050565b6000602082019050818103600083015261396d81613931565b9050919050565b7f526169736520746172676574206e6f74206d6574000000000000000000000000600082015250565b60006139aa601483612bd6565b91506139b582613974565b602082019050919050565b600060208201905081810360008301526139d98161399d565b9050919050565b7f4d7573742072657365727665204c502f61697264726f70000000000000000000600082015250565b6000613a16601783612bd6565b9150613a21826139e0565b602082019050919050565b60006020820190508181036000830152613a4581613a09565b9050919050565b7f506c6174666f726d20666565207472616e73666572206661696c656400000000600082015250565b6000613a82601c83612bd6565b9150613a8d82613a4c565b602082019050919050565b60006020820190508181036000830152613ab181613a75565b9050919050565b7f4c656e677468206d69736d617463680000000000000000000000000000000000600082015250565b6000613aee600f83612bd6565b9150613af982613ab8565b602082019050919050565b60006020820190508181036000830152613b1d81613ae1565b9050919050565b7f457863656564732061697264726f702072657365727665000000000000000000600082015250565b6000613b5a601783612bd6565b9150613b6582613b24565b602082019050919050565b60006020820190508181036000830152613b8981613b4d565b9050919050565b6000606082019050613ba56000830186612b0a565b613bb26020830185612ba1565b613bbf6040830184612ba1565b94935050505056fea264697066735822122073274aeb4fa33861afa5a12625f0e58e452e7f9b51451ebbe63f7c75190b3a2964736f6c634300081c0033",
  "linkReferences": {},
  "deployedLinkReferences": {}
}