{
  "_format": "hh-sol-artifact-1",
  "contractName": "TurboToken",
  "sourceName": "contracts/TurboToken.sol",
  "abi": [
    {
      "inputs": [
        {
          "internalType": "string",
          "name": "name_",
          "type": "string"
        },
        {
          "internalType": "string",
          "name": "symbol_",
          "type": "string"
        },
        {
          "internalType": "uint256",
          "name": "raiseTarget_",
          "type": "uint256"
        },
        {
          "internalType": "address",
          "name": "creator_",
          "type": "address"
        }
      ],
      "stateMutability": "nonpayable",
      "type": "constructor"
    },
    {
      "inputs": [
        {
          "internalType": "address",
          "name": "spender",
          "type": "address"
        },
        {
          "internalType": "uint256",
          "name": "allowance",
          "type": "uint256"
        },
        {
          "internalType": "uint256",
          "name": "needed",
          "type": "uint256"
        }
      ],
      "name": "ERC20InsufficientAllowance",
      "type": "error"
    },
    {
      "inputs": [
        {
          "internalType": "address",
          "name": "sender",
          "type": "address"
        },
        {
          "internalType": "uint256",
          "name": "balance",
          "type": "uint256"
        },
        {
          "internalType": "uint256",
          "name": "needed",
          "type": "uint256"
        }
      ],
      "name": "ERC20InsufficientBalance",
      "type": "error"
    },
    {
      "inputs": [
        {
          "internalType": "address",
          "name": "approver",
          "type": "address"
        }
      ],
      "name": "ERC20InvalidApprover",
      "type": "error"
    },
    {
      "inputs": [
        {
          "internalType": "address",
          "name": "receiver",
          "type": "address"
        }
      ],
      "name": "ERC20InvalidReceiver",
      "type": "error"
    },
    {
      "inputs": [
        {
          "internalType": "address",
          "name": "sender",
          "type": "address"
        }
      ],
      "name": "ERC20InvalidSender",
      "type": "error"
    },
    {
      "inputs": [
        {
          "internalType": "address",
          "name": "spender",
          "type": "address"
        }
      ],
      "name": "ERC20InvalidSpender",
      "type": "error"
    },
    {
      "inputs": [
        {
          "internalType": "address",
          "name": "owner",
          "type": "address"
        }
      ],
      "name": "OwnableInvalidOwner",
      "type": "error"
    },
    {
      "inputs": [
        {
          "internalType": "address",
          "name": "account",
          "type": "address"
        }
      ],
      "name": "OwnableUnauthorizedAccount",
      "type": "error"
    },
    {
      "anonymous": false,
      "inputs": [
        {
          "indexed": true,
          "internalType": "address",
          "name": "owner",
          "type": "address"
        },
        {
          "indexed": true,
          "internalType": "address",
          "name": "spender",
          "type": "address"
        },
        {
          "indexed": false,
          "internalType": "uint256",
          "name": "value",
          "type": "uint256"
        }
      ],
      "name": "Approval",
      "type": "event"
    },
    {
      "anonymous": false,
      "inputs": [
        {
          "indexed": true,
          "internalType": "address",
          "name": "previousOwner",
          "type": "address"
        },
        {
          "indexed": true,
          "internalType": "address",
          "name": "newOwner",
          "type": "address"
        }
      ],
      "name": "OwnershipTransferred",
      "type": "event"
    },
    {
      "anonymous": false,
      "inputs": [
        {
          "indexed": true,
          "internalType": "address",
          "name": "from",
          "type": "address"
        },
        {
          "indexed": true,
          "internalType": "address",
          "name": "to",
          "type": "address"
        },
        {
          "indexed": false,
          "internalType": "uint256",
          "name": "value",
          "type": "uint256"
        }
      ],
      "name": "Transfer",
      "type": "event"
    },
    {
      "inputs": [
        {
          "internalType": "address",
          "name": "owner",
          "type": "address"
        },
        {
          "internalType": "address",
          "name": "spender",
          "type": "address"
        }
      ],
      "name": "allowance",
      "outputs": [
        {
          "internalType": "uint256",
          "name": "",
          "type": "uint256"
        }
      ],
      "stateMutability": "view",
      "type": "function"
    },
    {
      "inputs": [
        {
          "internalType": "address",
          "name": "spender",
          "type": "address"
        },
        {
          "internalType": "uint256",
          "name": "value",
          "type": "uint256"
        }
      ],
      "name": "approve",
      "outputs": [
        {
          "internalType": "bool",
          "name": "",
          "type": "bool"
        }
      ],
      "stateMutability": "nonpayable",
      "type": "function"
    },
    {
      "inputs": [
        {
          "internalType": "address",
          "name": "account",
          "type": "address"
        }
      ],
      "name": "balanceOf",
      "outputs": [
        {
          "internalType": "uint256",
          "name": "",
          "type": "uint256"
        }
      ],
      "stateMutability": "view",
      "type": "function"
    },
    {
      "inputs": [
        {
          "internalType": "uint256",
          "name": "amount",
          "type": "uint256"
        }
      ],
      "name": "buy",
      "outputs": [],
      "stateMutability": "payable",
      "type": "function"
    },
    {
      "inputs": [],
      "name": "creator",
      "outputs": [
        {
          "internalType": "address",
          "name": "",
          "type": "address"
        }
      ],
      "stateMutability": "view",
      "type": "function"
    },
    {
      "inputs": [],
      "name": "creatorBought",
      "outputs": [
        {
          "internalType": "bool",
          "name": "",
          "type": "bool"
        }
      ],
      "stateMutability": "view",
      "type": "function"
    },
    {
      "inputs": [
        {
          "internalType": "uint256",
          "name": "amount",
          "type": "uint256"
        }
      ],
      "name": "creatorBuy",
      "outputs": [],
      "stateMutability": "payable",
      "type": "function"
    },
    {
      "inputs": [],
      "name": "creatorLockAmount",
      "outputs": [
        {
          "internalType": "uint256",
          "name": "",
          "type": "uint256"
        }
      ],
      "stateMutability": "view",
      "type": "function"
    },
    {
      "inputs": [],
      "name": "decimals",
      "outputs": [
        {
          "internalType": "uint8",
          "name": "",
          "type": "uint8"
        }
      ],
      "stateMutability": "view",
      "type": "function"
    },
    {
      "inputs": [
        {
          "internalType": "uint256",
          "name": "amount",
          "type": "uint256"
        }
      ],
      "name": "getPrice",
      "outputs": [
        {
          "internalType": "uint256",
          "name": "",
          "type": "uint256"
        }
      ],
      "stateMutability": "view",
      "type": "function"
    },
    {
      "inputs": [],
      "name": "graduate",
      "outputs": [],
      "stateMutability": "nonpayable",
      "type": "function"
    },
    {
      "inputs": [],
      "name": "graduated",
      "outputs": [
        {
          "internalType": "bool",
          "name": "",
          "type": "bool"
        }
      ],
      "stateMutability": "view",
      "type": "function"
    },
    {
      "inputs": [
        {
          "internalType": "address",
          "name": "",
          "type": "address"
        }
      ],
      "name": "lockedBalances",
      "outputs": [
        {
          "internalType": "uint256",
          "name": "",
          "type": "uint256"
        }
      ],
      "stateMutability": "view",
      "type": "function"
    },
    {
      "inputs": [],
      "name": "name",
      "outputs": [
        {
          "internalType": "string",
          "name": "",
          "type": "string"
        }
      ],
      "stateMutability": "view",
      "type": "function"
    },
    {
      "inputs": [],
      "name": "owner",
      "outputs": [
        {
          "internalType": "address",
          "name": "",
          "type": "address"
        }
      ],
      "stateMutability": "view",
      "type": "function"
    },
    {
      "inputs": [],
      "name": "raiseTarget",
      "outputs": [
        {
          "internalType": "uint256",
          "name": "",
          "type": "uint256"
        }
      ],
      "stateMutability": "view",
      "type": "function"
    },
    {
      "inputs": [],
      "name": "renounceOwnership",
      "outputs": [],
      "stateMutability": "nonpayable",
      "type": "function"
    },
    {
      "inputs": [],
      "name": "symbol",
      "outputs": [
        {
          "internalType": "string",
          "name": "",
          "type": "string"
        }
      ],
      "stateMutability": "view",
      "type": "function"
    },
    {
      "inputs": [],
      "name": "totalRaised",
      "outputs": [
        {
          "internalType": "uint256",
          "name": "",
          "type": "uint256"
        }
      ],
      "stateMutability": "view",
      "type": "function"
    },
    {
      "inputs": [],
      "name": "totalSupply",
      "outputs": [
        {
          "internalType": "uint256",
          "name": "",
          "type": "uint256"
        }
      ],
      "stateMutability": "view",
      "type": "function"
    },
    {
      "inputs": [
        {
          "internalType": "address",
          "name": "to",
          "type": "address"
        },
        {
          "internalType": "uint256",
          "name": "value",
          "type": "uint256"
        }
      ],
      "name": "transfer",
      "outputs": [
        {
          "internalType": "bool",
          "name": "",
          "type": "bool"
        }
      ],
      "stateMutability": "nonpayable",
      "type": "function"
    },
    {
      "inputs": [
        {
          "internalType": "address",
          "name": "from",
          "type": "address"
        },
        {
          "internalType": "address",
          "name": "to",
          "type": "address"
        },
        {
          "internalType": "uint256",
          "name": "value",
          "type": "uint256"
        }
      ],
      "name": "transferFrom",
      "outputs": [
        {
          "internalType": "bool",
          "name": "",
          "type": "bool"
        }
      ],
      "stateMutability": "nonpayable",
      "type": "function"
    },
    {
      "inputs": [
        {
          "internalType": "address",
          "name": "newOwner",
          "type": "address"
        }
      ],
      "name": "transferOwnership",
      "outputs": [],
      "stateMutability": "nonpayable",
      "type": "function"
    },
    {
      "inputs": [],
      "name": "unlockCreatorTokens",
      "outputs": [],
      "stateMutability": "nonpayable",
      "type": "function"
    }
  ],
  "bytecode": "0x608060405234801561001057600080fd5b50604051612643380380612643833981810160405281019061003291906103f9565b808484816003908161004491906106af565b50806004908161005491906106af565b505050600073ffffffffffffffffffffffffffffffffffffffff168173ffffffffffffffffffffffffffffffffffffffff16036100c95760006040517f1e4fbdf70000000000000000000000000000000000000000000000000000000081526004016100c09190610790565b60405180910390fd5b6100d88161012a60201b60201c565b508160068190555080600760006101000a81548173ffffffffffffffffffffffffffffffffffffffff021916908373ffffffffffffffffffffffffffffffffffffffff160217905550505050506107ab565b6000600560009054906101000a900473ffffffffffffffffffffffffffffffffffffffff16905081600560006101000a81548173ffffffffffffffffffffffffffffffffffffffff021916908373ffffffffffffffffffffffffffffffffffffffff1602179055508173ffffffffffffffffffffffffffffffffffffffff168173ffffffffffffffffffffffffffffffffffffffff167f8be0079c531659141344cd1fd0a4f28419497f9722a3daafe3b4186f6b6457e060405160405180910390a35050565b6000604051905090565b600080fd5b600080fd5b600080fd5b600080fd5b6000601f19601f8301169050919050565b7f4e487b7100000000000000000000000000000000000000000000000000000000600052604160045260246000fd5b6102578261020e565b810181811067ffffffffffffffff821117156102765761027561021f565b5b80604052505050565b60006102896101f0565b9050610295828261024e565b919050565b600067ffffffffffffffff8211156102b5576102b461021f565b5b6102be8261020e565b9050602081019050919050565b60005b838110156102e95780820151818401526020810190506102ce565b60008484015250505050565b60006103086103038461029a565b61027f565b90508281526020810184848401111561032457610323610209565b5b61032f8482856102cb565b509392505050565b600082601f83011261034c5761034b610204565b5b815161035c8482602086016102f5565b91505092915050565b6000819050919050565b61037881610365565b811461038357600080fd5b50565b6000815190506103958161036f565b92915050565b600073ffffffffffffffffffffffffffffffffffffffff82169050919050565b60006103c68261039b565b9050919050565b6103d6816103bb565b81146103e157600080fd5b50565b6000815190506103f3816103cd565b92915050565b60008060008060808587031215610413576104126101fa565b5b600085015167ffffffffffffffff811115610431576104306101ff565b5b61043d87828801610337565b945050602085015167ffffffffffffffff81111561045e5761045d6101ff565b5b61046a87828801610337565b935050604061047b87828801610386565b925050606061048c878288016103e4565b91505092959194509250565b600081519050919050565b7f4e487b7100000000000000000000000000000000000000000000000000000000600052602260045260246000fd5b600060028204905060018216806104ea57607f821691505b6020821081036104fd576104fc6104a3565b5b50919050565b60008190508160005260206000209050919050565b60006020601f8301049050919050565b600082821b905092915050565b6000600883026105657fffffffffffffffffffffffffffffffffffffffffffffffffffffffffffffffff82610528565b61056f8683610528565b95508019841693508086168417925050509392505050565b6000819050919050565b60006105ac6105a76105a284610365565b610587565b610365565b9050919050565b6000819050919050565b6105c683610591565b6105da6105d2826105b3565b848454610535565b825550505050565b600090565b6105ef6105e2565b6105fa8184846105bd565b505050565b5b8181101561061e576106136000826105e7565b600181019050610600565b5050565b601f8211156106635761063481610503565b61063d84610518565b8101602085101561064c578190505b61066061065885610518565b8301826105ff565b50505b505050565b600082821c905092915050565b600061068660001984600802610668565b1980831691505092915050565b600061069f8383610675565b9150826002028217905092915050565b6106b882610498565b67ffffffffffffffff8111156106d1576106d061021f565b5b6106db82546104d2565b6106e6828285610622565b600060209050601f8311600181146107195760008415610707578287015190505b6107118582610693565b865550610779565b601f19841661072786610503565b60005b8281101561074f5784890151825560018201915060208501945060208101905061072a565b8683101561076c5784890151610768601f891682610675565b8355505b6001600288020188555050505b505050505050565b61078a816103bb565b82525050565b60006020820190506107a56000830184610781565b92915050565b611e89806107ba6000396000f3fe60806040526004361061014b5760003560e01c8063a9059cbb116100b6578063d96a094a1161006f578063d96a094a14610465578063dd62ed3e14610481578063e7572230146104be578063e7c2b772146104fb578063f2fde38b14610526578063f4227e951461054f5761014b565b8063a9059cbb14610388578063b34ffc5f146103c5578063b4105e06146103e1578063c5c4744c146103f8578063ce858b9e14610423578063d3618cca1461044e5761014b565b8063313ce56711610108578063313ce5671461028857806370a08231146102b3578063715018a6146102f057806385131976146103075780638da5cb5b1461033257806395d89b411461035d5761014b565b806302d05d3f146101505780630483a7f61461017b57806306fdde03146101b8578063095ea7b3146101e357806318160ddd1461022057806323b872dd1461024b575b600080fd5b34801561015c57600080fd5b5061016561057a565b604051610172919061172b565b60405180910390f35b34801561018757600080fd5b506101a2600480360381019061019d9190611777565b6105a0565b6040516101af91906117bd565b60405180910390f35b3480156101c457600080fd5b506101cd6105b8565b6040516101da9190611868565b60405180910390f35b3480156101ef57600080fd5b5061020a600480360381019061020591906118b6565b61064a565b6040516102179190611911565b60405180910390f35b34801561022c57600080fd5b5061023561066d565b60405161024291906117bd565b60405180910390f35b34801561025757600080fd5b50610272600480360381019061026d919061192c565b610677565b60405161027f9190611911565b60405180910390f35b34801561029457600080fd5b5061029d6106a6565b6040516102aa919061199b565b60405180910390f35b3480156102bf57600080fd5b506102da60048036038101906102d59190611777565b6106af565b6040516102e791906117bd565b60405180910390f35b3480156102fc57600080fd5b506103056106f7565b005b34801561031357600080fd5b5061031c61070b565b60405161032991906117bd565b60405180910390f35b34801561033e57600080fd5b50610347610711565b604051610354919061172b565b60405180910390f35b34801561036957600080fd5b5061037261073b565b60405161037f9190611868565b60405180910390f35b34801561039457600080fd5b506103af60048036038101906103aa91906118b6565b6107cd565b6040516103bc9190611911565b60405180910390f35b6103df60048036038101906103da91906119b6565b6107f0565b005b3480156103ed57600080fd5b506103f66109cf565b005b34801561040457600080fd5b5061040d610c4f565b60405161041a91906117bd565b60405180910390f35b34801561042f57600080fd5b50610438610c55565b6040516104459190611911565b60405180910390f35b34801561045a57600080fd5b50610463610c68565b005b61047f600480360381019061047a91906119b6565b610d1c565b005b34801561048d57600080fd5b506104a860048036038101906104a391906119e3565b610de3565b6040516104b591906117bd565b60405180910390f35b3480156104ca57600080fd5b506104e560048036038101906104e091906119b6565b610e6a565b6040516104f291906117bd565b60405180910390f35b34801561050757600080fd5b50610510610edd565b60405161051d9190611911565b60405180910390f35b34801561053257600080fd5b5061054d60048036038101906105489190611777565b610ef0565b005b34801561055b57600080fd5b50610564610f76565b60405161057191906117bd565b60405180910390f35b600760009054906101000a900473ffffffffffffffffffffffffffffffffffffffff1681565b600c6020528060005260406000206000915090505481565b6060600380546105c790611a52565b80601f01602080910402602001604051908101604052809291908181526020018280546105f390611a52565b80156106405780601f1061061557610100808354040283529160200191610640565b820191906000526020600020905b81548152906001019060200180831161062357829003601f168201915b5050505050905090565b600080610655610f7c565b9050610662818585610f84565b600191505092915050565b6000600254905090565b600080610682610f7c565b905061068f858285610f96565b61069a85858561102b565b60019150509392505050565b60006012905090565b60008060008373ffffffffffffffffffffffffffffffffffffffff1673ffffffffffffffffffffffffffffffffffffffff168152602001908152602001600020549050919050565b6106ff61111f565b61070960006111a6565b565b60065481565b6000600560009054906101000a900473ffffffffffffffffffffffffffffffffffffffff16905090565b60606004805461074a90611a52565b80601f016020809104026020016040519081016040528092919081815260200182805461077690611a52565b80156107c35780601f10610798576101008083540402835291602001916107c3565b820191906000526020600020905b8154815290600101906020018083116107a657829003601f168201915b5050505050905090565b6000806107d8610f7c565b90506107e581858561102b565b600191505092915050565b600760009054906101000a900473ffffffffffffffffffffffffffffffffffffffff1673ffffffffffffffffffffffffffffffffffffffff163373ffffffffffffffffffffffffffffffffffffffff1614610880576040517f08c379a000000000000000000000000000000000000000000000000000000000815260040161087790611acf565b60405180910390fd5b600b60009054906101000a900460ff16156108d0576040517f08c379a00000000000000000000000000000000000000000000000000000000081526004016108c790611b3b565b60405180910390fd5b60006108db82610e6a565b905080341015610920576040517f08c379a000000000000000000000000000000000000000000000000000000000815260040161091790611ba7565b60405180910390fd5b34600860008282546109329190611bf6565b92505081905550610943308361126c565b81600c6000600760009054906101000a900473ffffffffffffffffffffffffffffffffffffffff1673ffffffffffffffffffffffffffffffffffffffff1673ffffffffffffffffffffffffffffffffffffffff1681526020019081526020016000208190555081600a819055506001600b60006101000a81548160ff0219169083151502179055505050565b600760009054906101000a900473ffffffffffffffffffffffffffffffffffffffff1673ffffffffffffffffffffffffffffffffffffffff163373ffffffffffffffffffffffffffffffffffffffff1614610a5f576040517f08c379a0000000000000000000000000000000000000000000000000000000008152600401610a5690611acf565b60405180910390fd5b600960009054906101000a900460ff16610aae576040517f08c379a0000000000000000000000000000000000000000000000000000000008152600401610aa590611c76565b60405180910390fd5b6000600c6000600760009054906101000a900473ffffffffffffffffffffffffffffffffffffffff1673ffffffffffffffffffffffffffffffffffffffff1673ffffffffffffffffffffffffffffffffffffffff1681526020019081526020016000205411610b52576040517f08c379a0000000000000000000000000000000000000000000000000000000008152600401610b4990611ce2565b60405180910390fd5b6000600c6000600760009054906101000a900473ffffffffffffffffffffffffffffffffffffffff1673ffffffffffffffffffffffffffffffffffffffff1673ffffffffffffffffffffffffffffffffffffffff1681526020019081526020016000205490506000600c6000600760009054906101000a900473ffffffffffffffffffffffffffffffffffffffff1673ffffffffffffffffffffffffffffffffffffffff1673ffffffffffffffffffffffffffffffffffffffff16815260200190815260200160002081905550610c4c30600760009054906101000a900473ffffffffffffffffffffffffffffffffffffffff168361102b565b50565b60085481565b600b60009054906101000a900460ff1681565b600960009054906101000a900460ff1615610cb8576040517f08c379a0000000000000000000000000000000000000000000000000000000008152600401610caf90611d4e565b60405180910390fd5b6006546008541015610cff576040517f08c379a0000000000000000000000000000000000000000000000000000000008152600401610cf690611dba565b60405180910390fd5b6001600960006101000a81548160ff021916908315150217905550565b600960009054906101000a900460ff1615610d6c576040517f08c379a0000000000000000000000000000000000000000000000000000000008152600401610d6390611d4e565b60405180910390fd5b6000610d7782610e6a565b905080341015610dbc576040517f08c379a0000000000000000000000000000000000000000000000000000000008152600401610db390611ba7565b60405180910390fd5b3460086000828254610dce9190611bf6565b92505081905550610ddf338361126c565b5050565b6000600160008473ffffffffffffffffffffffffffffffffffffffff1673ffffffffffffffffffffffffffffffffffffffff16815260200190815260200160002060008373ffffffffffffffffffffffffffffffffffffffff1673ffffffffffffffffffffffffffffffffffffffff16815260200190815260200160002054905092915050565b60008066038d7ea4c6800090506000655af3107a400090506000805b85811015610ed15780610e9761066d565b610ea19190611bf6565b83610eac9190611dda565b84610eb79190611bf6565b82610ec29190611bf6565b91508080600101915050610e86565b50809350505050919050565b600960009054906101000a900460ff1681565b610ef861111f565b600073ffffffffffffffffffffffffffffffffffffffff168173ffffffffffffffffffffffffffffffffffffffff1603610f6a5760006040517f1e4fbdf7000000000000000000000000000000000000000000000000000000008152600401610f61919061172b565b60405180910390fd5b610f73816111a6565b50565b600a5481565b600033905090565b610f9183838360016112ee565b505050565b6000610fa28484610de3565b90507fffffffffffffffffffffffffffffffffffffffffffffffffffffffffffffffff8110156110255781811015611015578281836040517ffb8f41b200000000000000000000000000000000000000000000000000000000815260040161100c93929190611e1c565b60405180910390fd5b611024848484840360006112ee565b5b50505050565b600073ffffffffffffffffffffffffffffffffffffffff168373ffffffffffffffffffffffffffffffffffffffff160361109d5760006040517f96c6fd1e000000000000000000000000000000000000000000000000000000008152600401611094919061172b565b60405180910390fd5b600073ffffffffffffffffffffffffffffffffffffffff168273ffffffffffffffffffffffffffffffffffffffff160361110f5760006040517fec442f05000000000000000000000000000000000000000000000000000000008152600401611106919061172b565b60405180910390fd5b61111a8383836114c5565b505050565b611127610f7c565b73ffffffffffffffffffffffffffffffffffffffff16611145610711565b73ffffffffffffffffffffffffffffffffffffffff16146111a457611168610f7c565b6040517f118cdaa700000000000000000000000000000000000000000000000000000000815260040161119b919061172b565b60405180910390fd5b565b6000600560009054906101000a900473ffffffffffffffffffffffffffffffffffffffff16905081600560006101000a81548173ffffffffffffffffffffffffffffffffffffffff021916908373ffffffffffffffffffffffffffffffffffffffff1602179055508173ffffffffffffffffffffffffffffffffffffffff168173ffffffffffffffffffffffffffffffffffffffff167f8be0079c531659141344cd1fd0a4f28419497f9722a3daafe3b4186f6b6457e060405160405180910390a35050565b600073ffffffffffffffffffffffffffffffffffffffff168273ffffffffffffffffffffffffffffffffffffffff16036112de5760006040517fec442f050000000000000000000000000000000000000000000000000000000081526004016112d5919061172b565b60405180910390fd5b6112ea600083836114c5565b5050565b600073ffffffffffffffffffffffffffffffffffffffff168473ffffffffffffffffffffffffffffffffffffffff16036113605760006040517fe602df05000000000000000000000000000000000000000000000000000000008152600401611357919061172b565b60405180910390fd5b600073ffffffffffffffffffffffffffffffffffffffff168373ffffffffffffffffffffffffffffffffffffffff16036113d25760006040517f94280d620000000000000000000000000000000000000000000000000000000081526004016113c9919061172b565b60405180910390fd5b81600160008673ffffffffffffffffffffffffffffffffffffffff1673ffffffffffffffffffffffffffffffffffffffff16815260200190815260200160002060008573ffffffffffffffffffffffffffffffffffffffff1673ffffffffffffffffffffffffffffffffffffffff1681526020019081526020016000208190555080156114bf578273ffffffffffffffffffffffffffffffffffffffff168473ffffffffffffffffffffffffffffffffffffffff167f8c5be1e5ebec7d5bd14f71427d1e84f3dd0314c0f7b2291e5b200ac8c7c3b925846040516114b691906117bd565b60405180910390a35b50505050565b600073ffffffffffffffffffffffffffffffffffffffff168373ffffffffffffffffffffffffffffffffffffffff160361151757806002600082825461150b9190611bf6565b925050819055506115ea565b60008060008573ffffffffffffffffffffffffffffffffffffffff1673ffffffffffffffffffffffffffffffffffffffff168152602001908152602001600020549050818110156115a3578381836040517fe450d38c00000000000000000000000000000000000000000000000000000000815260040161159a93929190611e1c565b60405180910390fd5b8181036000808673ffffffffffffffffffffffffffffffffffffffff1673ffffffffffffffffffffffffffffffffffffffff16815260200190815260200160002081905550505b600073ffffffffffffffffffffffffffffffffffffffff168273ffffffffffffffffffffffffffffffffffffffff16036116335780600260008282540392505081905550611680565b806000808473ffffffffffffffffffffffffffffffffffffffff1673ffffffffffffffffffffffffffffffffffffffff168152602001908152602001600020600082825401925050819055505b8173ffffffffffffffffffffffffffffffffffffffff168373ffffffffffffffffffffffffffffffffffffffff167fddf252ad1be2c89b69c2b068fc378daa952ba7f163c4a11628f55a4df523b3ef836040516116dd91906117bd565b60405180910390a3505050565b600073ffffffffffffffffffffffffffffffffffffffff82169050919050565b6000611715826116ea565b9050919050565b6117258161170a565b82525050565b6000602082019050611740600083018461171c565b92915050565b600080fd5b6117548161170a565b811461175f57600080fd5b50565b6000813590506117718161174b565b92915050565b60006020828403121561178d5761178c611746565b5b600061179b84828501611762565b91505092915050565b6000819050919050565b6117b7816117a4565b82525050565b60006020820190506117d260008301846117ae565b92915050565b600081519050919050565b600082825260208201905092915050565b60005b838110156118125780820151818401526020810190506117f7565b60008484015250505050565b6000601f19601f8301169050919050565b600061183a826117d8565b61184481856117e3565b93506118548185602086016117f4565b61185d8161181e565b840191505092915050565b60006020820190508181036000830152611882818461182f565b905092915050565b611893816117a4565b811461189e57600080fd5b50565b6000813590506118b08161188a565b92915050565b600080604083850312156118cd576118cc611746565b5b60006118db85828601611762565b92505060206118ec858286016118a1565b9150509250929050565b60008115159050919050565b61190b816118f6565b82525050565b60006020820190506119266000830184611902565b92915050565b60008060006060848603121561194557611944611746565b5b600061195386828701611762565b935050602061196486828701611762565b9250506040611975868287016118a1565b9150509250925092565b600060ff82169050919050565b6119958161197f565b82525050565b60006020820190506119b0600083018461198c565b92915050565b6000602082840312156119cc576119cb611746565b5b60006119da848285016118a1565b91505092915050565b600080604083850312156119fa576119f9611746565b5b6000611a0885828601611762565b9250506020611a1985828601611762565b9150509250929050565b7f4e487b7100000000000000000000000000000000000000000000000000000000600052602260045260246000fd5b60006002820490506001821680611a6a57607f821691505b602082108103611a7d57611a7c611a23565b5b50919050565b7f4e6f742063726561746f72000000000000000000000000000000000000000000600082015250565b6000611ab9600b836117e3565b9150611ac482611a83565b602082019050919050565b60006020820190508181036000830152611ae881611aac565b9050919050565b7f43726561746f7220616c726561647920626f7567687400000000000000000000600082015250565b6000611b256016836117e3565b9150611b3082611aef565b602082019050919050565b60006020820190508181036000830152611b5481611b18565b9050919050565b7f496e73756666696369656e74204554482073656e740000000000000000000000600082015250565b6000611b916015836117e3565b9150611b9c82611b5b565b602082019050919050565b60006020820190508181036000830152611bc081611b84565b9050919050565b7f4e487b7100000000000000000000000000000000000000000000000000000000600052601160045260246000fd5b6000611c01826117a4565b9150611c0c836117a4565b9250828201905080821115611c2457611c23611bc7565b5b92915050565b7f4e6f742067726164756174656420796574000000000000000000000000000000600082015250565b6000611c606011836117e3565b9150611c6b82611c2a565b602082019050919050565b60006020820190508181036000830152611c8f81611c53565b9050919050565b7f4e6f206c6f636b656420746f6b656e7300000000000000000000000000000000600082015250565b6000611ccc6010836117e3565b9150611cd782611c96565b602082019050919050565b60006020820190508181036000830152611cfb81611cbf565b9050919050565b7f416c726561647920677261647561746564000000000000000000000000000000600082015250565b6000611d386011836117e3565b9150611d4382611d02565b602082019050919050565b60006020820190508181036000830152611d6781611d2b565b9050919050565b7f526169736520746172676574206e6f74206d6574000000000000000000000000600082015250565b6000611da46014836117e3565b9150611daf82611d6e565b602082019050919050565b60006020820190508181036000830152611dd381611d97565b9050919050565b6000611de5826117a4565b9150611df0836117a4565b9250828202611dfe816117a4565b91508282048414831517611e1557611e14611bc7565b5b5092915050565b6000606082019050611e31600083018661171c565b611e3e60208301856117ae565b611e4b60408301846117ae565b94935050505056fea2646970667358221220c9fa4155de1d04e5fa1f88bd4abf4c7babaf47d44d5c650e62ffcf277495adc264736f6c634300081c0033",
  "linkReferences": {},
  "deployedLinkReferences": {}
}