{
  "_format": "hh-sol-artifact-1",
  "contractName": "TurboToken",
  "sourceName": "contracts/TurboToken.sol",
  "abi": [
    {
      "inputs": [
        {
          "internalType": "string",
          "name": "name_",
          "type": "string"
        },
        {
          "internalType": "string",
          "name": "symbol_",
          "type": "string"
        },
        {
          "internalType": "uint256",
          "name": "raiseTarget_",
          "type": "uint256"
        },
        {
          "internalType": "address",
          "name": "creator_",
          "type": "address"
        },
        {
          "internalType": "uint256",
          "name": "maxSupply_",
          "type": "uint256"
        }
      ],
      "stateMutability": "nonpayable",
      "type": "constructor"
    },
    {
      "inputs": [
        {
          "internalType": "address",
          "name": "spender",
          "type": "address"
        },
        {
          "internalType": "uint256",
          "name": "allowance",
          "type": "uint256"
        },
        {
          "internalType": "uint256",
          "name": "needed",
          "type": "uint256"
        }
      ],
      "name": "ERC20InsufficientAllowance",
      "type": "error"
    },
    {
      "inputs": [
        {
          "internalType": "address",
          "name": "sender",
          "type": "address"
        },
        {
          "internalType": "uint256",
          "name": "balance",
          "type": "uint256"
        },
        {
          "internalType": "uint256",
          "name": "needed",
          "type": "uint256"
        }
      ],
      "name": "ERC20InsufficientBalance",
      "type": "error"
    },
    {
      "inputs": [
        {
          "internalType": "address",
          "name": "approver",
          "type": "address"
        }
      ],
      "name": "ERC20InvalidApprover",
      "type": "error"
    },
    {
      "inputs": [
        {
          "internalType": "address",
          "name": "receiver",
          "type": "address"
        }
      ],
      "name": "ERC20InvalidReceiver",
      "type": "error"
    },
    {
      "inputs": [
        {
          "internalType": "address",
          "name": "sender",
          "type": "address"
        }
      ],
      "name": "ERC20InvalidSender",
      "type": "error"
    },
    {
      "inputs": [
        {
          "internalType": "address",
          "name": "spender",
          "type": "address"
        }
      ],
      "name": "ERC20InvalidSpender",
      "type": "error"
    },
    {
      "inputs": [
        {
          "internalType": "address",
          "name": "owner",
          "type": "address"
        }
      ],
      "name": "OwnableInvalidOwner",
      "type": "error"
    },
    {
      "inputs": [
        {
          "internalType": "address",
          "name": "account",
          "type": "address"
        }
      ],
      "name": "OwnableUnauthorizedAccount",
      "type": "error"
    },
    {
      "anonymous": false,
      "inputs": [
        {
          "indexed": true,
          "internalType": "address",
          "name": "owner",
          "type": "address"
        },
        {
          "indexed": true,
          "internalType": "address",
          "name": "spender",
          "type": "address"
        },
        {
          "indexed": false,
          "internalType": "uint256",
          "name": "value",
          "type": "uint256"
        }
      ],
      "name": "Approval",
      "type": "event"
    },
    {
      "anonymous": false,
      "inputs": [
        {
          "indexed": true,
          "internalType": "address",
          "name": "previousOwner",
          "type": "address"
        },
        {
          "indexed": true,
          "internalType": "address",
          "name": "newOwner",
          "type": "address"
        }
      ],
      "name": "OwnershipTransferred",
      "type": "event"
    },
    {
      "anonymous": false,
      "inputs": [
        {
          "indexed": true,
          "internalType": "address",
          "name": "from",
          "type": "address"
        },
        {
          "indexed": true,
          "internalType": "address",
          "name": "to",
          "type": "address"
        },
        {
          "indexed": false,
          "internalType": "uint256",
          "name": "value",
          "type": "uint256"
        }
      ],
      "name": "Transfer",
      "type": "event"
    },
    {
      "inputs": [],
      "name": "LP_AND_AIRDROP_PERCENT",
      "outputs": [
        {
          "internalType": "uint256",
          "name": "",
          "type": "uint256"
        }
      ],
      "stateMutability": "view",
      "type": "function"
    },
    {
      "inputs": [
        {
          "internalType": "address",
          "name": "",
          "type": "address"
        }
      ],
      "name": "airdropAllocations",
      "outputs": [
        {
          "internalType": "uint256",
          "name": "",
          "type": "uint256"
        }
      ],
      "stateMutability": "view",
      "type": "function"
    },
    {
      "inputs": [
        {
          "internalType": "address",
          "name": "",
          "type": "address"
        }
      ],
      "name": "airdropClaimed",
      "outputs": [
        {
          "internalType": "bool",
          "name": "",
          "type": "bool"
        }
      ],
      "stateMutability": "view",
      "type": "function"
    },
    {
      "inputs": [
        {
          "internalType": "address",
          "name": "owner",
          "type": "address"
        },
        {
          "internalType": "address",
          "name": "spender",
          "type": "address"
        }
      ],
      "name": "allowance",
      "outputs": [
        {
          "internalType": "uint256",
          "name": "",
          "type": "uint256"
        }
      ],
      "stateMutability": "view",
      "type": "function"
    },
    {
      "inputs": [
        {
          "internalType": "address",
          "name": "spender",
          "type": "address"
        },
        {
          "internalType": "uint256",
          "name": "value",
          "type": "uint256"
        }
      ],
      "name": "approve",
      "outputs": [
        {
          "internalType": "bool",
          "name": "",
          "type": "bool"
        }
      ],
      "stateMutability": "nonpayable",
      "type": "function"
    },
    {
      "inputs": [
        {
          "internalType": "address",
          "name": "account",
          "type": "address"
        }
      ],
      "name": "balanceOf",
      "outputs": [
        {
          "internalType": "uint256",
          "name": "",
          "type": "uint256"
        }
      ],
      "stateMutability": "view",
      "type": "function"
    },
    {
      "inputs": [
        {
          "internalType": "uint256",
          "name": "amount",
          "type": "uint256"
        }
      ],
      "name": "buy",
      "outputs": [],
      "stateMutability": "payable",
      "type": "function"
    },
    {
      "inputs": [],
      "name": "claimAirdrop",
      "outputs": [],
      "stateMutability": "nonpayable",
      "type": "function"
    },
    {
      "inputs": [],
      "name": "creator",
      "outputs": [
        {
          "internalType": "address",
          "name": "",
          "type": "address"
        }
      ],
      "stateMutability": "view",
      "type": "function"
    },
    {
      "inputs": [],
      "name": "creatorBought",
      "outputs": [
        {
          "internalType": "bool",
          "name": "",
          "type": "bool"
        }
      ],
      "stateMutability": "view",
      "type": "function"
    },
    {
      "inputs": [
        {
          "internalType": "uint256",
          "name": "amount",
          "type": "uint256"
        }
      ],
      "name": "creatorBuy",
      "outputs": [],
      "stateMutability": "payable",
      "type": "function"
    },
    {
      "inputs": [],
      "name": "creatorLockAmount",
      "outputs": [
        {
          "internalType": "uint256",
          "name": "",
          "type": "uint256"
        }
      ],
      "stateMutability": "view",
      "type": "function"
    },
    {
      "inputs": [],
      "name": "decimals",
      "outputs": [
        {
          "internalType": "uint8",
          "name": "",
          "type": "uint8"
        }
      ],
      "stateMutability": "view",
      "type": "function"
    },
    {
      "inputs": [
        {
          "internalType": "uint256",
          "name": "amount",
          "type": "uint256"
        }
      ],
      "name": "getPrice",
      "outputs": [
        {
          "internalType": "uint256",
          "name": "",
          "type": "uint256"
        }
      ],
      "stateMutability": "view",
      "type": "function"
    },
    {
      "inputs": [],
      "name": "graduate",
      "outputs": [],
      "stateMutability": "nonpayable",
      "type": "function"
    },
    {
      "inputs": [],
      "name": "graduated",
      "outputs": [
        {
          "internalType": "bool",
          "name": "",
          "type": "bool"
        }
      ],
      "stateMutability": "view",
      "type": "function"
    },
    {
      "inputs": [
        {
          "internalType": "address",
          "name": "",
          "type": "address"
        }
      ],
      "name": "lockedBalances",
      "outputs": [
        {
          "internalType": "uint256",
          "name": "",
          "type": "uint256"
        }
      ],
      "stateMutability": "view",
      "type": "function"
    },
    {
      "inputs": [],
      "name": "maxSupply",
      "outputs": [
        {
          "internalType": "uint256",
          "name": "",
          "type": "uint256"
        }
      ],
      "stateMutability": "view",
      "type": "function"
    },
    {
      "inputs": [],
      "name": "maxSupplyForSale",
      "outputs": [
        {
          "internalType": "uint256",
          "name": "",
          "type": "uint256"
        }
      ],
      "stateMutability": "view",
      "type": "function"
    },
    {
      "inputs": [],
      "name": "name",
      "outputs": [
        {
          "internalType": "string",
          "name": "",
          "type": "string"
        }
      ],
      "stateMutability": "view",
      "type": "function"
    },
    {
      "inputs": [],
      "name": "owner",
      "outputs": [
        {
          "internalType": "address",
          "name": "",
          "type": "address"
        }
      ],
      "stateMutability": "view",
      "type": "function"
    },
    {
      "inputs": [],
      "name": "raiseTarget",
      "outputs": [
        {
          "internalType": "uint256",
          "name": "",
          "type": "uint256"
        }
      ],
      "stateMutability": "view",
      "type": "function"
    },
    {
      "inputs": [],
      "name": "renounceOwnership",
      "outputs": [],
      "stateMutability": "nonpayable",
      "type": "function"
    },
    {
      "inputs": [],
      "name": "reservedForAirdrop",
      "outputs": [
        {
          "internalType": "uint256",
          "name": "",
          "type": "uint256"
        }
      ],
      "stateMutability": "view",
      "type": "function"
    },
    {
      "inputs": [
        {
          "internalType": "address[]",
          "name": "recipients",
          "type": "address[]"
        },
        {
          "internalType": "uint256[]",
          "name": "amounts",
          "type": "uint256[]"
        }
      ],
      "name": "setAirdropAllocations",
      "outputs": [],
      "stateMutability": "nonpayable",
      "type": "function"
    },
    {
      "inputs": [],
      "name": "symbol",
      "outputs": [
        {
          "internalType": "string",
          "name": "",
          "type": "string"
        }
      ],
      "stateMutability": "view",
      "type": "function"
    },
    {
      "inputs": [],
      "name": "totalRaised",
      "outputs": [
        {
          "internalType": "uint256",
          "name": "",
          "type": "uint256"
        }
      ],
      "stateMutability": "view",
      "type": "function"
    },
    {
      "inputs": [],
      "name": "totalSupply",
      "outputs": [
        {
          "internalType": "uint256",
          "name": "",
          "type": "uint256"
        }
      ],
      "stateMutability": "view",
      "type": "function"
    },
    {
      "inputs": [
        {
          "internalType": "address",
          "name": "to",
          "type": "address"
        },
        {
          "internalType": "uint256",
          "name": "value",
          "type": "uint256"
        }
      ],
      "name": "transfer",
      "outputs": [
        {
          "internalType": "bool",
          "name": "",
          "type": "bool"
        }
      ],
      "stateMutability": "nonpayable",
      "type": "function"
    },
    {
      "inputs": [
        {
          "internalType": "address",
          "name": "from",
          "type": "address"
        },
        {
          "internalType": "address",
          "name": "to",
          "type": "address"
        },
        {
          "internalType": "uint256",
          "name": "value",
          "type": "uint256"
        }
      ],
      "name": "transferFrom",
      "outputs": [
        {
          "internalType": "bool",
          "name": "",
          "type": "bool"
        }
      ],
      "stateMutability": "nonpayable",
      "type": "function"
    },
    {
      "inputs": [
        {
          "internalType": "address",
          "name": "newOwner",
          "type": "address"
        }
      ],
      "name": "transferOwnership",
      "outputs": [],
      "stateMutability": "nonpayable",
      "type": "function"
    },
    {
      "inputs": [],
      "name": "unlockCreatorTokens",
      "outputs": [],
      "stateMutability": "nonpayable",
      "type": "function"
    },
    {
      "inputs": [],
      "name": "withdraw",
      "outputs": [],
      "stateMutability": "nonpayable",
      "type": "function"
    },
    {
      "stateMutability": "payable",
      "type": "receive"
    }
  ],
  "bytecode": "0x60a060405234801561001057600080fd5b5060405161359638038061359683398181016040528101906100329190610402565b818585816003908161004491906106cc565b50806004908161005491906106cc565b505050600073ffffffffffffffffffffffffffffffffffffffff168173ffffffffffffffffffffffffffffffffffffffff16036100c95760006040517f1e4fbdf70000000000000000000000000000000000000000000000000000000081526004016100c091906107ad565b60405180910390fd5b6100d88161013360201b60201c565b508260068190555081600760006101000a81548173ffffffffffffffffffffffffffffffffffffffff021916908373ffffffffffffffffffffffffffffffffffffffff160217905550806080818152505050505050506107c8565b6000600560009054906101000a900473ffffffffffffffffffffffffffffffffffffffff16905081600560006101000a81548173ffffffffffffffffffffffffffffffffffffffff021916908373ffffffffffffffffffffffffffffffffffffffff1602179055508173ffffffffffffffffffffffffffffffffffffffff168173ffffffffffffffffffffffffffffffffffffffff167f8be0079c531659141344cd1fd0a4f28419497f9722a3daafe3b4186f6b6457e060405160405180910390a35050565b6000604051905090565b600080fd5b600080fd5b600080fd5b600080fd5b6000601f19601f8301169050919050565b7f4e487b7100000000000000000000000000000000000000000000000000000000600052604160045260246000fd5b61026082610217565b810181811067ffffffffffffffff8211171561027f5761027e610228565b5b80604052505050565b60006102926101f9565b905061029e8282610257565b919050565b600067ffffffffffffffff8211156102be576102bd610228565b5b6102c782610217565b9050602081019050919050565b60005b838110156102f25780820151818401526020810190506102d7565b60008484015250505050565b600061031161030c846102a3565b610288565b90508281526020810184848401111561032d5761032c610212565b5b6103388482856102d4565b509392505050565b600082601f8301126103555761035461020d565b5b81516103658482602086016102fe565b91505092915050565b6000819050919050565b6103818161036e565b811461038c57600080fd5b50565b60008151905061039e81610378565b92915050565b600073ffffffffffffffffffffffffffffffffffffffff82169050919050565b60006103cf826103a4565b9050919050565b6103df816103c4565b81146103ea57600080fd5b50565b6000815190506103fc816103d6565b92915050565b600080600080600060a0868803121561041e5761041d610203565b5b600086015167ffffffffffffffff81111561043c5761043b610208565b5b61044888828901610340565b955050602086015167ffffffffffffffff81111561046957610468610208565b5b61047588828901610340565b94505060406104868882890161038f565b9350506060610497888289016103ed565b92505060806104a88882890161038f565b9150509295509295909350565b600081519050919050565b7f4e487b7100000000000000000000000000000000000000000000000000000000600052602260045260246000fd5b6000600282049050600182168061050757607f821691505b60208210810361051a576105196104c0565b5b50919050565b60008190508160005260206000209050919050565b60006020601f8301049050919050565b600082821b905092915050565b6000600883026105827fffffffffffffffffffffffffffffffffffffffffffffffffffffffffffffffff82610545565b61058c8683610545565b95508019841693508086168417925050509392505050565b6000819050919050565b60006105c96105c46105bf8461036e565b6105a4565b61036e565b9050919050565b6000819050919050565b6105e3836105ae565b6105f76105ef826105d0565b848454610552565b825550505050565b600090565b61060c6105ff565b6106178184846105da565b505050565b5b8181101561063b57610630600082610604565b60018101905061061d565b5050565b601f8211156106805761065181610520565b61065a84610535565b81016020851015610669578190505b61067d61067585610535565b83018261061c565b50505b505050565b600082821c905092915050565b60006106a360001984600802610685565b1980831691505092915050565b60006106bc8383610692565b9150826002028217905092915050565b6106d5826104b5565b67ffffffffffffffff8111156106ee576106ed610228565b5b6106f882546104ef565b61070382828561063f565b600060209050601f8311600181146107365760008415610724578287015190505b61072e85826106b0565b865550610796565b601f19841661074486610520565b60005b8281101561076c57848901518255600182019150602085019450602081019050610747565b868310156107895784890151610785601f891682610692565b8355505b6001600288020188555050505b505050505050565b6107a7816103c4565b82525050565b60006020820190506107c2600083018461079e565b92915050565b608051612da56107f160003960008181611239015281816113c901526115a90152612da56000f3fe6080604052600436106101f25760003560e01c8063b34ffc5f1161010d578063d5abeb01116100a0578063e75722301161006f578063e7572230146106c0578063e7c2b772146106fd578063f2fde38b14610728578063f4227e9514610751578063fc6fec4c1461077c576101f9565b8063d5abeb0114610611578063d96a094a1461063c578063dd62ed3e14610658578063e388010d14610695576101f9565b8063cdbbf186116100dc578063cdbbf18614610555578063ce858b9e14610592578063d1b6dd30146105bd578063d3618cca146105fa576101f9565b8063b34ffc5f146104cc578063b4105e06146104e8578063be8755a9146104ff578063c5c4744c1461052a576101f9565b80633ccfd60b116101855780638513197611610154578063851319761461040e5780638da5cb5b1461043957806395d89b4114610464578063a9059cbb1461048f576101f9565b80633ccfd60b1461038c5780635b88349d146103a357806370a08231146103ba578063715018a6146103f7576101f9565b806318160ddd116101c157806318160ddd146102ce57806323b872dd146102f957806324d4de7014610336578063313ce56714610361576101f9565b806302d05d3f146101fe5780630483a7f61461022957806306fdde0314610266578063095ea7b314610291576101f9565b366101f957005b600080fd5b34801561020a57600080fd5b506102136107a5565b60405161022091906120e3565b60405180910390f35b34801561023557600080fd5b50610250600480360381019061024b9190612134565b6107cb565b60405161025d919061217a565b60405180910390f35b34801561027257600080fd5b5061027b6107e3565b6040516102889190612225565b60405180910390f35b34801561029d57600080fd5b506102b860048036038101906102b39190612273565b610875565b6040516102c591906122ce565b60405180910390f35b3480156102da57600080fd5b506102e3610898565b6040516102f0919061217a565b60405180910390f35b34801561030557600080fd5b50610320600480360381019061031b91906122e9565b6108a2565b60405161032d91906122ce565b60405180910390f35b34801561034257600080fd5b5061034b6108d1565b604051610358919061217a565b60405180910390f35b34801561036d57600080fd5b506103766108d6565b6040516103839190612358565b60405180910390f35b34801561039857600080fd5b506103a16108df565b005b3480156103af57600080fd5b506103b8610a1d565b005b3480156103c657600080fd5b506103e160048036038101906103dc9190612134565b610be5565b6040516103ee919061217a565b60405180910390f35b34801561040357600080fd5b5061040c610c2d565b005b34801561041a57600080fd5b50610423610c41565b604051610430919061217a565b60405180910390f35b34801561044557600080fd5b5061044e610c47565b60405161045b91906120e3565b60405180910390f35b34801561047057600080fd5b50610479610c71565b6040516104869190612225565b60405180910390f35b34801561049b57600080fd5b506104b660048036038101906104b19190612273565b610d03565b6040516104c391906122ce565b60405180910390f35b6104e660048036038101906104e19190612373565b610d26565b005b3480156104f457600080fd5b506104fd610fb1565b005b34801561050b57600080fd5b50610514611231565b604051610521919061217a565b60405180910390f35b34801561053657600080fd5b5061053f611271565b60405161054c919061217a565b60405180910390f35b34801561056157600080fd5b5061057c60048036038101906105779190612134565b611277565b604051610589919061217a565b60405180910390f35b34801561059e57600080fd5b506105a761128f565b6040516105b491906122ce565b60405180910390f35b3480156105c957600080fd5b506105e460048036038101906105df9190612134565b6112a2565b6040516105f191906122ce565b60405180910390f35b34801561060657600080fd5b5061060f6112c2565b005b34801561061d57600080fd5b506106266113c7565b604051610633919061217a565b60405180910390f35b61065660048036038101906106519190612373565b6113eb565b005b34801561066457600080fd5b5061067f600480360381019061067a91906123a0565b61150e565b60405161068c919061217a565b60405180910390f35b3480156106a157600080fd5b506106aa611595565b6040516106b7919061217a565b60405180910390f35b3480156106cc57600080fd5b506106e760048036038101906106e29190612373565b6115e1565b6040516106f4919061217a565b60405180910390f35b34801561070957600080fd5b50610712611654565b60405161071f91906122ce565b60405180910390f35b34801561073457600080fd5b5061074f600480360381019061074a9190612134565b611667565b005b34801561075d57600080fd5b506107666116ed565b604051610773919061217a565b60405180910390f35b34801561078857600080fd5b506107a3600480360381019061079e919061249b565b6116f3565b005b600760009054906101000a900473ffffffffffffffffffffffffffffffffffffffff1681565b600c6020528060005260406000206000915090505481565b6060600380546107f29061254b565b80601f016020809104026020016040519081016040528092919081815260200182805461081e9061254b565b801561086b5780601f106108405761010080835404028352916020019161086b565b820191906000526020600020905b81548152906001019060200180831161084e57829003601f168201915b5050505050905090565b600080610880611934565b905061088d81858561193c565b600191505092915050565b6000600254905090565b6000806108ad611934565b90506108ba85828561194e565b6108c58585856119e3565b60019150509392505050565b601481565b60006012905090565b600760009054906101000a900473ffffffffffffffffffffffffffffffffffffffff1673ffffffffffffffffffffffffffffffffffffffff163373ffffffffffffffffffffffffffffffffffffffff161461096f576040517f08c379a0000000000000000000000000000000000000000000000000000000008152600401610966906125c8565b60405180910390fd5b600047116109b2576040517f08c379a00000000000000000000000000000000000000000000000000000000081526004016109a990612634565b60405180910390fd5b600760009054906101000a900473ffffffffffffffffffffffffffffffffffffffff1673ffffffffffffffffffffffffffffffffffffffff166108fc479081150290604051600060405180830381858888f19350505050158015610a1a573d6000803e3d6000fd5b50565b600960009054906101000a900460ff16610a6c576040517f08c379a0000000000000000000000000000000000000000000000000000000008152600401610a63906126a0565b60405180910390fd5b600e60003373ffffffffffffffffffffffffffffffffffffffff1673ffffffffffffffffffffffffffffffffffffffff16815260200190815260200160002060009054906101000a900460ff1615610af9576040517f08c379a0000000000000000000000000000000000000000000000000000000008152600401610af09061270c565b60405180910390fd5b6000600d60003373ffffffffffffffffffffffffffffffffffffffff1673ffffffffffffffffffffffffffffffffffffffff16815260200190815260200160002054905060008111610b80576040517f08c379a0000000000000000000000000000000000000000000000000000000008152600401610b7790612778565b60405180910390fd5b6001600e60003373ffffffffffffffffffffffffffffffffffffffff1673ffffffffffffffffffffffffffffffffffffffff16815260200190815260200160002060006101000a81548160ff021916908315150217905550610be23382611ad7565b50565b60008060008373ffffffffffffffffffffffffffffffffffffffff1673ffffffffffffffffffffffffffffffffffffffff168152602001908152602001600020549050919050565b610c35611b59565b610c3f6000611be0565b565b60065481565b6000600560009054906101000a900473ffffffffffffffffffffffffffffffffffffffff16905090565b606060048054610c809061254b565b80601f0160208091040260200160405190810160405280929190818152602001828054610cac9061254b565b8015610cf95780601f10610cce57610100808354040283529160200191610cf9565b820191906000526020600020905b815481529060010190602001808311610cdc57829003601f168201915b5050505050905090565b600080610d0e611934565b9050610d1b8185856119e3565b600191505092915050565b600760009054906101000a900473ffffffffffffffffffffffffffffffffffffffff1673ffffffffffffffffffffffffffffffffffffffff163373ffffffffffffffffffffffffffffffffffffffff1614610db6576040517f08c379a0000000000000000000000000000000000000000000000000000000008152600401610dad906125c8565b60405180910390fd5b600960009054906101000a900460ff1615610e06576040517f08c379a0000000000000000000000000000000000000000000000000000000008152600401610dfd906127e4565b60405180910390fd5b600b60009054906101000a900460ff1615610e56576040517f08c379a0000000000000000000000000000000000000000000000000000000008152600401610e4d90612850565b60405180910390fd5b6000610e61826115e1565b905080341015610ea6576040517f08c379a0000000000000000000000000000000000000000000000000000000008152600401610e9d906128bc565b60405180910390fd5b610eae611595565b82610eb7610898565b610ec1919061290b565b1115610f02576040517f08c379a0000000000000000000000000000000000000000000000000000000008152600401610ef99061298b565b60405180910390fd5b3460086000828254610f14919061290b565b92505081905550610f253083611ad7565b81600c6000600760009054906101000a900473ffffffffffffffffffffffffffffffffffffffff1673ffffffffffffffffffffffffffffffffffffffff1673ffffffffffffffffffffffffffffffffffffffff1681526020019081526020016000208190555081600a819055506001600b60006101000a81548160ff0219169083151502179055505050565b600760009054906101000a900473ffffffffffffffffffffffffffffffffffffffff1673ffffffffffffffffffffffffffffffffffffffff163373ffffffffffffffffffffffffffffffffffffffff1614611041576040517f08c379a0000000000000000000000000000000000000000000000000000000008152600401611038906125c8565b60405180910390fd5b600960009054906101000a900460ff16611090576040517f08c379a0000000000000000000000000000000000000000000000000000000008152600401611087906129f7565b60405180910390fd5b6000600c6000600760009054906101000a900473ffffffffffffffffffffffffffffffffffffffff1673ffffffffffffffffffffffffffffffffffffffff1673ffffffffffffffffffffffffffffffffffffffff1681526020019081526020016000205411611134576040517f08c379a000000000000000000000000000000000000000000000000000000000815260040161112b90612a63565b60405180910390fd5b6000600c6000600760009054906101000a900473ffffffffffffffffffffffffffffffffffffffff1673ffffffffffffffffffffffffffffffffffffffff1673ffffffffffffffffffffffffffffffffffffffff1681526020019081526020016000205490506000600c6000600760009054906101000a900473ffffffffffffffffffffffffffffffffffffffff1673ffffffffffffffffffffffffffffffffffffffff1673ffffffffffffffffffffffffffffffffffffffff1681526020019081526020016000208190555061122e30600760009054906101000a900473ffffffffffffffffffffffffffffffffffffffff16836119e3565b50565b6000606460147f00000000000000000000000000000000000000000000000000000000000000006112629190612a83565b61126c9190612af4565b905090565b60085481565b600d6020528060005260406000206000915090505481565b600b60009054906101000a900460ff1681565b600e6020528060005260406000206000915054906101000a900460ff1681565b600960009054906101000a900460ff1615611312576040517f08c379a0000000000000000000000000000000000000000000000000000000008152600401611309906127e4565b60405180910390fd5b6006546008541015611359576040517f08c379a000000000000000000000000000000000000000000000000000000000815260040161135090612b71565b60405180910390fd5b611361611595565b611369610898565b11156113aa576040517f08c379a00000000000000000000000000000000000000000000000000000000081526004016113a190612bdd565b60405180910390fd5b6001600960006101000a81548160ff021916908315150217905550565b7f000000000000000000000000000000000000000000000000000000000000000081565b600960009054906101000a900460ff161561143b576040517f08c379a0000000000000000000000000000000000000000000000000000000008152600401611432906127e4565b60405180910390fd5b6000611446826115e1565b90508034101561148b576040517f08c379a0000000000000000000000000000000000000000000000000000000008152600401611482906128bc565b60405180910390fd5b611493611595565b8261149c610898565b6114a6919061290b565b11156114e7576040517f08c379a00000000000000000000000000000000000000000000000000000000081526004016114de9061298b565b60405180910390fd5b34600860008282546114f9919061290b565b9250508190555061150a3383611ad7565b5050565b6000600160008473ffffffffffffffffffffffffffffffffffffffff1673ffffffffffffffffffffffffffffffffffffffff16815260200190815260200160002060008373ffffffffffffffffffffffffffffffffffffffff1673ffffffffffffffffffffffffffffffffffffffff16815260200190815260200160002054905092915050565b60006064601460646115a79190612bfd565b7f00000000000000000000000000000000000000000000000000000000000000006115d29190612a83565b6115dc9190612af4565b905090565b60008066038d7ea4c6800090506000655af3107a400090506000805b85811015611648578061160e610898565b611618919061290b565b836116239190612a83565b8461162e919061290b565b82611639919061290b565b915080806001019150506115fd565b50809350505050919050565b600960009054906101000a900460ff1681565b61166f611b59565b600073ffffffffffffffffffffffffffffffffffffffff168173ffffffffffffffffffffffffffffffffffffffff16036116e15760006040517f1e4fbdf70000000000000000000000000000000000000000000000000000000081526004016116d891906120e3565b60405180910390fd5b6116ea81611be0565b50565b600a5481565b600760009054906101000a900473ffffffffffffffffffffffffffffffffffffffff1673ffffffffffffffffffffffffffffffffffffffff163373ffffffffffffffffffffffffffffffffffffffff1614611783576040517f08c379a000000000000000000000000000000000000000000000000000000000815260040161177a906125c8565b60405180910390fd5b600960009054906101000a900460ff16156117d3576040517f08c379a00000000000000000000000000000000000000000000000000000000081526004016117ca906127e4565b60405180910390fd5b81819050848490501461181b576040517f08c379a000000000000000000000000000000000000000000000000000000000815260040161181290612c7d565b60405180910390fd5b6000805b858590508110156118e25783838281811061183d5761183c612c9d565b5b90506020020135600d600088888581811061185b5761185a612c9d565b5b90506020020160208101906118709190612134565b73ffffffffffffffffffffffffffffffffffffffff1673ffffffffffffffffffffffffffffffffffffffff168152602001908152602001600020819055508383828181106118c1576118c0612c9d565b5b90506020020135826118d3919061290b565b9150808060010191505061181f565b506118eb611231565b81111561192d576040517f08c379a000000000000000000000000000000000000000000000000000000000815260040161192490612d18565b60405180910390fd5b5050505050565b600033905090565b6119498383836001611ca6565b505050565b600061195a848461150e565b90507fffffffffffffffffffffffffffffffffffffffffffffffffffffffffffffffff8110156119dd57818110156119cd578281836040517ffb8f41b20000000000000000000000000000000000000000000000000000000081526004016119c493929190612d38565b60405180910390fd5b6119dc84848484036000611ca6565b5b50505050565b600073ffffffffffffffffffffffffffffffffffffffff168373ffffffffffffffffffffffffffffffffffffffff1603611a555760006040517f96c6fd1e000000000000000000000000000000000000000000000000000000008152600401611a4c91906120e3565b60405180910390fd5b600073ffffffffffffffffffffffffffffffffffffffff168273ffffffffffffffffffffffffffffffffffffffff1603611ac75760006040517fec442f05000000000000000000000000000000000000000000000000000000008152600401611abe91906120e3565b60405180910390fd5b611ad2838383611e7d565b505050565b600073ffffffffffffffffffffffffffffffffffffffff168273ffffffffffffffffffffffffffffffffffffffff1603611b495760006040517fec442f05000000000000000000000000000000000000000000000000000000008152600401611b4091906120e3565b60405180910390fd5b611b5560008383611e7d565b5050565b611b61611934565b73ffffffffffffffffffffffffffffffffffffffff16611b7f610c47565b73ffffffffffffffffffffffffffffffffffffffff1614611bde57611ba2611934565b6040517f118cdaa7000000000000000000000000000000000000000000000000000000008152600401611bd591906120e3565b60405180910390fd5b565b6000600560009054906101000a900473ffffffffffffffffffffffffffffffffffffffff16905081600560006101000a81548173ffffffffffffffffffffffffffffffffffffffff021916908373ffffffffffffffffffffffffffffffffffffffff1602179055508173ffffffffffffffffffffffffffffffffffffffff168173ffffffffffffffffffffffffffffffffffffffff167f8be0079c531659141344cd1fd0a4f28419497f9722a3daafe3b4186f6b6457e060405160405180910390a35050565b600073ffffffffffffffffffffffffffffffffffffffff168473ffffffffffffffffffffffffffffffffffffffff1603611d185760006040517fe602df05000000000000000000000000000000000000000000000000000000008152600401611d0f91906120e3565b60405180910390fd5b600073ffffffffffffffffffffffffffffffffffffffff168373ffffffffffffffffffffffffffffffffffffffff1603611d8a5760006040517f94280d62000000000000000000000000000000000000000000000000000000008152600401611d8191906120e3565b60405180910390fd5b81600160008673ffffffffffffffffffffffffffffffffffffffff1673ffffffffffffffffffffffffffffffffffffffff16815260200190815260200160002060008573ffffffffffffffffffffffffffffffffffffffff1673ffffffffffffffffffffffffffffffffffffffff168152602001908152602001600020819055508015611e77578273ffffffffffffffffffffffffffffffffffffffff168473ffffffffffffffffffffffffffffffffffffffff167f8c5be1e5ebec7d5bd14f71427d1e84f3dd0314c0f7b2291e5b200ac8c7c3b92584604051611e6e919061217a565b60405180910390a35b50505050565b600073ffffffffffffffffffffffffffffffffffffffff168373ffffffffffffffffffffffffffffffffffffffff1603611ecf578060026000828254611ec3919061290b565b92505081905550611fa2565b60008060008573ffffffffffffffffffffffffffffffffffffffff1673ffffffffffffffffffffffffffffffffffffffff16815260200190815260200160002054905081811015611f5b578381836040517fe450d38c000000000000000000000000000000000000000000000000000000008152600401611f5293929190612d38565b60405180910390fd5b8181036000808673ffffffffffffffffffffffffffffffffffffffff1673ffffffffffffffffffffffffffffffffffffffff16815260200190815260200160002081905550505b600073ffffffffffffffffffffffffffffffffffffffff168273ffffffffffffffffffffffffffffffffffffffff1603611feb5780600260008282540392505081905550612038565b806000808473ffffffffffffffffffffffffffffffffffffffff1673ffffffffffffffffffffffffffffffffffffffff168152602001908152602001600020600082825401925050819055505b8173ffffffffffffffffffffffffffffffffffffffff168373ffffffffffffffffffffffffffffffffffffffff167fddf252ad1be2c89b69c2b068fc378daa952ba7f163c4a11628f55a4df523b3ef83604051612095919061217a565b60405180910390a3505050565b600073ffffffffffffffffffffffffffffffffffffffff82169050919050565b60006120cd826120a2565b9050919050565b6120dd816120c2565b82525050565b60006020820190506120f860008301846120d4565b92915050565b600080fd5b600080fd5b612111816120c2565b811461211c57600080fd5b50565b60008135905061212e81612108565b92915050565b60006020828403121561214a576121496120fe565b5b60006121588482850161211f565b91505092915050565b6000819050919050565b61217481612161565b82525050565b600060208201905061218f600083018461216b565b92915050565b600081519050919050565b600082825260208201905092915050565b60005b838110156121cf5780820151818401526020810190506121b4565b60008484015250505050565b6000601f19601f8301169050919050565b60006121f782612195565b61220181856121a0565b93506122118185602086016121b1565b61221a816121db565b840191505092915050565b6000602082019050818103600083015261223f81846121ec565b905092915050565b61225081612161565b811461225b57600080fd5b50565b60008135905061226d81612247565b92915050565b6000806040838503121561228a576122896120fe565b5b60006122988582860161211f565b92505060206122a98582860161225e565b9150509250929050565b60008115159050919050565b6122c8816122b3565b82525050565b60006020820190506122e360008301846122bf565b92915050565b600080600060608486031215612302576123016120fe565b5b60006123108682870161211f565b93505060206123218682870161211f565b92505060406123328682870161225e565b9150509250925092565b600060ff82169050919050565b6123528161233c565b82525050565b600060208201905061236d6000830184612349565b92915050565b600060208284031215612389576123886120fe565b5b60006123978482850161225e565b91505092915050565b600080604083850312156123b7576123b66120fe565b5b60006123c58582860161211f565b92505060206123d68582860161211f565b9150509250929050565b600080fd5b600080fd5b600080fd5b60008083601f840112612405576124046123e0565b5b8235905067ffffffffffffffff811115612422576124216123e5565b5b60208301915083602082028301111561243e5761243d6123ea565b5b9250929050565b60008083601f84011261245b5761245a6123e0565b5b8235905067ffffffffffffffff811115612478576124776123e5565b5b602083019150836020820283011115612494576124936123ea565b5b9250929050565b600080600080604085870312156124b5576124b46120fe565b5b600085013567ffffffffffffffff8111156124d3576124d2612103565b5b6124df878288016123ef565b9450945050602085013567ffffffffffffffff81111561250257612501612103565b5b61250e87828801612445565b925092505092959194509250565b7f4e487b7100000000000000000000000000000000000000000000000000000000600052602260045260246000fd5b6000600282049050600182168061256357607f821691505b6020821081036125765761257561251c565b5b50919050565b7f4e6f742063726561746f72000000000000000000000000000000000000000000600082015250565b60006125b2600b836121a0565b91506125bd8261257c565b602082019050919050565b600060208201905081810360008301526125e1816125a5565b9050919050565b7f4e6f7468696e6720746f20776974686472617700000000000000000000000000600082015250565b600061261e6013836121a0565b9150612629826125e8565b602082019050919050565b6000602082019050818103600083015261264d81612611565b9050919050565b7f4e6f742067726164756174656400000000000000000000000000000000000000600082015250565b600061268a600d836121a0565b915061269582612654565b602082019050919050565b600060208201905081810360008301526126b98161267d565b9050919050565b7f416c726561647920636c61696d65640000000000000000000000000000000000600082015250565b60006126f6600f836121a0565b9150612701826126c0565b602082019050919050565b60006020820190508181036000830152612725816126e9565b9050919050565b7f4e6f20616c6c6f636174696f6e00000000000000000000000000000000000000600082015250565b6000612762600d836121a0565b915061276d8261272c565b602082019050919050565b6000602082019050818103600083015261279181612755565b9050919050565b7f416c726561647920677261647561746564000000000000000000000000000000600082015250565b60006127ce6011836121a0565b91506127d982612798565b602082019050919050565b600060208201905081810360008301526127fd816127c1565b9050919050565b7f43726561746f7220616c726561647920626f7567687400000000000000000000600082015250565b600061283a6016836121a0565b915061284582612804565b602082019050919050565b600060208201905081810360008301526128698161282d565b9050919050565b7f496e73756666696369656e74204554482073656e740000000000000000000000600082015250565b60006128a66015836121a0565b91506128b182612870565b602082019050919050565b600060208201905081810360008301526128d581612899565b9050919050565b7f4e487b7100000000000000000000000000000000000000000000000000000000600052601160045260246000fd5b600061291682612161565b915061292183612161565b9250828201905080821115612939576129386128dc565b5b92915050565b7f4578636565647320617661696c61626c6520737570706c790000000000000000600082015250565b60006129756018836121a0565b91506129808261293f565b602082019050919050565b600060208201905081810360008301526129a481612968565b9050919050565b7f4e6f742067726164756174656420796574000000000000000000000000000000600082015250565b60006129e16011836121a0565b91506129ec826129ab565b602082019050919050565b60006020820190508181036000830152612a10816129d4565b9050919050565b7f4e6f206c6f636b656420746f6b656e7300000000000000000000000000000000600082015250565b6000612a4d6010836121a0565b9150612a5882612a17565b602082019050919050565b60006020820190508181036000830152612a7c81612a40565b9050919050565b6000612a8e82612161565b9150612a9983612161565b9250828202612aa781612161565b91508282048414831517612abe57612abd6128dc565b5b5092915050565b7f4e487b7100000000000000000000000000000000000000000000000000000000600052601260045260246000fd5b6000612aff82612161565b9150612b0a83612161565b925082612b1a57612b19612ac5565b5b828204905092915050565b7f526169736520746172676574206e6f74206d6574000000000000000000000000600082015250565b6000612b5b6014836121a0565b9150612b6682612b25565b602082019050919050565b60006020820190508181036000830152612b8a81612b4e565b9050919050565b7f4d7573742072657365727665204c502f61697264726f70000000000000000000600082015250565b6000612bc76017836121a0565b9150612bd282612b91565b602082019050919050565b60006020820190508181036000830152612bf681612bba565b9050919050565b6000612c0882612161565b9150612c1383612161565b9250828203905081811115612c2b57612c2a6128dc565b5b92915050565b7f4c656e677468206d69736d617463680000000000000000000000000000000000600082015250565b6000612c67600f836121a0565b9150612c7282612c31565b602082019050919050565b60006020820190508181036000830152612c9681612c5a565b9050919050565b7f4e487b7100000000000000000000000000000000000000000000000000000000600052603260045260246000fd5b7f457863656564732061697264726f702072657365727665000000000000000000600082015250565b6000612d026017836121a0565b9150612d0d82612ccc565b602082019050919050565b60006020820190508181036000830152612d3181612cf5565b9050919050565b6000606082019050612d4d60008301866120d4565b612d5a602083018561216b565b612d67604083018461216b565b94935050505056fea2646970667358221220b9e0a843cf7397e6a2fb2b6b197a2ff9577835d57237ad94a86e3a4c125476e964736f6c634300081c0033",
  "linkReferences": {},
  "deployedLinkReferences": {}
}