{
  "_format": "hh-sol-artifact-1",
  "contractName": "TurboToken",
  "sourceName": "contracts/TurboToken.sol",
  "abi": [
    {
      "inputs": [
        {
          "internalType": "string",
          "name": "name_",
          "type": "string"
        },
        {
          "internalType": "string",
          "name": "symbol_",
          "type": "string"
        },
        {
          "internalType": "uint256",
          "name": "raiseTarget_",
          "type": "uint256"
        },
        {
          "internalType": "address",
          "name": "creator_",
          "type": "address"
        },
        {
          "internalType": "uint256",
          "name": "maxSupply_",
          "type": "uint256"
        },
        {
          "internalType": "address",
          "name": "platformFeeRecipient_",
          "type": "address"
        },
        {
          "internalType": "address",
          "name": "dexRouter_",
          "type": "address"
        },
        {
          "internalType": "uint16",
          "name": "minUnlockDays_",
          "type": "uint16"
        }
      ],
      "stateMutability": "nonpayable",
      "type": "constructor"
    },
    {
      "inputs": [
        {
          "internalType": "address",
          "name": "spender",
          "type": "address"
        },
        {
          "internalType": "uint256",
          "name": "allowance",
          "type": "uint256"
        },
        {
          "internalType": "uint256",
          "name": "needed",
          "type": "uint256"
        }
      ],
      "name": "ERC20InsufficientAllowance",
      "type": "error"
    },
    {
      "inputs": [
        {
          "internalType": "address",
          "name": "sender",
          "type": "address"
        },
        {
          "internalType": "uint256",
          "name": "balance",
          "type": "uint256"
        },
        {
          "internalType": "uint256",
          "name": "needed",
          "type": "uint256"
        }
      ],
      "name": "ERC20InsufficientBalance",
      "type": "error"
    },
    {
      "inputs": [
        {
          "internalType": "address",
          "name": "approver",
          "type": "address"
        }
      ],
      "name": "ERC20InvalidApprover",
      "type": "error"
    },
    {
      "inputs": [
        {
          "internalType": "address",
          "name": "receiver",
          "type": "address"
        }
      ],
      "name": "ERC20InvalidReceiver",
      "type": "error"
    },
    {
      "inputs": [
        {
          "internalType": "address",
          "name": "sender",
          "type": "address"
        }
      ],
      "name": "ERC20InvalidSender",
      "type": "error"
    },
    {
      "inputs": [
        {
          "internalType": "address",
          "name": "spender",
          "type": "address"
        }
      ],
      "name": "ERC20InvalidSpender",
      "type": "error"
    },
    {
      "inputs": [
        {
          "internalType": "address",
          "name": "owner",
          "type": "address"
        }
      ],
      "name": "OwnableInvalidOwner",
      "type": "error"
    },
    {
      "inputs": [
        {
          "internalType": "address",
          "name": "account",
          "type": "address"
        }
      ],
      "name": "OwnableUnauthorizedAccount",
      "type": "error"
    },
    {
      "inputs": [],
      "name": "ReentrancyGuardReentrantCall",
      "type": "error"
    },
    {
      "anonymous": false,
      "inputs": [
        {
          "indexed": true,
          "internalType": "address",
          "name": "owner",
          "type": "address"
        },
        {
          "indexed": true,
          "internalType": "address",
          "name": "spender",
          "type": "address"
        },
        {
          "indexed": false,
          "internalType": "uint256",
          "name": "value",
          "type": "uint256"
        }
      ],
      "name": "Approval",
      "type": "event"
    },
    {
      "anonymous": false,
      "inputs": [
        {
          "indexed": false,
          "internalType": "uint256",
          "name": "amount",
          "type": "uint256"
        }
      ],
      "name": "CreatorUnlocked",
      "type": "event"
    },
    {
      "anonymous": false,
      "inputs": [
        {
          "indexed": true,
          "internalType": "address",
          "name": "to",
          "type": "address"
        },
        {
          "indexed": false,
          "internalType": "uint256",
          "name": "amount",
          "type": "uint256"
        }
      ],
      "name": "FeesTransferred",
      "type": "event"
    },
    {
      "anonymous": false,
      "inputs": [
        {
          "indexed": true,
          "internalType": "address",
          "name": "by",
          "type": "address"
        },
        {
          "indexed": false,
          "internalType": "uint256",
          "name": "ethAddedToLP",
          "type": "uint256"
        },
        {
          "indexed": false,
          "internalType": "uint256",
          "name": "tokensAddedToLP",
          "type": "uint256"
        }
      ],
      "name": "Graduated",
      "type": "event"
    },
    {
      "anonymous": false,
      "inputs": [
        {
          "indexed": true,
          "internalType": "address",
          "name": "pair",
          "type": "address"
        },
        {
          "indexed": false,
          "internalType": "uint256",
          "name": "creatorLP",
          "type": "uint256"
        },
        {
          "indexed": false,
          "internalType": "uint256",
          "name": "platformLP",
          "type": "uint256"
        }
      ],
      "name": "LPSplit",
      "type": "event"
    },
    {
      "anonymous": false,
      "inputs": [
        {
          "indexed": true,
          "internalType": "address",
          "name": "previousOwner",
          "type": "address"
        },
        {
          "indexed": true,
          "internalType": "address",
          "name": "newOwner",
          "type": "address"
        }
      ],
      "name": "OwnershipTransferred",
      "type": "event"
    },
    {
      "anonymous": false,
      "inputs": [
        {
          "indexed": true,
          "internalType": "address",
          "name": "pair",
          "type": "address"
        },
        {
          "indexed": false,
          "internalType": "uint256",
          "name": "liquidity",
          "type": "uint256"
        }
      ],
      "name": "PoolCreated",
      "type": "event"
    },
    {
      "anonymous": false,
      "inputs": [
        {
          "indexed": true,
          "internalType": "address",
          "name": "from",
          "type": "address"
        },
        {
          "indexed": true,
          "internalType": "address",
          "name": "to",
          "type": "address"
        },
        {
          "indexed": false,
          "internalType": "uint256",
          "name": "value",
          "type": "uint256"
        }
      ],
      "name": "Transfer",
      "type": "event"
    },
    {
      "inputs": [],
      "name": "MAX_AIRDROP_BPS",
      "outputs": [
        {
          "internalType": "uint256",
          "name": "",
          "type": "uint256"
        }
      ],
      "stateMutability": "view",
      "type": "function"
    },
    {
      "inputs": [],
      "name": "MAX_CREATOR_LOCK_BPS",
      "outputs": [
        {
          "internalType": "uint256",
          "name": "",
          "type": "uint256"
        }
      ],
      "stateMutability": "view",
      "type": "function"
    },
    {
      "inputs": [],
      "name": "MAX_SALE_BPS",
      "outputs": [
        {
          "internalType": "uint256",
          "name": "",
          "type": "uint256"
        }
      ],
      "stateMutability": "view",
      "type": "function"
    },
    {
      "inputs": [
        {
          "internalType": "address",
          "name": "",
          "type": "address"
        }
      ],
      "name": "airdropAllocations",
      "outputs": [
        {
          "internalType": "uint256",
          "name": "",
          "type": "uint256"
        }
      ],
      "stateMutability": "view",
      "type": "function"
    },
    {
      "inputs": [
        {
          "internalType": "address",
          "name": "",
          "type": "address"
        }
      ],
      "name": "airdropClaimed",
      "outputs": [
        {
          "internalType": "bool",
          "name": "",
          "type": "bool"
        }
      ],
      "stateMutability": "view",
      "type": "function"
    },
    {
      "inputs": [],
      "name": "airdropFinalized",
      "outputs": [
        {
          "internalType": "bool",
          "name": "",
          "type": "bool"
        }
      ],
      "stateMutability": "view",
      "type": "function"
    },
    {
      "inputs": [
        {
          "internalType": "uint256",
          "name": "",
          "type": "uint256"
        }
      ],
      "name": "airdropRecipients",
      "outputs": [
        {
          "internalType": "address",
          "name": "",
          "type": "address"
        }
      ],
      "stateMutability": "view",
      "type": "function"
    },
    {
      "inputs": [
        {
          "internalType": "address",
          "name": "owner",
          "type": "address"
        },
        {
          "internalType": "address",
          "name": "spender",
          "type": "address"
        }
      ],
      "name": "allowance",
      "outputs": [
        {
          "internalType": "uint256",
          "name": "",
          "type": "uint256"
        }
      ],
      "stateMutability": "view",
      "type": "function"
    },
    {
      "inputs": [
        {
          "internalType": "address",
          "name": "spender",
          "type": "address"
        },
        {
          "internalType": "uint256",
          "name": "value",
          "type": "uint256"
        }
      ],
      "name": "approve",
      "outputs": [
        {
          "internalType": "bool",
          "name": "",
          "type": "bool"
        }
      ],
      "stateMutability": "nonpayable",
      "type": "function"
    },
    {
      "inputs": [
        {
          "internalType": "address",
          "name": "account",
          "type": "address"
        }
      ],
      "name": "balanceOf",
      "outputs": [
        {
          "internalType": "uint256",
          "name": "",
          "type": "uint256"
        }
      ],
      "stateMutability": "view",
      "type": "function"
    },
    {
      "inputs": [],
      "name": "basePrice",
      "outputs": [
        {
          "internalType": "uint256",
          "name": "",
          "type": "uint256"
        }
      ],
      "stateMutability": "view",
      "type": "function"
    },
    {
      "inputs": [
        {
          "internalType": "uint256",
          "name": "amount",
          "type": "uint256"
        }
      ],
      "name": "buy",
      "outputs": [],
      "stateMutability": "payable",
      "type": "function"
    },
    {
      "inputs": [],
      "name": "claimAirdrop",
      "outputs": [],
      "stateMutability": "nonpayable",
      "type": "function"
    },
    {
      "inputs": [],
      "name": "creator",
      "outputs": [
        {
          "internalType": "address",
          "name": "",
          "type": "address"
        }
      ],
      "stateMutability": "view",
      "type": "function"
    },
    {
      "inputs": [
        {
          "internalType": "uint256",
          "name": "amount",
          "type": "uint256"
        }
      ],
      "name": "creatorBuy",
      "outputs": [],
      "stateMutability": "payable",
      "type": "function"
    },
    {
      "inputs": [],
      "name": "creatorLockAmount",
      "outputs": [
        {
          "internalType": "uint256",
          "name": "",
          "type": "uint256"
        }
      ],
      "stateMutability": "view",
      "type": "function"
    },
    {
      "inputs": [],
      "name": "creatorLockCumulative",
      "outputs": [
        {
          "internalType": "uint256",
          "name": "",
          "type": "uint256"
        }
      ],
      "stateMutability": "view",
      "type": "function"
    },
    {
      "inputs": [],
      "name": "creatorLockingClosed",
      "outputs": [
        {
          "internalType": "bool",
          "name": "",
          "type": "bool"
        }
      ],
      "stateMutability": "view",
      "type": "function"
    },
    {
      "inputs": [],
      "name": "creatorUnlockTime",
      "outputs": [
        {
          "internalType": "uint64",
          "name": "",
          "type": "uint64"
        }
      ],
      "stateMutability": "view",
      "type": "function"
    },
    {
      "inputs": [],
      "name": "decimals",
      "outputs": [
        {
          "internalType": "uint8",
          "name": "",
          "type": "uint8"
        }
      ],
      "stateMutability": "view",
      "type": "function"
    },
    {
      "inputs": [],
      "name": "dexRouter",
      "outputs": [
        {
          "internalType": "address",
          "name": "",
          "type": "address"
        }
      ],
      "stateMutability": "view",
      "type": "function"
    },
    {
      "inputs": [],
      "name": "feesAccruedWei",
      "outputs": [
        {
          "internalType": "uint256",
          "name": "",
          "type": "uint256"
        }
      ],
      "stateMutability": "view",
      "type": "function"
    },
    {
      "inputs": [],
      "name": "finalizeIfReady",
      "outputs": [],
      "stateMutability": "nonpayable",
      "type": "function"
    },
    {
      "inputs": [],
      "name": "getAirdropAllocations",
      "outputs": [
        {
          "internalType": "address[]",
          "name": "",
          "type": "address[]"
        },
        {
          "internalType": "uint256[]",
          "name": "",
          "type": "uint256[]"
        }
      ],
      "stateMutability": "view",
      "type": "function"
    },
    {
      "inputs": [],
      "name": "getCurrentPrice",
      "outputs": [
        {
          "internalType": "uint256",
          "name": "",
          "type": "uint256"
        }
      ],
      "stateMutability": "view",
      "type": "function"
    },
    {
      "inputs": [
        {
          "internalType": "uint256",
          "name": "amount",
          "type": "uint256"
        }
      ],
      "name": "getPrice",
      "outputs": [
        {
          "internalType": "uint256",
          "name": "",
          "type": "uint256"
        }
      ],
      "stateMutability": "view",
      "type": "function"
    },
    {
      "inputs": [
        {
          "internalType": "uint256",
          "name": "amount",
          "type": "uint256"
        }
      ],
      "name": "getSellPrice",
      "outputs": [
        {
          "internalType": "uint256",
          "name": "",
          "type": "uint256"
        }
      ],
      "stateMutability": "view",
      "type": "function"
    },
    {
      "inputs": [],
      "name": "graduate",
      "outputs": [],
      "stateMutability": "nonpayable",
      "type": "function"
    },
    {
      "inputs": [],
      "name": "graduated",
      "outputs": [
        {
          "internalType": "bool",
          "name": "",
          "type": "bool"
        }
      ],
      "stateMutability": "view",
      "type": "function"
    },
    {
      "inputs": [
        {
          "internalType": "address",
          "name": "",
          "type": "address"
        }
      ],
      "name": "lockedBalances",
      "outputs": [
        {
          "internalType": "uint256",
          "name": "",
          "type": "uint256"
        }
      ],
      "stateMutability": "view",
      "type": "function"
    },
    {
      "inputs": [],
      "name": "maxAirdropSupply",
      "outputs": [
        {
          "internalType": "uint256",
          "name": "",
          "type": "uint256"
        }
      ],
      "stateMutability": "view",
      "type": "function"
    },
    {
      "inputs": [],
      "name": "maxCreatorLock",
      "outputs": [
        {
          "internalType": "uint256",
          "name": "",
          "type": "uint256"
        }
      ],
      "stateMutability": "view",
      "type": "function"
    },
    {
      "inputs": [],
      "name": "maxSaleSupply",
      "outputs": [
        {
          "internalType": "uint256",
          "name": "",
          "type": "uint256"
        }
      ],
      "stateMutability": "view",
      "type": "function"
    },
    {
      "inputs": [],
      "name": "maxSupply",
      "outputs": [
        {
          "internalType": "uint256",
          "name": "",
          "type": "uint256"
        }
      ],
      "stateMutability": "view",
      "type": "function"
    },
    {
      "inputs": [],
      "name": "minTokenAgeForUnlockSeconds",
      "outputs": [
        {
          "internalType": "uint32",
          "name": "",
          "type": "uint32"
        }
      ],
      "stateMutability": "view",
      "type": "function"
    },
    {
      "inputs": [],
      "name": "name",
      "outputs": [
        {
          "internalType": "string",
          "name": "",
          "type": "string"
        }
      ],
      "stateMutability": "view",
      "type": "function"
    },
    {
      "inputs": [],
      "name": "owner",
      "outputs": [
        {
          "internalType": "address",
          "name": "",
          "type": "address"
        }
      ],
      "stateMutability": "view",
      "type": "function"
    },
    {
      "inputs": [],
      "name": "platformFeeRecipient",
      "outputs": [
        {
          "internalType": "address",
          "name": "",
          "type": "address"
        }
      ],
      "stateMutability": "view",
      "type": "function"
    },
    {
      "inputs": [],
      "name": "raiseTarget",
      "outputs": [
        {
          "internalType": "uint256",
          "name": "",
          "type": "uint256"
        }
      ],
      "stateMutability": "view",
      "type": "function"
    },
    {
      "inputs": [],
      "name": "remainingForLP",
      "outputs": [
        {
          "internalType": "uint256",
          "name": "",
          "type": "uint256"
        }
      ],
      "stateMutability": "view",
      "type": "function"
    },
    {
      "inputs": [],
      "name": "renounceOwnership",
      "outputs": [],
      "stateMutability": "nonpayable",
      "type": "function"
    },
    {
      "inputs": [],
      "name": "reservedForAirdrop",
      "outputs": [
        {
          "internalType": "uint256",
          "name": "",
          "type": "uint256"
        }
      ],
      "stateMutability": "view",
      "type": "function"
    },
    {
      "inputs": [
        {
          "internalType": "uint256",
          "name": "amount",
          "type": "uint256"
        }
      ],
      "name": "sell",
      "outputs": [],
      "stateMutability": "nonpayable",
      "type": "function"
    },
    {
      "inputs": [
        {
          "internalType": "address[]",
          "name": "recipients",
          "type": "address[]"
        },
        {
          "internalType": "uint256[]",
          "name": "amounts",
          "type": "uint256[]"
        }
      ],
      "name": "setAirdropAllocations",
      "outputs": [],
      "stateMutability": "nonpayable",
      "type": "function"
    },
    {
      "inputs": [],
      "name": "slope",
      "outputs": [
        {
          "internalType": "uint256",
          "name": "",
          "type": "uint256"
        }
      ],
      "stateMutability": "view",
      "type": "function"
    },
    {
      "inputs": [],
      "name": "symbol",
      "outputs": [
        {
          "internalType": "string",
          "name": "",
          "type": "string"
        }
      ],
      "stateMutability": "view",
      "type": "function"
    },
    {
      "inputs": [],
      "name": "tokenInfo",
      "outputs": [
        {
          "internalType": "address",
          "name": "_creator",
          "type": "address"
        },
        {
          "internalType": "address",
          "name": "_platformFeeRecipient",
          "type": "address"
        },
        {
          "internalType": "uint256",
          "name": "_raiseTarget",
          "type": "uint256"
        },
        {
          "internalType": "uint256",
          "name": "_maxSupply",
          "type": "uint256"
        },
        {
          "internalType": "uint256",
          "name": "_basePrice",
          "type": "uint256"
        },
        {
          "internalType": "uint256",
          "name": "_slope",
          "type": "uint256"
        },
        {
          "internalType": "uint256",
          "name": "_totalRaised",
          "type": "uint256"
        },
        {
          "internalType": "bool",
          "name": "_graduated",
          "type": "bool"
        },
        {
          "internalType": "uint256",
          "name": "_creatorLockAmount",
          "type": "uint256"
        }
      ],
      "stateMutability": "view",
      "type": "function"
    },
    {
      "inputs": [],
      "name": "totalAirdropAllocated",
      "outputs": [
        {
          "internalType": "uint256",
          "name": "total",
          "type": "uint256"
        }
      ],
      "stateMutability": "view",
      "type": "function"
    },
    {
      "inputs": [],
      "name": "totalRaised",
      "outputs": [
        {
          "internalType": "uint256",
          "name": "",
          "type": "uint256"
        }
      ],
      "stateMutability": "view",
      "type": "function"
    },
    {
      "inputs": [],
      "name": "totalSupply",
      "outputs": [
        {
          "internalType": "uint256",
          "name": "",
          "type": "uint256"
        }
      ],
      "stateMutability": "view",
      "type": "function"
    },
    {
      "inputs": [
        {
          "internalType": "address",
          "name": "to",
          "type": "address"
        },
        {
          "internalType": "uint256",
          "name": "value",
          "type": "uint256"
        }
      ],
      "name": "transfer",
      "outputs": [
        {
          "internalType": "bool",
          "name": "",
          "type": "bool"
        }
      ],
      "stateMutability": "nonpayable",
      "type": "function"
    },
    {
      "inputs": [
        {
          "internalType": "address",
          "name": "from",
          "type": "address"
        },
        {
          "internalType": "address",
          "name": "to",
          "type": "address"
        },
        {
          "internalType": "uint256",
          "name": "value",
          "type": "uint256"
        }
      ],
      "name": "transferFrom",
      "outputs": [
        {
          "internalType": "bool",
          "name": "",
          "type": "bool"
        }
      ],
      "stateMutability": "nonpayable",
      "type": "function"
    },
    {
      "inputs": [
        {
          "internalType": "address",
          "name": "newOwner",
          "type": "address"
        }
      ],
      "name": "transferOwnership",
      "outputs": [],
      "stateMutability": "nonpayable",
      "type": "function"
    },
    {
      "inputs": [],
      "name": "unclaimedAirdropAmount",
      "outputs": [
        {
          "internalType": "uint256",
          "name": "total",
          "type": "uint256"
        }
      ],
      "stateMutability": "view",
      "type": "function"
    },
    {
      "inputs": [],
      "name": "unlockCreatorTokens",
      "outputs": [],
      "stateMutability": "nonpayable",
      "type": "function"
    },
    {
      "inputs": [],
      "name": "withdraw",
      "outputs": [],
      "stateMutability": "pure",
      "type": "function"
    },
    {
      "stateMutability": "payable",
      "type": "receive"
    }
  ],
  "bytecode": "0x60c060405234801561001057600080fd5b506040516163db3803806163db833981810160405281019061003291906107b8565b84888881600390816100449190610abd565b5080600490816100549190610abd565b505050600073ffffffffffffffffffffffffffffffffffffffff168173ffffffffffffffffffffffffffffffffffffffff16036100c95760006040517f1e4fbdf70000000000000000000000000000000000000000000000000000000081526004016100c09190610b9e565b60405180910390fd5b6100d88161048260201b60201c565b506001600681905550600073ffffffffffffffffffffffffffffffffffffffff168573ffffffffffffffffffffffffffffffffffffffff1603610150576040517f08c379a000000000000000000000000000000000000000000000000000000000815260040161014790610c16565b60405180910390fd5b600073ffffffffffffffffffffffffffffffffffffffff168373ffffffffffffffffffffffffffffffffffffffff16036101bf576040517f08c379a00000000000000000000000000000000000000000000000000000000081526004016101b690610c82565b60405180910390fd5b600073ffffffffffffffffffffffffffffffffffffffff168273ffffffffffffffffffffffffffffffffffffffff160361022e576040517f08c379a000000000000000000000000000000000000000000000000000000000815260040161022590610cee565b60405180910390fd5b60028161ffff16101580156102485750601e8161ffff1611155b610287576040517f08c379a000000000000000000000000000000000000000000000000000000000815260040161027e90610d5a565b60405180910390fd5b8560078190555084600960006101000a81548173ffffffffffffffffffffffffffffffffffffffff021916908373ffffffffffffffffffffffffffffffffffffffff160217905550836080818152505082600860006101000a81548173ffffffffffffffffffffffffffffffffffffffff021916908373ffffffffffffffffffffffffffffffffffffffff1602179055508173ffffffffffffffffffffffffffffffffffffffff1660a08173ffffffffffffffffffffffffffffffffffffffff16815250506000620151808261ffff166103619190610db9565b905080601160086101000a81548163ffffffff021916908363ffffffff1602179055508063ffffffff16426103969190610e0a565b601160006101000a81548167ffffffffffffffff021916908367ffffffffffffffff1602179055506000612710611b58876103d19190610e46565b6103db9190610eb7565b905060006104e1905061042a670de0b6b3a76400008a60026103fd9190610e46565b6104079190610e46565b8260016104149190610ee8565b8461041f9190610e46565b61054860201b60201c565b60158190555061046c670de0b6b3a764000060155460018461044c9190610f1c565b6104569190610e46565b6104609190610e46565b8361054860201b60201c565b6016819055505050505050505050505050610f50565b6000600560009054906101000a900473ffffffffffffffffffffffffffffffffffffffff16905081600560006101000a81548173ffffffffffffffffffffffffffffffffffffffff021916908373ffffffffffffffffffffffffffffffffffffffff1602179055508173ffffffffffffffffffffffffffffffffffffffff168173ffffffffffffffffffffffffffffffffffffffff167f8be0079c531659141344cd1fd0a4f28419497f9722a3daafe3b4186f6b6457e060405160405180910390a35050565b600081600183856105599190610ee8565b6105639190610f1c565b61056d9190610eb7565b905092915050565b6000604051905090565b600080fd5b600080fd5b600080fd5b600080fd5b6000601f19601f8301169050919050565b7f4e487b7100000000000000000000000000000000000000000000000000000000600052604160045260246000fd5b6105dc82610593565b810181811067ffffffffffffffff821117156105fb576105fa6105a4565b5b80604052505050565b600061060e610575565b905061061a82826105d3565b919050565b600067ffffffffffffffff82111561063a576106396105a4565b5b61064382610593565b9050602081019050919050565b60005b8381101561066e578082015181840152602081019050610653565b60008484015250505050565b600061068d6106888461061f565b610604565b9050828152602081018484840111156106a9576106a861058e565b5b6106b4848285610650565b509392505050565b600082601f8301126106d1576106d0610589565b5b81516106e184826020860161067a565b91505092915050565b6000819050919050565b6106fd816106ea565b811461070857600080fd5b50565b60008151905061071a816106f4565b92915050565b600073ffffffffffffffffffffffffffffffffffffffff82169050919050565b600061074b82610720565b9050919050565b61075b81610740565b811461076657600080fd5b50565b60008151905061077881610752565b92915050565b600061ffff82169050919050565b6107958161077e565b81146107a057600080fd5b50565b6000815190506107b28161078c565b92915050565b600080600080600080600080610100898b0312156107d9576107d861057f565b5b600089015167ffffffffffffffff8111156107f7576107f6610584565b5b6108038b828c016106bc565b985050602089015167ffffffffffffffff81111561082457610823610584565b5b6108308b828c016106bc565b97505060406108418b828c0161070b565b96505060606108528b828c01610769565b95505060806108638b828c0161070b565b94505060a06108748b828c01610769565b93505060c06108858b828c01610769565b92505060e06108968b828c016107a3565b9150509295985092959890939650565b600081519050919050565b7f4e487b7100000000000000000000000000000000000000000000000000000000600052602260045260246000fd5b600060028204905060018216806108f857607f821691505b60208210810361090b5761090a6108b1565b5b50919050565b60008190508160005260206000209050919050565b60006020601f8301049050919050565b600082821b905092915050565b6000600883026109737fffffffffffffffffffffffffffffffffffffffffffffffffffffffffffffffff82610936565b61097d8683610936565b95508019841693508086168417925050509392505050565b6000819050919050565b60006109ba6109b56109b0846106ea565b610995565b6106ea565b9050919050565b6000819050919050565b6109d48361099f565b6109e86109e0826109c1565b848454610943565b825550505050565b600090565b6109fd6109f0565b610a088184846109cb565b505050565b5b81811015610a2c57610a216000826109f5565b600181019050610a0e565b5050565b601f821115610a7157610a4281610911565b610a4b84610926565b81016020851015610a5a578190505b610a6e610a6685610926565b830182610a0d565b50505b505050565b600082821c905092915050565b6000610a9460001984600802610a76565b1980831691505092915050565b6000610aad8383610a83565b9150826002028217905092915050565b610ac6826108a6565b67ffffffffffffffff811115610adf57610ade6105a4565b5b610ae982546108e0565b610af4828285610a30565b600060209050601f831160018114610b275760008415610b15578287015190505b610b1f8582610aa1565b865550610b87565b601f198416610b3586610911565b60005b82811015610b5d57848901518255600182019150602085019450602081019050610b38565b86831015610b7a5784890151610b76601f891682610a83565b8355505b6001600288020188555050505b505050505050565b610b9881610740565b82525050565b6000602082019050610bb36000830184610b8f565b92915050565b600082825260208201905092915050565b7f63726561746f723d300000000000000000000000000000000000000000000000600082015250565b6000610c00600983610bb9565b9150610c0b82610bca565b602082019050919050565b60006020820190508181036000830152610c2f81610bf3565b9050919050565b7f706c6174666f726d3d3000000000000000000000000000000000000000000000600082015250565b6000610c6c600a83610bb9565b9150610c7782610c36565b602082019050919050565b60006020820190508181036000830152610c9b81610c5f565b9050919050565b7f726f757465723d30000000000000000000000000000000000000000000000000600082015250565b6000610cd8600883610bb9565b9150610ce382610ca2565b602082019050919050565b60006020820190508181036000830152610d0781610ccb565b9050919050565b7f626164206d696e556e6c6f636b44617973000000000000000000000000000000600082015250565b6000610d44601183610bb9565b9150610d4f82610d0e565b602082019050919050565b60006020820190508181036000830152610d7381610d37565b9050919050565b600063ffffffff82169050919050565b7f4e487b7100000000000000000000000000000000000000000000000000000000600052601160045260246000fd5b6000610dc482610d7a565b9150610dcf83610d7a565b9250828202610ddd81610d7a565b9150808214610def57610dee610d8a565b5b5092915050565b600067ffffffffffffffff82169050919050565b6000610e1582610df6565b9150610e2083610df6565b9250828201905067ffffffffffffffff811115610e4057610e3f610d8a565b5b92915050565b6000610e51826106ea565b9150610e5c836106ea565b9250828202610e6a816106ea565b91508282048414831517610e8157610e80610d8a565b5b5092915050565b7f4e487b7100000000000000000000000000000000000000000000000000000000600052601260045260246000fd5b6000610ec2826106ea565b9150610ecd836106ea565b925082610edd57610edc610e88565b5b828204905092915050565b6000610ef3826106ea565b9150610efe836106ea565b9250828201905080821115610f1657610f15610d8a565b5b92915050565b6000610f27826106ea565b9150610f32836106ea565b9250828203905081811115610f4a57610f49610d8a565b5b92915050565b60805160a05161542e610fad60003960008181610e010152818161328601526132cd0152600081816113ce015281816115a1015281816116a5015281816117d00152818161217b01528181612909015261293c015261542e6000f3fe60806040526004361061036f5760003560e01c806398423182116101c6578063d3618cca116100f7578063e7c2b77211610095578063f0cf9e5a1161006f578063f0cf9e5a14610c6e578063f2fde38b14610c99578063f4227e9514610cc2578063fc6fec4c14610ced57610376565b8063e7c2b77214610bed578063eb13554f14610c18578063eb91d37e14610c4357610376565b8063dbe00340116100d1578063dbe0034014610b1f578063dd62ed3e14610b4a578063e4849b3214610b87578063e757223014610bb057610376565b8063d3618cca14610ac1578063d5abeb0114610ad8578063d96a094a14610b0357610376565b8063b4105e0611610164578063c5c4744c1161013e578063c5c4744c146109f1578063c7876ea414610a1c578063cdbbf18614610a47578063d1b6dd3014610a8457610376565b8063b4105e0614610972578063ba730e5314610989578063be8755a9146109c657610376565b8063aa85be80116101a0578063aa85be80146108e9578063ae762a0e14610900578063b29418d51461092b578063b34ffc5f1461095657610376565b806398423182146108565780639a24124714610881578063a9059cbb146108ac57610376565b80635b88349d116102a05780638375f21b1161023e5780638b93b0f5116102185780638b93b0f5146107aa5780638da5cb5b146107d557806391961e321461080057806395d89b411461082b57610376565b80638375f21b1461072957806383caf27514610754578063851319761461077f57610376565b806369437dca1161027a57806369437dca146106775780636addb663146106a257806370a08231146106d5578063715018a61461071257610376565b80635b88349d146105f8578063642370ec1461060f578063646304a11461063a57610376565b80630b579f1f1161030d5780631df80815116102e75780631df808151461054e57806323b872dd14610579578063313ce567146105b65780633ccfd60b146105e157610376565b80630b579f1f146104cc57806318160ddd146104f85780631d970ada1461052357610376565b80630483a7f6116103495780630483a7f6146103fc57806306fdde03146104395780630758d92414610464578063095ea7b31461048f57610376565b806302d05d3f1461037b57806302f483b1146103a6578063040bf0dd146103d157610376565b3661037657005b600080fd5b34801561038757600080fd5b50610390610d16565b60405161039d9190613cbf565b60405180910390f35b3480156103b257600080fd5b506103bb610d3c565b6040516103c89190613cf5565b60405180910390f35b3480156103dd57600080fd5b506103e6610d4f565b6040516103f39190613d29565b60405180910390f35b34801561040857600080fd5b50610423600480360381019061041e9190613d7a565b610d55565b6040516104309190613d29565b60405180910390f35b34801561044557600080fd5b5061044e610d6d565b60405161045b9190613e37565b60405180910390f35b34801561047057600080fd5b50610479610dff565b6040516104869190613cbf565b60405180910390f35b34801561049b57600080fd5b506104b660048036038101906104b19190613e85565b610e23565b6040516104c39190613cf5565b60405180910390f35b3480156104d857600080fd5b506104e1610e46565b6040516104ef929190614041565b60405180910390f35b34801561050457600080fd5b5061050d611018565b60405161051a9190613d29565b60405180910390f35b34801561052f57600080fd5b50610538611022565b6040516105459190614097565b60405180910390f35b34801561055a57600080fd5b50610563611038565b6040516105709190613d29565b60405180910390f35b34801561058557600080fd5b506105a0600480360381019061059b91906140b2565b6110ef565b6040516105ad9190613cf5565b60405180910390f35b3480156105c257600080fd5b506105cb61111e565b6040516105d89190614121565b60405180910390f35b3480156105ed57600080fd5b506105f6611127565b005b34801561060457600080fd5b5061060d611162565b005b34801561061b57600080fd5b5061062461132a565b6040516106319190613d29565b60405180910390f35b34801561064657600080fd5b50610661600480360381019061065c919061413c565b611330565b60405161066e9190613cbf565b60405180910390f35b34801561068357600080fd5b5061068c61136f565b6040516106999190613d29565b60405180910390f35b3480156106ae57600080fd5b506106b7611375565b6040516106cc99989796959493929190614169565b60405180910390f35b3480156106e157600080fd5b506106fc60048036038101906106f79190613d7a565b611426565b6040516107099190613d29565b60405180910390f35b34801561071e57600080fd5b5061072761146e565b005b34801561073557600080fd5b5061073e611482565b60405161074b9190613d29565b60405180910390f35b34801561076057600080fd5b5061076961158b565b6040516107769190613d29565b60405180910390f35b34801561078b57600080fd5b50610794611591565b6040516107a19190613d29565b60405180910390f35b3480156107b657600080fd5b506107bf611597565b6040516107cc9190613d29565b60405180910390f35b3480156107e157600080fd5b506107ea6115d9565b6040516107f79190613cbf565b60405180910390f35b34801561080c57600080fd5b50610815611603565b6040516108229190613d29565b60405180910390f35b34801561083757600080fd5b50610840611609565b60405161084d9190613e37565b60405180910390f35b34801561086257600080fd5b5061086b61169b565b6040516108789190613d29565b60405180910390f35b34801561088d57600080fd5b506108966116dd565b6040516108a39190613cf5565b60405180910390f35b3480156108b857600080fd5b506108d360048036038101906108ce9190613e85565b6116ec565b6040516108e09190613cf5565b60405180910390f35b3480156108f557600080fd5b506108fe61170f565b005b34801561090c57600080fd5b506109156117c0565b6040516109229190613d29565b60405180910390f35b34801561093757600080fd5b506109406117c6565b60405161094d9190613d29565b60405180910390f35b610970600480360381019061096b919061413c565b611808565b005b34801561097e57600080fd5b50610987611c60565b005b34801561099557600080fd5b506109b060048036038101906109ab919061413c565b611f9d565b6040516109bd9190613d29565b60405180910390f35b3480156109d257600080fd5b506109db612075565b6040516109e89190613d29565b60405180910390f35b3480156109fd57600080fd5b50610a06612084565b604051610a139190613d29565b60405180910390f35b348015610a2857600080fd5b50610a3161208a565b604051610a3e9190613d29565b60405180910390f35b348015610a5357600080fd5b50610a6e6004803603810190610a699190613d7a565b612090565b604051610a7b9190613d29565b60405180910390f35b348015610a9057600080fd5b50610aab6004803603810190610aa69190613d7a565b6120a8565b604051610ab89190613cf5565b60405180910390f35b348015610acd57600080fd5b50610ad66120c8565b005b348015610ae457600080fd5b50610aed612179565b604051610afa9190613d29565b60405180910390f35b610b1d6004803603810190610b18919061413c565b61219d565b005b348015610b2b57600080fd5b50610b346124a4565b604051610b419190614219565b60405180910390f35b348015610b5657600080fd5b50610b716004803603810190610b6c9190614234565b6124be565b604051610b7e9190613d29565b60405180910390f35b348015610b9357600080fd5b50610bae6004803603810190610ba9919061413c565b612545565b005b348015610bbc57600080fd5b50610bd76004803603810190610bd2919061413c565b6127e5565b604051610be49190613d29565b60405180910390f35b348015610bf957600080fd5b50610c0261286d565b604051610c0f9190613cf5565b60405180910390f35b348015610c2457600080fd5b50610c2d612880565b604051610c3a9190613cbf565b60405180910390f35b348015610c4f57600080fd5b50610c586128a6565b604051610c659190613d29565b60405180910390f35b348015610c7a57600080fd5b50610c836128e2565b604051610c909190613d29565b60405180910390f35b348015610ca557600080fd5b50610cc06004803603810190610cbb9190613d7a565b612977565b005b348015610cce57600080fd5b50610cd76129fd565b604051610ce49190613d29565b60405180910390f35b348015610cf957600080fd5b50610d146004803603810190610d0f919061432f565b612a03565b005b600960009054906101000a900473ffffffffffffffffffffffffffffffffffffffff1681565b600f60009054906101000a900460ff1681565b6103e881565b60106020528060005260406000206000915090505481565b606060038054610d7c906143df565b80601f0160208091040260200160405190810160405280929190818152602001828054610da8906143df565b8015610df55780601f10610dca57610100808354040283529160200191610df5565b820191906000526020600020905b815481529060010190602001808311610dd857829003601f168201915b5050505050905090565b7f000000000000000000000000000000000000000000000000000000000000000081565b600080610e2e612ce6565b9050610e3b818585612cee565b600191505092915050565b6060806000601480549050905060008167ffffffffffffffff811115610e6f57610e6e614410565b5b604051908082528060200260200182016040528015610e9d5781602001602082028036833780820191505090505b50905060008267ffffffffffffffff811115610ebc57610ebb614410565b5b604051908082528060200260200182016040528015610eea5781602001602082028036833780820191505090505b50905060005b8381101561100a5760148181548110610f0c57610f0b61443f565b5b9060005260206000200160009054906101000a900473ffffffffffffffffffffffffffffffffffffffff16838281518110610f4a57610f4961443f565b5b602002602001019073ffffffffffffffffffffffffffffffffffffffff16908173ffffffffffffffffffffffffffffffffffffffff168152505060126000848381518110610f9b57610f9a61443f565b5b602002602001015173ffffffffffffffffffffffffffffffffffffffff1673ffffffffffffffffffffffffffffffffffffffff16815260200190815260200160002054828281518110610ff157610ff061443f565b5b6020026020010181815250508080600101915050610ef0565b508181945094505050509091565b6000600254905090565b601160089054906101000a900463ffffffff1681565b600080600090505b6014805490508110156110eb576000601482815481106110635761106261443f565b5b9060005260206000200160009054906101000a900473ffffffffffffffffffffffffffffffffffffffff169050601260008273ffffffffffffffffffffffffffffffffffffffff1673ffffffffffffffffffffffffffffffffffffffff16815260200190815260200160002054836110db919061449d565b9250508080600101915050611040565b5090565b6000806110fa612ce6565b9050611107858285612d00565b611112858585612d95565b60019150509392505050565b60006012905090565b6040517f08c379a000000000000000000000000000000000000000000000000000000000815260040161115990614543565b60405180910390fd5b600c60009054906101000a900460ff166111b1576040517f08c379a00000000000000000000000000000000000000000000000000000000081526004016111a8906145af565b60405180910390fd5b601360003373ffffffffffffffffffffffffffffffffffffffff1673ffffffffffffffffffffffffffffffffffffffff16815260200190815260200160002060009054906101000a900460ff161561123e576040517f08c379a00000000000000000000000000000000000000000000000000000000081526004016112359061461b565b60405180910390fd5b6000601260003373ffffffffffffffffffffffffffffffffffffffff1673ffffffffffffffffffffffffffffffffffffffff168152602001908152602001600020549050600081116112c5576040517f08c379a00000000000000000000000000000000000000000000000000000000081526004016112bc90614687565b60405180910390fd5b6001601360003373ffffffffffffffffffffffffffffffffffffffff1673ffffffffffffffffffffffffffffffffffffffff16815260200190815260200160002060006101000a81548160ff0219169083151502179055506113273382612e89565b50565b600e5481565b6014818154811061134057600080fd5b906000526020600020016000915054906101000a900473ffffffffffffffffffffffffffffffffffffffff1681565b600b5481565b6000806000806000806000806000600960009054906101000a900473ffffffffffffffffffffffffffffffffffffffff16600860009054906101000a900473ffffffffffffffffffffffffffffffffffffffff166007547f0000000000000000000000000000000000000000000000000000000000000000601554601654600a54600c60009054906101000a900460ff16600d54985098509850985098509850985098509850909192939495969798565b60008060008373ffffffffffffffffffffffffffffffffffffffff1673ffffffffffffffffffffffffffffffffffffffff168152602001908152602001600020549050919050565b611476612f0b565b6114806000612f92565b565b600080600090505b601480549050811015611587576000601482815481106114ad576114ac61443f565b5b9060005260206000200160009054906101000a900473ffffffffffffffffffffffffffffffffffffffff169050601360008273ffffffffffffffffffffffffffffffffffffffff1673ffffffffffffffffffffffffffffffffffffffff16815260200190815260200160002060009054906101000a900460ff1661157957601260008273ffffffffffffffffffffffffffffffffffffffff1673ffffffffffffffffffffffffffffffffffffffff1681526020019081526020016000205483611576919061449d565b92505b50808060010191505061148a565b5090565b60165481565b60075481565b60006127106103e87f00000000000000000000000000000000000000000000000000000000000000006115ca91906146a7565b6115d49190614718565b905090565b6000600560009054906101000a900473ffffffffffffffffffffffffffffffffffffffff16905090565b6107d081565b606060048054611618906143df565b80601f0160208091040260200160405190810160405280929190818152602001828054611644906143df565b80156116915780601f1061166657610100808354040283529160200191611691565b820191906000526020600020905b81548152906001019060200180831161167457829003601f168201915b5050505050905090565b60006127106107d07f00000000000000000000000000000000000000000000000000000000000000006116ce91906146a7565b6116d89190614718565b905090565b60008060148054905011905090565b6000806116f7612ce6565b9050611704818585612d95565b600191505092915050565b611717613058565b600c60009054906101000a900460ff1615611767576040517f08c379a000000000000000000000000000000000000000000000000000000000815260040161175e90614795565b60405180910390fd5b600754600a5410156117ae576040517f08c379a00000000000000000000000000000000000000000000000000000000081526004016117a590614801565b60405180910390fd5b6117b661309e565b6117be6137c5565b565b611b5881565b6000612710611b587f00000000000000000000000000000000000000000000000000000000000000006117f991906146a7565b6118039190614718565b905090565b600960009054906101000a900473ffffffffffffffffffffffffffffffffffffffff1673ffffffffffffffffffffffffffffffffffffffff163373ffffffffffffffffffffffffffffffffffffffff1614611898576040517f08c379a000000000000000000000000000000000000000000000000000000000815260040161188f9061486d565b60405180910390fd5b600c60009054906101000a900460ff16156118e8576040517f08c379a00000000000000000000000000000000000000000000000000000000081526004016118df90614795565b60405180910390fd5b6118f0613058565b600f60009054906101000a900460ff1615611940576040517f08c379a0000000000000000000000000000000000000000000000000000000008152600401611937906148d9565b60405180910390fd5b60008111611983576040517f08c379a000000000000000000000000000000000000000000000000000000000815260040161197a90614945565b60405180910390fd5b600061198e826127e5565b9050803410156119d3576040517f08c379a00000000000000000000000000000000000000000000000000000000081526004016119ca906149b1565b60405180910390fd5b6119db6117c6565b826119e4611018565b6119ee919061449d565b1115611a2f576040517f08c379a0000000000000000000000000000000000000000000000000000000008152600401611a2690614a1d565b60405180910390fd5b611a3761169b565b82600e54611a45919061449d565b1115611a86576040517f08c379a0000000000000000000000000000000000000000000000000000000008152600401611a7d90614aaf565b60405180910390fd5b6000612710606483611a9891906146a7565b611aa29190614718565b905081600a6000828254611ab6919061449d565b9250508190555080600b6000828254611acf919061449d565b92505081905550611ae03084612e89565b8260106000600960009054906101000a900473ffffffffffffffffffffffffffffffffffffffff1673ffffffffffffffffffffffffffffffffffffffff1673ffffffffffffffffffffffffffffffffffffffff1681526020019081526020016000206000828254611b51919061449d565b9250508190555082600d6000828254611b6a919061449d565b9250508190555082600e6000828254611b83919061449d565b9250508190555081341115611c4b5760003373ffffffffffffffffffffffffffffffffffffffff168334611bb79190614acf565b604051611bc390614b34565b60006040518083038185875af1925050503d8060008114611c00576040519150601f19603f3d011682016040523d82523d6000602084013e611c05565b606091505b5050905080611c49576040517f08c379a0000000000000000000000000000000000000000000000000000000008152600401611c4090614b95565b60405180910390fd5b505b611c536137cf565b5050611c5d6137c5565b50565b600960009054906101000a900473ffffffffffffffffffffffffffffffffffffffff1673ffffffffffffffffffffffffffffffffffffffff163373ffffffffffffffffffffffffffffffffffffffff1614611cf0576040517f08c379a0000000000000000000000000000000000000000000000000000000008152600401611ce79061486d565b60405180910390fd5b611cf8613058565b600060106000600960009054906101000a900473ffffffffffffffffffffffffffffffffffffffff1673ffffffffffffffffffffffffffffffffffffffff1673ffffffffffffffffffffffffffffffffffffffff1681526020019081526020016000205411611d9c576040517f08c379a0000000000000000000000000000000000000000000000000000000008152600401611d9390614c01565b60405180910390fd5b600c60009054906101000a900460ff1680611dd75750601160009054906101000a900467ffffffffffffffff1667ffffffffffffffff164210155b611e16576040517f08c379a0000000000000000000000000000000000000000000000000000000008152600401611e0d90614c6d565b60405180910390fd5b600060106000600960009054906101000a900473ffffffffffffffffffffffffffffffffffffffff1673ffffffffffffffffffffffffffffffffffffffff1673ffffffffffffffffffffffffffffffffffffffff168152602001908152602001600020549050600060106000600960009054906101000a900473ffffffffffffffffffffffffffffffffffffffff1673ffffffffffffffffffffffffffffffffffffffff1673ffffffffffffffffffffffffffffffffffffffff1681526020019081526020016000208190555080600d5410611f0a5780600d6000828254611efe9190614acf565b92505081905550611f13565b6000600d819055505b6001600f60006101000a81548160ff021916908315150217905550611f5b30600960009054906101000a900473ffffffffffffffffffffffffffffffffffffffff1683612d95565b7fd343895567c3166ca6f92747487914c3463a28005874ca3dde7e7b0c2d86bf1581604051611f8a9190613d29565b60405180910390a150611f9b6137c5565b565b600080611fa8611018565b905080831115611fed576040517f08c379a0000000000000000000000000000000000000000000000000000000008152600401611fe490614cd9565b60405180910390fd5b6000611ff76128a6565b90506000670de0b6b3a76400008560165461201291906146a7565b61201c9190614718565b826120279190614acf565b9050600060028284612039919061449d565b6120439190614718565b90506000670de0b6b3a7640000828861205c91906146a7565b6120669190614718565b90508095505050505050919050565b600061207f611597565b905090565b600a5481565b60155481565b60126020528060005260406000206000915090505481565b60136020528060005260406000206000915054906101000a900460ff1681565b6120d0613058565b600c60009054906101000a900460ff1615612120576040517f08c379a000000000000000000000000000000000000000000000000000000000815260040161211790614795565b60405180910390fd5b600754600a541015612167576040517f08c379a000000000000000000000000000000000000000000000000000000000815260040161215e90614d45565b60405180910390fd5b61216f61309e565b6121776137c5565b565b7f000000000000000000000000000000000000000000000000000000000000000081565b600c60009054906101000a900460ff16156121ed576040517f08c379a00000000000000000000000000000000000000000000000000000000081526004016121e490614795565b60405180910390fd5b6121f5613058565b60008111612238576040517f08c379a000000000000000000000000000000000000000000000000000000000815260040161222f90614945565b60405180910390fd5b600960009054906101000a900473ffffffffffffffffffffffffffffffffffffffff1673ffffffffffffffffffffffffffffffffffffffff163373ffffffffffffffffffffffffffffffffffffffff16036122c8576040517f08c379a00000000000000000000000000000000000000000000000000000000081526004016122bf90614db1565b60405180910390fd5b60006122d3826127e5565b905080341015612318576040517f08c379a000000000000000000000000000000000000000000000000000000000815260040161230f906149b1565b60405180910390fd5b6123206117c6565b82612329611018565b612333919061449d565b1115612374576040517f08c379a000000000000000000000000000000000000000000000000000000000815260040161236b90614a1d565b60405180910390fd5b600061271060648361238691906146a7565b6123909190614718565b905081600a60008282546123a4919061449d565b9250508190555080600b60008282546123bd919061449d565b925050819055506123ce3384612e89565b8134111561248f5760003373ffffffffffffffffffffffffffffffffffffffff1683346123fb9190614acf565b60405161240790614b34565b60006040518083038185875af1925050503d8060008114612444576040519150601f19603f3d011682016040523d82523d6000602084013e612449565b606091505b505090508061248d576040517f08c379a000000000000000000000000000000000000000000000000000000000815260040161248490614b95565b60405180910390fd5b505b6124976137cf565b50506124a16137c5565b50565b601160009054906101000a900467ffffffffffffffff1681565b6000600160008473ffffffffffffffffffffffffffffffffffffffff1673ffffffffffffffffffffffffffffffffffffffff16815260200190815260200160002060008373ffffffffffffffffffffffffffffffffffffffff1673ffffffffffffffffffffffffffffffffffffffff16815260200190815260200160002054905092915050565b600c60009054906101000a900460ff1615612595576040517f08c379a000000000000000000000000000000000000000000000000000000000815260040161258c90614795565b60405180910390fd5b61259d613058565b600081116125e0576040517f08c379a00000000000000000000000000000000000000000000000000000000081526004016125d790614e1d565b60405180910390fd5b806125ea33611426565b101561262b576040517f08c379a000000000000000000000000000000000000000000000000000000000815260040161262290614e89565b60405180910390fd5b600061263682611f9d565b90508047101561267b576040517f08c379a000000000000000000000000000000000000000000000000000000000815260040161267290614ef5565b60405180910390fd5b600061271060968361268d91906146a7565b6126979190614718565b9050600081836126a79190614acf565b90506126b33385613800565b60003373ffffffffffffffffffffffffffffffffffffffff16826040516126d990614b34565b60006040518083038185875af1925050503d8060008114612716576040519150601f19603f3d011682016040523d82523d6000602084013e61271b565b606091505b505090508061275f576040517f08c379a000000000000000000000000000000000000000000000000000000000815260040161275690614f61565b60405180910390fd5b83600a5410156127a4576040517f08c379a000000000000000000000000000000000000000000000000000000000815260040161279b90614fcd565b60405180910390fd5b83600a60008282546127b69190614acf565b9250508190555082600b60008282546127cf919061449d565b92505081905550505050506127e26137c5565b50565b6000806127f06128a6565b90506000670de0b6b3a76400008460165461280b91906146a7565b6128159190614718565b82612820919061449d565b9050600060028284612832919061449d565b61283c9190614718565b90506000670de0b6b3a7640000828761285591906146a7565b61285f9190614718565b905080945050505050919050565b600c60009054906101000a900460ff1681565b600860009054906101000a900473ffffffffffffffffffffffffffffffffffffffff1681565b6000670de0b6b3a76400006128b9611018565b6016546128c691906146a7565b6128d09190614718565b6015546128dd919061449d565b905090565b6000806128ed611018565b905060006128f9611482565b90508082612907919061449d565b7f00000000000000000000000000000000000000000000000000000000000000001161293857600092505050612974565b80827f00000000000000000000000000000000000000000000000000000000000000006129659190614acf565b61296f9190614acf565b925050505b90565b61297f612f0b565b600073ffffffffffffffffffffffffffffffffffffffff168173ffffffffffffffffffffffffffffffffffffffff16036129f15760006040517f1e4fbdf70000000000000000000000000000000000000000000000000000000081526004016129e89190613cbf565b60405180910390fd5b6129fa81612f92565b50565b600d5481565b600960009054906101000a900473ffffffffffffffffffffffffffffffffffffffff1673ffffffffffffffffffffffffffffffffffffffff163373ffffffffffffffffffffffffffffffffffffffff1614612a93576040517f08c379a0000000000000000000000000000000000000000000000000000000008152600401612a8a9061486d565b60405180910390fd5b600c60009054906101000a900460ff1615612ae3576040517f08c379a0000000000000000000000000000000000000000000000000000000008152600401612ada90614795565b60405180910390fd5b818190508484905014612b2b576040517f08c379a0000000000000000000000000000000000000000000000000000000008152600401612b2290615039565b60405180910390fd5b60005b84849050811015612c8e576000858583818110612b4e57612b4d61443f565b5b9050602002016020810190612b639190613d7a565b90506000848484818110612b7a57612b7961443f565b5b9050602002013590506000601260008473ffffffffffffffffffffffffffffffffffffffff1673ffffffffffffffffffffffffffffffffffffffff16815260200190815260200160002054148015612bd25750600081115b15612c3b576014829080600181540180825580915050600190039060005260206000200160009091909190916101000a81548173ffffffffffffffffffffffffffffffffffffffff021916908373ffffffffffffffffffffffffffffffffffffffff1602179055505b80601260008473ffffffffffffffffffffffffffffffffffffffff1673ffffffffffffffffffffffffffffffffffffffff1681526020019081526020016000208190555050508080600101915050612b2e565b50612c97611597565b612c9f611038565b1115612ce0576040517f08c379a0000000000000000000000000000000000000000000000000000000008152600401612cd7906150a5565b60405180910390fd5b50505050565b600033905090565b612cfb8383836001613882565b505050565b6000612d0c84846124be565b90507fffffffffffffffffffffffffffffffffffffffffffffffffffffffffffffffff811015612d8f5781811015612d7f578281836040517ffb8f41b2000000000000000000000000000000000000000000000000000000008152600401612d76939291906150c5565b60405180910390fd5b612d8e84848484036000613882565b5b50505050565b600073ffffffffffffffffffffffffffffffffffffffff168373ffffffffffffffffffffffffffffffffffffffff1603612e075760006040517f96c6fd1e000000000000000000000000000000000000000000000000000000008152600401612dfe9190613cbf565b60405180910390fd5b600073ffffffffffffffffffffffffffffffffffffffff168273ffffffffffffffffffffffffffffffffffffffff1603612e795760006040517fec442f05000000000000000000000000000000000000000000000000000000008152600401612e709190613cbf565b60405180910390fd5b612e84838383613a59565b505050565b600073ffffffffffffffffffffffffffffffffffffffff168273ffffffffffffffffffffffffffffffffffffffff1603612efb5760006040517fec442f05000000000000000000000000000000000000000000000000000000008152600401612ef29190613cbf565b60405180910390fd5b612f0760008383613a59565b5050565b612f13612ce6565b73ffffffffffffffffffffffffffffffffffffffff16612f316115d9565b73ffffffffffffffffffffffffffffffffffffffff1614612f9057612f54612ce6565b6040517f118cdaa7000000000000000000000000000000000000000000000000000000008152600401612f879190613cbf565b60405180910390fd5b565b6000600560009054906101000a900473ffffffffffffffffffffffffffffffffffffffff16905081600560006101000a81548173ffffffffffffffffffffffffffffffffffffffff021916908373ffffffffffffffffffffffffffffffffffffffff1602179055508173ffffffffffffffffffffffffffffffffffffffff168173ffffffffffffffffffffffffffffffffffffffff167f8be0079c531659141344cd1fd0a4f28419497f9722a3daafe3b4186f6b6457e060405160405180910390a35050565b600260065403613094576040517f3ee5aeb500000000000000000000000000000000000000000000000000000000815260040160405180910390fd5b6002600681905550565b600c60009054906101000a900460ff16156130ee576040517f08c379a00000000000000000000000000000000000000000000000000000000081526004016130e590614795565b60405180910390fd5b60006130f86128e2565b90506001600c60006101000a81548160ff0219169083151502179055506000600b549050600081111561326d576000600b819055506000600860009054906101000a900473ffffffffffffffffffffffffffffffffffffffff1673ffffffffffffffffffffffffffffffffffffffff168260405161317590614b34565b60006040518083038185875af1925050503d80600081146131b2576040519150601f19603f3d011682016040523d82523d6000602084013e6131b7565b606091505b50509050806131fb576040517f08c379a00000000000000000000000000000000000000000000000000000000081526004016131f290615148565b60405180910390fd5b600860009054906101000a900473ffffffffffffffffffffffffffffffffffffffff1673ffffffffffffffffffffffffffffffffffffffff167fc812aa15be10cc23ff245a12080e7de523f13b7fd4a16277a703c4f8e3113709836040516132639190613d29565b60405180910390a2505b60008211156132ac576132803083612e89565b6132ab307f000000000000000000000000000000000000000000000000000000000000000084612cee565b5b60004790506000806000831180156132c45750600085115b1561376e5760007f000000000000000000000000000000000000000000000000000000000000000090508073ffffffffffffffffffffffffffffffffffffffff1663f305d719853089600080306103844261331f919061449d565b6040518863ffffffff1660e01b8152600401613340969594939291906151ad565b60606040518083038185885af115801561335e573d6000803e3d6000fd5b50505050506040513d601f19601f820116820180604052508101906133839190615223565b90915090508093505060008173ffffffffffffffffffffffffffffffffffffffff1663c45a01556040518163ffffffff1660e01b8152600401602060405180830381865afa1580156133d9573d6000803e3d6000fd5b505050506040513d601f19601f820116820180604052508101906133fd919061528b565b90508073ffffffffffffffffffffffffffffffffffffffff1663e6a43905308473ffffffffffffffffffffffffffffffffffffffff1663ad5c46486040518163ffffffff1660e01b8152600401602060405180830381865afa158015613467573d6000803e3d6000fd5b505050506040513d601f19601f8201168201806040525081019061348b919061528b565b6040518363ffffffff1660e01b81526004016134a89291906152b8565b602060405180830381865afa1580156134c5573d6000803e3d6000fd5b505050506040513d601f19601f820116820180604052508101906134e9919061528b565b9250600073ffffffffffffffffffffffffffffffffffffffff168373ffffffffffffffffffffffffffffffffffffffff160361355a576040517f08c379a00000000000000000000000000000000000000000000000000000000081526004016135519061532d565b60405180910390fd5b8273ffffffffffffffffffffffffffffffffffffffff167f641e49906554552c8c33d7e09e02d1270590f405bc1da0c7b99a9c2808abdd05856040516135a09190613d29565b60405180910390a26000612710611b58866135bb91906146a7565b6135c59190614718565b9050600081866135d59190614acf565b90508473ffffffffffffffffffffffffffffffffffffffff1663a9059cbb600960009054906101000a900473ffffffffffffffffffffffffffffffffffffffff16846040518363ffffffff1660e01b815260040161363492919061534d565b6020604051808303816000875af1158015613653573d6000803e3d6000fd5b505050506040513d601f19601f8201168201806040525081019061367791906153a2565b508473ffffffffffffffffffffffffffffffffffffffff1663a9059cbb600860009054906101000a900473ffffffffffffffffffffffffffffffffffffffff16836040518363ffffffff1660e01b81526004016136d592919061534d565b6020604051808303816000875af11580156136f4573d6000803e3d6000fd5b505050506040513d601f19601f8201168201806040525081019061371891906153a2565b508473ffffffffffffffffffffffffffffffffffffffff167fab871a7f4724bcb6daa61a02ba6f11ac923ae12ff155179a9bfffb377c7861f983836040516137619291906153cf565b60405180910390a2505050505b3373ffffffffffffffffffffffffffffffffffffffff167f1c858049e704460ab9455025be4078f9e746e3fd426a56040d06389edb8197db84876040516137b69291906153cf565b60405180910390a25050505050565b6001600681905550565b600c60009054906101000a900460ff161580156137f05750600754600a5410155b156137fe576137fd61309e565b5b565b600073ffffffffffffffffffffffffffffffffffffffff168273ffffffffffffffffffffffffffffffffffffffff16036138725760006040517f96c6fd1e0000000000000000000000000000000000000000000000000000000081526004016138699190613cbf565b60405180910390fd5b61387e82600083613a59565b5050565b600073ffffffffffffffffffffffffffffffffffffffff168473ffffffffffffffffffffffffffffffffffffffff16036138f45760006040517fe602df050000000000000000000000000000000000000000000000000000000081526004016138eb9190613cbf565b60405180910390fd5b600073ffffffffffffffffffffffffffffffffffffffff168373ffffffffffffffffffffffffffffffffffffffff16036139665760006040517f94280d6200000000000000000000000000000000000000000000000000000000815260040161395d9190613cbf565b60405180910390fd5b81600160008673ffffffffffffffffffffffffffffffffffffffff1673ffffffffffffffffffffffffffffffffffffffff16815260200190815260200160002060008573ffffffffffffffffffffffffffffffffffffffff1673ffffffffffffffffffffffffffffffffffffffff168152602001908152602001600020819055508015613a53578273ffffffffffffffffffffffffffffffffffffffff168473ffffffffffffffffffffffffffffffffffffffff167f8c5be1e5ebec7d5bd14f71427d1e84f3dd0314c0f7b2291e5b200ac8c7c3b92584604051613a4a9190613d29565b60405180910390a35b50505050565b600073ffffffffffffffffffffffffffffffffffffffff168373ffffffffffffffffffffffffffffffffffffffff1603613aab578060026000828254613a9f919061449d565b92505081905550613b7e565b60008060008573ffffffffffffffffffffffffffffffffffffffff1673ffffffffffffffffffffffffffffffffffffffff16815260200190815260200160002054905081811015613b37578381836040517fe450d38c000000000000000000000000000000000000000000000000000000008152600401613b2e939291906150c5565b60405180910390fd5b8181036000808673ffffffffffffffffffffffffffffffffffffffff1673ffffffffffffffffffffffffffffffffffffffff16815260200190815260200160002081905550505b600073ffffffffffffffffffffffffffffffffffffffff168273ffffffffffffffffffffffffffffffffffffffff1603613bc75780600260008282540392505081905550613c14565b806000808473ffffffffffffffffffffffffffffffffffffffff1673ffffffffffffffffffffffffffffffffffffffff168152602001908152602001600020600082825401925050819055505b8173ffffffffffffffffffffffffffffffffffffffff168373ffffffffffffffffffffffffffffffffffffffff167fddf252ad1be2c89b69c2b068fc378daa952ba7f163c4a11628f55a4df523b3ef83604051613c719190613d29565b60405180910390a3505050565b600073ffffffffffffffffffffffffffffffffffffffff82169050919050565b6000613ca982613c7e565b9050919050565b613cb981613c9e565b82525050565b6000602082019050613cd46000830184613cb0565b92915050565b60008115159050919050565b613cef81613cda565b82525050565b6000602082019050613d0a6000830184613ce6565b92915050565b6000819050919050565b613d2381613d10565b82525050565b6000602082019050613d3e6000830184613d1a565b92915050565b600080fd5b600080fd5b613d5781613c9e565b8114613d6257600080fd5b50565b600081359050613d7481613d4e565b92915050565b600060208284031215613d9057613d8f613d44565b5b6000613d9e84828501613d65565b91505092915050565b600081519050919050565b600082825260208201905092915050565b60005b83811015613de1578082015181840152602081019050613dc6565b60008484015250505050565b6000601f19601f8301169050919050565b6000613e0982613da7565b613e138185613db2565b9350613e23818560208601613dc3565b613e2c81613ded565b840191505092915050565b60006020820190508181036000830152613e518184613dfe565b905092915050565b613e6281613d10565b8114613e6d57600080fd5b50565b600081359050613e7f81613e59565b92915050565b60008060408385031215613e9c57613e9b613d44565b5b6000613eaa85828601613d65565b9250506020613ebb85828601613e70565b9150509250929050565b600081519050919050565b600082825260208201905092915050565b6000819050602082019050919050565b613efa81613c9e565b82525050565b6000613f0c8383613ef1565b60208301905092915050565b6000602082019050919050565b6000613f3082613ec5565b613f3a8185613ed0565b9350613f4583613ee1565b8060005b83811015613f76578151613f5d8882613f00565b9750613f6883613f18565b925050600181019050613f49565b5085935050505092915050565b600081519050919050565b600082825260208201905092915050565b6000819050602082019050919050565b613fb881613d10565b82525050565b6000613fca8383613faf565b60208301905092915050565b6000602082019050919050565b6000613fee82613f83565b613ff88185613f8e565b935061400383613f9f565b8060005b8381101561403457815161401b8882613fbe565b975061402683613fd6565b925050600181019050614007565b5085935050505092915050565b6000604082019050818103600083015261405b8185613f25565b9050818103602083015261406f8184613fe3565b90509392505050565b600063ffffffff82169050919050565b61409181614078565b82525050565b60006020820190506140ac6000830184614088565b92915050565b6000806000606084860312156140cb576140ca613d44565b5b60006140d986828701613d65565b93505060206140ea86828701613d65565b92505060406140fb86828701613e70565b9150509250925092565b600060ff82169050919050565b61411b81614105565b82525050565b60006020820190506141366000830184614112565b92915050565b60006020828403121561415257614151613d44565b5b600061416084828501613e70565b91505092915050565b60006101208201905061417f600083018c613cb0565b61418c602083018b613cb0565b614199604083018a613d1a565b6141a66060830189613d1a565b6141b36080830188613d1a565b6141c060a0830187613d1a565b6141cd60c0830186613d1a565b6141da60e0830185613ce6565b6141e8610100830184613d1a565b9a9950505050505050505050565b600067ffffffffffffffff82169050919050565b614213816141f6565b82525050565b600060208201905061422e600083018461420a565b92915050565b6000806040838503121561424b5761424a613d44565b5b600061425985828601613d65565b925050602061426a85828601613d65565b9150509250929050565b600080fd5b600080fd5b600080fd5b60008083601f84011261429957614298614274565b5b8235905067ffffffffffffffff8111156142b6576142b5614279565b5b6020830191508360208202830111156142d2576142d161427e565b5b9250929050565b60008083601f8401126142ef576142ee614274565b5b8235905067ffffffffffffffff81111561430c5761430b614279565b5b6020830191508360208202830111156143285761432761427e565b5b9250929050565b6000806000806040858703121561434957614348613d44565b5b600085013567ffffffffffffffff81111561436757614366613d49565b5b61437387828801614283565b9450945050602085013567ffffffffffffffff81111561439657614395613d49565b5b6143a2878288016142d9565b925092505092959194509250565b7f4e487b7100000000000000000000000000000000000000000000000000000000600052602260045260246000fd5b600060028204905060018216806143f757607f821691505b60208210810361440a576144096143b0565b5b50919050565b7f4e487b7100000000000000000000000000000000000000000000000000000000600052604160045260246000fd5b7f4e487b7100000000000000000000000000000000000000000000000000000000600052603260045260246000fd5b7f4e487b7100000000000000000000000000000000000000000000000000000000600052601160045260246000fd5b60006144a882613d10565b91506144b383613d10565b92508282019050808211156144cb576144ca61446e565b5b92915050565b7f57697468647261772064697361626c65643a20455448207573656420666f722060008201527f4c502061742067726164756174696f6e00000000000000000000000000000000602082015250565b600061452d603083613db2565b9150614538826144d1565b604082019050919050565b6000602082019050818103600083015261455c81614520565b9050919050565b7f4e6f742067726164756174656400000000000000000000000000000000000000600082015250565b6000614599600d83613db2565b91506145a482614563565b602082019050919050565b600060208201905081810360008301526145c88161458c565b9050919050565b7f416c726561647920636c61696d65640000000000000000000000000000000000600082015250565b6000614605600f83613db2565b9150614610826145cf565b602082019050919050565b60006020820190508181036000830152614634816145f8565b9050919050565b7f4e6f20616c6c6f636174696f6e00000000000000000000000000000000000000600082015250565b6000614671600d83613db2565b915061467c8261463b565b602082019050919050565b600060208201905081810360008301526146a081614664565b9050919050565b60006146b282613d10565b91506146bd83613d10565b92508282026146cb81613d10565b915082820484148315176146e2576146e161446e565b5b5092915050565b7f4e487b7100000000000000000000000000000000000000000000000000000000600052601260045260246000fd5b600061472382613d10565b915061472e83613d10565b92508261473e5761473d6146e9565b5b828204905092915050565b7f416c726561647920677261647561746564000000000000000000000000000000600082015250565b600061477f601183613db2565b915061478a82614749565b602082019050919050565b600060208201905081810360008301526147ae81614772565b9050919050565b7f546172676574206e6f7420726561636865640000000000000000000000000000600082015250565b60006147eb601283613db2565b91506147f6826147b5565b602082019050919050565b6000602082019050818103600083015261481a816147de565b9050919050565b7f4e6f742063726561746f72000000000000000000000000000000000000000000600082015250565b6000614857600b83613db2565b915061486282614821565b602082019050919050565b600060208201905081810360008301526148868161484a565b9050919050565b7f43524541544f525f4c4f434b494e475f434c4f53454400000000000000000000600082015250565b60006148c3601683613db2565b91506148ce8261488d565b602082019050919050565b600060208201905081810360008301526148f2816148b6565b9050919050565b7f616d6f756e743d30000000000000000000000000000000000000000000000000600082015250565b600061492f600883613db2565b915061493a826148f9565b602082019050919050565b6000602082019050818103600083015261495e81614922565b9050919050565b7f496e73756666696369656e74204554482073656e740000000000000000000000600082015250565b600061499b601583613db2565b91506149a682614965565b602082019050919050565b600060208201905081810360008301526149ca8161498e565b9050919050565b7f457863656564732073616c652063617020283730252900000000000000000000600082015250565b6000614a07601683613db2565b9150614a12826149d1565b602082019050919050565b60006020820190508181036000830152614a36816149fa565b9050919050565b7f45786365656473206c69666574696d652063726561746f72206c6f636b20636160008201527f7020283230252900000000000000000000000000000000000000000000000000602082015250565b6000614a99602783613db2565b9150614aa482614a3d565b604082019050919050565b60006020820190508181036000830152614ac881614a8c565b9050919050565b6000614ada82613d10565b9150614ae583613d10565b9250828203905081811115614afd57614afc61446e565b5b92915050565b600081905092915050565b50565b6000614b1e600083614b03565b9150614b2982614b0e565b600082019050919050565b6000614b3f82614b11565b9150819050919050565b7f526566756e64206661696c656400000000000000000000000000000000000000600082015250565b6000614b7f600d83613db2565b9150614b8a82614b49565b602082019050919050565b60006020820190508181036000830152614bae81614b72565b9050919050565b7f4e6f206c6f636b656420746f6b656e7300000000000000000000000000000000600082015250565b6000614beb601083613db2565b9150614bf682614bb5565b602082019050919050565b60006020820190508181036000830152614c1a81614bde565b9050919050565b7f4c6f636b20616374697665000000000000000000000000000000000000000000600082015250565b6000614c57600b83613db2565b9150614c6282614c21565b602082019050919050565b60006020820190508181036000830152614c8681614c4a565b9050919050565b7f416d6f756e74206578636565647320737570706c790000000000000000000000600082015250565b6000614cc3601583613db2565b9150614cce82614c8d565b602082019050919050565b60006020820190508181036000830152614cf281614cb6565b9050919050565b7f526169736520746172676574206e6f74206d6574000000000000000000000000600082015250565b6000614d2f601483613db2565b9150614d3a82614cf9565b602082019050919050565b60006020820190508181036000830152614d5e81614d22565b9050919050565b7f43524541544f525f4d5553545f5553455f4255594c4f434b0000000000000000600082015250565b6000614d9b601883613db2565b9150614da682614d65565b602082019050919050565b60006020820190508181036000830152614dca81614d8e565b9050919050565b7f416d6f756e74206d757374206265203e20300000000000000000000000000000600082015250565b6000614e07601283613db2565b9150614e1282614dd1565b602082019050919050565b60006020820190508181036000830152614e3681614dfa565b9050919050565b7f496e73756666696369656e7420746f6b656e2062616c616e6365000000000000600082015250565b6000614e73601a83613db2565b9150614e7e82614e3d565b602082019050919050565b60006020820190508181036000830152614ea281614e66565b9050919050565b7f436f6e74726163742068617320696e73756666696369656e7420455448000000600082015250565b6000614edf601d83613db2565b9150614eea82614ea9565b602082019050919050565b60006020820190508181036000830152614f0e81614ed2565b9050919050565b7f455448207061796f7574206661696c6564000000000000000000000000000000600082015250565b6000614f4b601183613db2565b9150614f5682614f15565b602082019050919050565b60006020820190508181036000830152614f7a81614f3e565b9050919050565b7f746f74616c52616973656420756e646572666c6f770000000000000000000000600082015250565b6000614fb7601583613db2565b9150614fc282614f81565b602082019050919050565b60006020820190508181036000830152614fe681614faa565b9050919050565b7f4c656e677468206d69736d617463680000000000000000000000000000000000600082015250565b6000615023600f83613db2565b915061502e82614fed565b602082019050919050565b6000602082019050818103600083015261505281615016565b9050919050565b7f457863656564732061697264726f702031302520636170000000000000000000600082015250565b600061508f601783613db2565b915061509a82615059565b602082019050919050565b600060208201905081810360008301526150be81615082565b9050919050565b60006060820190506150da6000830186613cb0565b6150e76020830185613d1a565b6150f46040830184613d1a565b949350505050565b7f466565207472616e73666572206661696c656400000000000000000000000000600082015250565b6000615132601383613db2565b915061513d826150fc565b602082019050919050565b6000602082019050818103600083015261516181615125565b9050919050565b6000819050919050565b6000819050919050565b600061519761519261518d84615168565b615172565b613d10565b9050919050565b6151a78161517c565b82525050565b600060c0820190506151c26000830189613cb0565b6151cf6020830188613d1a565b6151dc604083018761519e565b6151e9606083018661519e565b6151f66080830185613cb0565b61520360a0830184613d1a565b979650505050505050565b60008151905061521d81613e59565b92915050565b60008060006060848603121561523c5761523b613d44565b5b600061524a8682870161520e565b935050602061525b8682870161520e565b925050604061526c8682870161520e565b9150509250925092565b60008151905061528581613d4e565b92915050565b6000602082840312156152a1576152a0613d44565b5b60006152af84828501615276565b91505092915050565b60006040820190506152cd6000830185613cb0565b6152da6020830184613cb0565b9392505050565b7f50616972206e6f74206372656174656400000000000000000000000000000000600082015250565b6000615317601083613db2565b9150615322826152e1565b602082019050919050565b600060208201905081810360008301526153468161530a565b9050919050565b60006040820190506153626000830185613cb0565b61536f6020830184613d1a565b9392505050565b61537f81613cda565b811461538a57600080fd5b50565b60008151905061539c81615376565b92915050565b6000602082840312156153b8576153b7613d44565b5b60006153c68482850161538d565b91505092915050565b60006040820190506153e46000830185613d1a565b6153f16020830184613d1a565b939250505056fea264697066735822122028042841ed1f4e98f9f3576c16c49ca5c2107367e6451b8abebd1bd514706c2e64736f6c634300081c0033",
  "linkReferences": {},
  "deployedLinkReferences": {}
}