{
  "_format": "hh-sol-artifact-1",
  "contractName": "TurboToken",
  "sourceName": "contracts/TurboToken.sol",
  "abi": [
    {
      "inputs": [
        {
          "internalType": "string",
          "name": "name_",
          "type": "string"
        },
        {
          "internalType": "string",
          "name": "symbol_",
          "type": "string"
        },
        {
          "internalType": "uint256",
          "name": "raiseTarget_",
          "type": "uint256"
        },
        {
          "internalType": "address",
          "name": "creator_",
          "type": "address"
        },
        {
          "internalType": "uint256",
          "name": "maxSupply_",
          "type": "uint256"
        },
        {
          "internalType": "address",
          "name": "platformFeeRecipient_",
          "type": "address"
        }
      ],
      "stateMutability": "nonpayable",
      "type": "constructor"
    },
    {
      "inputs": [
        {
          "internalType": "address",
          "name": "spender",
          "type": "address"
        },
        {
          "internalType": "uint256",
          "name": "allowance",
          "type": "uint256"
        },
        {
          "internalType": "uint256",
          "name": "needed",
          "type": "uint256"
        }
      ],
      "name": "ERC20InsufficientAllowance",
      "type": "error"
    },
    {
      "inputs": [
        {
          "internalType": "address",
          "name": "sender",
          "type": "address"
        },
        {
          "internalType": "uint256",
          "name": "balance",
          "type": "uint256"
        },
        {
          "internalType": "uint256",
          "name": "needed",
          "type": "uint256"
        }
      ],
      "name": "ERC20InsufficientBalance",
      "type": "error"
    },
    {
      "inputs": [
        {
          "internalType": "address",
          "name": "approver",
          "type": "address"
        }
      ],
      "name": "ERC20InvalidApprover",
      "type": "error"
    },
    {
      "inputs": [
        {
          "internalType": "address",
          "name": "receiver",
          "type": "address"
        }
      ],
      "name": "ERC20InvalidReceiver",
      "type": "error"
    },
    {
      "inputs": [
        {
          "internalType": "address",
          "name": "sender",
          "type": "address"
        }
      ],
      "name": "ERC20InvalidSender",
      "type": "error"
    },
    {
      "inputs": [
        {
          "internalType": "address",
          "name": "spender",
          "type": "address"
        }
      ],
      "name": "ERC20InvalidSpender",
      "type": "error"
    },
    {
      "inputs": [
        {
          "internalType": "address",
          "name": "owner",
          "type": "address"
        }
      ],
      "name": "OwnableInvalidOwner",
      "type": "error"
    },
    {
      "inputs": [
        {
          "internalType": "address",
          "name": "account",
          "type": "address"
        }
      ],
      "name": "OwnableUnauthorizedAccount",
      "type": "error"
    },
    {
      "anonymous": false,
      "inputs": [
        {
          "indexed": true,
          "internalType": "address",
          "name": "owner",
          "type": "address"
        },
        {
          "indexed": true,
          "internalType": "address",
          "name": "spender",
          "type": "address"
        },
        {
          "indexed": false,
          "internalType": "uint256",
          "name": "value",
          "type": "uint256"
        }
      ],
      "name": "Approval",
      "type": "event"
    },
    {
      "anonymous": false,
      "inputs": [
        {
          "indexed": false,
          "internalType": "address",
          "name": "recipient",
          "type": "address"
        },
        {
          "indexed": false,
          "internalType": "uint256",
          "name": "amount",
          "type": "uint256"
        }
      ],
      "name": "FeeAttempt",
      "type": "event"
    },
    {
      "anonymous": false,
      "inputs": [
        {
          "indexed": true,
          "internalType": "address",
          "name": "previousOwner",
          "type": "address"
        },
        {
          "indexed": true,
          "internalType": "address",
          "name": "newOwner",
          "type": "address"
        }
      ],
      "name": "OwnershipTransferred",
      "type": "event"
    },
    {
      "anonymous": false,
      "inputs": [
        {
          "indexed": true,
          "internalType": "address",
          "name": "from",
          "type": "address"
        },
        {
          "indexed": true,
          "internalType": "address",
          "name": "to",
          "type": "address"
        },
        {
          "indexed": false,
          "internalType": "uint256",
          "name": "value",
          "type": "uint256"
        }
      ],
      "name": "Transfer",
      "type": "event"
    },
    {
      "inputs": [],
      "name": "LP_AND_AIRDROP_PERCENT",
      "outputs": [
        {
          "internalType": "uint256",
          "name": "",
          "type": "uint256"
        }
      ],
      "stateMutability": "view",
      "type": "function"
    },
    {
      "inputs": [
        {
          "internalType": "address",
          "name": "",
          "type": "address"
        }
      ],
      "name": "airdropAllocations",
      "outputs": [
        {
          "internalType": "uint256",
          "name": "",
          "type": "uint256"
        }
      ],
      "stateMutability": "view",
      "type": "function"
    },
    {
      "inputs": [
        {
          "internalType": "address",
          "name": "",
          "type": "address"
        }
      ],
      "name": "airdropClaimed",
      "outputs": [
        {
          "internalType": "bool",
          "name": "",
          "type": "bool"
        }
      ],
      "stateMutability": "view",
      "type": "function"
    },
    {
      "inputs": [],
      "name": "airdropFinalized",
      "outputs": [
        {
          "internalType": "bool",
          "name": "",
          "type": "bool"
        }
      ],
      "stateMutability": "view",
      "type": "function"
    },
    {
      "inputs": [
        {
          "internalType": "uint256",
          "name": "",
          "type": "uint256"
        }
      ],
      "name": "airdropRecipients",
      "outputs": [
        {
          "internalType": "address",
          "name": "",
          "type": "address"
        }
      ],
      "stateMutability": "view",
      "type": "function"
    },
    {
      "inputs": [
        {
          "internalType": "address",
          "name": "owner",
          "type": "address"
        },
        {
          "internalType": "address",
          "name": "spender",
          "type": "address"
        }
      ],
      "name": "allowance",
      "outputs": [
        {
          "internalType": "uint256",
          "name": "",
          "type": "uint256"
        }
      ],
      "stateMutability": "view",
      "type": "function"
    },
    {
      "inputs": [
        {
          "internalType": "address",
          "name": "spender",
          "type": "address"
        },
        {
          "internalType": "uint256",
          "name": "value",
          "type": "uint256"
        }
      ],
      "name": "approve",
      "outputs": [
        {
          "internalType": "bool",
          "name": "",
          "type": "bool"
        }
      ],
      "stateMutability": "nonpayable",
      "type": "function"
    },
    {
      "inputs": [
        {
          "internalType": "address",
          "name": "account",
          "type": "address"
        }
      ],
      "name": "balanceOf",
      "outputs": [
        {
          "internalType": "uint256",
          "name": "",
          "type": "uint256"
        }
      ],
      "stateMutability": "view",
      "type": "function"
    },
    {
      "inputs": [],
      "name": "basePrice",
      "outputs": [
        {
          "internalType": "uint256",
          "name": "",
          "type": "uint256"
        }
      ],
      "stateMutability": "view",
      "type": "function"
    },
    {
      "inputs": [
        {
          "internalType": "uint256",
          "name": "amount",
          "type": "uint256"
        }
      ],
      "name": "buy",
      "outputs": [],
      "stateMutability": "payable",
      "type": "function"
    },
    {
      "inputs": [],
      "name": "claimAirdrop",
      "outputs": [],
      "stateMutability": "nonpayable",
      "type": "function"
    },
    {
      "inputs": [],
      "name": "creator",
      "outputs": [
        {
          "internalType": "address",
          "name": "",
          "type": "address"
        }
      ],
      "stateMutability": "view",
      "type": "function"
    },
    {
      "inputs": [
        {
          "internalType": "uint256",
          "name": "amount",
          "type": "uint256"
        }
      ],
      "name": "creatorBuy",
      "outputs": [],
      "stateMutability": "payable",
      "type": "function"
    },
    {
      "inputs": [],
      "name": "creatorLockAmount",
      "outputs": [
        {
          "internalType": "uint256",
          "name": "",
          "type": "uint256"
        }
      ],
      "stateMutability": "view",
      "type": "function"
    },
    {
      "inputs": [],
      "name": "decimals",
      "outputs": [
        {
          "internalType": "uint8",
          "name": "",
          "type": "uint8"
        }
      ],
      "stateMutability": "view",
      "type": "function"
    },
    {
      "inputs": [],
      "name": "getAirdropAllocations",
      "outputs": [
        {
          "internalType": "address[]",
          "name": "",
          "type": "address[]"
        },
        {
          "internalType": "uint256[]",
          "name": "",
          "type": "uint256[]"
        }
      ],
      "stateMutability": "view",
      "type": "function"
    },
    {
      "inputs": [],
      "name": "getCurrentPrice",
      "outputs": [
        {
          "internalType": "uint256",
          "name": "",
          "type": "uint256"
        }
      ],
      "stateMutability": "view",
      "type": "function"
    },
    {
      "inputs": [
        {
          "internalType": "uint256",
          "name": "amount",
          "type": "uint256"
        }
      ],
      "name": "getPrice",
      "outputs": [
        {
          "internalType": "uint256",
          "name": "",
          "type": "uint256"
        }
      ],
      "stateMutability": "view",
      "type": "function"
    },
    {
      "inputs": [
        {
          "internalType": "uint256",
          "name": "amount",
          "type": "uint256"
        }
      ],
      "name": "getSellPrice",
      "outputs": [
        {
          "internalType": "uint256",
          "name": "",
          "type": "uint256"
        }
      ],
      "stateMutability": "view",
      "type": "function"
    },
    {
      "inputs": [],
      "name": "graduate",
      "outputs": [],
      "stateMutability": "nonpayable",
      "type": "function"
    },
    {
      "inputs": [],
      "name": "graduated",
      "outputs": [
        {
          "internalType": "bool",
          "name": "",
          "type": "bool"
        }
      ],
      "stateMutability": "view",
      "type": "function"
    },
    {
      "inputs": [
        {
          "internalType": "address",
          "name": "",
          "type": "address"
        }
      ],
      "name": "lockedBalances",
      "outputs": [
        {
          "internalType": "uint256",
          "name": "",
          "type": "uint256"
        }
      ],
      "stateMutability": "view",
      "type": "function"
    },
    {
      "inputs": [],
      "name": "maxSupply",
      "outputs": [
        {
          "internalType": "uint256",
          "name": "",
          "type": "uint256"
        }
      ],
      "stateMutability": "view",
      "type": "function"
    },
    {
      "inputs": [],
      "name": "maxSupplyForSale",
      "outputs": [
        {
          "internalType": "uint256",
          "name": "",
          "type": "uint256"
        }
      ],
      "stateMutability": "view",
      "type": "function"
    },
    {
      "inputs": [],
      "name": "name",
      "outputs": [
        {
          "internalType": "string",
          "name": "",
          "type": "string"
        }
      ],
      "stateMutability": "view",
      "type": "function"
    },
    {
      "inputs": [],
      "name": "owner",
      "outputs": [
        {
          "internalType": "address",
          "name": "",
          "type": "address"
        }
      ],
      "stateMutability": "view",
      "type": "function"
    },
    {
      "inputs": [],
      "name": "platformFeeRecipient",
      "outputs": [
        {
          "internalType": "address",
          "name": "",
          "type": "address"
        }
      ],
      "stateMutability": "view",
      "type": "function"
    },
    {
      "inputs": [],
      "name": "raiseTarget",
      "outputs": [
        {
          "internalType": "uint256",
          "name": "",
          "type": "uint256"
        }
      ],
      "stateMutability": "view",
      "type": "function"
    },
    {
      "inputs": [],
      "name": "renounceOwnership",
      "outputs": [],
      "stateMutability": "nonpayable",
      "type": "function"
    },
    {
      "inputs": [],
      "name": "reservedForAirdrop",
      "outputs": [
        {
          "internalType": "uint256",
          "name": "",
          "type": "uint256"
        }
      ],
      "stateMutability": "view",
      "type": "function"
    },
    {
      "inputs": [
        {
          "internalType": "uint256",
          "name": "amount",
          "type": "uint256"
        }
      ],
      "name": "sell",
      "outputs": [],
      "stateMutability": "nonpayable",
      "type": "function"
    },
    {
      "inputs": [
        {
          "internalType": "address[]",
          "name": "recipients",
          "type": "address[]"
        },
        {
          "internalType": "uint256[]",
          "name": "amounts",
          "type": "uint256[]"
        }
      ],
      "name": "setAirdropAllocations",
      "outputs": [],
      "stateMutability": "nonpayable",
      "type": "function"
    },
    {
      "inputs": [],
      "name": "slope",
      "outputs": [
        {
          "internalType": "uint256",
          "name": "",
          "type": "uint256"
        }
      ],
      "stateMutability": "view",
      "type": "function"
    },
    {
      "inputs": [],
      "name": "symbol",
      "outputs": [
        {
          "internalType": "string",
          "name": "",
          "type": "string"
        }
      ],
      "stateMutability": "view",
      "type": "function"
    },
    {
      "inputs": [],
      "name": "tokenInfo",
      "outputs": [
        {
          "internalType": "address",
          "name": "_creator",
          "type": "address"
        },
        {
          "internalType": "address",
          "name": "_platformFeeRecipient",
          "type": "address"
        },
        {
          "internalType": "uint256",
          "name": "_raiseTarget",
          "type": "uint256"
        },
        {
          "internalType": "uint256",
          "name": "_maxSupply",
          "type": "uint256"
        },
        {
          "internalType": "uint256",
          "name": "_basePrice",
          "type": "uint256"
        },
        {
          "internalType": "uint256",
          "name": "_slope",
          "type": "uint256"
        },
        {
          "internalType": "uint256",
          "name": "_totalRaised",
          "type": "uint256"
        },
        {
          "internalType": "bool",
          "name": "_graduated",
          "type": "bool"
        },
        {
          "internalType": "uint256",
          "name": "_creatorLockAmount",
          "type": "uint256"
        }
      ],
      "stateMutability": "view",
      "type": "function"
    },
    {
      "inputs": [],
      "name": "totalRaised",
      "outputs": [
        {
          "internalType": "uint256",
          "name": "",
          "type": "uint256"
        }
      ],
      "stateMutability": "view",
      "type": "function"
    },
    {
      "inputs": [],
      "name": "totalSupply",
      "outputs": [
        {
          "internalType": "uint256",
          "name": "",
          "type": "uint256"
        }
      ],
      "stateMutability": "view",
      "type": "function"
    },
    {
      "inputs": [
        {
          "internalType": "address",
          "name": "to",
          "type": "address"
        },
        {
          "internalType": "uint256",
          "name": "value",
          "type": "uint256"
        }
      ],
      "name": "transfer",
      "outputs": [
        {
          "internalType": "bool",
          "name": "",
          "type": "bool"
        }
      ],
      "stateMutability": "nonpayable",
      "type": "function"
    },
    {
      "inputs": [
        {
          "internalType": "address",
          "name": "from",
          "type": "address"
        },
        {
          "internalType": "address",
          "name": "to",
          "type": "address"
        },
        {
          "internalType": "uint256",
          "name": "value",
          "type": "uint256"
        }
      ],
      "name": "transferFrom",
      "outputs": [
        {
          "internalType": "bool",
          "name": "",
          "type": "bool"
        }
      ],
      "stateMutability": "nonpayable",
      "type": "function"
    },
    {
      "inputs": [
        {
          "internalType": "address",
          "name": "newOwner",
          "type": "address"
        }
      ],
      "name": "transferOwnership",
      "outputs": [],
      "stateMutability": "nonpayable",
      "type": "function"
    },
    {
      "inputs": [],
      "name": "unlockCreatorTokens",
      "outputs": [],
      "stateMutability": "nonpayable",
      "type": "function"
    },
    {
      "inputs": [],
      "name": "withdraw",
      "outputs": [],
      "stateMutability": "nonpayable",
      "type": "function"
    },
    {
      "stateMutability": "payable",
      "type": "receive"
    }
  ],
  "bytecode": "0x60a060405234801561001057600080fd5b50604051614eae380380614eae83398181016040528101906100329190610527565b82868681600390816100449190610803565b5080600490816100549190610803565b505050600073ffffffffffffffffffffffffffffffffffffffff168173ffffffffffffffffffffffffffffffffffffffff16036100c95760006040517f1e4fbdf70000000000000000000000000000000000000000000000000000000081526004016100c091906108e4565b60405180910390fd5b6100d88161025860201b60201c565b508360068190555082600860006101000a81548173ffffffffffffffffffffffffffffffffffffffff021916908373ffffffffffffffffffffffffffffffffffffffff160217905550816080818152505080600760006101000a81548173ffffffffffffffffffffffffffffffffffffffff021916908373ffffffffffffffffffffffffffffffffffffffff1602179055506000674563918244f4000090506000608051610a28610189919061092e565b713965adec3190f1c65b6733417400000000006101a6919061099f565b905060006103e860805160046101bc919061092e565b6101c6919061099f565b9050600083836006546101d9919061092e565b6101e3919061099f565b90508082600654671bc16d674ec800006101fd919061092e565b610207919061099f565b61021191906109d0565b601081905550816010548261022691906109d0565b670de0b6b3a7640000610239919061092e565b610243919061099f565b60118190555050505050505050505050610a04565b6000600560009054906101000a900473ffffffffffffffffffffffffffffffffffffffff16905081600560006101000a81548173ffffffffffffffffffffffffffffffffffffffff021916908373ffffffffffffffffffffffffffffffffffffffff1602179055508173ffffffffffffffffffffffffffffffffffffffff168173ffffffffffffffffffffffffffffffffffffffff167f8be0079c531659141344cd1fd0a4f28419497f9722a3daafe3b4186f6b6457e060405160405180910390a35050565b6000604051905090565b600080fd5b600080fd5b600080fd5b600080fd5b6000601f19601f8301169050919050565b7f4e487b7100000000000000000000000000000000000000000000000000000000600052604160045260246000fd5b6103858261033c565b810181811067ffffffffffffffff821117156103a4576103a361034d565b5b80604052505050565b60006103b761031e565b90506103c3828261037c565b919050565b600067ffffffffffffffff8211156103e3576103e261034d565b5b6103ec8261033c565b9050602081019050919050565b60005b838110156104175780820151818401526020810190506103fc565b60008484015250505050565b6000610436610431846103c8565b6103ad565b90508281526020810184848401111561045257610451610337565b5b61045d8482856103f9565b509392505050565b600082601f83011261047a57610479610332565b5b815161048a848260208601610423565b91505092915050565b6000819050919050565b6104a681610493565b81146104b157600080fd5b50565b6000815190506104c38161049d565b92915050565b600073ffffffffffffffffffffffffffffffffffffffff82169050919050565b60006104f4826104c9565b9050919050565b610504816104e9565b811461050f57600080fd5b50565b600081519050610521816104fb565b92915050565b60008060008060008060c0878903121561054457610543610328565b5b600087015167ffffffffffffffff8111156105625761056161032d565b5b61056e89828a01610465565b965050602087015167ffffffffffffffff81111561058f5761058e61032d565b5b61059b89828a01610465565b95505060406105ac89828a016104b4565b94505060606105bd89828a01610512565b93505060806105ce89828a016104b4565b92505060a06105df89828a01610512565b9150509295509295509295565b600081519050919050565b7f4e487b7100000000000000000000000000000000000000000000000000000000600052602260045260246000fd5b6000600282049050600182168061063e57607f821691505b602082108103610651576106506105f7565b5b50919050565b60008190508160005260206000209050919050565b60006020601f8301049050919050565b600082821b905092915050565b6000600883026106b97fffffffffffffffffffffffffffffffffffffffffffffffffffffffffffffffff8261067c565b6106c3868361067c565b95508019841693508086168417925050509392505050565b6000819050919050565b60006107006106fb6106f684610493565b6106db565b610493565b9050919050565b6000819050919050565b61071a836106e5565b61072e61072682610707565b848454610689565b825550505050565b600090565b610743610736565b61074e818484610711565b505050565b5b818110156107725761076760008261073b565b600181019050610754565b5050565b601f8211156107b75761078881610657565b6107918461066c565b810160208510156107a0578190505b6107b46107ac8561066c565b830182610753565b50505b505050565b600082821c905092915050565b60006107da600019846008026107bc565b1980831691505092915050565b60006107f383836107c9565b9150826002028217905092915050565b61080c826105ec565b67ffffffffffffffff8111156108255761082461034d565b5b61082f8254610626565b61083a828285610776565b600060209050601f83116001811461086d576000841561085b578287015190505b61086585826107e7565b8655506108cd565b601f19841661087b86610657565b60005b828110156108a35784890151825560018201915060208501945060208101905061087e565b868310156108c057848901516108bc601f8916826107c9565b8355505b6001600288020188555050505b505050505050565b6108de816104e9565b82525050565b60006020820190506108f960008301846108d5565b92915050565b7f4e487b7100000000000000000000000000000000000000000000000000000000600052601160045260246000fd5b600061093982610493565b915061094483610493565b925082820261095281610493565b91508282048414831517610969576109686108ff565b5b5092915050565b7f4e487b7100000000000000000000000000000000000000000000000000000000600052601260045260246000fd5b60006109aa82610493565b91506109b583610493565b9250826109c5576109c4610970565b5b828204905092915050565b60006109db82610493565b91506109e683610493565b92508282039050818111156109fe576109fd6108ff565b5b92915050565b60805161447a610a34600039600081816111b601528181611bdb01528181611d5e01526120ed015261447a6000f3fe6080604052600436106102555760003560e01c8063b34ffc5f11610139578063d96a094a116100b6578063e7c2b7721161007a578063e7c2b772146108b8578063eb13554f146108e3578063eb91d37e1461090e578063f2fde38b14610939578063f4227e9514610962578063fc6fec4c1461098d5761025c565b8063d96a094a146107ce578063dd62ed3e146107ea578063e388010d14610827578063e4849b3214610852578063e75722301461087b5761025c565b8063c7876ea4116100fd578063c7876ea4146106e7578063cdbbf18614610712578063d1b6dd301461074f578063d3618cca1461078c578063d5abeb01146107a35761025c565b8063b34ffc5f14610621578063b4105e061461063d578063ba730e5314610654578063be8755a914610691578063c5c4744c146106bc5761025c565b80635b88349d116101d257806383caf2751161019657806383caf2751461050d57806385131976146105385780638da5cb5b1461056357806395d89b411461058e5780639a241247146105b9578063a9059cbb146105e45761025c565b80635b88349d14610432578063646304a1146104495780636addb6631461048657806370a08231146104b9578063715018a6146104f65761025c565b806318160ddd1161021957806318160ddd1461035d57806323b872dd1461038857806324d4de70146103c5578063313ce567146103f05780633ccfd60b1461041b5761025c565b806302d05d3f146102615780630483a7f61461028c57806306fdde03146102c9578063095ea7b3146102f45780630b579f1f146103315761025c565b3661025c57005b600080fd5b34801561026d57600080fd5b506102766109b6565b604051610283919061310e565b60405180910390f35b34801561029857600080fd5b506102b360048036038101906102ae919061315f565b6109dc565b6040516102c091906131a5565b60405180910390f35b3480156102d557600080fd5b506102de6109f4565b6040516102eb9190613250565b60405180910390f35b34801561030057600080fd5b5061031b6004803603810190610316919061329e565b610a86565b60405161032891906132f9565b60405180910390f35b34801561033d57600080fd5b50610346610aa9565b604051610354929190613490565b60405180910390f35b34801561036957600080fd5b50610372610c7b565b60405161037f91906131a5565b60405180910390f35b34801561039457600080fd5b506103af60048036038101906103aa91906134c7565b610c85565b6040516103bc91906132f9565b60405180910390f35b3480156103d157600080fd5b506103da610cb4565b6040516103e791906131a5565b60405180910390f35b3480156103fc57600080fd5b50610405610cb9565b6040516104129190613536565b60405180910390f35b34801561042757600080fd5b50610430610cc2565b005b34801561043e57600080fd5b50610447610f56565b005b34801561045557600080fd5b50610470600480360381019061046b9190613551565b61111e565b60405161047d919061310e565b60405180910390f35b34801561049257600080fd5b5061049b61115d565b6040516104b09998979695949392919061357e565b60405180910390f35b3480156104c557600080fd5b506104e060048036038101906104db919061315f565b61120e565b6040516104ed91906131a5565b60405180910390f35b34801561050257600080fd5b5061050b611256565b005b34801561051957600080fd5b5061052261126a565b60405161052f91906131a5565b60405180910390f35b34801561054457600080fd5b5061054d611270565b60405161055a91906131a5565b60405180910390f35b34801561056f57600080fd5b50610578611276565b604051610585919061310e565b60405180910390f35b34801561059a57600080fd5b506105a36112a0565b6040516105b09190613250565b60405180910390f35b3480156105c557600080fd5b506105ce611332565b6040516105db91906132f9565b60405180910390f35b3480156105f057600080fd5b5061060b6004803603810190610606919061329e565b611341565b60405161061891906132f9565b60405180910390f35b61063b60048036038101906106369190613551565b611364565b005b34801561064957600080fd5b50610652611873565b005b34801561066057600080fd5b5061067b60048036038101906106769190613551565b611afb565b60405161068891906131a5565b60405180910390f35b34801561069d57600080fd5b506106a6611bd3565b6040516106b391906131a5565b60405180910390f35b3480156106c857600080fd5b506106d1611c13565b6040516106de91906131a5565b60405180910390f35b3480156106f357600080fd5b506106fc611c19565b60405161070991906131a5565b60405180910390f35b34801561071e57600080fd5b506107396004803603810190610734919061315f565b611c1f565b60405161074691906131a5565b60405180910390f35b34801561075b57600080fd5b506107766004803603810190610771919061315f565b611c37565b60405161078391906132f9565b60405180910390f35b34801561079857600080fd5b506107a1611c57565b005b3480156107af57600080fd5b506107b8611d5c565b6040516107c591906131a5565b60405180910390f35b6107e860048036038101906107e39190613551565b611d80565b005b3480156107f657600080fd5b50610811600480360381019061080c919061360b565b612052565b60405161081e91906131a5565b60405180910390f35b34801561083357600080fd5b5061083c6120d9565b60405161084991906131a5565b60405180910390f35b34801561085e57600080fd5b5061087960048036038101906108749190613551565b612125565b005b34801561088757600080fd5b506108a2600480360381019061089d9190613551565b612468565b6040516108af91906131a5565b60405180910390f35b3480156108c457600080fd5b506108cd6124f0565b6040516108da91906132f9565b60405180910390f35b3480156108ef57600080fd5b506108f8612503565b604051610905919061310e565b60405180910390f35b34801561091a57600080fd5b50610923612529565b60405161093091906131a5565b60405180910390f35b34801561094557600080fd5b50610960600480360381019061095b919061315f565b612565565b005b34801561096e57600080fd5b506109776125eb565b60405161098491906131a5565b60405180910390f35b34801561099957600080fd5b506109b460048036038101906109af9190613706565b6125f1565b005b600860009054906101000a900473ffffffffffffffffffffffffffffffffffffffff1681565b600c6020528060005260406000206000915090505481565b606060038054610a03906137b6565b80601f0160208091040260200160405190810160405280929190818152602001828054610a2f906137b6565b8015610a7c5780601f10610a5157610100808354040283529160200191610a7c565b820191906000526020600020905b815481529060010190602001808311610a5f57829003601f168201915b5050505050905090565b600080610a916128dd565b9050610a9e8185856128e5565b600191505092915050565b6060806000600f80549050905060008167ffffffffffffffff811115610ad257610ad16137e7565b5b604051908082528060200260200182016040528015610b005781602001602082028036833780820191505090505b50905060008267ffffffffffffffff811115610b1f57610b1e6137e7565b5b604051908082528060200260200182016040528015610b4d5781602001602082028036833780820191505090505b50905060005b83811015610c6d57600f8181548110610b6f57610b6e613816565b5b9060005260206000200160009054906101000a900473ffffffffffffffffffffffffffffffffffffffff16838281518110610bad57610bac613816565b5b602002602001019073ffffffffffffffffffffffffffffffffffffffff16908173ffffffffffffffffffffffffffffffffffffffff1681525050600d6000848381518110610bfe57610bfd613816565b5b602002602001015173ffffffffffffffffffffffffffffffffffffffff1673ffffffffffffffffffffffffffffffffffffffff16815260200190815260200160002054828281518110610c5457610c53613816565b5b6020026020010181815250508080600101915050610b53565b508181945094505050509091565b6000600254905090565b600080610c906128dd565b9050610c9d8582856128f7565b610ca885858561298c565b60019150509392505050565b601481565b60006012905090565b600860009054906101000a900473ffffffffffffffffffffffffffffffffffffffff1673ffffffffffffffffffffffffffffffffffffffff163373ffffffffffffffffffffffffffffffffffffffff1614610d52576040517f08c379a0000000000000000000000000000000000000000000000000000000008152600401610d4990613891565b60405180910390fd5b60004711610d95576040517f08c379a0000000000000000000000000000000000000000000000000000000008152600401610d8c906138fd565b60405180910390fd5b600a60009054906101000a900460ff16610de4576040517f08c379a0000000000000000000000000000000000000000000000000000000008152600401610ddb90613969565b60405180910390fd5b600061271060c847610df691906139b8565b610e009190613a29565b905060008147610e109190613a5a565b90506000600760009054906101000a900473ffffffffffffffffffffffffffffffffffffffff1673ffffffffffffffffffffffffffffffffffffffff1683604051610e5a90613abf565b60006040518083038185875af1925050503d8060008114610e97576040519150601f19603f3d011682016040523d82523d6000602084013e610e9c565b606091505b5050905080610ee0576040517f08c379a0000000000000000000000000000000000000000000000000000000008152600401610ed790613b20565b60405180910390fd5b600860009054906101000a900473ffffffffffffffffffffffffffffffffffffffff1673ffffffffffffffffffffffffffffffffffffffff166108fc839081150290604051600060405180830381858888f19350505050158015610f48573d6000803e3d6000fd5b506000600981905550505050565b600a60009054906101000a900460ff16610fa5576040517f08c379a0000000000000000000000000000000000000000000000000000000008152600401610f9c90613b8c565b60405180910390fd5b600e60003373ffffffffffffffffffffffffffffffffffffffff1673ffffffffffffffffffffffffffffffffffffffff16815260200190815260200160002060009054906101000a900460ff1615611032576040517f08c379a000000000000000000000000000000000000000000000000000000000815260040161102990613bf8565b60405180910390fd5b6000600d60003373ffffffffffffffffffffffffffffffffffffffff1673ffffffffffffffffffffffffffffffffffffffff168152602001908152602001600020549050600081116110b9576040517f08c379a00000000000000000000000000000000000000000000000000000000081526004016110b090613c64565b60405180910390fd5b6001600e60003373ffffffffffffffffffffffffffffffffffffffff1673ffffffffffffffffffffffffffffffffffffffff16815260200190815260200160002060006101000a81548160ff02191690831515021790555061111b3382612a80565b50565b600f818154811061112e57600080fd5b906000526020600020016000915054906101000a900473ffffffffffffffffffffffffffffffffffffffff1681565b6000806000806000806000806000600860009054906101000a900473ffffffffffffffffffffffffffffffffffffffff16600760009054906101000a900473ffffffffffffffffffffffffffffffffffffffff166006547f0000000000000000000000000000000000000000000000000000000000000000601054601154600954600a60009054906101000a900460ff16600b54985098509850985098509850985098509850909192939495969798565b60008060008373ffffffffffffffffffffffffffffffffffffffff1673ffffffffffffffffffffffffffffffffffffffff168152602001908152602001600020549050919050565b61125e612b02565b6112686000612b89565b565b60115481565b60065481565b6000600560009054906101000a900473ffffffffffffffffffffffffffffffffffffffff16905090565b6060600480546112af906137b6565b80601f01602080910402602001604051908101604052809291908181526020018280546112db906137b6565b80156113285780601f106112fd57610100808354040283529160200191611328565b820191906000526020600020905b81548152906001019060200180831161130b57829003601f168201915b5050505050905090565b600080600f8054905011905090565b60008061134c6128dd565b905061135981858561298c565b600191505092915050565b600860009054906101000a900473ffffffffffffffffffffffffffffffffffffffff1673ffffffffffffffffffffffffffffffffffffffff163373ffffffffffffffffffffffffffffffffffffffff16146113f4576040517f08c379a00000000000000000000000000000000000000000000000000000000081526004016113eb90613891565b60405180910390fd5b600a60009054906101000a900460ff1615611444576040517f08c379a000000000000000000000000000000000000000000000000000000000815260040161143b90613cd0565b60405180910390fd5b600061144f82612468565b905080341015611494576040517f08c379a000000000000000000000000000000000000000000000000000000000815260040161148b90613d3c565b60405180910390fd5b61149c6120d9565b826114a5610c7b565b6114af9190613d5c565b11156114f0576040517f08c379a00000000000000000000000000000000000000000000000000000000081526004016114e790613ddc565b60405180910390fd5b6114f8611bd3565b82600c6000600860009054906101000a900473ffffffffffffffffffffffffffffffffffffffff1673ffffffffffffffffffffffffffffffffffffffff1673ffffffffffffffffffffffffffffffffffffffff168152602001908152602001600020546115659190613d5c565b11156115a6576040517f08c379a000000000000000000000000000000000000000000000000000000000815260040161159d90613e48565b60405180910390fd5b60006127106064836115b891906139b8565b6115c29190613a29565b905080826115d09190613a5a565b600960008282546115e19190613d5c565b925050819055506115f23084612a80565b82600c6000600860009054906101000a900473ffffffffffffffffffffffffffffffffffffffff1673ffffffffffffffffffffffffffffffffffffffff1673ffffffffffffffffffffffffffffffffffffffff16815260200190815260200160002060008282546116639190613d5c565b9250508190555082600b600082825461167c9190613d5c565b925050819055507f77c4ff2d3de977cf4bd36aa220db7839bc74bdd1c7a1c3d47bbb34ba89d16a61600760009054906101000a900473ffffffffffffffffffffffffffffffffffffffff16826040516116d6929190613e68565b60405180910390a16000600760009054906101000a900473ffffffffffffffffffffffffffffffffffffffff1673ffffffffffffffffffffffffffffffffffffffff168260405161172690613abf565b60006040518083038185875af1925050503d8060008114611763576040519150601f19603f3d011682016040523d82523d6000602084013e611768565b606091505b50509050806117ac576040517f08c379a00000000000000000000000000000000000000000000000000000000081526004016117a390613edd565b60405180910390fd5b8234111561186d5760003373ffffffffffffffffffffffffffffffffffffffff1684346117d99190613a5a565b6040516117e590613abf565b60006040518083038185875af1925050503d8060008114611822576040519150601f19603f3d011682016040523d82523d6000602084013e611827565b606091505b505090508061186b576040517f08c379a000000000000000000000000000000000000000000000000000000000815260040161186290613f49565b60405180910390fd5b505b50505050565b600860009054906101000a900473ffffffffffffffffffffffffffffffffffffffff1673ffffffffffffffffffffffffffffffffffffffff163373ffffffffffffffffffffffffffffffffffffffff1614611903576040517f08c379a00000000000000000000000000000000000000000000000000000000081526004016118fa90613891565b60405180910390fd5b600a60009054906101000a900460ff16611952576040517f08c379a000000000000000000000000000000000000000000000000000000000815260040161194990613969565b60405180910390fd5b6000600c6000600860009054906101000a900473ffffffffffffffffffffffffffffffffffffffff1673ffffffffffffffffffffffffffffffffffffffff1673ffffffffffffffffffffffffffffffffffffffff16815260200190815260200160002054116119f6576040517f08c379a00000000000000000000000000000000000000000000000000000000081526004016119ed90613fb5565b60405180910390fd5b6000600c6000600860009054906101000a900473ffffffffffffffffffffffffffffffffffffffff1673ffffffffffffffffffffffffffffffffffffffff1673ffffffffffffffffffffffffffffffffffffffff1681526020019081526020016000205490506000600c6000600860009054906101000a900473ffffffffffffffffffffffffffffffffffffffff1673ffffffffffffffffffffffffffffffffffffffff1673ffffffffffffffffffffffffffffffffffffffff168152602001908152602001600020819055506000600b81905550611af830600860009054906101000a900473ffffffffffffffffffffffffffffffffffffffff168361298c565b50565b600080611b06610c7b565b905080831115611b4b576040517f08c379a0000000000000000000000000000000000000000000000000000000008152600401611b4290614021565b60405180910390fd5b6000611b55612529565b90506000670de0b6b3a764000085601154611b7091906139b8565b611b7a9190613a29565b82611b859190613a5a565b9050600060028284611b979190613d5c565b611ba19190613a29565b90506000670de0b6b3a76400008288611bba91906139b8565b611bc49190613a29565b90508095505050505050919050565b6000606460147f0000000000000000000000000000000000000000000000000000000000000000611c0491906139b8565b611c0e9190613a29565b905090565b60095481565b60105481565b600d6020528060005260406000206000915090505481565b600e6020528060005260406000206000915054906101000a900460ff1681565b600a60009054906101000a900460ff1615611ca7576040517f08c379a0000000000000000000000000000000000000000000000000000000008152600401611c9e90613cd0565b60405180910390fd5b6006546009541015611cee576040517f08c379a0000000000000000000000000000000000000000000000000000000008152600401611ce59061408d565b60405180910390fd5b611cf66120d9565b611cfe610c7b565b1115611d3f576040517f08c379a0000000000000000000000000000000000000000000000000000000008152600401611d36906140f9565b60405180910390fd5b6001600a60006101000a81548160ff021916908315150217905550565b7f000000000000000000000000000000000000000000000000000000000000000081565b600a60009054906101000a900460ff1615611dd0576040517f08c379a0000000000000000000000000000000000000000000000000000000008152600401611dc790613cd0565b60405180910390fd5b6000611ddb82612468565b905080341015611e20576040517f08c379a0000000000000000000000000000000000000000000000000000000008152600401611e1790613d3c565b60405180910390fd5b611e286120d9565b82611e31610c7b565b611e3b9190613d5c565b1115611e7c576040517f08c379a0000000000000000000000000000000000000000000000000000000008152600401611e7390613ddc565b60405180910390fd5b6000612710606483611e8e91906139b8565b611e989190613a29565b90508082611ea69190613a5a565b60096000828254611eb79190613d5c565b92505081905550611ec83384612a80565b7f77c4ff2d3de977cf4bd36aa220db7839bc74bdd1c7a1c3d47bbb34ba89d16a61600760009054906101000a900473ffffffffffffffffffffffffffffffffffffffff1682604051611f1b929190613e68565b60405180910390a16000600760009054906101000a900473ffffffffffffffffffffffffffffffffffffffff1673ffffffffffffffffffffffffffffffffffffffff1682604051611f6b90613abf565b60006040518083038185875af1925050503d8060008114611fa8576040519150601f19603f3d011682016040523d82523d6000602084013e611fad565b606091505b5050905080611ff1576040517f08c379a0000000000000000000000000000000000000000000000000000000008152600401611fe890614165565b60405180910390fd5b8234111561204c573373ffffffffffffffffffffffffffffffffffffffff166108fc843461201f9190613a5a565b9081150290604051600060405180830381858888f1935050505015801561204a573d6000803e3d6000fd5b505b50505050565b6000600160008473ffffffffffffffffffffffffffffffffffffffff1673ffffffffffffffffffffffffffffffffffffffff16815260200190815260200160002060008373ffffffffffffffffffffffffffffffffffffffff1673ffffffffffffffffffffffffffffffffffffffff16815260200190815260200160002054905092915050565b60006064601460646120eb9190613a5a565b7f000000000000000000000000000000000000000000000000000000000000000061211691906139b8565b6121209190613a29565b905090565b600a60009054906101000a900460ff1615612175576040517f08c379a000000000000000000000000000000000000000000000000000000000815260040161216c90613cd0565b60405180910390fd5b600081116121b8576040517f08c379a00000000000000000000000000000000000000000000000000000000081526004016121af906141d1565b60405180910390fd5b806121c23361120e565b1015612203576040517f08c379a00000000000000000000000000000000000000000000000000000000081526004016121fa9061423d565b60405180910390fd5b600061220e82611afb565b905080471015612253576040517f08c379a000000000000000000000000000000000000000000000000000000000815260040161224a906142a9565b60405180910390fd5b600061271060968361226591906139b8565b61226f9190613a29565b90506000818361227f9190613a5a565b905061228b3385612c4f565b60003373ffffffffffffffffffffffffffffffffffffffff16826040516122b190613abf565b60006040518083038185875af1925050503d80600081146122ee576040519150601f19603f3d011682016040523d82523d6000602084013e6122f3565b606091505b5050905080612337576040517f08c379a000000000000000000000000000000000000000000000000000000000815260040161232e90614315565b60405180910390fd5b7f77c4ff2d3de977cf4bd36aa220db7839bc74bdd1c7a1c3d47bbb34ba89d16a61600760009054906101000a900473ffffffffffffffffffffffffffffffffffffffff168460405161238a929190613e68565b60405180910390a16000600760009054906101000a900473ffffffffffffffffffffffffffffffffffffffff1673ffffffffffffffffffffffffffffffffffffffff16846040516123da90613abf565b60006040518083038185875af1925050503d8060008114612417576040519150601f19603f3d011682016040523d82523d6000602084013e61241c565b606091505b5050905080612460576040517f08c379a000000000000000000000000000000000000000000000000000000000815260040161245790614165565b60405180910390fd5b505050505050565b600080612473612529565b90506000670de0b6b3a76400008460115461248e91906139b8565b6124989190613a29565b826124a39190613d5c565b90506000600282846124b59190613d5c565b6124bf9190613a29565b90506000670de0b6b3a764000082876124d891906139b8565b6124e29190613a29565b905080945050505050919050565b600a60009054906101000a900460ff1681565b600760009054906101000a900473ffffffffffffffffffffffffffffffffffffffff1681565b6000670de0b6b3a764000061253c610c7b565b60115461254991906139b8565b6125539190613a29565b6010546125609190613d5c565b905090565b61256d612b02565b600073ffffffffffffffffffffffffffffffffffffffff168173ffffffffffffffffffffffffffffffffffffffff16036125df5760006040517f1e4fbdf70000000000000000000000000000000000000000000000000000000081526004016125d6919061310e565b60405180910390fd5b6125e881612b89565b50565b600b5481565b600860009054906101000a900473ffffffffffffffffffffffffffffffffffffffff1673ffffffffffffffffffffffffffffffffffffffff163373ffffffffffffffffffffffffffffffffffffffff1614612681576040517f08c379a000000000000000000000000000000000000000000000000000000000815260040161267890613891565b60405180910390fd5b600a60009054906101000a900460ff16156126d1576040517f08c379a00000000000000000000000000000000000000000000000000000000081526004016126c890613cd0565b60405180910390fd5b818190508484905014612719576040517f08c379a000000000000000000000000000000000000000000000000000000000815260040161271090614381565b60405180910390fd5b6000805b8585905081101561288b57600086868381811061273d5761273c613816565b5b9050602002016020810190612752919061315f565b9050600085858481811061276957612768613816565b5b9050602002013590506000600d60008473ffffffffffffffffffffffffffffffffffffffff1673ffffffffffffffffffffffffffffffffffffffff168152602001908152602001600020541480156127c15750600081115b1561282a57600f829080600181540180825580915050600190039060005260206000200160009091909190916101000a81548173ffffffffffffffffffffffffffffffffffffffff021916908373ffffffffffffffffffffffffffffffffffffffff1602179055505b80600d60008473ffffffffffffffffffffffffffffffffffffffff1673ffffffffffffffffffffffffffffffffffffffff16815260200190815260200160002081905550808461287a9190613d5c565b93505050808060010191505061271d565b50612894611bd3565b8111156128d6576040517f08c379a00000000000000000000000000000000000000000000000000000000081526004016128cd906143ed565b60405180910390fd5b5050505050565b600033905090565b6128f28383836001612cd1565b505050565b60006129038484612052565b90507fffffffffffffffffffffffffffffffffffffffffffffffffffffffffffffffff8110156129865781811015612976578281836040517ffb8f41b200000000000000000000000000000000000000000000000000000000815260040161296d9392919061440d565b60405180910390fd5b61298584848484036000612cd1565b5b50505050565b600073ffffffffffffffffffffffffffffffffffffffff168373ffffffffffffffffffffffffffffffffffffffff16036129fe5760006040517f96c6fd1e0000000000000000000000000000000000000000000000000000000081526004016129f5919061310e565b60405180910390fd5b600073ffffffffffffffffffffffffffffffffffffffff168273ffffffffffffffffffffffffffffffffffffffff1603612a705760006040517fec442f05000000000000000000000000000000000000000000000000000000008152600401612a67919061310e565b60405180910390fd5b612a7b838383612ea8565b505050565b600073ffffffffffffffffffffffffffffffffffffffff168273ffffffffffffffffffffffffffffffffffffffff1603612af25760006040517fec442f05000000000000000000000000000000000000000000000000000000008152600401612ae9919061310e565b60405180910390fd5b612afe60008383612ea8565b5050565b612b0a6128dd565b73ffffffffffffffffffffffffffffffffffffffff16612b28611276565b73ffffffffffffffffffffffffffffffffffffffff1614612b8757612b4b6128dd565b6040517f118cdaa7000000000000000000000000000000000000000000000000000000008152600401612b7e919061310e565b60405180910390fd5b565b6000600560009054906101000a900473ffffffffffffffffffffffffffffffffffffffff16905081600560006101000a81548173ffffffffffffffffffffffffffffffffffffffff021916908373ffffffffffffffffffffffffffffffffffffffff1602179055508173ffffffffffffffffffffffffffffffffffffffff168173ffffffffffffffffffffffffffffffffffffffff167f8be0079c531659141344cd1fd0a4f28419497f9722a3daafe3b4186f6b6457e060405160405180910390a35050565b600073ffffffffffffffffffffffffffffffffffffffff168273ffffffffffffffffffffffffffffffffffffffff1603612cc15760006040517f96c6fd1e000000000000000000000000000000000000000000000000000000008152600401612cb8919061310e565b60405180910390fd5b612ccd82600083612ea8565b5050565b600073ffffffffffffffffffffffffffffffffffffffff168473ffffffffffffffffffffffffffffffffffffffff1603612d435760006040517fe602df05000000000000000000000000000000000000000000000000000000008152600401612d3a919061310e565b60405180910390fd5b600073ffffffffffffffffffffffffffffffffffffffff168373ffffffffffffffffffffffffffffffffffffffff1603612db55760006040517f94280d62000000000000000000000000000000000000000000000000000000008152600401612dac919061310e565b60405180910390fd5b81600160008673ffffffffffffffffffffffffffffffffffffffff1673ffffffffffffffffffffffffffffffffffffffff16815260200190815260200160002060008573ffffffffffffffffffffffffffffffffffffffff1673ffffffffffffffffffffffffffffffffffffffff168152602001908152602001600020819055508015612ea2578273ffffffffffffffffffffffffffffffffffffffff168473ffffffffffffffffffffffffffffffffffffffff167f8c5be1e5ebec7d5bd14f71427d1e84f3dd0314c0f7b2291e5b200ac8c7c3b92584604051612e9991906131a5565b60405180910390a35b50505050565b600073ffffffffffffffffffffffffffffffffffffffff168373ffffffffffffffffffffffffffffffffffffffff1603612efa578060026000828254612eee9190613d5c565b92505081905550612fcd565b60008060008573ffffffffffffffffffffffffffffffffffffffff1673ffffffffffffffffffffffffffffffffffffffff16815260200190815260200160002054905081811015612f86578381836040517fe450d38c000000000000000000000000000000000000000000000000000000008152600401612f7d9392919061440d565b60405180910390fd5b8181036000808673ffffffffffffffffffffffffffffffffffffffff1673ffffffffffffffffffffffffffffffffffffffff16815260200190815260200160002081905550505b600073ffffffffffffffffffffffffffffffffffffffff168273ffffffffffffffffffffffffffffffffffffffff16036130165780600260008282540392505081905550613063565b806000808473ffffffffffffffffffffffffffffffffffffffff1673ffffffffffffffffffffffffffffffffffffffff168152602001908152602001600020600082825401925050819055505b8173ffffffffffffffffffffffffffffffffffffffff168373ffffffffffffffffffffffffffffffffffffffff167fddf252ad1be2c89b69c2b068fc378daa952ba7f163c4a11628f55a4df523b3ef836040516130c091906131a5565b60405180910390a3505050565b600073ffffffffffffffffffffffffffffffffffffffff82169050919050565b60006130f8826130cd565b9050919050565b613108816130ed565b82525050565b600060208201905061312360008301846130ff565b92915050565b600080fd5b600080fd5b61313c816130ed565b811461314757600080fd5b50565b60008135905061315981613133565b92915050565b60006020828403121561317557613174613129565b5b60006131838482850161314a565b91505092915050565b6000819050919050565b61319f8161318c565b82525050565b60006020820190506131ba6000830184613196565b92915050565b600081519050919050565b600082825260208201905092915050565b60005b838110156131fa5780820151818401526020810190506131df565b60008484015250505050565b6000601f19601f8301169050919050565b6000613222826131c0565b61322c81856131cb565b935061323c8185602086016131dc565b61324581613206565b840191505092915050565b6000602082019050818103600083015261326a8184613217565b905092915050565b61327b8161318c565b811461328657600080fd5b50565b60008135905061329881613272565b92915050565b600080604083850312156132b5576132b4613129565b5b60006132c38582860161314a565b92505060206132d485828601613289565b9150509250929050565b60008115159050919050565b6132f3816132de565b82525050565b600060208201905061330e60008301846132ea565b92915050565b600081519050919050565b600082825260208201905092915050565b6000819050602082019050919050565b613349816130ed565b82525050565b600061335b8383613340565b60208301905092915050565b6000602082019050919050565b600061337f82613314565b613389818561331f565b935061339483613330565b8060005b838110156133c55781516133ac888261334f565b97506133b783613367565b925050600181019050613398565b5085935050505092915050565b600081519050919050565b600082825260208201905092915050565b6000819050602082019050919050565b6134078161318c565b82525050565b600061341983836133fe565b60208301905092915050565b6000602082019050919050565b600061343d826133d2565b61344781856133dd565b9350613452836133ee565b8060005b8381101561348357815161346a888261340d565b975061347583613425565b925050600181019050613456565b5085935050505092915050565b600060408201905081810360008301526134aa8185613374565b905081810360208301526134be8184613432565b90509392505050565b6000806000606084860312156134e0576134df613129565b5b60006134ee8682870161314a565b93505060206134ff8682870161314a565b925050604061351086828701613289565b9150509250925092565b600060ff82169050919050565b6135308161351a565b82525050565b600060208201905061354b6000830184613527565b92915050565b60006020828403121561356757613566613129565b5b600061357584828501613289565b91505092915050565b600061012082019050613594600083018c6130ff565b6135a1602083018b6130ff565b6135ae604083018a613196565b6135bb6060830189613196565b6135c86080830188613196565b6135d560a0830187613196565b6135e260c0830186613196565b6135ef60e08301856132ea565b6135fd610100830184613196565b9a9950505050505050505050565b6000806040838503121561362257613621613129565b5b60006136308582860161314a565b92505060206136418582860161314a565b9150509250929050565b600080fd5b600080fd5b600080fd5b60008083601f8401126136705761366f61364b565b5b8235905067ffffffffffffffff81111561368d5761368c613650565b5b6020830191508360208202830111156136a9576136a8613655565b5b9250929050565b60008083601f8401126136c6576136c561364b565b5b8235905067ffffffffffffffff8111156136e3576136e2613650565b5b6020830191508360208202830111156136ff576136fe613655565b5b9250929050565b600080600080604085870312156137205761371f613129565b5b600085013567ffffffffffffffff81111561373e5761373d61312e565b5b61374a8782880161365a565b9450945050602085013567ffffffffffffffff81111561376d5761376c61312e565b5b613779878288016136b0565b925092505092959194509250565b7f4e487b7100000000000000000000000000000000000000000000000000000000600052602260045260246000fd5b600060028204905060018216806137ce57607f821691505b6020821081036137e1576137e0613787565b5b50919050565b7f4e487b7100000000000000000000000000000000000000000000000000000000600052604160045260246000fd5b7f4e487b7100000000000000000000000000000000000000000000000000000000600052603260045260246000fd5b7f4e6f742063726561746f72000000000000000000000000000000000000000000600082015250565b600061387b600b836131cb565b915061388682613845565b602082019050919050565b600060208201905081810360008301526138aa8161386e565b9050919050565b7f4e6f7468696e6720746f20776974686472617700000000000000000000000000600082015250565b60006138e76013836131cb565b91506138f2826138b1565b602082019050919050565b60006020820190508181036000830152613916816138da565b9050919050565b7f4e6f742067726164756174656420796574000000000000000000000000000000600082015250565b60006139536011836131cb565b915061395e8261391d565b602082019050919050565b6000602082019050818103600083015261398281613946565b9050919050565b7f4e487b7100000000000000000000000000000000000000000000000000000000600052601160045260246000fd5b60006139c38261318c565b91506139ce8361318c565b92508282026139dc8161318c565b915082820484148315176139f3576139f2613989565b5b5092915050565b7f4e487b7100000000000000000000000000000000000000000000000000000000600052601260045260246000fd5b6000613a348261318c565b9150613a3f8361318c565b925082613a4f57613a4e6139fa565b5b828204905092915050565b6000613a658261318c565b9150613a708361318c565b9250828203905081811115613a8857613a87613989565b5b92915050565b600081905092915050565b50565b6000613aa9600083613a8e565b9150613ab482613a99565b600082019050919050565b6000613aca82613a9c565b9150819050919050565b7f506c6174666f726d207769746864726177616c206661696c6564000000000000600082015250565b6000613b0a601a836131cb565b9150613b1582613ad4565b602082019050919050565b60006020820190508181036000830152613b3981613afd565b9050919050565b7f4e6f742067726164756174656400000000000000000000000000000000000000600082015250565b6000613b76600d836131cb565b9150613b8182613b40565b602082019050919050565b60006020820190508181036000830152613ba581613b69565b9050919050565b7f416c726561647920636c61696d65640000000000000000000000000000000000600082015250565b6000613be2600f836131cb565b9150613bed82613bac565b602082019050919050565b60006020820190508181036000830152613c1181613bd5565b9050919050565b7f4e6f20616c6c6f636174696f6e00000000000000000000000000000000000000600082015250565b6000613c4e600d836131cb565b9150613c5982613c18565b602082019050919050565b60006020820190508181036000830152613c7d81613c41565b9050919050565b7f416c726561647920677261647561746564000000000000000000000000000000600082015250565b6000613cba6011836131cb565b9150613cc582613c84565b602082019050919050565b60006020820190508181036000830152613ce981613cad565b9050919050565b7f496e73756666696369656e74204554482073656e740000000000000000000000600082015250565b6000613d266015836131cb565b9150613d3182613cf0565b602082019050919050565b60006020820190508181036000830152613d5581613d19565b9050919050565b6000613d678261318c565b9150613d728361318c565b9250828201905080821115613d8a57613d89613989565b5b92915050565b7f4578636565647320617661696c61626c6520737570706c790000000000000000600082015250565b6000613dc66018836131cb565b9150613dd182613d90565b602082019050919050565b60006020820190508181036000830152613df581613db9565b9050919050565b7f45786365656473206c6f636b20616c6c6f636174696f6e000000000000000000600082015250565b6000613e326017836131cb565b9150613e3d82613dfc565b602082019050919050565b60006020820190508181036000830152613e6181613e25565b9050919050565b6000604082019050613e7d60008301856130ff565b613e8a6020830184613196565b9392505050565b7f506c6174666f726d206665652063616c6c206661696c65640000000000000000600082015250565b6000613ec76018836131cb565b9150613ed282613e91565b602082019050919050565b60006020820190508181036000830152613ef681613eba565b9050919050565b7f526566756e64206661696c656400000000000000000000000000000000000000600082015250565b6000613f33600d836131cb565b9150613f3e82613efd565b602082019050919050565b60006020820190508181036000830152613f6281613f26565b9050919050565b7f4e6f206c6f636b656420746f6b656e7300000000000000000000000000000000600082015250565b6000613f9f6010836131cb565b9150613faa82613f69565b602082019050919050565b60006020820190508181036000830152613fce81613f92565b9050919050565b7f416d6f756e74206578636565647320737570706c790000000000000000000000600082015250565b600061400b6015836131cb565b915061401682613fd5565b602082019050919050565b6000602082019050818103600083015261403a81613ffe565b9050919050565b7f526169736520746172676574206e6f74206d6574000000000000000000000000600082015250565b60006140776014836131cb565b915061408282614041565b602082019050919050565b600060208201905081810360008301526140a68161406a565b9050919050565b7f4d7573742072657365727665204c502f61697264726f70000000000000000000600082015250565b60006140e36017836131cb565b91506140ee826140ad565b602082019050919050565b60006020820190508181036000830152614112816140d6565b9050919050565b7f506c6174666f726d20666565207472616e73666572206661696c656400000000600082015250565b600061414f601c836131cb565b915061415a82614119565b602082019050919050565b6000602082019050818103600083015261417e81614142565b9050919050565b7f416d6f756e74206d7573742062652067726561746572207468616e207a65726f600082015250565b60006141bb6020836131cb565b91506141c682614185565b602082019050919050565b600060208201905081810360008301526141ea816141ae565b9050919050565b7f496e73756666696369656e7420746f6b656e2062616c616e6365000000000000600082015250565b6000614227601a836131cb565b9150614232826141f1565b602082019050919050565b600060208201905081810360008301526142568161421a565b9050919050565b7f436f6e74726163742068617320696e73756666696369656e7420455448000000600082015250565b6000614293601d836131cb565b915061429e8261425d565b602082019050919050565b600060208201905081810360008301526142c281614286565b9050919050565b7f455448207061796f7574206661696c6564000000000000000000000000000000600082015250565b60006142ff6011836131cb565b915061430a826142c9565b602082019050919050565b6000602082019050818103600083015261432e816142f2565b9050919050565b7f4c656e677468206d69736d617463680000000000000000000000000000000000600082015250565b600061436b600f836131cb565b915061437682614335565b602082019050919050565b6000602082019050818103600083015261439a8161435e565b9050919050565b7f457863656564732061697264726f702072657365727665000000000000000000600082015250565b60006143d76017836131cb565b91506143e2826143a1565b602082019050919050565b60006020820190508181036000830152614406816143ca565b9050919050565b600060608201905061442260008301866130ff565b61442f6020830185613196565b61443c6040830184613196565b94935050505056fea2646970667358221220c319c2d4a807a1ae1001896a9f6fae94b8dd14ec6824474a2ab65f674ab3442164736f6c634300081c0033",
  "linkReferences": {},
  "deployedLinkReferences": {}
}