{
  "_format": "hh-sol-artifact-1",
  "contractName": "TurboToken",
  "sourceName": "contracts/TurboToken.sol",
  "abi": [
    {
      "inputs": [
        {
          "internalType": "string",
          "name": "name_",
          "type": "string"
        },
        {
          "internalType": "string",
          "name": "symbol_",
          "type": "string"
        },
        {
          "internalType": "uint256",
          "name": "raiseTarget_",
          "type": "uint256"
        },
        {
          "internalType": "address",
          "name": "creator_",
          "type": "address"
        },
        {
          "internalType": "uint256",
          "name": "maxSupply_",
          "type": "uint256"
        },
        {
          "internalType": "address",
          "name": "platformFeeRecipient_",
          "type": "address"
        }
      ],
      "stateMutability": "nonpayable",
      "type": "constructor"
    },
    {
      "inputs": [
        {
          "internalType": "address",
          "name": "spender",
          "type": "address"
        },
        {
          "internalType": "uint256",
          "name": "allowance",
          "type": "uint256"
        },
        {
          "internalType": "uint256",
          "name": "needed",
          "type": "uint256"
        }
      ],
      "name": "ERC20InsufficientAllowance",
      "type": "error"
    },
    {
      "inputs": [
        {
          "internalType": "address",
          "name": "sender",
          "type": "address"
        },
        {
          "internalType": "uint256",
          "name": "balance",
          "type": "uint256"
        },
        {
          "internalType": "uint256",
          "name": "needed",
          "type": "uint256"
        }
      ],
      "name": "ERC20InsufficientBalance",
      "type": "error"
    },
    {
      "inputs": [
        {
          "internalType": "address",
          "name": "approver",
          "type": "address"
        }
      ],
      "name": "ERC20InvalidApprover",
      "type": "error"
    },
    {
      "inputs": [
        {
          "internalType": "address",
          "name": "receiver",
          "type": "address"
        }
      ],
      "name": "ERC20InvalidReceiver",
      "type": "error"
    },
    {
      "inputs": [
        {
          "internalType": "address",
          "name": "sender",
          "type": "address"
        }
      ],
      "name": "ERC20InvalidSender",
      "type": "error"
    },
    {
      "inputs": [
        {
          "internalType": "address",
          "name": "spender",
          "type": "address"
        }
      ],
      "name": "ERC20InvalidSpender",
      "type": "error"
    },
    {
      "inputs": [
        {
          "internalType": "address",
          "name": "owner",
          "type": "address"
        }
      ],
      "name": "OwnableInvalidOwner",
      "type": "error"
    },
    {
      "inputs": [
        {
          "internalType": "address",
          "name": "account",
          "type": "address"
        }
      ],
      "name": "OwnableUnauthorizedAccount",
      "type": "error"
    },
    {
      "anonymous": false,
      "inputs": [
        {
          "indexed": true,
          "internalType": "address",
          "name": "owner",
          "type": "address"
        },
        {
          "indexed": true,
          "internalType": "address",
          "name": "spender",
          "type": "address"
        },
        {
          "indexed": false,
          "internalType": "uint256",
          "name": "value",
          "type": "uint256"
        }
      ],
      "name": "Approval",
      "type": "event"
    },
    {
      "anonymous": false,
      "inputs": [
        {
          "indexed": false,
          "internalType": "address",
          "name": "recipient",
          "type": "address"
        },
        {
          "indexed": false,
          "internalType": "uint256",
          "name": "amount",
          "type": "uint256"
        }
      ],
      "name": "FeeAttempt",
      "type": "event"
    },
    {
      "anonymous": false,
      "inputs": [
        {
          "indexed": true,
          "internalType": "address",
          "name": "previousOwner",
          "type": "address"
        },
        {
          "indexed": true,
          "internalType": "address",
          "name": "newOwner",
          "type": "address"
        }
      ],
      "name": "OwnershipTransferred",
      "type": "event"
    },
    {
      "anonymous": false,
      "inputs": [
        {
          "indexed": true,
          "internalType": "address",
          "name": "from",
          "type": "address"
        },
        {
          "indexed": true,
          "internalType": "address",
          "name": "to",
          "type": "address"
        },
        {
          "indexed": false,
          "internalType": "uint256",
          "name": "value",
          "type": "uint256"
        }
      ],
      "name": "Transfer",
      "type": "event"
    },
    {
      "inputs": [],
      "name": "LP_AND_AIRDROP_PERCENT",
      "outputs": [
        {
          "internalType": "uint256",
          "name": "",
          "type": "uint256"
        }
      ],
      "stateMutability": "view",
      "type": "function"
    },
    {
      "inputs": [
        {
          "internalType": "address",
          "name": "",
          "type": "address"
        }
      ],
      "name": "airdropAllocations",
      "outputs": [
        {
          "internalType": "uint256",
          "name": "",
          "type": "uint256"
        }
      ],
      "stateMutability": "view",
      "type": "function"
    },
    {
      "inputs": [
        {
          "internalType": "address",
          "name": "",
          "type": "address"
        }
      ],
      "name": "airdropClaimed",
      "outputs": [
        {
          "internalType": "bool",
          "name": "",
          "type": "bool"
        }
      ],
      "stateMutability": "view",
      "type": "function"
    },
    {
      "inputs": [
        {
          "internalType": "address",
          "name": "owner",
          "type": "address"
        },
        {
          "internalType": "address",
          "name": "spender",
          "type": "address"
        }
      ],
      "name": "allowance",
      "outputs": [
        {
          "internalType": "uint256",
          "name": "",
          "type": "uint256"
        }
      ],
      "stateMutability": "view",
      "type": "function"
    },
    {
      "inputs": [
        {
          "internalType": "address",
          "name": "spender",
          "type": "address"
        },
        {
          "internalType": "uint256",
          "name": "value",
          "type": "uint256"
        }
      ],
      "name": "approve",
      "outputs": [
        {
          "internalType": "bool",
          "name": "",
          "type": "bool"
        }
      ],
      "stateMutability": "nonpayable",
      "type": "function"
    },
    {
      "inputs": [
        {
          "internalType": "address",
          "name": "account",
          "type": "address"
        }
      ],
      "name": "balanceOf",
      "outputs": [
        {
          "internalType": "uint256",
          "name": "",
          "type": "uint256"
        }
      ],
      "stateMutability": "view",
      "type": "function"
    },
    {
      "inputs": [],
      "name": "basePrice",
      "outputs": [
        {
          "internalType": "uint256",
          "name": "",
          "type": "uint256"
        }
      ],
      "stateMutability": "view",
      "type": "function"
    },
    {
      "inputs": [
        {
          "internalType": "uint256",
          "name": "amount",
          "type": "uint256"
        }
      ],
      "name": "buy",
      "outputs": [],
      "stateMutability": "payable",
      "type": "function"
    },
    {
      "inputs": [],
      "name": "claimAirdrop",
      "outputs": [],
      "stateMutability": "nonpayable",
      "type": "function"
    },
    {
      "inputs": [],
      "name": "creator",
      "outputs": [
        {
          "internalType": "address",
          "name": "",
          "type": "address"
        }
      ],
      "stateMutability": "view",
      "type": "function"
    },
    {
      "inputs": [
        {
          "internalType": "uint256",
          "name": "amount",
          "type": "uint256"
        }
      ],
      "name": "creatorBuy",
      "outputs": [],
      "stateMutability": "payable",
      "type": "function"
    },
    {
      "inputs": [],
      "name": "creatorLockAmount",
      "outputs": [
        {
          "internalType": "uint256",
          "name": "",
          "type": "uint256"
        }
      ],
      "stateMutability": "view",
      "type": "function"
    },
    {
      "inputs": [],
      "name": "decimals",
      "outputs": [
        {
          "internalType": "uint8",
          "name": "",
          "type": "uint8"
        }
      ],
      "stateMutability": "view",
      "type": "function"
    },
    {
      "inputs": [],
      "name": "getCurrentPrice",
      "outputs": [
        {
          "internalType": "uint256",
          "name": "",
          "type": "uint256"
        }
      ],
      "stateMutability": "view",
      "type": "function"
    },
    {
      "inputs": [
        {
          "internalType": "uint256",
          "name": "amount",
          "type": "uint256"
        }
      ],
      "name": "getPrice",
      "outputs": [
        {
          "internalType": "uint256",
          "name": "",
          "type": "uint256"
        }
      ],
      "stateMutability": "view",
      "type": "function"
    },
    {
      "inputs": [],
      "name": "graduate",
      "outputs": [],
      "stateMutability": "nonpayable",
      "type": "function"
    },
    {
      "inputs": [],
      "name": "graduated",
      "outputs": [
        {
          "internalType": "bool",
          "name": "",
          "type": "bool"
        }
      ],
      "stateMutability": "view",
      "type": "function"
    },
    {
      "inputs": [
        {
          "internalType": "address",
          "name": "",
          "type": "address"
        }
      ],
      "name": "lockedBalances",
      "outputs": [
        {
          "internalType": "uint256",
          "name": "",
          "type": "uint256"
        }
      ],
      "stateMutability": "view",
      "type": "function"
    },
    {
      "inputs": [],
      "name": "maxSupply",
      "outputs": [
        {
          "internalType": "uint256",
          "name": "",
          "type": "uint256"
        }
      ],
      "stateMutability": "view",
      "type": "function"
    },
    {
      "inputs": [],
      "name": "maxSupplyForSale",
      "outputs": [
        {
          "internalType": "uint256",
          "name": "",
          "type": "uint256"
        }
      ],
      "stateMutability": "view",
      "type": "function"
    },
    {
      "inputs": [],
      "name": "name",
      "outputs": [
        {
          "internalType": "string",
          "name": "",
          "type": "string"
        }
      ],
      "stateMutability": "view",
      "type": "function"
    },
    {
      "inputs": [],
      "name": "owner",
      "outputs": [
        {
          "internalType": "address",
          "name": "",
          "type": "address"
        }
      ],
      "stateMutability": "view",
      "type": "function"
    },
    {
      "inputs": [],
      "name": "platformFeeRecipient",
      "outputs": [
        {
          "internalType": "address",
          "name": "",
          "type": "address"
        }
      ],
      "stateMutability": "view",
      "type": "function"
    },
    {
      "inputs": [],
      "name": "raiseTarget",
      "outputs": [
        {
          "internalType": "uint256",
          "name": "",
          "type": "uint256"
        }
      ],
      "stateMutability": "view",
      "type": "function"
    },
    {
      "inputs": [],
      "name": "renounceOwnership",
      "outputs": [],
      "stateMutability": "nonpayable",
      "type": "function"
    },
    {
      "inputs": [],
      "name": "reservedForAirdrop",
      "outputs": [
        {
          "internalType": "uint256",
          "name": "",
          "type": "uint256"
        }
      ],
      "stateMutability": "view",
      "type": "function"
    },
    {
      "inputs": [
        {
          "internalType": "address[]",
          "name": "recipients",
          "type": "address[]"
        },
        {
          "internalType": "uint256[]",
          "name": "amounts",
          "type": "uint256[]"
        }
      ],
      "name": "setAirdropAllocations",
      "outputs": [],
      "stateMutability": "nonpayable",
      "type": "function"
    },
    {
      "inputs": [],
      "name": "slope",
      "outputs": [
        {
          "internalType": "uint256",
          "name": "",
          "type": "uint256"
        }
      ],
      "stateMutability": "view",
      "type": "function"
    },
    {
      "inputs": [],
      "name": "symbol",
      "outputs": [
        {
          "internalType": "string",
          "name": "",
          "type": "string"
        }
      ],
      "stateMutability": "view",
      "type": "function"
    },
    {
      "inputs": [],
      "name": "tokenInfo",
      "outputs": [
        {
          "internalType": "address",
          "name": "_creator",
          "type": "address"
        },
        {
          "internalType": "address",
          "name": "_platformFeeRecipient",
          "type": "address"
        },
        {
          "internalType": "uint256",
          "name": "_raiseTarget",
          "type": "uint256"
        },
        {
          "internalType": "uint256",
          "name": "_maxSupply",
          "type": "uint256"
        },
        {
          "internalType": "uint256",
          "name": "_basePrice",
          "type": "uint256"
        },
        {
          "internalType": "uint256",
          "name": "_slope",
          "type": "uint256"
        },
        {
          "internalType": "uint256",
          "name": "_totalRaised",
          "type": "uint256"
        },
        {
          "internalType": "bool",
          "name": "_graduated",
          "type": "bool"
        },
        {
          "internalType": "uint256",
          "name": "_creatorLockAmount",
          "type": "uint256"
        }
      ],
      "stateMutability": "view",
      "type": "function"
    },
    {
      "inputs": [],
      "name": "totalRaised",
      "outputs": [
        {
          "internalType": "uint256",
          "name": "",
          "type": "uint256"
        }
      ],
      "stateMutability": "view",
      "type": "function"
    },
    {
      "inputs": [],
      "name": "totalSupply",
      "outputs": [
        {
          "internalType": "uint256",
          "name": "",
          "type": "uint256"
        }
      ],
      "stateMutability": "view",
      "type": "function"
    },
    {
      "inputs": [
        {
          "internalType": "address",
          "name": "to",
          "type": "address"
        },
        {
          "internalType": "uint256",
          "name": "value",
          "type": "uint256"
        }
      ],
      "name": "transfer",
      "outputs": [
        {
          "internalType": "bool",
          "name": "",
          "type": "bool"
        }
      ],
      "stateMutability": "nonpayable",
      "type": "function"
    },
    {
      "inputs": [
        {
          "internalType": "address",
          "name": "from",
          "type": "address"
        },
        {
          "internalType": "address",
          "name": "to",
          "type": "address"
        },
        {
          "internalType": "uint256",
          "name": "value",
          "type": "uint256"
        }
      ],
      "name": "transferFrom",
      "outputs": [
        {
          "internalType": "bool",
          "name": "",
          "type": "bool"
        }
      ],
      "stateMutability": "nonpayable",
      "type": "function"
    },
    {
      "inputs": [
        {
          "internalType": "address",
          "name": "newOwner",
          "type": "address"
        }
      ],
      "name": "transferOwnership",
      "outputs": [],
      "stateMutability": "nonpayable",
      "type": "function"
    },
    {
      "inputs": [],
      "name": "unlockCreatorTokens",
      "outputs": [],
      "stateMutability": "nonpayable",
      "type": "function"
    },
    {
      "inputs": [],
      "name": "withdraw",
      "outputs": [],
      "stateMutability": "nonpayable",
      "type": "function"
    },
    {
      "stateMutability": "payable",
      "type": "receive"
    }
  ],
  "bytecode": "0x60a060405234801561001057600080fd5b5060405161405f38038061405f833981810160405281019061003291906104ae565b8286868160039081610044919061078a565b508060049081610054919061078a565b505050600073ffffffffffffffffffffffffffffffffffffffff168173ffffffffffffffffffffffffffffffffffffffff16036100c95760006040517f1e4fbdf70000000000000000000000000000000000000000000000000000000081526004016100c0919061086b565b60405180910390fd5b6100d8816101df60201b60201c565b508360068190555082600860006101000a81548173ffffffffffffffffffffffffffffffffffffffff021916908373ffffffffffffffffffffffffffffffffffffffff160217905550816080818152505080600760006101000a81548173ffffffffffffffffffffffffffffffffffffffff021916908373ffffffffffffffffffffffffffffffffffffffff160217905550600060648361017991906108e4565b90506002816101889190610915565b670de0b6b3a76400008661019c9190610915565b6101a691906108e4565b600f8190555080670de0b6b3a7640000600f546101c39190610915565b6101cd91906108e4565b60108190555050505050505050610957565b6000600560009054906101000a900473ffffffffffffffffffffffffffffffffffffffff16905081600560006101000a81548173ffffffffffffffffffffffffffffffffffffffff021916908373ffffffffffffffffffffffffffffffffffffffff1602179055508173ffffffffffffffffffffffffffffffffffffffff168173ffffffffffffffffffffffffffffffffffffffff167f8be0079c531659141344cd1fd0a4f28419497f9722a3daafe3b4186f6b6457e060405160405180910390a35050565b6000604051905090565b600080fd5b600080fd5b600080fd5b600080fd5b6000601f19601f8301169050919050565b7f4e487b7100000000000000000000000000000000000000000000000000000000600052604160045260246000fd5b61030c826102c3565b810181811067ffffffffffffffff8211171561032b5761032a6102d4565b5b80604052505050565b600061033e6102a5565b905061034a8282610303565b919050565b600067ffffffffffffffff82111561036a576103696102d4565b5b610373826102c3565b9050602081019050919050565b60005b8381101561039e578082015181840152602081019050610383565b60008484015250505050565b60006103bd6103b88461034f565b610334565b9050828152602081018484840111156103d9576103d86102be565b5b6103e4848285610380565b509392505050565b600082601f830112610401576104006102b9565b5b81516104118482602086016103aa565b91505092915050565b6000819050919050565b61042d8161041a565b811461043857600080fd5b50565b60008151905061044a81610424565b92915050565b600073ffffffffffffffffffffffffffffffffffffffff82169050919050565b600061047b82610450565b9050919050565b61048b81610470565b811461049657600080fd5b50565b6000815190506104a881610482565b92915050565b60008060008060008060c087890312156104cb576104ca6102af565b5b600087015167ffffffffffffffff8111156104e9576104e86102b4565b5b6104f589828a016103ec565b965050602087015167ffffffffffffffff811115610516576105156102b4565b5b61052289828a016103ec565b955050604061053389828a0161043b565b945050606061054489828a01610499565b935050608061055589828a0161043b565b92505060a061056689828a01610499565b9150509295509295509295565b600081519050919050565b7f4e487b7100000000000000000000000000000000000000000000000000000000600052602260045260246000fd5b600060028204905060018216806105c557607f821691505b6020821081036105d8576105d761057e565b5b50919050565b60008190508160005260206000209050919050565b60006020601f8301049050919050565b600082821b905092915050565b6000600883026106407fffffffffffffffffffffffffffffffffffffffffffffffffffffffffffffffff82610603565b61064a8683610603565b95508019841693508086168417925050509392505050565b6000819050919050565b600061068761068261067d8461041a565b610662565b61041a565b9050919050565b6000819050919050565b6106a18361066c565b6106b56106ad8261068e565b848454610610565b825550505050565b600090565b6106ca6106bd565b6106d5818484610698565b505050565b5b818110156106f9576106ee6000826106c2565b6001810190506106db565b5050565b601f82111561073e5761070f816105de565b610718846105f3565b81016020851015610727578190505b61073b610733856105f3565b8301826106da565b50505b505050565b600082821c905092915050565b600061076160001984600802610743565b1980831691505092915050565b600061077a8383610750565b9150826002028217905092915050565b61079382610573565b67ffffffffffffffff8111156107ac576107ab6102d4565b5b6107b682546105ad565b6107c18282856106fd565b600060209050601f8311600181146107f457600084156107e2578287015190505b6107ec858261076e565b865550610854565b601f198416610802866105de565b60005b8281101561082a57848901518255600182019150602085019450602081019050610805565b868310156108475784890151610843601f891682610750565b8355505b6001600288020188555050505b505050505050565b61086581610470565b82525050565b6000602082019050610880600083018461085c565b92915050565b7f4e487b7100000000000000000000000000000000000000000000000000000000600052601260045260246000fd5b7f4e487b7100000000000000000000000000000000000000000000000000000000600052601160045260246000fd5b60006108ef8261041a565b91506108fa8361041a565b92508261090a57610909610886565b5b828204905092915050565b60006109208261041a565b915061092b8361041a565b92508282026109398161041a565b915082820484148315176109505761094f6108b5565b5b5092915050565b6080516136d861098760003960008181610e6c015281816117090152818161188c0152611c1b01526136d86000f3fe60806040526004361061021e5760003560e01c8063b34ffc5f11610123578063d96a094a116100ab578063eb13554f1161006f578063eb13554f146107b2578063eb91d37e146107dd578063f2fde38b14610808578063f4227e9514610831578063fc6fec4c1461085c57610225565b8063d96a094a146106c6578063dd62ed3e146106e2578063e388010d1461071f578063e75722301461074a578063e7c2b7721461078757610225565b8063c7876ea4116100f2578063c7876ea4146105df578063cdbbf1861461060a578063d1b6dd3014610647578063d3618cca14610684578063d5abeb011461069b57610225565b8063b34ffc5f14610556578063b4105e0614610572578063be8755a914610589578063c5c4744c146105b457610225565b80635b88349d116101a657806383caf2751161017557806383caf2751461046d57806385131976146104985780638da5cb5b146104c357806395d89b41146104ee578063a9059cbb1461051957610225565b80635b88349d146103cf5780636addb663146103e657806370a0823114610419578063715018a61461045657610225565b806318160ddd116101ed57806318160ddd146102fa57806323b872dd1461032557806324d4de7014610362578063313ce5671461038d5780633ccfd60b146103b857610225565b806302d05d3f1461022a5780630483a7f61461025557806306fdde0314610292578063095ea7b3146102bd57610225565b3661022557005b600080fd5b34801561023657600080fd5b5061023f610885565b60405161024c91906127d6565b60405180910390f35b34801561026157600080fd5b5061027c60048036038101906102779190612827565b6108ab565b604051610289919061286d565b60405180910390f35b34801561029e57600080fd5b506102a76108c3565b6040516102b49190612918565b60405180910390f35b3480156102c957600080fd5b506102e460048036038101906102df9190612966565b610955565b6040516102f191906129c1565b60405180910390f35b34801561030657600080fd5b5061030f610978565b60405161031c919061286d565b60405180910390f35b34801561033157600080fd5b5061034c600480360381019061034791906129dc565b610982565b60405161035991906129c1565b60405180910390f35b34801561036e57600080fd5b506103776109b1565b604051610384919061286d565b60405180910390f35b34801561039957600080fd5b506103a26109b6565b6040516103af9190612a4b565b60405180910390f35b3480156103c457600080fd5b506103cd6109bf565b005b3480156103db57600080fd5b506103e4610c4b565b005b3480156103f257600080fd5b506103fb610e13565b60405161041099989796959493929190612a66565b60405180910390f35b34801561042557600080fd5b50610440600480360381019061043b9190612827565b610ec4565b60405161044d919061286d565b60405180910390f35b34801561046257600080fd5b5061046b610f0c565b005b34801561047957600080fd5b50610482610f20565b60405161048f919061286d565b60405180910390f35b3480156104a457600080fd5b506104ad610f26565b6040516104ba919061286d565b60405180910390f35b3480156104cf57600080fd5b506104d8610f2c565b6040516104e591906127d6565b60405180910390f35b3480156104fa57600080fd5b50610503610f56565b6040516105109190612918565b60405180910390f35b34801561052557600080fd5b50610540600480360381019061053b9190612966565b610fe8565b60405161054d91906129c1565b60405180910390f35b610570600480360381019061056b9190612af3565b61100b565b005b34801561057e57600080fd5b50610587611481565b005b34801561059557600080fd5b5061059e611701565b6040516105ab919061286d565b60405180910390f35b3480156105c057600080fd5b506105c9611741565b6040516105d6919061286d565b60405180910390f35b3480156105eb57600080fd5b506105f4611747565b604051610601919061286d565b60405180910390f35b34801561061657600080fd5b50610631600480360381019061062c9190612827565b61174d565b60405161063e919061286d565b60405180910390f35b34801561065357600080fd5b5061066e60048036038101906106699190612827565b611765565b60405161067b91906129c1565b60405180910390f35b34801561069057600080fd5b50610699611785565b005b3480156106a757600080fd5b506106b061188a565b6040516106bd919061286d565b60405180910390f35b6106e060048036038101906106db9190612af3565b6118ae565b005b3480156106ee57600080fd5b5061070960048036038101906107049190612b20565b611b80565b604051610716919061286d565b60405180910390f35b34801561072b57600080fd5b50610734611c07565b604051610741919061286d565b60405180910390f35b34801561075657600080fd5b50610771600480360381019061076c9190612af3565b611c53565b60405161077e919061286d565b60405180910390f35b34801561079357600080fd5b5061079c611ce5565b6040516107a991906129c1565b60405180910390f35b3480156107be57600080fd5b506107c7611cf8565b6040516107d491906127d6565b60405180910390f35b3480156107e957600080fd5b506107f2611d1e565b6040516107ff919061286d565b60405180910390f35b34801561081457600080fd5b5061082f600480360381019061082a9190612827565b611d5a565b005b34801561083d57600080fd5b50610846611de0565b604051610853919061286d565b60405180910390f35b34801561086857600080fd5b50610883600480360381019061087e9190612c1b565b611de6565b005b600860009054906101000a900473ffffffffffffffffffffffffffffffffffffffff1681565b600c6020528060005260406000206000915090505481565b6060600380546108d290612ccb565b80601f01602080910402602001604051908101604052809291908181526020018280546108fe90612ccb565b801561094b5780601f106109205761010080835404028352916020019161094b565b820191906000526020600020905b81548152906001019060200180831161092e57829003601f168201915b5050505050905090565b600080610960612027565b905061096d81858561202f565b600191505092915050565b6000600254905090565b60008061098d612027565b905061099a858285612041565b6109a58585856120d6565b60019150509392505050565b601481565b60006012905090565b600860009054906101000a900473ffffffffffffffffffffffffffffffffffffffff1673ffffffffffffffffffffffffffffffffffffffff163373ffffffffffffffffffffffffffffffffffffffff1614610a4f576040517f08c379a0000000000000000000000000000000000000000000000000000000008152600401610a4690612d48565b60405180910390fd5b60004711610a92576040517f08c379a0000000000000000000000000000000000000000000000000000000008152600401610a8990612db4565b60405180910390fd5b600a60009054906101000a900460ff16610ae1576040517f08c379a0000000000000000000000000000000000000000000000000000000008152600401610ad890612e20565b60405180910390fd5b600061271060c847610af39190612e6f565b610afd9190612ee0565b905060008147610b0d9190612f11565b90506000600760009054906101000a900473ffffffffffffffffffffffffffffffffffffffff1673ffffffffffffffffffffffffffffffffffffffff1683604051610b5790612f76565b60006040518083038185875af1925050503d8060008114610b94576040519150601f19603f3d011682016040523d82523d6000602084013e610b99565b606091505b5050905080610bdd576040517f08c379a0000000000000000000000000000000000000000000000000000000008152600401610bd490612fd7565b60405180910390fd5b600860009054906101000a900473ffffffffffffffffffffffffffffffffffffffff1673ffffffffffffffffffffffffffffffffffffffff166108fc839081150290604051600060405180830381858888f19350505050158015610c45573d6000803e3d6000fd5b50505050565b600a60009054906101000a900460ff16610c9a576040517f08c379a0000000000000000000000000000000000000000000000000000000008152600401610c9190613043565b60405180910390fd5b600e60003373ffffffffffffffffffffffffffffffffffffffff1673ffffffffffffffffffffffffffffffffffffffff16815260200190815260200160002060009054906101000a900460ff1615610d27576040517f08c379a0000000000000000000000000000000000000000000000000000000008152600401610d1e906130af565b60405180910390fd5b6000600d60003373ffffffffffffffffffffffffffffffffffffffff1673ffffffffffffffffffffffffffffffffffffffff16815260200190815260200160002054905060008111610dae576040517f08c379a0000000000000000000000000000000000000000000000000000000008152600401610da59061311b565b60405180910390fd5b6001600e60003373ffffffffffffffffffffffffffffffffffffffff1673ffffffffffffffffffffffffffffffffffffffff16815260200190815260200160002060006101000a81548160ff021916908315150217905550610e1033826121ca565b50565b6000806000806000806000806000600860009054906101000a900473ffffffffffffffffffffffffffffffffffffffff16600760009054906101000a900473ffffffffffffffffffffffffffffffffffffffff166006547f0000000000000000000000000000000000000000000000000000000000000000600f54601054600954600a60009054906101000a900460ff16600b54985098509850985098509850985098509850909192939495969798565b60008060008373ffffffffffffffffffffffffffffffffffffffff1673ffffffffffffffffffffffffffffffffffffffff168152602001908152602001600020549050919050565b610f1461224c565b610f1e60006122d3565b565b60105481565b60065481565b6000600560009054906101000a900473ffffffffffffffffffffffffffffffffffffffff16905090565b606060048054610f6590612ccb565b80601f0160208091040260200160405190810160405280929190818152602001828054610f9190612ccb565b8015610fde5780601f10610fb357610100808354040283529160200191610fde565b820191906000526020600020905b815481529060010190602001808311610fc157829003601f168201915b5050505050905090565b600080610ff3612027565b90506110008185856120d6565b600191505092915050565b600860009054906101000a900473ffffffffffffffffffffffffffffffffffffffff1673ffffffffffffffffffffffffffffffffffffffff163373ffffffffffffffffffffffffffffffffffffffff161461109b576040517f08c379a000000000000000000000000000000000000000000000000000000000815260040161109290612d48565b60405180910390fd5b600a60009054906101000a900460ff16156110eb576040517f08c379a00000000000000000000000000000000000000000000000000000000081526004016110e290613187565b60405180910390fd5b60006110f682611c53565b90508034101561113b576040517f08c379a0000000000000000000000000000000000000000000000000000000008152600401611132906131f3565b60405180910390fd5b611143611c07565b8261114c610978565b6111569190613213565b1115611197576040517f08c379a000000000000000000000000000000000000000000000000000000000815260040161118e90613293565b60405180910390fd5b61119f611701565b82600c6000600860009054906101000a900473ffffffffffffffffffffffffffffffffffffffff1673ffffffffffffffffffffffffffffffffffffffff1673ffffffffffffffffffffffffffffffffffffffff1681526020019081526020016000205461120c9190613213565b111561124d576040517f08c379a0000000000000000000000000000000000000000000000000000000008152600401611244906132ff565b60405180910390fd5b600061271060648361125f9190612e6f565b6112699190612ee0565b905080826112779190612f11565b600960008282546112889190613213565b9250508190555061129930846121ca565b82600c6000600860009054906101000a900473ffffffffffffffffffffffffffffffffffffffff1673ffffffffffffffffffffffffffffffffffffffff1673ffffffffffffffffffffffffffffffffffffffff168152602001908152602001600020600082825461130a9190613213565b9250508190555082600b60008282546113239190613213565b925050819055507f77c4ff2d3de977cf4bd36aa220db7839bc74bdd1c7a1c3d47bbb34ba89d16a61600760009054906101000a900473ffffffffffffffffffffffffffffffffffffffff168260405161137d92919061331f565b60405180910390a16000600760009054906101000a900473ffffffffffffffffffffffffffffffffffffffff1673ffffffffffffffffffffffffffffffffffffffff166108fc839081150290604051600060405180830381858888f19350505050905080611420576040517f08c379a000000000000000000000000000000000000000000000000000000000815260040161141790613394565b60405180910390fd5b8234111561147b573373ffffffffffffffffffffffffffffffffffffffff166108fc843461144e9190612f11565b9081150290604051600060405180830381858888f19350505050158015611479573d6000803e3d6000fd5b505b50505050565b600860009054906101000a900473ffffffffffffffffffffffffffffffffffffffff1673ffffffffffffffffffffffffffffffffffffffff163373ffffffffffffffffffffffffffffffffffffffff1614611511576040517f08c379a000000000000000000000000000000000000000000000000000000000815260040161150890612d48565b60405180910390fd5b600a60009054906101000a900460ff16611560576040517f08c379a000000000000000000000000000000000000000000000000000000000815260040161155790612e20565b60405180910390fd5b6000600c6000600860009054906101000a900473ffffffffffffffffffffffffffffffffffffffff1673ffffffffffffffffffffffffffffffffffffffff1673ffffffffffffffffffffffffffffffffffffffff1681526020019081526020016000205411611604576040517f08c379a00000000000000000000000000000000000000000000000000000000081526004016115fb90613400565b60405180910390fd5b6000600c6000600860009054906101000a900473ffffffffffffffffffffffffffffffffffffffff1673ffffffffffffffffffffffffffffffffffffffff1673ffffffffffffffffffffffffffffffffffffffff1681526020019081526020016000205490506000600c6000600860009054906101000a900473ffffffffffffffffffffffffffffffffffffffff1673ffffffffffffffffffffffffffffffffffffffff1673ffffffffffffffffffffffffffffffffffffffff168152602001908152602001600020819055506116fe30600860009054906101000a900473ffffffffffffffffffffffffffffffffffffffff16836120d6565b50565b6000606460147f00000000000000000000000000000000000000000000000000000000000000006117329190612e6f565b61173c9190612ee0565b905090565b60095481565b600f5481565b600d6020528060005260406000206000915090505481565b600e6020528060005260406000206000915054906101000a900460ff1681565b600a60009054906101000a900460ff16156117d5576040517f08c379a00000000000000000000000000000000000000000000000000000000081526004016117cc90613187565b60405180910390fd5b600654600954101561181c576040517f08c379a00000000000000000000000000000000000000000000000000000000081526004016118139061346c565b60405180910390fd5b611824611c07565b61182c610978565b111561186d576040517f08c379a0000000000000000000000000000000000000000000000000000000008152600401611864906134d8565b60405180910390fd5b6001600a60006101000a81548160ff021916908315150217905550565b7f000000000000000000000000000000000000000000000000000000000000000081565b600a60009054906101000a900460ff16156118fe576040517f08c379a00000000000000000000000000000000000000000000000000000000081526004016118f590613187565b60405180910390fd5b600061190982611c53565b90508034101561194e576040517f08c379a0000000000000000000000000000000000000000000000000000000008152600401611945906131f3565b60405180910390fd5b611956611c07565b8261195f610978565b6119699190613213565b11156119aa576040517f08c379a00000000000000000000000000000000000000000000000000000000081526004016119a190613293565b60405180910390fd5b60006127106064836119bc9190612e6f565b6119c69190612ee0565b905080826119d49190612f11565b600960008282546119e59190613213565b925050819055506119f633846121ca565b7f77c4ff2d3de977cf4bd36aa220db7839bc74bdd1c7a1c3d47bbb34ba89d16a61600760009054906101000a900473ffffffffffffffffffffffffffffffffffffffff1682604051611a4992919061331f565b60405180910390a16000600760009054906101000a900473ffffffffffffffffffffffffffffffffffffffff1673ffffffffffffffffffffffffffffffffffffffff1682604051611a9990612f76565b60006040518083038185875af1925050503d8060008114611ad6576040519150601f19603f3d011682016040523d82523d6000602084013e611adb565b606091505b5050905080611b1f576040517f08c379a0000000000000000000000000000000000000000000000000000000008152600401611b1690613544565b60405180910390fd5b82341115611b7a573373ffffffffffffffffffffffffffffffffffffffff166108fc8434611b4d9190612f11565b9081150290604051600060405180830381858888f19350505050158015611b78573d6000803e3d6000fd5b505b50505050565b6000600160008473ffffffffffffffffffffffffffffffffffffffff1673ffffffffffffffffffffffffffffffffffffffff16815260200190815260200160002060008373ffffffffffffffffffffffffffffffffffffffff1673ffffffffffffffffffffffffffffffffffffffff16815260200190815260200160002054905092915050565b6000606460146064611c199190612f11565b7f0000000000000000000000000000000000000000000000000000000000000000611c449190612e6f565b611c4e9190612ee0565b905090565b600080611c5e610978565b90506000600f5484611c709190612e6f565b905060008285611c809190612e6f565b905060006002600187611c939190612f11565b87611c9e9190612e6f565b611ca89190612ee0565b905060008183611cb89190613213565b601054611cc59190612e6f565b905060008185611cd59190613213565b9050809650505050505050919050565b600a60009054906101000a900460ff1681565b600760009054906101000a900473ffffffffffffffffffffffffffffffffffffffff1681565b6000670de0b6b3a7640000611d31610978565b601054611d3e9190612e6f565b611d489190612ee0565b600f54611d559190613213565b905090565b611d6261224c565b600073ffffffffffffffffffffffffffffffffffffffff168173ffffffffffffffffffffffffffffffffffffffff1603611dd45760006040517f1e4fbdf7000000000000000000000000000000000000000000000000000000008152600401611dcb91906127d6565b60405180910390fd5b611ddd816122d3565b50565b600b5481565b600860009054906101000a900473ffffffffffffffffffffffffffffffffffffffff1673ffffffffffffffffffffffffffffffffffffffff163373ffffffffffffffffffffffffffffffffffffffff1614611e76576040517f08c379a0000000000000000000000000000000000000000000000000000000008152600401611e6d90612d48565b60405180910390fd5b600a60009054906101000a900460ff1615611ec6576040517f08c379a0000000000000000000000000000000000000000000000000000000008152600401611ebd90613187565b60405180910390fd5b818190508484905014611f0e576040517f08c379a0000000000000000000000000000000000000000000000000000000008152600401611f05906135b0565b60405180910390fd5b6000805b85859050811015611fd557838382818110611f3057611f2f6135d0565b5b90506020020135600d6000888885818110611f4e57611f4d6135d0565b5b9050602002016020810190611f639190612827565b73ffffffffffffffffffffffffffffffffffffffff1673ffffffffffffffffffffffffffffffffffffffff16815260200190815260200160002081905550838382818110611fb457611fb36135d0565b5b9050602002013582611fc69190613213565b91508080600101915050611f12565b50611fde611701565b811115612020576040517f08c379a00000000000000000000000000000000000000000000000000000000081526004016120179061364b565b60405180910390fd5b5050505050565b600033905090565b61203c8383836001612399565b505050565b600061204d8484611b80565b90507fffffffffffffffffffffffffffffffffffffffffffffffffffffffffffffffff8110156120d057818110156120c0578281836040517ffb8f41b20000000000000000000000000000000000000000000000000000000081526004016120b79392919061366b565b60405180910390fd5b6120cf84848484036000612399565b5b50505050565b600073ffffffffffffffffffffffffffffffffffffffff168373ffffffffffffffffffffffffffffffffffffffff16036121485760006040517f96c6fd1e00000000000000000000000000000000000000000000000000000000815260040161213f91906127d6565b60405180910390fd5b600073ffffffffffffffffffffffffffffffffffffffff168273ffffffffffffffffffffffffffffffffffffffff16036121ba5760006040517fec442f050000000000000000000000000000000000000000000000000000000081526004016121b191906127d6565b60405180910390fd5b6121c5838383612570565b505050565b600073ffffffffffffffffffffffffffffffffffffffff168273ffffffffffffffffffffffffffffffffffffffff160361223c5760006040517fec442f0500000000000000000000000000000000000000000000000000000000815260040161223391906127d6565b60405180910390fd5b61224860008383612570565b5050565b612254612027565b73ffffffffffffffffffffffffffffffffffffffff16612272610f2c565b73ffffffffffffffffffffffffffffffffffffffff16146122d157612295612027565b6040517f118cdaa70000000000000000000000000000000000000000000000000000000081526004016122c891906127d6565b60405180910390fd5b565b6000600560009054906101000a900473ffffffffffffffffffffffffffffffffffffffff16905081600560006101000a81548173ffffffffffffffffffffffffffffffffffffffff021916908373ffffffffffffffffffffffffffffffffffffffff1602179055508173ffffffffffffffffffffffffffffffffffffffff168173ffffffffffffffffffffffffffffffffffffffff167f8be0079c531659141344cd1fd0a4f28419497f9722a3daafe3b4186f6b6457e060405160405180910390a35050565b600073ffffffffffffffffffffffffffffffffffffffff168473ffffffffffffffffffffffffffffffffffffffff160361240b5760006040517fe602df0500000000000000000000000000000000000000000000000000000000815260040161240291906127d6565b60405180910390fd5b600073ffffffffffffffffffffffffffffffffffffffff168373ffffffffffffffffffffffffffffffffffffffff160361247d5760006040517f94280d6200000000000000000000000000000000000000000000000000000000815260040161247491906127d6565b60405180910390fd5b81600160008673ffffffffffffffffffffffffffffffffffffffff1673ffffffffffffffffffffffffffffffffffffffff16815260200190815260200160002060008573ffffffffffffffffffffffffffffffffffffffff1673ffffffffffffffffffffffffffffffffffffffff16815260200190815260200160002081905550801561256a578273ffffffffffffffffffffffffffffffffffffffff168473ffffffffffffffffffffffffffffffffffffffff167f8c5be1e5ebec7d5bd14f71427d1e84f3dd0314c0f7b2291e5b200ac8c7c3b92584604051612561919061286d565b60405180910390a35b50505050565b600073ffffffffffffffffffffffffffffffffffffffff168373ffffffffffffffffffffffffffffffffffffffff16036125c25780600260008282546125b69190613213565b92505081905550612695565b60008060008573ffffffffffffffffffffffffffffffffffffffff1673ffffffffffffffffffffffffffffffffffffffff1681526020019081526020016000205490508181101561264e578381836040517fe450d38c0000000000000000000000000000000000000000000000000000000081526004016126459392919061366b565b60405180910390fd5b8181036000808673ffffffffffffffffffffffffffffffffffffffff1673ffffffffffffffffffffffffffffffffffffffff16815260200190815260200160002081905550505b600073ffffffffffffffffffffffffffffffffffffffff168273ffffffffffffffffffffffffffffffffffffffff16036126de578060026000828254039250508190555061272b565b806000808473ffffffffffffffffffffffffffffffffffffffff1673ffffffffffffffffffffffffffffffffffffffff168152602001908152602001600020600082825401925050819055505b8173ffffffffffffffffffffffffffffffffffffffff168373ffffffffffffffffffffffffffffffffffffffff167fddf252ad1be2c89b69c2b068fc378daa952ba7f163c4a11628f55a4df523b3ef83604051612788919061286d565b60405180910390a3505050565b600073ffffffffffffffffffffffffffffffffffffffff82169050919050565b60006127c082612795565b9050919050565b6127d0816127b5565b82525050565b60006020820190506127eb60008301846127c7565b92915050565b600080fd5b600080fd5b612804816127b5565b811461280f57600080fd5b50565b600081359050612821816127fb565b92915050565b60006020828403121561283d5761283c6127f1565b5b600061284b84828501612812565b91505092915050565b6000819050919050565b61286781612854565b82525050565b6000602082019050612882600083018461285e565b92915050565b600081519050919050565b600082825260208201905092915050565b60005b838110156128c25780820151818401526020810190506128a7565b60008484015250505050565b6000601f19601f8301169050919050565b60006128ea82612888565b6128f48185612893565b93506129048185602086016128a4565b61290d816128ce565b840191505092915050565b6000602082019050818103600083015261293281846128df565b905092915050565b61294381612854565b811461294e57600080fd5b50565b6000813590506129608161293a565b92915050565b6000806040838503121561297d5761297c6127f1565b5b600061298b85828601612812565b925050602061299c85828601612951565b9150509250929050565b60008115159050919050565b6129bb816129a6565b82525050565b60006020820190506129d660008301846129b2565b92915050565b6000806000606084860312156129f5576129f46127f1565b5b6000612a0386828701612812565b9350506020612a1486828701612812565b9250506040612a2586828701612951565b9150509250925092565b600060ff82169050919050565b612a4581612a2f565b82525050565b6000602082019050612a606000830184612a3c565b92915050565b600061012082019050612a7c600083018c6127c7565b612a89602083018b6127c7565b612a96604083018a61285e565b612aa3606083018961285e565b612ab0608083018861285e565b612abd60a083018761285e565b612aca60c083018661285e565b612ad760e08301856129b2565b612ae561010083018461285e565b9a9950505050505050505050565b600060208284031215612b0957612b086127f1565b5b6000612b1784828501612951565b91505092915050565b60008060408385031215612b3757612b366127f1565b5b6000612b4585828601612812565b9250506020612b5685828601612812565b9150509250929050565b600080fd5b600080fd5b600080fd5b60008083601f840112612b8557612b84612b60565b5b8235905067ffffffffffffffff811115612ba257612ba1612b65565b5b602083019150836020820283011115612bbe57612bbd612b6a565b5b9250929050565b60008083601f840112612bdb57612bda612b60565b5b8235905067ffffffffffffffff811115612bf857612bf7612b65565b5b602083019150836020820283011115612c1457612c13612b6a565b5b9250929050565b60008060008060408587031215612c3557612c346127f1565b5b600085013567ffffffffffffffff811115612c5357612c526127f6565b5b612c5f87828801612b6f565b9450945050602085013567ffffffffffffffff811115612c8257612c816127f6565b5b612c8e87828801612bc5565b925092505092959194509250565b7f4e487b7100000000000000000000000000000000000000000000000000000000600052602260045260246000fd5b60006002820490506001821680612ce357607f821691505b602082108103612cf657612cf5612c9c565b5b50919050565b7f4e6f742063726561746f72000000000000000000000000000000000000000000600082015250565b6000612d32600b83612893565b9150612d3d82612cfc565b602082019050919050565b60006020820190508181036000830152612d6181612d25565b9050919050565b7f4e6f7468696e6720746f20776974686472617700000000000000000000000000600082015250565b6000612d9e601383612893565b9150612da982612d68565b602082019050919050565b60006020820190508181036000830152612dcd81612d91565b9050919050565b7f4e6f742067726164756174656420796574000000000000000000000000000000600082015250565b6000612e0a601183612893565b9150612e1582612dd4565b602082019050919050565b60006020820190508181036000830152612e3981612dfd565b9050919050565b7f4e487b7100000000000000000000000000000000000000000000000000000000600052601160045260246000fd5b6000612e7a82612854565b9150612e8583612854565b9250828202612e9381612854565b91508282048414831517612eaa57612ea9612e40565b5b5092915050565b7f4e487b7100000000000000000000000000000000000000000000000000000000600052601260045260246000fd5b6000612eeb82612854565b9150612ef683612854565b925082612f0657612f05612eb1565b5b828204905092915050565b6000612f1c82612854565b9150612f2783612854565b9250828203905081811115612f3f57612f3e612e40565b5b92915050565b600081905092915050565b50565b6000612f60600083612f45565b9150612f6b82612f50565b600082019050919050565b6000612f8182612f53565b9150819050919050565b7f506c6174666f726d207769746864726177616c206661696c6564000000000000600082015250565b6000612fc1601a83612893565b9150612fcc82612f8b565b602082019050919050565b60006020820190508181036000830152612ff081612fb4565b9050919050565b7f4e6f742067726164756174656400000000000000000000000000000000000000600082015250565b600061302d600d83612893565b915061303882612ff7565b602082019050919050565b6000602082019050818103600083015261305c81613020565b9050919050565b7f416c726561647920636c61696d65640000000000000000000000000000000000600082015250565b6000613099600f83612893565b91506130a482613063565b602082019050919050565b600060208201905081810360008301526130c88161308c565b9050919050565b7f4e6f20616c6c6f636174696f6e00000000000000000000000000000000000000600082015250565b6000613105600d83612893565b9150613110826130cf565b602082019050919050565b60006020820190508181036000830152613134816130f8565b9050919050565b7f416c726561647920677261647561746564000000000000000000000000000000600082015250565b6000613171601183612893565b915061317c8261313b565b602082019050919050565b600060208201905081810360008301526131a081613164565b9050919050565b7f496e73756666696369656e74204554482073656e740000000000000000000000600082015250565b60006131dd601583612893565b91506131e8826131a7565b602082019050919050565b6000602082019050818103600083015261320c816131d0565b9050919050565b600061321e82612854565b915061322983612854565b925082820190508082111561324157613240612e40565b5b92915050565b7f4578636565647320617661696c61626c6520737570706c790000000000000000600082015250565b600061327d601883612893565b915061328882613247565b602082019050919050565b600060208201905081810360008301526132ac81613270565b9050919050565b7f45786365656473206c6f636b20616c6c6f636174696f6e000000000000000000600082015250565b60006132e9601783612893565b91506132f4826132b3565b602082019050919050565b60006020820190508181036000830152613318816132dc565b9050919050565b600060408201905061333460008301856127c7565b613341602083018461285e565b9392505050565b7f506c6174666f726d206665652073656e64206661696c65640000000000000000600082015250565b600061337e601883612893565b915061338982613348565b602082019050919050565b600060208201905081810360008301526133ad81613371565b9050919050565b7f4e6f206c6f636b656420746f6b656e7300000000000000000000000000000000600082015250565b60006133ea601083612893565b91506133f5826133b4565b602082019050919050565b60006020820190508181036000830152613419816133dd565b9050919050565b7f526169736520746172676574206e6f74206d6574000000000000000000000000600082015250565b6000613456601483612893565b915061346182613420565b602082019050919050565b6000602082019050818103600083015261348581613449565b9050919050565b7f4d7573742072657365727665204c502f61697264726f70000000000000000000600082015250565b60006134c2601783612893565b91506134cd8261348c565b602082019050919050565b600060208201905081810360008301526134f1816134b5565b9050919050565b7f506c6174666f726d20666565207472616e73666572206661696c656400000000600082015250565b600061352e601c83612893565b9150613539826134f8565b602082019050919050565b6000602082019050818103600083015261355d81613521565b9050919050565b7f4c656e677468206d69736d617463680000000000000000000000000000000000600082015250565b600061359a600f83612893565b91506135a582613564565b602082019050919050565b600060208201905081810360008301526135c98161358d565b9050919050565b7f4e487b7100000000000000000000000000000000000000000000000000000000600052603260045260246000fd5b7f457863656564732061697264726f702072657365727665000000000000000000600082015250565b6000613635601783612893565b9150613640826135ff565b602082019050919050565b6000602082019050818103600083015261366481613628565b9050919050565b600060608201905061368060008301866127c7565b61368d602083018561285e565b61369a604083018461285e565b94935050505056fea2646970667358221220f7146c01e074288fb20ff5fd2ba9114cba9bbca5fe572b381788c7a40210e3cf64736f6c634300081c0033",
  "linkReferences": {},
  "deployedLinkReferences": {}
}