{
  "_format": "hh-sol-artifact-1",
  "contractName": "TurboToken",
  "sourceName": "contracts/TurboToken.sol",
  "abi": [
    {
      "inputs": [
        {
          "internalType": "string",
          "name": "name_",
          "type": "string"
        },
        {
          "internalType": "string",
          "name": "symbol_",
          "type": "string"
        },
        {
          "internalType": "uint256",
          "name": "raiseTarget_",
          "type": "uint256"
        },
        {
          "internalType": "address",
          "name": "creator_",
          "type": "address"
        },
        {
          "internalType": "uint256",
          "name": "maxSupply_",
          "type": "uint256"
        },
        {
          "internalType": "address",
          "name": "platformFeeRecipient_",
          "type": "address"
        }
      ],
      "stateMutability": "nonpayable",
      "type": "constructor"
    },
    {
      "inputs": [
        {
          "internalType": "address",
          "name": "spender",
          "type": "address"
        },
        {
          "internalType": "uint256",
          "name": "allowance",
          "type": "uint256"
        },
        {
          "internalType": "uint256",
          "name": "needed",
          "type": "uint256"
        }
      ],
      "name": "ERC20InsufficientAllowance",
      "type": "error"
    },
    {
      "inputs": [
        {
          "internalType": "address",
          "name": "sender",
          "type": "address"
        },
        {
          "internalType": "uint256",
          "name": "balance",
          "type": "uint256"
        },
        {
          "internalType": "uint256",
          "name": "needed",
          "type": "uint256"
        }
      ],
      "name": "ERC20InsufficientBalance",
      "type": "error"
    },
    {
      "inputs": [
        {
          "internalType": "address",
          "name": "approver",
          "type": "address"
        }
      ],
      "name": "ERC20InvalidApprover",
      "type": "error"
    },
    {
      "inputs": [
        {
          "internalType": "address",
          "name": "receiver",
          "type": "address"
        }
      ],
      "name": "ERC20InvalidReceiver",
      "type": "error"
    },
    {
      "inputs": [
        {
          "internalType": "address",
          "name": "sender",
          "type": "address"
        }
      ],
      "name": "ERC20InvalidSender",
      "type": "error"
    },
    {
      "inputs": [
        {
          "internalType": "address",
          "name": "spender",
          "type": "address"
        }
      ],
      "name": "ERC20InvalidSpender",
      "type": "error"
    },
    {
      "inputs": [
        {
          "internalType": "address",
          "name": "owner",
          "type": "address"
        }
      ],
      "name": "OwnableInvalidOwner",
      "type": "error"
    },
    {
      "inputs": [
        {
          "internalType": "address",
          "name": "account",
          "type": "address"
        }
      ],
      "name": "OwnableUnauthorizedAccount",
      "type": "error"
    },
    {
      "anonymous": false,
      "inputs": [
        {
          "indexed": true,
          "internalType": "address",
          "name": "owner",
          "type": "address"
        },
        {
          "indexed": true,
          "internalType": "address",
          "name": "spender",
          "type": "address"
        },
        {
          "indexed": false,
          "internalType": "uint256",
          "name": "value",
          "type": "uint256"
        }
      ],
      "name": "Approval",
      "type": "event"
    },
    {
      "anonymous": false,
      "inputs": [
        {
          "indexed": true,
          "internalType": "address",
          "name": "previousOwner",
          "type": "address"
        },
        {
          "indexed": true,
          "internalType": "address",
          "name": "newOwner",
          "type": "address"
        }
      ],
      "name": "OwnershipTransferred",
      "type": "event"
    },
    {
      "anonymous": false,
      "inputs": [
        {
          "indexed": true,
          "internalType": "address",
          "name": "from",
          "type": "address"
        },
        {
          "indexed": true,
          "internalType": "address",
          "name": "to",
          "type": "address"
        },
        {
          "indexed": false,
          "internalType": "uint256",
          "name": "value",
          "type": "uint256"
        }
      ],
      "name": "Transfer",
      "type": "event"
    },
    {
      "inputs": [],
      "name": "LP_AND_AIRDROP_PERCENT",
      "outputs": [
        {
          "internalType": "uint256",
          "name": "",
          "type": "uint256"
        }
      ],
      "stateMutability": "view",
      "type": "function"
    },
    {
      "inputs": [
        {
          "internalType": "address",
          "name": "",
          "type": "address"
        }
      ],
      "name": "airdropAllocations",
      "outputs": [
        {
          "internalType": "uint256",
          "name": "",
          "type": "uint256"
        }
      ],
      "stateMutability": "view",
      "type": "function"
    },
    {
      "inputs": [
        {
          "internalType": "address",
          "name": "",
          "type": "address"
        }
      ],
      "name": "airdropClaimed",
      "outputs": [
        {
          "internalType": "bool",
          "name": "",
          "type": "bool"
        }
      ],
      "stateMutability": "view",
      "type": "function"
    },
    {
      "inputs": [
        {
          "internalType": "address",
          "name": "owner",
          "type": "address"
        },
        {
          "internalType": "address",
          "name": "spender",
          "type": "address"
        }
      ],
      "name": "allowance",
      "outputs": [
        {
          "internalType": "uint256",
          "name": "",
          "type": "uint256"
        }
      ],
      "stateMutability": "view",
      "type": "function"
    },
    {
      "inputs": [
        {
          "internalType": "address",
          "name": "spender",
          "type": "address"
        },
        {
          "internalType": "uint256",
          "name": "value",
          "type": "uint256"
        }
      ],
      "name": "approve",
      "outputs": [
        {
          "internalType": "bool",
          "name": "",
          "type": "bool"
        }
      ],
      "stateMutability": "nonpayable",
      "type": "function"
    },
    {
      "inputs": [
        {
          "internalType": "address",
          "name": "account",
          "type": "address"
        }
      ],
      "name": "balanceOf",
      "outputs": [
        {
          "internalType": "uint256",
          "name": "",
          "type": "uint256"
        }
      ],
      "stateMutability": "view",
      "type": "function"
    },
    {
      "inputs": [],
      "name": "basePrice",
      "outputs": [
        {
          "internalType": "uint256",
          "name": "",
          "type": "uint256"
        }
      ],
      "stateMutability": "view",
      "type": "function"
    },
    {
      "inputs": [
        {
          "internalType": "uint256",
          "name": "amount",
          "type": "uint256"
        }
      ],
      "name": "buy",
      "outputs": [],
      "stateMutability": "payable",
      "type": "function"
    },
    {
      "inputs": [],
      "name": "claimAirdrop",
      "outputs": [],
      "stateMutability": "nonpayable",
      "type": "function"
    },
    {
      "inputs": [],
      "name": "creator",
      "outputs": [
        {
          "internalType": "address",
          "name": "",
          "type": "address"
        }
      ],
      "stateMutability": "view",
      "type": "function"
    },
    {
      "inputs": [],
      "name": "creatorBought",
      "outputs": [
        {
          "internalType": "bool",
          "name": "",
          "type": "bool"
        }
      ],
      "stateMutability": "view",
      "type": "function"
    },
    {
      "inputs": [
        {
          "internalType": "uint256",
          "name": "amount",
          "type": "uint256"
        }
      ],
      "name": "creatorBuy",
      "outputs": [],
      "stateMutability": "payable",
      "type": "function"
    },
    {
      "inputs": [],
      "name": "creatorLockAmount",
      "outputs": [
        {
          "internalType": "uint256",
          "name": "",
          "type": "uint256"
        }
      ],
      "stateMutability": "view",
      "type": "function"
    },
    {
      "inputs": [],
      "name": "decimals",
      "outputs": [
        {
          "internalType": "uint8",
          "name": "",
          "type": "uint8"
        }
      ],
      "stateMutability": "view",
      "type": "function"
    },
    {
      "inputs": [],
      "name": "getCurrentPrice",
      "outputs": [
        {
          "internalType": "uint256",
          "name": "",
          "type": "uint256"
        }
      ],
      "stateMutability": "view",
      "type": "function"
    },
    {
      "inputs": [
        {
          "internalType": "uint256",
          "name": "amount",
          "type": "uint256"
        }
      ],
      "name": "getPrice",
      "outputs": [
        {
          "internalType": "uint256",
          "name": "",
          "type": "uint256"
        }
      ],
      "stateMutability": "view",
      "type": "function"
    },
    {
      "inputs": [],
      "name": "graduate",
      "outputs": [],
      "stateMutability": "nonpayable",
      "type": "function"
    },
    {
      "inputs": [],
      "name": "graduated",
      "outputs": [
        {
          "internalType": "bool",
          "name": "",
          "type": "bool"
        }
      ],
      "stateMutability": "view",
      "type": "function"
    },
    {
      "inputs": [
        {
          "internalType": "address",
          "name": "",
          "type": "address"
        }
      ],
      "name": "lockedBalances",
      "outputs": [
        {
          "internalType": "uint256",
          "name": "",
          "type": "uint256"
        }
      ],
      "stateMutability": "view",
      "type": "function"
    },
    {
      "inputs": [],
      "name": "maxSupply",
      "outputs": [
        {
          "internalType": "uint256",
          "name": "",
          "type": "uint256"
        }
      ],
      "stateMutability": "view",
      "type": "function"
    },
    {
      "inputs": [],
      "name": "maxSupplyForSale",
      "outputs": [
        {
          "internalType": "uint256",
          "name": "",
          "type": "uint256"
        }
      ],
      "stateMutability": "view",
      "type": "function"
    },
    {
      "inputs": [],
      "name": "name",
      "outputs": [
        {
          "internalType": "string",
          "name": "",
          "type": "string"
        }
      ],
      "stateMutability": "view",
      "type": "function"
    },
    {
      "inputs": [],
      "name": "owner",
      "outputs": [
        {
          "internalType": "address",
          "name": "",
          "type": "address"
        }
      ],
      "stateMutability": "view",
      "type": "function"
    },
    {
      "inputs": [],
      "name": "platformFeeRecipient",
      "outputs": [
        {
          "internalType": "address",
          "name": "",
          "type": "address"
        }
      ],
      "stateMutability": "view",
      "type": "function"
    },
    {
      "inputs": [],
      "name": "raiseTarget",
      "outputs": [
        {
          "internalType": "uint256",
          "name": "",
          "type": "uint256"
        }
      ],
      "stateMutability": "view",
      "type": "function"
    },
    {
      "inputs": [],
      "name": "renounceOwnership",
      "outputs": [],
      "stateMutability": "nonpayable",
      "type": "function"
    },
    {
      "inputs": [],
      "name": "reservedForAirdrop",
      "outputs": [
        {
          "internalType": "uint256",
          "name": "",
          "type": "uint256"
        }
      ],
      "stateMutability": "view",
      "type": "function"
    },
    {
      "inputs": [
        {
          "internalType": "address[]",
          "name": "recipients",
          "type": "address[]"
        },
        {
          "internalType": "uint256[]",
          "name": "amounts",
          "type": "uint256[]"
        }
      ],
      "name": "setAirdropAllocations",
      "outputs": [],
      "stateMutability": "nonpayable",
      "type": "function"
    },
    {
      "inputs": [],
      "name": "slope",
      "outputs": [
        {
          "internalType": "uint256",
          "name": "",
          "type": "uint256"
        }
      ],
      "stateMutability": "view",
      "type": "function"
    },
    {
      "inputs": [],
      "name": "symbol",
      "outputs": [
        {
          "internalType": "string",
          "name": "",
          "type": "string"
        }
      ],
      "stateMutability": "view",
      "type": "function"
    },
    {
      "inputs": [],
      "name": "tokenInfo",
      "outputs": [
        {
          "internalType": "address",
          "name": "_creator",
          "type": "address"
        },
        {
          "internalType": "address",
          "name": "_platformFeeRecipient",
          "type": "address"
        },
        {
          "internalType": "uint256",
          "name": "_raiseTarget",
          "type": "uint256"
        },
        {
          "internalType": "uint256",
          "name": "_maxSupply",
          "type": "uint256"
        },
        {
          "internalType": "uint256",
          "name": "_basePrice",
          "type": "uint256"
        },
        {
          "internalType": "uint256",
          "name": "_slope",
          "type": "uint256"
        },
        {
          "internalType": "uint256",
          "name": "_totalRaised",
          "type": "uint256"
        },
        {
          "internalType": "bool",
          "name": "_graduated",
          "type": "bool"
        },
        {
          "internalType": "bool",
          "name": "_creatorBought",
          "type": "bool"
        },
        {
          "internalType": "uint256",
          "name": "_creatorLockAmount",
          "type": "uint256"
        }
      ],
      "stateMutability": "view",
      "type": "function"
    },
    {
      "inputs": [],
      "name": "totalRaised",
      "outputs": [
        {
          "internalType": "uint256",
          "name": "",
          "type": "uint256"
        }
      ],
      "stateMutability": "view",
      "type": "function"
    },
    {
      "inputs": [],
      "name": "totalSupply",
      "outputs": [
        {
          "internalType": "uint256",
          "name": "",
          "type": "uint256"
        }
      ],
      "stateMutability": "view",
      "type": "function"
    },
    {
      "inputs": [
        {
          "internalType": "address",
          "name": "to",
          "type": "address"
        },
        {
          "internalType": "uint256",
          "name": "value",
          "type": "uint256"
        }
      ],
      "name": "transfer",
      "outputs": [
        {
          "internalType": "bool",
          "name": "",
          "type": "bool"
        }
      ],
      "stateMutability": "nonpayable",
      "type": "function"
    },
    {
      "inputs": [
        {
          "internalType": "address",
          "name": "from",
          "type": "address"
        },
        {
          "internalType": "address",
          "name": "to",
          "type": "address"
        },
        {
          "internalType": "uint256",
          "name": "value",
          "type": "uint256"
        }
      ],
      "name": "transferFrom",
      "outputs": [
        {
          "internalType": "bool",
          "name": "",
          "type": "bool"
        }
      ],
      "stateMutability": "nonpayable",
      "type": "function"
    },
    {
      "inputs": [
        {
          "internalType": "address",
          "name": "newOwner",
          "type": "address"
        }
      ],
      "name": "transferOwnership",
      "outputs": [],
      "stateMutability": "nonpayable",
      "type": "function"
    },
    {
      "inputs": [],
      "name": "unlockCreatorTokens",
      "outputs": [],
      "stateMutability": "nonpayable",
      "type": "function"
    },
    {
      "inputs": [],
      "name": "withdraw",
      "outputs": [],
      "stateMutability": "nonpayable",
      "type": "function"
    },
    {
      "stateMutability": "payable",
      "type": "receive"
    }
  ],
  "bytecode": "0x60a060405234801561001057600080fd5b50604051613cf5380380613cf5833981810160405281019061003291906104ae565b8286868160039081610044919061078a565b508060049081610054919061078a565b505050600073ffffffffffffffffffffffffffffffffffffffff168173ffffffffffffffffffffffffffffffffffffffff16036100c95760006040517f1e4fbdf70000000000000000000000000000000000000000000000000000000081526004016100c0919061086b565b60405180910390fd5b6100d8816101df60201b60201c565b508360068190555082600860006101000a81548173ffffffffffffffffffffffffffffffffffffffff021916908373ffffffffffffffffffffffffffffffffffffffff160217905550816080818152505080600760006101000a81548173ffffffffffffffffffffffffffffffffffffffff021916908373ffffffffffffffffffffffffffffffffffffffff160217905550600060648361017991906108e4565b90506002816101889190610915565b670de0b6b3a76400008661019c9190610915565b6101a691906108e4565b600f8190555080670de0b6b3a7640000600f546101c39190610915565b6101cd91906108e4565b60108190555050505050505050610957565b6000600560009054906101000a900473ffffffffffffffffffffffffffffffffffffffff16905081600560006101000a81548173ffffffffffffffffffffffffffffffffffffffff021916908373ffffffffffffffffffffffffffffffffffffffff1602179055508173ffffffffffffffffffffffffffffffffffffffff168173ffffffffffffffffffffffffffffffffffffffff167f8be0079c531659141344cd1fd0a4f28419497f9722a3daafe3b4186f6b6457e060405160405180910390a35050565b6000604051905090565b600080fd5b600080fd5b600080fd5b600080fd5b6000601f19601f8301169050919050565b7f4e487b7100000000000000000000000000000000000000000000000000000000600052604160045260246000fd5b61030c826102c3565b810181811067ffffffffffffffff8211171561032b5761032a6102d4565b5b80604052505050565b600061033e6102a5565b905061034a8282610303565b919050565b600067ffffffffffffffff82111561036a576103696102d4565b5b610373826102c3565b9050602081019050919050565b60005b8381101561039e578082015181840152602081019050610383565b60008484015250505050565b60006103bd6103b88461034f565b610334565b9050828152602081018484840111156103d9576103d86102be565b5b6103e4848285610380565b509392505050565b600082601f830112610401576104006102b9565b5b81516104118482602086016103aa565b91505092915050565b6000819050919050565b61042d8161041a565b811461043857600080fd5b50565b60008151905061044a81610424565b92915050565b600073ffffffffffffffffffffffffffffffffffffffff82169050919050565b600061047b82610450565b9050919050565b61048b81610470565b811461049657600080fd5b50565b6000815190506104a881610482565b92915050565b60008060008060008060c087890312156104cb576104ca6102af565b5b600087015167ffffffffffffffff8111156104e9576104e86102b4565b5b6104f589828a016103ec565b965050602087015167ffffffffffffffff811115610516576105156102b4565b5b61052289828a016103ec565b955050604061053389828a0161043b565b945050606061054489828a01610499565b935050608061055589828a0161043b565b92505060a061056689828a01610499565b9150509295509295509295565b600081519050919050565b7f4e487b7100000000000000000000000000000000000000000000000000000000600052602260045260246000fd5b600060028204905060018216806105c557607f821691505b6020821081036105d8576105d761057e565b5b50919050565b60008190508160005260206000209050919050565b60006020601f8301049050919050565b600082821b905092915050565b6000600883026106407fffffffffffffffffffffffffffffffffffffffffffffffffffffffffffffffff82610603565b61064a8683610603565b95508019841693508086168417925050509392505050565b6000819050919050565b600061068761068261067d8461041a565b610662565b61041a565b9050919050565b6000819050919050565b6106a18361066c565b6106b56106ad8261068e565b848454610610565b825550505050565b600090565b6106ca6106bd565b6106d5818484610698565b505050565b5b818110156106f9576106ee6000826106c2565b6001810190506106db565b5050565b601f82111561073e5761070f816105de565b610718846105f3565b81016020851015610727578190505b61073b610733856105f3565b8301826106da565b50505b505050565b600082821c905092915050565b600061076160001984600802610743565b1980831691505092915050565b600061077a8383610750565b9150826002028217905092915050565b61079382610573565b67ffffffffffffffff8111156107ac576107ab6102d4565b5b6107b682546105ad565b6107c18282856106fd565b600060209050601f8311600181146107f457600084156107e2578287015190505b6107ec858261076e565b865550610854565b601f198416610802866105de565b60005b8281101561082a57848901518255600182019150602085019450602081019050610805565b868310156108475784890151610843601f891682610750565b8355505b6001600288020188555050505b505050505050565b61086581610470565b82525050565b6000602082019050610880600083018461085c565b92915050565b7f4e487b7100000000000000000000000000000000000000000000000000000000600052601260045260246000fd5b7f4e487b7100000000000000000000000000000000000000000000000000000000600052601160045260246000fd5b60006108ef8261041a565b91506108fa8361041a565b92508261090a57610909610886565b5b828204905092915050565b60006109208261041a565b915061092b8361041a565b92508282026109398161041a565b915082820484148315176109505761094f6108b5565b5b5092915050565b60805161336e61098760003960008181610e3e015281816115f1015281816117870152611a55015261336e6000f3fe6080604052600436106102295760003560e01c8063b4105e0611610123578063d96a094a116100ab578063eb13554f1161006f578063eb13554f146107e9578063eb91d37e14610814578063f2fde38b1461083f578063f4227e9514610868578063fc6fec4c1461089357610230565b8063d96a094a146106fd578063dd62ed3e14610719578063e388010d14610756578063e757223014610781578063e7c2b772146107be57610230565b8063cdbbf186116100f2578063cdbbf18614610616578063ce858b9e14610653578063d1b6dd301461067e578063d3618cca146106bb578063d5abeb01146106d257610230565b8063b4105e061461057e578063be8755a914610595578063c5c4744c146105c0578063c7876ea4146105eb57610230565b80635b88349d116101b1578063851319761161017557806385131976146104a45780638da5cb5b146104cf57806395d89b41146104fa578063a9059cbb14610525578063b34ffc5f1461056257610230565b80635b88349d146103da5780636addb663146103f157806370a0823114610425578063715018a61461046257806383caf2751461047957610230565b806318160ddd116101f857806318160ddd1461030557806323b872dd1461033057806324d4de701461036d578063313ce567146103985780633ccfd60b146103c357610230565b806302d05d3f146102355780630483a7f61461026057806306fdde031461029d578063095ea7b3146102c857610230565b3661023057005b600080fd5b34801561024157600080fd5b5061024a6108bc565b6040516102579190612610565b60405180910390f35b34801561026c57600080fd5b5061028760048036038101906102829190612661565b6108e2565b60405161029491906126a7565b60405180910390f35b3480156102a957600080fd5b506102b26108fa565b6040516102bf9190612752565b60405180910390f35b3480156102d457600080fd5b506102ef60048036038101906102ea91906127a0565b61098c565b6040516102fc91906127fb565b60405180910390f35b34801561031157600080fd5b5061031a6109af565b60405161032791906126a7565b60405180910390f35b34801561033c57600080fd5b5061035760048036038101906103529190612816565b6109b9565b60405161036491906127fb565b60405180910390f35b34801561037957600080fd5b506103826109e8565b60405161038f91906126a7565b60405180910390f35b3480156103a457600080fd5b506103ad6109ed565b6040516103ba9190612885565b60405180910390f35b3480156103cf57600080fd5b506103d86109f6565b005b3480156103e657600080fd5b506103ef610c1c565b005b3480156103fd57600080fd5b50610406610de4565b60405161041c9a999897969594939291906128a0565b60405180910390f35b34801561043157600080fd5b5061044c60048036038101906104479190612661565b610ea9565b60405161045991906126a7565b60405180910390f35b34801561046e57600080fd5b50610477610ef1565b005b34801561048557600080fd5b5061048e610f05565b60405161049b91906126a7565b60405180910390f35b3480156104b057600080fd5b506104b9610f0b565b6040516104c691906126a7565b60405180910390f35b3480156104db57600080fd5b506104e4610f11565b6040516104f19190612610565b60405180910390f35b34801561050657600080fd5b5061050f610f3b565b60405161051c9190612752565b60405180910390f35b34801561053157600080fd5b5061054c600480360381019061054791906127a0565b610fcd565b60405161055991906127fb565b60405180910390f35b61057c6004803603810190610577919061293c565b610ff0565b005b34801561058a57600080fd5b50610593611369565b005b3480156105a157600080fd5b506105aa6115e9565b6040516105b791906126a7565b60405180910390f35b3480156105cc57600080fd5b506105d5611629565b6040516105e291906126a7565b60405180910390f35b3480156105f757600080fd5b5061060061162f565b60405161060d91906126a7565b60405180910390f35b34801561062257600080fd5b5061063d60048036038101906106389190612661565b611635565b60405161064a91906126a7565b60405180910390f35b34801561065f57600080fd5b5061066861164d565b60405161067591906127fb565b60405180910390f35b34801561068a57600080fd5b506106a560048036038101906106a09190612661565b611660565b6040516106b291906127fb565b60405180910390f35b3480156106c757600080fd5b506106d0611680565b005b3480156106de57600080fd5b506106e7611785565b6040516106f491906126a7565b60405180910390f35b6107176004803603810190610712919061293c565b6117a9565b005b34801561072557600080fd5b50610740600480360381019061073b9190612969565b6119ba565b60405161074d91906126a7565b60405180910390f35b34801561076257600080fd5b5061076b611a41565b60405161077891906126a7565b60405180910390f35b34801561078d57600080fd5b506107a860048036038101906107a3919061293c565b611a8d565b6040516107b591906126a7565b60405180910390f35b3480156107ca57600080fd5b506107d3611b1f565b6040516107e091906127fb565b60405180910390f35b3480156107f557600080fd5b506107fe611b32565b60405161080b9190612610565b60405180910390f35b34801561082057600080fd5b50610829611b58565b60405161083691906126a7565b60405180910390f35b34801561084b57600080fd5b5061086660048036038101906108619190612661565b611b94565b005b34801561087457600080fd5b5061087d611c1a565b60405161088a91906126a7565b60405180910390f35b34801561089f57600080fd5b506108ba60048036038101906108b59190612a64565b611c20565b005b600860009054906101000a900473ffffffffffffffffffffffffffffffffffffffff1681565b600c6020528060005260406000206000915090505481565b60606003805461090990612b14565b80601f016020809104026020016040519081016040528092919081815260200182805461093590612b14565b80156109825780601f1061095757610100808354040283529160200191610982565b820191906000526020600020905b81548152906001019060200180831161096557829003601f168201915b5050505050905090565b600080610997611e61565b90506109a4818585611e69565b600191505092915050565b6000600254905090565b6000806109c4611e61565b90506109d1858285611e7b565b6109dc858585611f10565b60019150509392505050565b601481565b60006012905090565b600860009054906101000a900473ffffffffffffffffffffffffffffffffffffffff1673ffffffffffffffffffffffffffffffffffffffff163373ffffffffffffffffffffffffffffffffffffffff1614610a86576040517f08c379a0000000000000000000000000000000000000000000000000000000008152600401610a7d90612b91565b60405180910390fd5b60004711610ac9576040517f08c379a0000000000000000000000000000000000000000000000000000000008152600401610ac090612bfd565b60405180910390fd5b600a60009054906101000a900460ff16610b18576040517f08c379a0000000000000000000000000000000000000000000000000000000008152600401610b0f90612c69565b60405180910390fd5b600061271060c847610b2a9190612cb8565b610b349190612d29565b905060008147610b449190612d5a565b9050600760009054906101000a900473ffffffffffffffffffffffffffffffffffffffff1673ffffffffffffffffffffffffffffffffffffffff166108fc839081150290604051600060405180830381858888f19350505050158015610bae573d6000803e3d6000fd5b50600860009054906101000a900473ffffffffffffffffffffffffffffffffffffffff1673ffffffffffffffffffffffffffffffffffffffff166108fc829081150290604051600060405180830381858888f19350505050158015610c17573d6000803e3d6000fd5b505050565b600a60009054906101000a900460ff16610c6b576040517f08c379a0000000000000000000000000000000000000000000000000000000008152600401610c6290612dda565b60405180910390fd5b600e60003373ffffffffffffffffffffffffffffffffffffffff1673ffffffffffffffffffffffffffffffffffffffff16815260200190815260200160002060009054906101000a900460ff1615610cf8576040517f08c379a0000000000000000000000000000000000000000000000000000000008152600401610cef90612e46565b60405180910390fd5b6000600d60003373ffffffffffffffffffffffffffffffffffffffff1673ffffffffffffffffffffffffffffffffffffffff16815260200190815260200160002054905060008111610d7f576040517f08c379a0000000000000000000000000000000000000000000000000000000008152600401610d7690612eb2565b60405180910390fd5b6001600e60003373ffffffffffffffffffffffffffffffffffffffff1673ffffffffffffffffffffffffffffffffffffffff16815260200190815260200160002060006101000a81548160ff021916908315150217905550610de13382612004565b50565b600080600080600080600080600080600860009054906101000a900473ffffffffffffffffffffffffffffffffffffffff16600760009054906101000a900473ffffffffffffffffffffffffffffffffffffffff166006547f0000000000000000000000000000000000000000000000000000000000000000600f54601054600954600a60009054906101000a900460ff16600a60019054906101000a900460ff16600b54995099509950995099509950995099509950995090919293949596979899565b60008060008373ffffffffffffffffffffffffffffffffffffffff1673ffffffffffffffffffffffffffffffffffffffff168152602001908152602001600020549050919050565b610ef9612086565b610f03600061210d565b565b60105481565b60065481565b6000600560009054906101000a900473ffffffffffffffffffffffffffffffffffffffff16905090565b606060048054610f4a90612b14565b80601f0160208091040260200160405190810160405280929190818152602001828054610f7690612b14565b8015610fc35780601f10610f9857610100808354040283529160200191610fc3565b820191906000526020600020905b815481529060010190602001808311610fa657829003601f168201915b5050505050905090565b600080610fd8611e61565b9050610fe5818585611f10565b600191505092915050565b600860009054906101000a900473ffffffffffffffffffffffffffffffffffffffff1673ffffffffffffffffffffffffffffffffffffffff163373ffffffffffffffffffffffffffffffffffffffff1614611080576040517f08c379a000000000000000000000000000000000000000000000000000000000815260040161107790612b91565b60405180910390fd5b600a60009054906101000a900460ff16156110d0576040517f08c379a00000000000000000000000000000000000000000000000000000000081526004016110c790612f1e565b60405180910390fd5b600a60019054906101000a900460ff1615611120576040517f08c379a000000000000000000000000000000000000000000000000000000000815260040161111790612f8a565b60405180910390fd5b600061112b82611a8d565b905080341015611170576040517f08c379a000000000000000000000000000000000000000000000000000000000815260040161116790612ff6565b60405180910390fd5b611178611a41565b826111816109af565b61118b9190613016565b11156111cc576040517f08c379a00000000000000000000000000000000000000000000000000000000081526004016111c390613096565b60405180910390fd5b60006127106064836111de9190612cb8565b6111e89190612d29565b905080826111f69190612d5a565b600960008282546112079190613016565b925050819055506112183084612004565b82600c6000600860009054906101000a900473ffffffffffffffffffffffffffffffffffffffff1673ffffffffffffffffffffffffffffffffffffffff1673ffffffffffffffffffffffffffffffffffffffff1681526020019081526020016000208190555082600b819055506001600a60016101000a81548160ff021916908315150217905550600760009054906101000a900473ffffffffffffffffffffffffffffffffffffffff1673ffffffffffffffffffffffffffffffffffffffff166108fc829081150290604051600060405180830381858888f19350505050158015611308573d6000803e3d6000fd5b5081341115611364573373ffffffffffffffffffffffffffffffffffffffff166108fc83346113379190612d5a565b9081150290604051600060405180830381858888f19350505050158015611362573d6000803e3d6000fd5b505b505050565b600860009054906101000a900473ffffffffffffffffffffffffffffffffffffffff1673ffffffffffffffffffffffffffffffffffffffff163373ffffffffffffffffffffffffffffffffffffffff16146113f9576040517f08c379a00000000000000000000000000000000000000000000000000000000081526004016113f090612b91565b60405180910390fd5b600a60009054906101000a900460ff16611448576040517f08c379a000000000000000000000000000000000000000000000000000000000815260040161143f90612c69565b60405180910390fd5b6000600c6000600860009054906101000a900473ffffffffffffffffffffffffffffffffffffffff1673ffffffffffffffffffffffffffffffffffffffff1673ffffffffffffffffffffffffffffffffffffffff16815260200190815260200160002054116114ec576040517f08c379a00000000000000000000000000000000000000000000000000000000081526004016114e390613102565b60405180910390fd5b6000600c6000600860009054906101000a900473ffffffffffffffffffffffffffffffffffffffff1673ffffffffffffffffffffffffffffffffffffffff1673ffffffffffffffffffffffffffffffffffffffff1681526020019081526020016000205490506000600c6000600860009054906101000a900473ffffffffffffffffffffffffffffffffffffffff1673ffffffffffffffffffffffffffffffffffffffff1673ffffffffffffffffffffffffffffffffffffffff168152602001908152602001600020819055506115e630600860009054906101000a900473ffffffffffffffffffffffffffffffffffffffff1683611f10565b50565b6000606460147f000000000000000000000000000000000000000000000000000000000000000061161a9190612cb8565b6116249190612d29565b905090565b60095481565b600f5481565b600d6020528060005260406000206000915090505481565b600a60019054906101000a900460ff1681565b600e6020528060005260406000206000915054906101000a900460ff1681565b600a60009054906101000a900460ff16156116d0576040517f08c379a00000000000000000000000000000000000000000000000000000000081526004016116c790612f1e565b60405180910390fd5b6006546009541015611717576040517f08c379a000000000000000000000000000000000000000000000000000000000815260040161170e9061316e565b60405180910390fd5b61171f611a41565b6117276109af565b1115611768576040517f08c379a000000000000000000000000000000000000000000000000000000000815260040161175f906131da565b60405180910390fd5b6001600a60006101000a81548160ff021916908315150217905550565b7f000000000000000000000000000000000000000000000000000000000000000081565b600a60009054906101000a900460ff16156117f9576040517f08c379a00000000000000000000000000000000000000000000000000000000081526004016117f090612f1e565b60405180910390fd5b600061180482611a8d565b905080341015611849576040517f08c379a000000000000000000000000000000000000000000000000000000000815260040161184090612ff6565b60405180910390fd5b611851611a41565b8261185a6109af565b6118649190613016565b11156118a5576040517f08c379a000000000000000000000000000000000000000000000000000000000815260040161189c90613096565b60405180910390fd5b60006127106064836118b79190612cb8565b6118c19190612d29565b905080826118cf9190612d5a565b600960008282546118e09190613016565b925050819055506118f13384612004565b600760009054906101000a900473ffffffffffffffffffffffffffffffffffffffff1673ffffffffffffffffffffffffffffffffffffffff166108fc829081150290604051600060405180830381858888f19350505050158015611959573d6000803e3d6000fd5b50813411156119b5573373ffffffffffffffffffffffffffffffffffffffff166108fc83346119889190612d5a565b9081150290604051600060405180830381858888f193505050501580156119b3573d6000803e3d6000fd5b505b505050565b6000600160008473ffffffffffffffffffffffffffffffffffffffff1673ffffffffffffffffffffffffffffffffffffffff16815260200190815260200160002060008373ffffffffffffffffffffffffffffffffffffffff1673ffffffffffffffffffffffffffffffffffffffff16815260200190815260200160002054905092915050565b6000606460146064611a539190612d5a565b7f0000000000000000000000000000000000000000000000000000000000000000611a7e9190612cb8565b611a889190612d29565b905090565b600080611a986109af565b90506000600f5484611aaa9190612cb8565b905060008285611aba9190612cb8565b905060006002600187611acd9190612d5a565b87611ad89190612cb8565b611ae29190612d29565b905060008183611af29190613016565b601054611aff9190612cb8565b905060008185611b0f9190613016565b9050809650505050505050919050565b600a60009054906101000a900460ff1681565b600760009054906101000a900473ffffffffffffffffffffffffffffffffffffffff1681565b6000670de0b6b3a7640000611b6b6109af565b601054611b789190612cb8565b611b829190612d29565b600f54611b8f9190613016565b905090565b611b9c612086565b600073ffffffffffffffffffffffffffffffffffffffff168173ffffffffffffffffffffffffffffffffffffffff1603611c0e5760006040517f1e4fbdf7000000000000000000000000000000000000000000000000000000008152600401611c059190612610565b60405180910390fd5b611c178161210d565b50565b600b5481565b600860009054906101000a900473ffffffffffffffffffffffffffffffffffffffff1673ffffffffffffffffffffffffffffffffffffffff163373ffffffffffffffffffffffffffffffffffffffff1614611cb0576040517f08c379a0000000000000000000000000000000000000000000000000000000008152600401611ca790612b91565b60405180910390fd5b600a60009054906101000a900460ff1615611d00576040517f08c379a0000000000000000000000000000000000000000000000000000000008152600401611cf790612f1e565b60405180910390fd5b818190508484905014611d48576040517f08c379a0000000000000000000000000000000000000000000000000000000008152600401611d3f90613246565b60405180910390fd5b6000805b85859050811015611e0f57838382818110611d6a57611d69613266565b5b90506020020135600d6000888885818110611d8857611d87613266565b5b9050602002016020810190611d9d9190612661565b73ffffffffffffffffffffffffffffffffffffffff1673ffffffffffffffffffffffffffffffffffffffff16815260200190815260200160002081905550838382818110611dee57611ded613266565b5b9050602002013582611e009190613016565b91508080600101915050611d4c565b50611e186115e9565b811115611e5a576040517f08c379a0000000000000000000000000000000000000000000000000000000008152600401611e51906132e1565b60405180910390fd5b5050505050565b600033905090565b611e7683838360016121d3565b505050565b6000611e8784846119ba565b90507fffffffffffffffffffffffffffffffffffffffffffffffffffffffffffffffff811015611f0a5781811015611efa578281836040517ffb8f41b2000000000000000000000000000000000000000000000000000000008152600401611ef193929190613301565b60405180910390fd5b611f09848484840360006121d3565b5b50505050565b600073ffffffffffffffffffffffffffffffffffffffff168373ffffffffffffffffffffffffffffffffffffffff1603611f825760006040517f96c6fd1e000000000000000000000000000000000000000000000000000000008152600401611f799190612610565b60405180910390fd5b600073ffffffffffffffffffffffffffffffffffffffff168273ffffffffffffffffffffffffffffffffffffffff1603611ff45760006040517fec442f05000000000000000000000000000000000000000000000000000000008152600401611feb9190612610565b60405180910390fd5b611fff8383836123aa565b505050565b600073ffffffffffffffffffffffffffffffffffffffff168273ffffffffffffffffffffffffffffffffffffffff16036120765760006040517fec442f0500000000000000000000000000000000000000000000000000000000815260040161206d9190612610565b60405180910390fd5b612082600083836123aa565b5050565b61208e611e61565b73ffffffffffffffffffffffffffffffffffffffff166120ac610f11565b73ffffffffffffffffffffffffffffffffffffffff161461210b576120cf611e61565b6040517f118cdaa70000000000000000000000000000000000000000000000000000000081526004016121029190612610565b60405180910390fd5b565b6000600560009054906101000a900473ffffffffffffffffffffffffffffffffffffffff16905081600560006101000a81548173ffffffffffffffffffffffffffffffffffffffff021916908373ffffffffffffffffffffffffffffffffffffffff1602179055508173ffffffffffffffffffffffffffffffffffffffff168173ffffffffffffffffffffffffffffffffffffffff167f8be0079c531659141344cd1fd0a4f28419497f9722a3daafe3b4186f6b6457e060405160405180910390a35050565b600073ffffffffffffffffffffffffffffffffffffffff168473ffffffffffffffffffffffffffffffffffffffff16036122455760006040517fe602df0500000000000000000000000000000000000000000000000000000000815260040161223c9190612610565b60405180910390fd5b600073ffffffffffffffffffffffffffffffffffffffff168373ffffffffffffffffffffffffffffffffffffffff16036122b75760006040517f94280d620000000000000000000000000000000000000000000000000000000081526004016122ae9190612610565b60405180910390fd5b81600160008673ffffffffffffffffffffffffffffffffffffffff1673ffffffffffffffffffffffffffffffffffffffff16815260200190815260200160002060008573ffffffffffffffffffffffffffffffffffffffff1673ffffffffffffffffffffffffffffffffffffffff1681526020019081526020016000208190555080156123a4578273ffffffffffffffffffffffffffffffffffffffff168473ffffffffffffffffffffffffffffffffffffffff167f8c5be1e5ebec7d5bd14f71427d1e84f3dd0314c0f7b2291e5b200ac8c7c3b9258460405161239b91906126a7565b60405180910390a35b50505050565b600073ffffffffffffffffffffffffffffffffffffffff168373ffffffffffffffffffffffffffffffffffffffff16036123fc5780600260008282546123f09190613016565b925050819055506124cf565b60008060008573ffffffffffffffffffffffffffffffffffffffff1673ffffffffffffffffffffffffffffffffffffffff16815260200190815260200160002054905081811015612488578381836040517fe450d38c00000000000000000000000000000000000000000000000000000000815260040161247f93929190613301565b60405180910390fd5b8181036000808673ffffffffffffffffffffffffffffffffffffffff1673ffffffffffffffffffffffffffffffffffffffff16815260200190815260200160002081905550505b600073ffffffffffffffffffffffffffffffffffffffff168273ffffffffffffffffffffffffffffffffffffffff16036125185780600260008282540392505081905550612565565b806000808473ffffffffffffffffffffffffffffffffffffffff1673ffffffffffffffffffffffffffffffffffffffff168152602001908152602001600020600082825401925050819055505b8173ffffffffffffffffffffffffffffffffffffffff168373ffffffffffffffffffffffffffffffffffffffff167fddf252ad1be2c89b69c2b068fc378daa952ba7f163c4a11628f55a4df523b3ef836040516125c291906126a7565b60405180910390a3505050565b600073ffffffffffffffffffffffffffffffffffffffff82169050919050565b60006125fa826125cf565b9050919050565b61260a816125ef565b82525050565b60006020820190506126256000830184612601565b92915050565b600080fd5b600080fd5b61263e816125ef565b811461264957600080fd5b50565b60008135905061265b81612635565b92915050565b6000602082840312156126775761267661262b565b5b60006126858482850161264c565b91505092915050565b6000819050919050565b6126a18161268e565b82525050565b60006020820190506126bc6000830184612698565b92915050565b600081519050919050565b600082825260208201905092915050565b60005b838110156126fc5780820151818401526020810190506126e1565b60008484015250505050565b6000601f19601f8301169050919050565b6000612724826126c2565b61272e81856126cd565b935061273e8185602086016126de565b61274781612708565b840191505092915050565b6000602082019050818103600083015261276c8184612719565b905092915050565b61277d8161268e565b811461278857600080fd5b50565b60008135905061279a81612774565b92915050565b600080604083850312156127b7576127b661262b565b5b60006127c58582860161264c565b92505060206127d68582860161278b565b9150509250929050565b60008115159050919050565b6127f5816127e0565b82525050565b600060208201905061281060008301846127ec565b92915050565b60008060006060848603121561282f5761282e61262b565b5b600061283d8682870161264c565b935050602061284e8682870161264c565b925050604061285f8682870161278b565b9150509250925092565b600060ff82169050919050565b61287f81612869565b82525050565b600060208201905061289a6000830184612876565b92915050565b6000610140820190506128b6600083018d612601565b6128c3602083018c612601565b6128d0604083018b612698565b6128dd606083018a612698565b6128ea6080830189612698565b6128f760a0830188612698565b61290460c0830187612698565b61291160e08301866127ec565b61291f6101008301856127ec565b61292d610120830184612698565b9b9a5050505050505050505050565b6000602082840312156129525761295161262b565b5b60006129608482850161278b565b91505092915050565b600080604083850312156129805761297f61262b565b5b600061298e8582860161264c565b925050602061299f8582860161264c565b9150509250929050565b600080fd5b600080fd5b600080fd5b60008083601f8401126129ce576129cd6129a9565b5b8235905067ffffffffffffffff8111156129eb576129ea6129ae565b5b602083019150836020820283011115612a0757612a066129b3565b5b9250929050565b60008083601f840112612a2457612a236129a9565b5b8235905067ffffffffffffffff811115612a4157612a406129ae565b5b602083019150836020820283011115612a5d57612a5c6129b3565b5b9250929050565b60008060008060408587031215612a7e57612a7d61262b565b5b600085013567ffffffffffffffff811115612a9c57612a9b612630565b5b612aa8878288016129b8565b9450945050602085013567ffffffffffffffff811115612acb57612aca612630565b5b612ad787828801612a0e565b925092505092959194509250565b7f4e487b7100000000000000000000000000000000000000000000000000000000600052602260045260246000fd5b60006002820490506001821680612b2c57607f821691505b602082108103612b3f57612b3e612ae5565b5b50919050565b7f4e6f742063726561746f72000000000000000000000000000000000000000000600082015250565b6000612b7b600b836126cd565b9150612b8682612b45565b602082019050919050565b60006020820190508181036000830152612baa81612b6e565b9050919050565b7f4e6f7468696e6720746f20776974686472617700000000000000000000000000600082015250565b6000612be76013836126cd565b9150612bf282612bb1565b602082019050919050565b60006020820190508181036000830152612c1681612bda565b9050919050565b7f4e6f742067726164756174656420796574000000000000000000000000000000600082015250565b6000612c536011836126cd565b9150612c5e82612c1d565b602082019050919050565b60006020820190508181036000830152612c8281612c46565b9050919050565b7f4e487b7100000000000000000000000000000000000000000000000000000000600052601160045260246000fd5b6000612cc38261268e565b9150612cce8361268e565b9250828202612cdc8161268e565b91508282048414831517612cf357612cf2612c89565b5b5092915050565b7f4e487b7100000000000000000000000000000000000000000000000000000000600052601260045260246000fd5b6000612d348261268e565b9150612d3f8361268e565b925082612d4f57612d4e612cfa565b5b828204905092915050565b6000612d658261268e565b9150612d708361268e565b9250828203905081811115612d8857612d87612c89565b5b92915050565b7f4e6f742067726164756174656400000000000000000000000000000000000000600082015250565b6000612dc4600d836126cd565b9150612dcf82612d8e565b602082019050919050565b60006020820190508181036000830152612df381612db7565b9050919050565b7f416c726561647920636c61696d65640000000000000000000000000000000000600082015250565b6000612e30600f836126cd565b9150612e3b82612dfa565b602082019050919050565b60006020820190508181036000830152612e5f81612e23565b9050919050565b7f4e6f20616c6c6f636174696f6e00000000000000000000000000000000000000600082015250565b6000612e9c600d836126cd565b9150612ea782612e66565b602082019050919050565b60006020820190508181036000830152612ecb81612e8f565b9050919050565b7f416c726561647920677261647561746564000000000000000000000000000000600082015250565b6000612f086011836126cd565b9150612f1382612ed2565b602082019050919050565b60006020820190508181036000830152612f3781612efb565b9050919050565b7f43726561746f7220616c726561647920626f7567687400000000000000000000600082015250565b6000612f746016836126cd565b9150612f7f82612f3e565b602082019050919050565b60006020820190508181036000830152612fa381612f67565b9050919050565b7f496e73756666696369656e74204554482073656e740000000000000000000000600082015250565b6000612fe06015836126cd565b9150612feb82612faa565b602082019050919050565b6000602082019050818103600083015261300f81612fd3565b9050919050565b60006130218261268e565b915061302c8361268e565b925082820190508082111561304457613043612c89565b5b92915050565b7f4578636565647320617661696c61626c6520737570706c790000000000000000600082015250565b60006130806018836126cd565b915061308b8261304a565b602082019050919050565b600060208201905081810360008301526130af81613073565b9050919050565b7f4e6f206c6f636b656420746f6b656e7300000000000000000000000000000000600082015250565b60006130ec6010836126cd565b91506130f7826130b6565b602082019050919050565b6000602082019050818103600083015261311b816130df565b9050919050565b7f526169736520746172676574206e6f74206d6574000000000000000000000000600082015250565b60006131586014836126cd565b915061316382613122565b602082019050919050565b600060208201905081810360008301526131878161314b565b9050919050565b7f4d7573742072657365727665204c502f61697264726f70000000000000000000600082015250565b60006131c46017836126cd565b91506131cf8261318e565b602082019050919050565b600060208201905081810360008301526131f3816131b7565b9050919050565b7f4c656e677468206d69736d617463680000000000000000000000000000000000600082015250565b6000613230600f836126cd565b915061323b826131fa565b602082019050919050565b6000602082019050818103600083015261325f81613223565b9050919050565b7f4e487b7100000000000000000000000000000000000000000000000000000000600052603260045260246000fd5b7f457863656564732061697264726f702072657365727665000000000000000000600082015250565b60006132cb6017836126cd565b91506132d682613295565b602082019050919050565b600060208201905081810360008301526132fa816132be565b9050919050565b60006060820190506133166000830186612601565b6133236020830185612698565b6133306040830184612698565b94935050505056fea264697066735822122006b86d4633fde9ca4605b96ec214002cfe36a440f432cd1b935eb62fb445f53464736f6c634300081c0033",
  "linkReferences": {},
  "deployedLinkReferences": {}
}