{
  "_format": "hh-sol-artifact-1",
  "contractName": "TurboToken",
  "sourceName": "contracts/TurboToken.sol",
  "abi": [
    {
      "inputs": [
        {
          "internalType": "string",
          "name": "name_",
          "type": "string"
        },
        {
          "internalType": "string",
          "name": "symbol_",
          "type": "string"
        },
        {
          "internalType": "uint256",
          "name": "raiseTarget_",
          "type": "uint256"
        },
        {
          "internalType": "address",
          "name": "creator_",
          "type": "address"
        },
        {
          "internalType": "uint256",
          "name": "maxSupply_",
          "type": "uint256"
        },
        {
          "internalType": "address",
          "name": "platformFeeRecipient_",
          "type": "address"
        }
      ],
      "stateMutability": "nonpayable",
      "type": "constructor"
    },
    {
      "inputs": [
        {
          "internalType": "address",
          "name": "spender",
          "type": "address"
        },
        {
          "internalType": "uint256",
          "name": "allowance",
          "type": "uint256"
        },
        {
          "internalType": "uint256",
          "name": "needed",
          "type": "uint256"
        }
      ],
      "name": "ERC20InsufficientAllowance",
      "type": "error"
    },
    {
      "inputs": [
        {
          "internalType": "address",
          "name": "sender",
          "type": "address"
        },
        {
          "internalType": "uint256",
          "name": "balance",
          "type": "uint256"
        },
        {
          "internalType": "uint256",
          "name": "needed",
          "type": "uint256"
        }
      ],
      "name": "ERC20InsufficientBalance",
      "type": "error"
    },
    {
      "inputs": [
        {
          "internalType": "address",
          "name": "approver",
          "type": "address"
        }
      ],
      "name": "ERC20InvalidApprover",
      "type": "error"
    },
    {
      "inputs": [
        {
          "internalType": "address",
          "name": "receiver",
          "type": "address"
        }
      ],
      "name": "ERC20InvalidReceiver",
      "type": "error"
    },
    {
      "inputs": [
        {
          "internalType": "address",
          "name": "sender",
          "type": "address"
        }
      ],
      "name": "ERC20InvalidSender",
      "type": "error"
    },
    {
      "inputs": [
        {
          "internalType": "address",
          "name": "spender",
          "type": "address"
        }
      ],
      "name": "ERC20InvalidSpender",
      "type": "error"
    },
    {
      "inputs": [
        {
          "internalType": "address",
          "name": "owner",
          "type": "address"
        }
      ],
      "name": "OwnableInvalidOwner",
      "type": "error"
    },
    {
      "inputs": [
        {
          "internalType": "address",
          "name": "account",
          "type": "address"
        }
      ],
      "name": "OwnableUnauthorizedAccount",
      "type": "error"
    },
    {
      "anonymous": false,
      "inputs": [
        {
          "indexed": true,
          "internalType": "address",
          "name": "owner",
          "type": "address"
        },
        {
          "indexed": true,
          "internalType": "address",
          "name": "spender",
          "type": "address"
        },
        {
          "indexed": false,
          "internalType": "uint256",
          "name": "value",
          "type": "uint256"
        }
      ],
      "name": "Approval",
      "type": "event"
    },
    {
      "anonymous": false,
      "inputs": [
        {
          "indexed": false,
          "internalType": "address",
          "name": "recipient",
          "type": "address"
        },
        {
          "indexed": false,
          "internalType": "uint256",
          "name": "amount",
          "type": "uint256"
        }
      ],
      "name": "FeeAttempt",
      "type": "event"
    },
    {
      "anonymous": false,
      "inputs": [
        {
          "indexed": true,
          "internalType": "address",
          "name": "previousOwner",
          "type": "address"
        },
        {
          "indexed": true,
          "internalType": "address",
          "name": "newOwner",
          "type": "address"
        }
      ],
      "name": "OwnershipTransferred",
      "type": "event"
    },
    {
      "anonymous": false,
      "inputs": [
        {
          "indexed": true,
          "internalType": "address",
          "name": "from",
          "type": "address"
        },
        {
          "indexed": true,
          "internalType": "address",
          "name": "to",
          "type": "address"
        },
        {
          "indexed": false,
          "internalType": "uint256",
          "name": "value",
          "type": "uint256"
        }
      ],
      "name": "Transfer",
      "type": "event"
    },
    {
      "inputs": [],
      "name": "LP_AND_AIRDROP_PERCENT",
      "outputs": [
        {
          "internalType": "uint256",
          "name": "",
          "type": "uint256"
        }
      ],
      "stateMutability": "view",
      "type": "function"
    },
    {
      "inputs": [
        {
          "internalType": "address",
          "name": "",
          "type": "address"
        }
      ],
      "name": "airdropAllocations",
      "outputs": [
        {
          "internalType": "uint256",
          "name": "",
          "type": "uint256"
        }
      ],
      "stateMutability": "view",
      "type": "function"
    },
    {
      "inputs": [
        {
          "internalType": "address",
          "name": "",
          "type": "address"
        }
      ],
      "name": "airdropClaimed",
      "outputs": [
        {
          "internalType": "bool",
          "name": "",
          "type": "bool"
        }
      ],
      "stateMutability": "view",
      "type": "function"
    },
    {
      "inputs": [],
      "name": "airdropFinalized",
      "outputs": [
        {
          "internalType": "bool",
          "name": "",
          "type": "bool"
        }
      ],
      "stateMutability": "view",
      "type": "function"
    },
    {
      "inputs": [
        {
          "internalType": "uint256",
          "name": "",
          "type": "uint256"
        }
      ],
      "name": "airdropRecipients",
      "outputs": [
        {
          "internalType": "address",
          "name": "",
          "type": "address"
        }
      ],
      "stateMutability": "view",
      "type": "function"
    },
    {
      "inputs": [
        {
          "internalType": "address",
          "name": "owner",
          "type": "address"
        },
        {
          "internalType": "address",
          "name": "spender",
          "type": "address"
        }
      ],
      "name": "allowance",
      "outputs": [
        {
          "internalType": "uint256",
          "name": "",
          "type": "uint256"
        }
      ],
      "stateMutability": "view",
      "type": "function"
    },
    {
      "inputs": [
        {
          "internalType": "address",
          "name": "spender",
          "type": "address"
        },
        {
          "internalType": "uint256",
          "name": "value",
          "type": "uint256"
        }
      ],
      "name": "approve",
      "outputs": [
        {
          "internalType": "bool",
          "name": "",
          "type": "bool"
        }
      ],
      "stateMutability": "nonpayable",
      "type": "function"
    },
    {
      "inputs": [
        {
          "internalType": "address",
          "name": "account",
          "type": "address"
        }
      ],
      "name": "balanceOf",
      "outputs": [
        {
          "internalType": "uint256",
          "name": "",
          "type": "uint256"
        }
      ],
      "stateMutability": "view",
      "type": "function"
    },
    {
      "inputs": [],
      "name": "basePrice",
      "outputs": [
        {
          "internalType": "uint256",
          "name": "",
          "type": "uint256"
        }
      ],
      "stateMutability": "view",
      "type": "function"
    },
    {
      "inputs": [
        {
          "internalType": "uint256",
          "name": "amount",
          "type": "uint256"
        }
      ],
      "name": "buy",
      "outputs": [],
      "stateMutability": "payable",
      "type": "function"
    },
    {
      "inputs": [],
      "name": "claimAirdrop",
      "outputs": [],
      "stateMutability": "nonpayable",
      "type": "function"
    },
    {
      "inputs": [],
      "name": "creator",
      "outputs": [
        {
          "internalType": "address",
          "name": "",
          "type": "address"
        }
      ],
      "stateMutability": "view",
      "type": "function"
    },
    {
      "inputs": [
        {
          "internalType": "uint256",
          "name": "amount",
          "type": "uint256"
        }
      ],
      "name": "creatorBuy",
      "outputs": [],
      "stateMutability": "payable",
      "type": "function"
    },
    {
      "inputs": [],
      "name": "creatorLockAmount",
      "outputs": [
        {
          "internalType": "uint256",
          "name": "",
          "type": "uint256"
        }
      ],
      "stateMutability": "view",
      "type": "function"
    },
    {
      "inputs": [],
      "name": "decimals",
      "outputs": [
        {
          "internalType": "uint8",
          "name": "",
          "type": "uint8"
        }
      ],
      "stateMutability": "view",
      "type": "function"
    },
    {
      "inputs": [],
      "name": "getAirdropAllocations",
      "outputs": [
        {
          "internalType": "address[]",
          "name": "",
          "type": "address[]"
        },
        {
          "internalType": "uint256[]",
          "name": "",
          "type": "uint256[]"
        }
      ],
      "stateMutability": "view",
      "type": "function"
    },
    {
      "inputs": [],
      "name": "getCurrentPrice",
      "outputs": [
        {
          "internalType": "uint256",
          "name": "",
          "type": "uint256"
        }
      ],
      "stateMutability": "view",
      "type": "function"
    },
    {
      "inputs": [
        {
          "internalType": "uint256",
          "name": "amount",
          "type": "uint256"
        }
      ],
      "name": "getPrice",
      "outputs": [
        {
          "internalType": "uint256",
          "name": "",
          "type": "uint256"
        }
      ],
      "stateMutability": "view",
      "type": "function"
    },
    {
      "inputs": [],
      "name": "graduate",
      "outputs": [],
      "stateMutability": "nonpayable",
      "type": "function"
    },
    {
      "inputs": [],
      "name": "graduated",
      "outputs": [
        {
          "internalType": "bool",
          "name": "",
          "type": "bool"
        }
      ],
      "stateMutability": "view",
      "type": "function"
    },
    {
      "inputs": [
        {
          "internalType": "address",
          "name": "",
          "type": "address"
        }
      ],
      "name": "lockedBalances",
      "outputs": [
        {
          "internalType": "uint256",
          "name": "",
          "type": "uint256"
        }
      ],
      "stateMutability": "view",
      "type": "function"
    },
    {
      "inputs": [],
      "name": "maxSupply",
      "outputs": [
        {
          "internalType": "uint256",
          "name": "",
          "type": "uint256"
        }
      ],
      "stateMutability": "view",
      "type": "function"
    },
    {
      "inputs": [],
      "name": "maxSupplyForSale",
      "outputs": [
        {
          "internalType": "uint256",
          "name": "",
          "type": "uint256"
        }
      ],
      "stateMutability": "view",
      "type": "function"
    },
    {
      "inputs": [],
      "name": "name",
      "outputs": [
        {
          "internalType": "string",
          "name": "",
          "type": "string"
        }
      ],
      "stateMutability": "view",
      "type": "function"
    },
    {
      "inputs": [],
      "name": "owner",
      "outputs": [
        {
          "internalType": "address",
          "name": "",
          "type": "address"
        }
      ],
      "stateMutability": "view",
      "type": "function"
    },
    {
      "inputs": [],
      "name": "platformFeeRecipient",
      "outputs": [
        {
          "internalType": "address",
          "name": "",
          "type": "address"
        }
      ],
      "stateMutability": "view",
      "type": "function"
    },
    {
      "inputs": [],
      "name": "raiseTarget",
      "outputs": [
        {
          "internalType": "uint256",
          "name": "",
          "type": "uint256"
        }
      ],
      "stateMutability": "view",
      "type": "function"
    },
    {
      "inputs": [],
      "name": "renounceOwnership",
      "outputs": [],
      "stateMutability": "nonpayable",
      "type": "function"
    },
    {
      "inputs": [],
      "name": "reservedForAirdrop",
      "outputs": [
        {
          "internalType": "uint256",
          "name": "",
          "type": "uint256"
        }
      ],
      "stateMutability": "view",
      "type": "function"
    },
    {
      "inputs": [
        {
          "internalType": "address[]",
          "name": "recipients",
          "type": "address[]"
        },
        {
          "internalType": "uint256[]",
          "name": "amounts",
          "type": "uint256[]"
        }
      ],
      "name": "setAirdropAllocations",
      "outputs": [],
      "stateMutability": "nonpayable",
      "type": "function"
    },
    {
      "inputs": [],
      "name": "slope",
      "outputs": [
        {
          "internalType": "uint256",
          "name": "",
          "type": "uint256"
        }
      ],
      "stateMutability": "view",
      "type": "function"
    },
    {
      "inputs": [],
      "name": "symbol",
      "outputs": [
        {
          "internalType": "string",
          "name": "",
          "type": "string"
        }
      ],
      "stateMutability": "view",
      "type": "function"
    },
    {
      "inputs": [],
      "name": "tokenInfo",
      "outputs": [
        {
          "internalType": "address",
          "name": "_creator",
          "type": "address"
        },
        {
          "internalType": "address",
          "name": "_platformFeeRecipient",
          "type": "address"
        },
        {
          "internalType": "uint256",
          "name": "_raiseTarget",
          "type": "uint256"
        },
        {
          "internalType": "uint256",
          "name": "_maxSupply",
          "type": "uint256"
        },
        {
          "internalType": "uint256",
          "name": "_basePrice",
          "type": "uint256"
        },
        {
          "internalType": "uint256",
          "name": "_slope",
          "type": "uint256"
        },
        {
          "internalType": "uint256",
          "name": "_totalRaised",
          "type": "uint256"
        },
        {
          "internalType": "bool",
          "name": "_graduated",
          "type": "bool"
        },
        {
          "internalType": "uint256",
          "name": "_creatorLockAmount",
          "type": "uint256"
        }
      ],
      "stateMutability": "view",
      "type": "function"
    },
    {
      "inputs": [],
      "name": "totalRaised",
      "outputs": [
        {
          "internalType": "uint256",
          "name": "",
          "type": "uint256"
        }
      ],
      "stateMutability": "view",
      "type": "function"
    },
    {
      "inputs": [],
      "name": "totalSupply",
      "outputs": [
        {
          "internalType": "uint256",
          "name": "",
          "type": "uint256"
        }
      ],
      "stateMutability": "view",
      "type": "function"
    },
    {
      "inputs": [
        {
          "internalType": "address",
          "name": "to",
          "type": "address"
        },
        {
          "internalType": "uint256",
          "name": "value",
          "type": "uint256"
        }
      ],
      "name": "transfer",
      "outputs": [
        {
          "internalType": "bool",
          "name": "",
          "type": "bool"
        }
      ],
      "stateMutability": "nonpayable",
      "type": "function"
    },
    {
      "inputs": [
        {
          "internalType": "address",
          "name": "from",
          "type": "address"
        },
        {
          "internalType": "address",
          "name": "to",
          "type": "address"
        },
        {
          "internalType": "uint256",
          "name": "value",
          "type": "uint256"
        }
      ],
      "name": "transferFrom",
      "outputs": [
        {
          "internalType": "bool",
          "name": "",
          "type": "bool"
        }
      ],
      "stateMutability": "nonpayable",
      "type": "function"
    },
    {
      "inputs": [
        {
          "internalType": "address",
          "name": "newOwner",
          "type": "address"
        }
      ],
      "name": "transferOwnership",
      "outputs": [],
      "stateMutability": "nonpayable",
      "type": "function"
    },
    {
      "inputs": [],
      "name": "unlockCreatorTokens",
      "outputs": [],
      "stateMutability": "nonpayable",
      "type": "function"
    },
    {
      "inputs": [],
      "name": "withdraw",
      "outputs": [],
      "stateMutability": "nonpayable",
      "type": "function"
    },
    {
      "stateMutability": "payable",
      "type": "receive"
    }
  ],
  "bytecode": "0x60a060405234801561001057600080fd5b506040516148d73803806148d7833981810160405281019061003291906104ae565b8286868160039081610044919061078a565b508060049081610054919061078a565b505050600073ffffffffffffffffffffffffffffffffffffffff168173ffffffffffffffffffffffffffffffffffffffff16036100c95760006040517f1e4fbdf70000000000000000000000000000000000000000000000000000000081526004016100c0919061086b565b60405180910390fd5b6100d8816101df60201b60201c565b508360068190555082600860006101000a81548173ffffffffffffffffffffffffffffffffffffffff021916908373ffffffffffffffffffffffffffffffffffffffff160217905550816080818152505080600760006101000a81548173ffffffffffffffffffffffffffffffffffffffff021916908373ffffffffffffffffffffffffffffffffffffffff160217905550600060648361017991906108e4565b90506002816101889190610915565b670de0b6b3a76400008661019c9190610915565b6101a691906108e4565b60108190555080670de0b6b3a76400006010546101c39190610915565b6101cd91906108e4565b60118190555050505050505050610957565b6000600560009054906101000a900473ffffffffffffffffffffffffffffffffffffffff16905081600560006101000a81548173ffffffffffffffffffffffffffffffffffffffff021916908373ffffffffffffffffffffffffffffffffffffffff1602179055508173ffffffffffffffffffffffffffffffffffffffff168173ffffffffffffffffffffffffffffffffffffffff167f8be0079c531659141344cd1fd0a4f28419497f9722a3daafe3b4186f6b6457e060405160405180910390a35050565b6000604051905090565b600080fd5b600080fd5b600080fd5b600080fd5b6000601f19601f8301169050919050565b7f4e487b7100000000000000000000000000000000000000000000000000000000600052604160045260246000fd5b61030c826102c3565b810181811067ffffffffffffffff8211171561032b5761032a6102d4565b5b80604052505050565b600061033e6102a5565b905061034a8282610303565b919050565b600067ffffffffffffffff82111561036a576103696102d4565b5b610373826102c3565b9050602081019050919050565b60005b8381101561039e578082015181840152602081019050610383565b60008484015250505050565b60006103bd6103b88461034f565b610334565b9050828152602081018484840111156103d9576103d86102be565b5b6103e4848285610380565b509392505050565b600082601f830112610401576104006102b9565b5b81516104118482602086016103aa565b91505092915050565b6000819050919050565b61042d8161041a565b811461043857600080fd5b50565b60008151905061044a81610424565b92915050565b600073ffffffffffffffffffffffffffffffffffffffff82169050919050565b600061047b82610450565b9050919050565b61048b81610470565b811461049657600080fd5b50565b6000815190506104a881610482565b92915050565b60008060008060008060c087890312156104cb576104ca6102af565b5b600087015167ffffffffffffffff8111156104e9576104e86102b4565b5b6104f589828a016103ec565b965050602087015167ffffffffffffffff811115610516576105156102b4565b5b61052289828a016103ec565b955050604061053389828a0161043b565b945050606061054489828a01610499565b935050608061055589828a0161043b565b92505060a061056689828a01610499565b9150509295509295509295565b600081519050919050565b7f4e487b7100000000000000000000000000000000000000000000000000000000600052602260045260246000fd5b600060028204905060018216806105c557607f821691505b6020821081036105d8576105d761057e565b5b50919050565b60008190508160005260206000209050919050565b60006020601f8301049050919050565b600082821b905092915050565b6000600883026106407fffffffffffffffffffffffffffffffffffffffffffffffffffffffffffffffff82610603565b61064a8683610603565b95508019841693508086168417925050509392505050565b6000819050919050565b600061068761068261067d8461041a565b610662565b61041a565b9050919050565b6000819050919050565b6106a18361066c565b6106b56106ad8261068e565b848454610610565b825550505050565b600090565b6106ca6106bd565b6106d5818484610698565b505050565b5b818110156106f9576106ee6000826106c2565b6001810190506106db565b5050565b601f82111561073e5761070f816105de565b610718846105f3565b81016020851015610727578190505b61073b610733856105f3565b8301826106da565b50505b505050565b600082821c905092915050565b600061076160001984600802610743565b1980831691505092915050565b600061077a8383610750565b9150826002028217905092915050565b61079382610573565b67ffffffffffffffff8111156107ac576107ab6102d4565b5b6107b682546105ad565b6107c18282856106fd565b600060209050601f8311600181146107f457600084156107e2578287015190505b6107ec858261076e565b865550610854565b601f198416610802866105de565b60005b8281101561082a57848901518255600182019150602085019450602081019050610805565b868310156108475784890151610843601f891682610750565b8355505b6001600288020188555050505b505050505050565b61086581610470565b82525050565b6000602082019050610880600083018461085c565b92915050565b7f4e487b7100000000000000000000000000000000000000000000000000000000600052601260045260246000fd5b7f4e487b7100000000000000000000000000000000000000000000000000000000600052601160045260246000fd5b60006108ef8261041a565b91506108fa8361041a565b92508261090a57610909610886565b5b828204905092915050565b60006109208261041a565b915061092b8361041a565b92508282026109398161041a565b915082820484148315176109505761094f6108b5565b5b5092915050565b608051613f506109876000396000818161114201528181611ab701528181611c3a0152611fd90152613f506000f3fe60806040526004361061023f5760003560e01c8063a9059cbb1161012e578063d96a094a116100ab578063eb13554f1161006f578063eb13554f14610867578063eb91d37e14610892578063f2fde38b146108bd578063f4227e95146108e6578063fc6fec4c1461091157610246565b8063d96a094a1461077b578063dd62ed3e14610797578063e388010d146107d4578063e7572230146107ff578063e7c2b7721461083c57610246565b8063c7876ea4116100f2578063c7876ea414610694578063cdbbf186146106bf578063d1b6dd30146106fc578063d3618cca14610739578063d5abeb011461075057610246565b8063a9059cbb146105ce578063b34ffc5f1461060b578063b4105e0614610627578063be8755a91461063e578063c5c4744c1461066957610246565b80635b88349d116101bc57806383caf2751161018057806383caf275146104f757806385131976146105225780638da5cb5b1461054d57806395d89b41146105785780639a241247146105a357610246565b80635b88349d1461041c578063646304a1146104335780636addb6631461047057806370a08231146104a3578063715018a6146104e057610246565b806318160ddd1161020357806318160ddd1461034757806323b872dd1461037257806324d4de70146103af578063313ce567146103da5780633ccfd60b1461040557610246565b806302d05d3f1461024b5780630483a7f61461027657806306fdde03146102b3578063095ea7b3146102de5780630b579f1f1461031b57610246565b3661024657005b600080fd5b34801561025757600080fd5b5061026061093a565b60405161026d9190612c82565b60405180910390f35b34801561028257600080fd5b5061029d60048036038101906102989190612cd3565b610960565b6040516102aa9190612d19565b60405180910390f35b3480156102bf57600080fd5b506102c8610978565b6040516102d59190612dc4565b60405180910390f35b3480156102ea57600080fd5b5061030560048036038101906103009190612e12565b610a0a565b6040516103129190612e6d565b60405180910390f35b34801561032757600080fd5b50610330610a2d565b60405161033e929190613004565b60405180910390f35b34801561035357600080fd5b5061035c610bff565b6040516103699190612d19565b60405180910390f35b34801561037e57600080fd5b506103996004803603810190610394919061303b565b610c09565b6040516103a69190612e6d565b60405180910390f35b3480156103bb57600080fd5b506103c4610c38565b6040516103d19190612d19565b60405180910390f35b3480156103e657600080fd5b506103ef610c3d565b6040516103fc91906130aa565b60405180910390f35b34801561041157600080fd5b5061041a610c46565b005b34801561042857600080fd5b50610431610eda565b005b34801561043f57600080fd5b5061045a600480360381019061045591906130c5565b6110aa565b6040516104679190612c82565b60405180910390f35b34801561047c57600080fd5b506104856110e9565b60405161049a999897969594939291906130f2565b60405180910390f35b3480156104af57600080fd5b506104ca60048036038101906104c59190612cd3565b61119a565b6040516104d79190612d19565b60405180910390f35b3480156104ec57600080fd5b506104f56111e2565b005b34801561050357600080fd5b5061050c6111f6565b6040516105199190612d19565b60405180910390f35b34801561052e57600080fd5b506105376111fc565b6040516105449190612d19565b60405180910390f35b34801561055957600080fd5b50610562611202565b60405161056f9190612c82565b60405180910390f35b34801561058457600080fd5b5061058d61122c565b60405161059a9190612dc4565b60405180910390f35b3480156105af57600080fd5b506105b86112be565b6040516105c59190612e6d565b60405180910390f35b3480156105da57600080fd5b506105f560048036038101906105f09190612e12565b6112cd565b6040516106029190612e6d565b60405180910390f35b610625600480360381019061062091906130c5565b6112f0565b005b34801561063357600080fd5b5061063c611827565b005b34801561064a57600080fd5b50610653611aaf565b6040516106609190612d19565b60405180910390f35b34801561067557600080fd5b5061067e611aef565b60405161068b9190612d19565b60405180910390f35b3480156106a057600080fd5b506106a9611af5565b6040516106b69190612d19565b60405180910390f35b3480156106cb57600080fd5b506106e660048036038101906106e19190612cd3565b611afb565b6040516106f39190612d19565b60405180910390f35b34801561070857600080fd5b50610723600480360381019061071e9190612cd3565b611b13565b6040516107309190612e6d565b60405180910390f35b34801561074557600080fd5b5061074e611b33565b005b34801561075c57600080fd5b50610765611c38565b6040516107729190612d19565b60405180910390f35b610795600480360381019061079091906130c5565b611c5c565b005b3480156107a357600080fd5b506107be60048036038101906107b9919061317f565b611f3e565b6040516107cb9190612d19565b60405180910390f35b3480156107e057600080fd5b506107e9611fc5565b6040516107f69190612d19565b60405180910390f35b34801561080b57600080fd5b50610826600480360381019061082191906130c5565b612011565b6040516108339190612d19565b60405180910390f35b34801561084857600080fd5b506108516120b6565b60405161085e9190612e6d565b60405180910390f35b34801561087357600080fd5b5061087c6120c9565b6040516108899190612c82565b60405180910390f35b34801561089e57600080fd5b506108a76120ef565b6040516108b49190612d19565b60405180910390f35b3480156108c957600080fd5b506108e460048036038101906108df9190612cd3565b61212b565b005b3480156108f257600080fd5b506108fb6121b1565b6040516109089190612d19565b60405180910390f35b34801561091d57600080fd5b506109386004803603810190610933919061327a565b6121b7565b005b600860009054906101000a900473ffffffffffffffffffffffffffffffffffffffff1681565b600c6020528060005260406000206000915090505481565b6060600380546109879061332a565b80601f01602080910402602001604051908101604052809291908181526020018280546109b39061332a565b8015610a005780601f106109d557610100808354040283529160200191610a00565b820191906000526020600020905b8154815290600101906020018083116109e357829003601f168201915b5050505050905090565b600080610a156124ab565b9050610a228185856124b3565b600191505092915050565b6060806000600f80549050905060008167ffffffffffffffff811115610a5657610a5561335b565b5b604051908082528060200260200182016040528015610a845781602001602082028036833780820191505090505b50905060008267ffffffffffffffff811115610aa357610aa261335b565b5b604051908082528060200260200182016040528015610ad15781602001602082028036833780820191505090505b50905060005b83811015610bf157600f8181548110610af357610af261338a565b5b9060005260206000200160009054906101000a900473ffffffffffffffffffffffffffffffffffffffff16838281518110610b3157610b3061338a565b5b602002602001019073ffffffffffffffffffffffffffffffffffffffff16908173ffffffffffffffffffffffffffffffffffffffff1681525050600d6000848381518110610b8257610b8161338a565b5b602002602001015173ffffffffffffffffffffffffffffffffffffffff1673ffffffffffffffffffffffffffffffffffffffff16815260200190815260200160002054828281518110610bd857610bd761338a565b5b6020026020010181815250508080600101915050610ad7565b508181945094505050509091565b6000600254905090565b600080610c146124ab565b9050610c218582856124c5565b610c2c85858561255a565b60019150509392505050565b601481565b60006012905090565b600860009054906101000a900473ffffffffffffffffffffffffffffffffffffffff1673ffffffffffffffffffffffffffffffffffffffff163373ffffffffffffffffffffffffffffffffffffffff1614610cd6576040517f08c379a0000000000000000000000000000000000000000000000000000000008152600401610ccd90613405565b60405180910390fd5b60004711610d19576040517f08c379a0000000000000000000000000000000000000000000000000000000008152600401610d1090613471565b60405180910390fd5b600a60009054906101000a900460ff16610d68576040517f08c379a0000000000000000000000000000000000000000000000000000000008152600401610d5f906134dd565b60405180910390fd5b600061271060c847610d7a919061352c565b610d84919061359d565b905060008147610d9491906135ce565b90506000600760009054906101000a900473ffffffffffffffffffffffffffffffffffffffff1673ffffffffffffffffffffffffffffffffffffffff1683604051610dde90613633565b60006040518083038185875af1925050503d8060008114610e1b576040519150601f19603f3d011682016040523d82523d6000602084013e610e20565b606091505b5050905080610e64576040517f08c379a0000000000000000000000000000000000000000000000000000000008152600401610e5b90613694565b60405180910390fd5b600860009054906101000a900473ffffffffffffffffffffffffffffffffffffffff1673ffffffffffffffffffffffffffffffffffffffff166108fc839081150290604051600060405180830381858888f19350505050158015610ecc573d6000803e3d6000fd5b506000600981905550505050565b600a60009054906101000a900460ff16610f29576040517f08c379a0000000000000000000000000000000000000000000000000000000008152600401610f2090613700565b60405180910390fd5b600e60003373ffffffffffffffffffffffffffffffffffffffff1673ffffffffffffffffffffffffffffffffffffffff16815260200190815260200160002060009054906101000a900460ff1615610fb6576040517f08c379a0000000000000000000000000000000000000000000000000000000008152600401610fad9061376c565b60405180910390fd5b6000600d60003373ffffffffffffffffffffffffffffffffffffffff1673ffffffffffffffffffffffffffffffffffffffff1681526020019081526020016000205490506000811161103d576040517f08c379a0000000000000000000000000000000000000000000000000000000008152600401611034906137d8565b60405180910390fd5b6001600e60003373ffffffffffffffffffffffffffffffffffffffff1673ffffffffffffffffffffffffffffffffffffffff16815260200190815260200160002060006101000a81548160ff0219169083151502179055506110a7336110a28361264e565b612676565b50565b600f81815481106110ba57600080fd5b906000526020600020016000915054906101000a900473ffffffffffffffffffffffffffffffffffffffff1681565b6000806000806000806000806000600860009054906101000a900473ffffffffffffffffffffffffffffffffffffffff16600760009054906101000a900473ffffffffffffffffffffffffffffffffffffffff166006547f0000000000000000000000000000000000000000000000000000000000000000601054601154600954600a60009054906101000a900460ff16600b54985098509850985098509850985098509850909192939495969798565b60008060008373ffffffffffffffffffffffffffffffffffffffff1673ffffffffffffffffffffffffffffffffffffffff168152602001908152602001600020549050919050565b6111ea6126f8565b6111f4600061277f565b565b60115481565b60065481565b6000600560009054906101000a900473ffffffffffffffffffffffffffffffffffffffff16905090565b60606004805461123b9061332a565b80601f01602080910402602001604051908101604052809291908181526020018280546112679061332a565b80156112b45780601f10611289576101008083540402835291602001916112b4565b820191906000526020600020905b81548152906001019060200180831161129757829003601f168201915b5050505050905090565b600080600f8054905011905090565b6000806112d86124ab565b90506112e581858561255a565b600191505092915050565b600860009054906101000a900473ffffffffffffffffffffffffffffffffffffffff1673ffffffffffffffffffffffffffffffffffffffff163373ffffffffffffffffffffffffffffffffffffffff1614611380576040517f08c379a000000000000000000000000000000000000000000000000000000000815260040161137790613405565b60405180910390fd5b600a60009054906101000a900460ff16156113d0576040517f08c379a00000000000000000000000000000000000000000000000000000000081526004016113c790613844565b60405180910390fd5b60006113db82612011565b905080341015611420576040517f08c379a0000000000000000000000000000000000000000000000000000000008152600401611417906138b0565b60405180910390fd5b611428611fc5565b6114318361264e565b611439610bff565b61144391906138d0565b1115611484576040517f08c379a000000000000000000000000000000000000000000000000000000000815260040161147b90613950565b60405180910390fd5b61148c611aaf565b6114958361264e565b600c6000600860009054906101000a900473ffffffffffffffffffffffffffffffffffffffff1673ffffffffffffffffffffffffffffffffffffffff1673ffffffffffffffffffffffffffffffffffffffff1681526020019081526020016000205461150191906138d0565b1115611542576040517f08c379a0000000000000000000000000000000000000000000000000000000008152600401611539906139bc565b60405180910390fd5b6000612710606483611554919061352c565b61155e919061359d565b9050808261156c91906135ce565b6009600082825461157d91906138d0565b92505081905550611596306115918561264e565b612676565b61159f8361264e565b600c6000600860009054906101000a900473ffffffffffffffffffffffffffffffffffffffff1673ffffffffffffffffffffffffffffffffffffffff1673ffffffffffffffffffffffffffffffffffffffff168152602001908152602001600020600082825461160f91906138d0565b9250508190555061161f8361264e565b600b600082825461163091906138d0565b925050819055507f77c4ff2d3de977cf4bd36aa220db7839bc74bdd1c7a1c3d47bbb34ba89d16a61600760009054906101000a900473ffffffffffffffffffffffffffffffffffffffff168260405161168a9291906139dc565b60405180910390a16000600760009054906101000a900473ffffffffffffffffffffffffffffffffffffffff1673ffffffffffffffffffffffffffffffffffffffff16826040516116da90613633565b60006040518083038185875af1925050503d8060008114611717576040519150601f19603f3d011682016040523d82523d6000602084013e61171c565b606091505b5050905080611760576040517f08c379a000000000000000000000000000000000000000000000000000000000815260040161175790613a51565b60405180910390fd5b823411156118215760003373ffffffffffffffffffffffffffffffffffffffff16843461178d91906135ce565b60405161179990613633565b60006040518083038185875af1925050503d80600081146117d6576040519150601f19603f3d011682016040523d82523d6000602084013e6117db565b606091505b505090508061181f576040517f08c379a000000000000000000000000000000000000000000000000000000000815260040161181690613abd565b60405180910390fd5b505b50505050565b600860009054906101000a900473ffffffffffffffffffffffffffffffffffffffff1673ffffffffffffffffffffffffffffffffffffffff163373ffffffffffffffffffffffffffffffffffffffff16146118b7576040517f08c379a00000000000000000000000000000000000000000000000000000000081526004016118ae90613405565b60405180910390fd5b600a60009054906101000a900460ff16611906576040517f08c379a00000000000000000000000000000000000000000000000000000000081526004016118fd906134dd565b60405180910390fd5b6000600c6000600860009054906101000a900473ffffffffffffffffffffffffffffffffffffffff1673ffffffffffffffffffffffffffffffffffffffff1673ffffffffffffffffffffffffffffffffffffffff16815260200190815260200160002054116119aa576040517f08c379a00000000000000000000000000000000000000000000000000000000081526004016119a190613b29565b60405180910390fd5b6000600c6000600860009054906101000a900473ffffffffffffffffffffffffffffffffffffffff1673ffffffffffffffffffffffffffffffffffffffff1673ffffffffffffffffffffffffffffffffffffffff1681526020019081526020016000205490506000600c6000600860009054906101000a900473ffffffffffffffffffffffffffffffffffffffff1673ffffffffffffffffffffffffffffffffffffffff1673ffffffffffffffffffffffffffffffffffffffff168152602001908152602001600020819055506000600b81905550611aac30600860009054906101000a900473ffffffffffffffffffffffffffffffffffffffff168361255a565b50565b6000606460147f0000000000000000000000000000000000000000000000000000000000000000611ae0919061352c565b611aea919061359d565b905090565b60095481565b60105481565b600d6020528060005260406000206000915090505481565b600e6020528060005260406000206000915054906101000a900460ff1681565b600a60009054906101000a900460ff1615611b83576040517f08c379a0000000000000000000000000000000000000000000000000000000008152600401611b7a90613844565b60405180910390fd5b6006546009541015611bca576040517f08c379a0000000000000000000000000000000000000000000000000000000008152600401611bc190613b95565b60405180910390fd5b611bd2611fc5565b611bda610bff565b1115611c1b576040517f08c379a0000000000000000000000000000000000000000000000000000000008152600401611c1290613c01565b60405180910390fd5b6001600a60006101000a81548160ff021916908315150217905550565b7f000000000000000000000000000000000000000000000000000000000000000081565b600a60009054906101000a900460ff1615611cac576040517f08c379a0000000000000000000000000000000000000000000000000000000008152600401611ca390613844565b60405180910390fd5b6000611cb782612011565b905080341015611cfc576040517f08c379a0000000000000000000000000000000000000000000000000000000008152600401611cf3906138b0565b60405180910390fd5b611d04611fc5565b611d0d8361264e565b611d15610bff565b611d1f91906138d0565b1115611d60576040517f08c379a0000000000000000000000000000000000000000000000000000000008152600401611d5790613950565b60405180910390fd5b6000612710606483611d72919061352c565b611d7c919061359d565b90508082611d8a91906135ce565b60096000828254611d9b91906138d0565b92505081905550611db433611daf8561264e565b612676565b7f77c4ff2d3de977cf4bd36aa220db7839bc74bdd1c7a1c3d47bbb34ba89d16a61600760009054906101000a900473ffffffffffffffffffffffffffffffffffffffff1682604051611e079291906139dc565b60405180910390a16000600760009054906101000a900473ffffffffffffffffffffffffffffffffffffffff1673ffffffffffffffffffffffffffffffffffffffff1682604051611e5790613633565b60006040518083038185875af1925050503d8060008114611e94576040519150601f19603f3d011682016040523d82523d6000602084013e611e99565b606091505b5050905080611edd576040517f08c379a0000000000000000000000000000000000000000000000000000000008152600401611ed490613c6d565b60405180910390fd5b82341115611f38573373ffffffffffffffffffffffffffffffffffffffff166108fc8434611f0b91906135ce565b9081150290604051600060405180830381858888f19350505050158015611f36573d6000803e3d6000fd5b505b50505050565b6000600160008473ffffffffffffffffffffffffffffffffffffffff1673ffffffffffffffffffffffffffffffffffffffff16815260200190815260200160002060008373ffffffffffffffffffffffffffffffffffffffff1673ffffffffffffffffffffffffffffffffffffffff16815260200190815260200160002054905092915050565b6000606460146064611fd791906135ce565b7f0000000000000000000000000000000000000000000000000000000000000000612002919061352c565b61200c919061359d565b905090565b60008061201c610bff565b905060006010548461202e919061352c565b90506000828561203e919061352c565b90506000600260018761205191906135ce565b8761205c919061352c565b612066919061359d565b90506000670de0b6b3a7640000828461207f91906138d0565b60115461208c919061352c565b612096919061359d565b9050600081856120a691906138d0565b9050809650505050505050919050565b600a60009054906101000a900460ff1681565b600760009054906101000a900473ffffffffffffffffffffffffffffffffffffffff1681565b6000670de0b6b3a7640000612102610bff565b60115461210f919061352c565b612119919061359d565b60105461212691906138d0565b905090565b6121336126f8565b600073ffffffffffffffffffffffffffffffffffffffff168173ffffffffffffffffffffffffffffffffffffffff16036121a55760006040517f1e4fbdf700000000000000000000000000000000000000000000000000000000815260040161219c9190612c82565b60405180910390fd5b6121ae8161277f565b50565b600b5481565b600860009054906101000a900473ffffffffffffffffffffffffffffffffffffffff1673ffffffffffffffffffffffffffffffffffffffff163373ffffffffffffffffffffffffffffffffffffffff1614612247576040517f08c379a000000000000000000000000000000000000000000000000000000000815260040161223e90613405565b60405180910390fd5b600a60009054906101000a900460ff1615612297576040517f08c379a000000000000000000000000000000000000000000000000000000000815260040161228e90613844565b60405180910390fd5b8181905084849050146122df576040517f08c379a00000000000000000000000000000000000000000000000000000000081526004016122d690613cd9565b60405180910390fd5b6000805b858590508110156124515760008686838181106123035761230261338a565b5b90506020020160208101906123189190612cd3565b9050600085858481811061232f5761232e61338a565b5b9050602002013590506000600d60008473ffffffffffffffffffffffffffffffffffffffff1673ffffffffffffffffffffffffffffffffffffffff168152602001908152602001600020541480156123875750600081115b156123f057600f829080600181540180825580915050600190039060005260206000200160009091909190916101000a81548173ffffffffffffffffffffffffffffffffffffffff021916908373ffffffffffffffffffffffffffffffffffffffff1602179055505b80600d60008473ffffffffffffffffffffffffffffffffffffffff1673ffffffffffffffffffffffffffffffffffffffff16815260200190815260200160002081905550808461244091906138d0565b9350505080806001019150506122e3565b5061245a611aaf565b6124638261264e565b11156124a4576040517f08c379a000000000000000000000000000000000000000000000000000000000815260040161249b90613d45565b60405180910390fd5b5050505050565b600033905090565b6124c08383836001612845565b505050565b60006124d18484611f3e565b90507fffffffffffffffffffffffffffffffffffffffffffffffffffffffffffffffff8110156125545781811015612544578281836040517ffb8f41b200000000000000000000000000000000000000000000000000000000815260040161253b93929190613d65565b60405180910390fd5b61255384848484036000612845565b5b50505050565b600073ffffffffffffffffffffffffffffffffffffffff168373ffffffffffffffffffffffffffffffffffffffff16036125cc5760006040517f96c6fd1e0000000000000000000000000000000000000000000000000000000081526004016125c39190612c82565b60405180910390fd5b600073ffffffffffffffffffffffffffffffffffffffff168273ffffffffffffffffffffffffffffffffffffffff160361263e5760006040517fec442f050000000000000000000000000000000000000000000000000000000081526004016126359190612c82565b60405180910390fd5b612649838383612a1c565b505050565b6000612658610c3d565b600a6126649190613ecf565b8261266f919061352c565b9050919050565b600073ffffffffffffffffffffffffffffffffffffffff168273ffffffffffffffffffffffffffffffffffffffff16036126e85760006040517fec442f050000000000000000000000000000000000000000000000000000000081526004016126df9190612c82565b60405180910390fd5b6126f460008383612a1c565b5050565b6127006124ab565b73ffffffffffffffffffffffffffffffffffffffff1661271e611202565b73ffffffffffffffffffffffffffffffffffffffff161461277d576127416124ab565b6040517f118cdaa70000000000000000000000000000000000000000000000000000000081526004016127749190612c82565b60405180910390fd5b565b6000600560009054906101000a900473ffffffffffffffffffffffffffffffffffffffff16905081600560006101000a81548173ffffffffffffffffffffffffffffffffffffffff021916908373ffffffffffffffffffffffffffffffffffffffff1602179055508173ffffffffffffffffffffffffffffffffffffffff168173ffffffffffffffffffffffffffffffffffffffff167f8be0079c531659141344cd1fd0a4f28419497f9722a3daafe3b4186f6b6457e060405160405180910390a35050565b600073ffffffffffffffffffffffffffffffffffffffff168473ffffffffffffffffffffffffffffffffffffffff16036128b75760006040517fe602df050000000000000000000000000000000000000000000000000000000081526004016128ae9190612c82565b60405180910390fd5b600073ffffffffffffffffffffffffffffffffffffffff168373ffffffffffffffffffffffffffffffffffffffff16036129295760006040517f94280d620000000000000000000000000000000000000000000000000000000081526004016129209190612c82565b60405180910390fd5b81600160008673ffffffffffffffffffffffffffffffffffffffff1673ffffffffffffffffffffffffffffffffffffffff16815260200190815260200160002060008573ffffffffffffffffffffffffffffffffffffffff1673ffffffffffffffffffffffffffffffffffffffff168152602001908152602001600020819055508015612a16578273ffffffffffffffffffffffffffffffffffffffff168473ffffffffffffffffffffffffffffffffffffffff167f8c5be1e5ebec7d5bd14f71427d1e84f3dd0314c0f7b2291e5b200ac8c7c3b92584604051612a0d9190612d19565b60405180910390a35b50505050565b600073ffffffffffffffffffffffffffffffffffffffff168373ffffffffffffffffffffffffffffffffffffffff1603612a6e578060026000828254612a6291906138d0565b92505081905550612b41565b60008060008573ffffffffffffffffffffffffffffffffffffffff1673ffffffffffffffffffffffffffffffffffffffff16815260200190815260200160002054905081811015612afa578381836040517fe450d38c000000000000000000000000000000000000000000000000000000008152600401612af193929190613d65565b60405180910390fd5b8181036000808673ffffffffffffffffffffffffffffffffffffffff1673ffffffffffffffffffffffffffffffffffffffff16815260200190815260200160002081905550505b600073ffffffffffffffffffffffffffffffffffffffff168273ffffffffffffffffffffffffffffffffffffffff1603612b8a5780600260008282540392505081905550612bd7565b806000808473ffffffffffffffffffffffffffffffffffffffff1673ffffffffffffffffffffffffffffffffffffffff168152602001908152602001600020600082825401925050819055505b8173ffffffffffffffffffffffffffffffffffffffff168373ffffffffffffffffffffffffffffffffffffffff167fddf252ad1be2c89b69c2b068fc378daa952ba7f163c4a11628f55a4df523b3ef83604051612c349190612d19565b60405180910390a3505050565b600073ffffffffffffffffffffffffffffffffffffffff82169050919050565b6000612c6c82612c41565b9050919050565b612c7c81612c61565b82525050565b6000602082019050612c976000830184612c73565b92915050565b600080fd5b600080fd5b612cb081612c61565b8114612cbb57600080fd5b50565b600081359050612ccd81612ca7565b92915050565b600060208284031215612ce957612ce8612c9d565b5b6000612cf784828501612cbe565b91505092915050565b6000819050919050565b612d1381612d00565b82525050565b6000602082019050612d2e6000830184612d0a565b92915050565b600081519050919050565b600082825260208201905092915050565b60005b83811015612d6e578082015181840152602081019050612d53565b60008484015250505050565b6000601f19601f8301169050919050565b6000612d9682612d34565b612da08185612d3f565b9350612db0818560208601612d50565b612db981612d7a565b840191505092915050565b60006020820190508181036000830152612dde8184612d8b565b905092915050565b612def81612d00565b8114612dfa57600080fd5b50565b600081359050612e0c81612de6565b92915050565b60008060408385031215612e2957612e28612c9d565b5b6000612e3785828601612cbe565b9250506020612e4885828601612dfd565b9150509250929050565b60008115159050919050565b612e6781612e52565b82525050565b6000602082019050612e826000830184612e5e565b92915050565b600081519050919050565b600082825260208201905092915050565b6000819050602082019050919050565b612ebd81612c61565b82525050565b6000612ecf8383612eb4565b60208301905092915050565b6000602082019050919050565b6000612ef382612e88565b612efd8185612e93565b9350612f0883612ea4565b8060005b83811015612f39578151612f208882612ec3565b9750612f2b83612edb565b925050600181019050612f0c565b5085935050505092915050565b600081519050919050565b600082825260208201905092915050565b6000819050602082019050919050565b612f7b81612d00565b82525050565b6000612f8d8383612f72565b60208301905092915050565b6000602082019050919050565b6000612fb182612f46565b612fbb8185612f51565b9350612fc683612f62565b8060005b83811015612ff7578151612fde8882612f81565b9750612fe983612f99565b925050600181019050612fca565b5085935050505092915050565b6000604082019050818103600083015261301e8185612ee8565b905081810360208301526130328184612fa6565b90509392505050565b60008060006060848603121561305457613053612c9d565b5b600061306286828701612cbe565b935050602061307386828701612cbe565b925050604061308486828701612dfd565b9150509250925092565b600060ff82169050919050565b6130a48161308e565b82525050565b60006020820190506130bf600083018461309b565b92915050565b6000602082840312156130db576130da612c9d565b5b60006130e984828501612dfd565b91505092915050565b600061012082019050613108600083018c612c73565b613115602083018b612c73565b613122604083018a612d0a565b61312f6060830189612d0a565b61313c6080830188612d0a565b61314960a0830187612d0a565b61315660c0830186612d0a565b61316360e0830185612e5e565b613171610100830184612d0a565b9a9950505050505050505050565b6000806040838503121561319657613195612c9d565b5b60006131a485828601612cbe565b92505060206131b585828601612cbe565b9150509250929050565b600080fd5b600080fd5b600080fd5b60008083601f8401126131e4576131e36131bf565b5b8235905067ffffffffffffffff811115613201576132006131c4565b5b60208301915083602082028301111561321d5761321c6131c9565b5b9250929050565b60008083601f84011261323a576132396131bf565b5b8235905067ffffffffffffffff811115613257576132566131c4565b5b602083019150836020820283011115613273576132726131c9565b5b9250929050565b6000806000806040858703121561329457613293612c9d565b5b600085013567ffffffffffffffff8111156132b2576132b1612ca2565b5b6132be878288016131ce565b9450945050602085013567ffffffffffffffff8111156132e1576132e0612ca2565b5b6132ed87828801613224565b925092505092959194509250565b7f4e487b7100000000000000000000000000000000000000000000000000000000600052602260045260246000fd5b6000600282049050600182168061334257607f821691505b602082108103613355576133546132fb565b5b50919050565b7f4e487b7100000000000000000000000000000000000000000000000000000000600052604160045260246000fd5b7f4e487b7100000000000000000000000000000000000000000000000000000000600052603260045260246000fd5b7f4e6f742063726561746f72000000000000000000000000000000000000000000600082015250565b60006133ef600b83612d3f565b91506133fa826133b9565b602082019050919050565b6000602082019050818103600083015261341e816133e2565b9050919050565b7f4e6f7468696e6720746f20776974686472617700000000000000000000000000600082015250565b600061345b601383612d3f565b915061346682613425565b602082019050919050565b6000602082019050818103600083015261348a8161344e565b9050919050565b7f4e6f742067726164756174656420796574000000000000000000000000000000600082015250565b60006134c7601183612d3f565b91506134d282613491565b602082019050919050565b600060208201905081810360008301526134f6816134ba565b9050919050565b7f4e487b7100000000000000000000000000000000000000000000000000000000600052601160045260246000fd5b600061353782612d00565b915061354283612d00565b925082820261355081612d00565b91508282048414831517613567576135666134fd565b5b5092915050565b7f4e487b7100000000000000000000000000000000000000000000000000000000600052601260045260246000fd5b60006135a882612d00565b91506135b383612d00565b9250826135c3576135c261356e565b5b828204905092915050565b60006135d982612d00565b91506135e483612d00565b92508282039050818111156135fc576135fb6134fd565b5b92915050565b600081905092915050565b50565b600061361d600083613602565b91506136288261360d565b600082019050919050565b600061363e82613610565b9150819050919050565b7f506c6174666f726d207769746864726177616c206661696c6564000000000000600082015250565b600061367e601a83612d3f565b915061368982613648565b602082019050919050565b600060208201905081810360008301526136ad81613671565b9050919050565b7f4e6f742067726164756174656400000000000000000000000000000000000000600082015250565b60006136ea600d83612d3f565b91506136f5826136b4565b602082019050919050565b60006020820190508181036000830152613719816136dd565b9050919050565b7f416c726561647920636c61696d65640000000000000000000000000000000000600082015250565b6000613756600f83612d3f565b915061376182613720565b602082019050919050565b6000602082019050818103600083015261378581613749565b9050919050565b7f4e6f20616c6c6f636174696f6e00000000000000000000000000000000000000600082015250565b60006137c2600d83612d3f565b91506137cd8261378c565b602082019050919050565b600060208201905081810360008301526137f1816137b5565b9050919050565b7f416c726561647920677261647561746564000000000000000000000000000000600082015250565b600061382e601183612d3f565b9150613839826137f8565b602082019050919050565b6000602082019050818103600083015261385d81613821565b9050919050565b7f496e73756666696369656e74204554482073656e740000000000000000000000600082015250565b600061389a601583612d3f565b91506138a582613864565b602082019050919050565b600060208201905081810360008301526138c98161388d565b9050919050565b60006138db82612d00565b91506138e683612d00565b92508282019050808211156138fe576138fd6134fd565b5b92915050565b7f4578636565647320617661696c61626c6520737570706c790000000000000000600082015250565b600061393a601883612d3f565b915061394582613904565b602082019050919050565b600060208201905081810360008301526139698161392d565b9050919050565b7f45786365656473206c6f636b20616c6c6f636174696f6e000000000000000000600082015250565b60006139a6601783612d3f565b91506139b182613970565b602082019050919050565b600060208201905081810360008301526139d581613999565b9050919050565b60006040820190506139f16000830185612c73565b6139fe6020830184612d0a565b9392505050565b7f506c6174666f726d206665652063616c6c206661696c65640000000000000000600082015250565b6000613a3b601883612d3f565b9150613a4682613a05565b602082019050919050565b60006020820190508181036000830152613a6a81613a2e565b9050919050565b7f526566756e64206661696c656400000000000000000000000000000000000000600082015250565b6000613aa7600d83612d3f565b9150613ab282613a71565b602082019050919050565b60006020820190508181036000830152613ad681613a9a565b9050919050565b7f4e6f206c6f636b656420746f6b656e7300000000000000000000000000000000600082015250565b6000613b13601083612d3f565b9150613b1e82613add565b602082019050919050565b60006020820190508181036000830152613b4281613b06565b9050919050565b7f526169736520746172676574206e6f74206d6574000000000000000000000000600082015250565b6000613b7f601483612d3f565b9150613b8a82613b49565b602082019050919050565b60006020820190508181036000830152613bae81613b72565b9050919050565b7f4d7573742072657365727665204c502f61697264726f70000000000000000000600082015250565b6000613beb601783612d3f565b9150613bf682613bb5565b602082019050919050565b60006020820190508181036000830152613c1a81613bde565b9050919050565b7f506c6174666f726d20666565207472616e73666572206661696c656400000000600082015250565b6000613c57601c83612d3f565b9150613c6282613c21565b602082019050919050565b60006020820190508181036000830152613c8681613c4a565b9050919050565b7f4c656e677468206d69736d617463680000000000000000000000000000000000600082015250565b6000613cc3600f83612d3f565b9150613cce82613c8d565b602082019050919050565b60006020820190508181036000830152613cf281613cb6565b9050919050565b7f457863656564732061697264726f702072657365727665000000000000000000600082015250565b6000613d2f601783612d3f565b9150613d3a82613cf9565b602082019050919050565b60006020820190508181036000830152613d5e81613d22565b9050919050565b6000606082019050613d7a6000830186612c73565b613d876020830185612d0a565b613d946040830184612d0a565b949350505050565b60008160011c9050919050565b6000808291508390505b6001851115613df357808604811115613dcf57613dce6134fd565b5b6001851615613dde5780820291505b8081029050613dec85613d9c565b9450613db3565b94509492505050565b600082613e0c5760019050613ec8565b81613e1a5760009050613ec8565b8160018114613e305760028114613e3a57613e69565b6001915050613ec8565b60ff841115613e4c57613e4b6134fd565b5b8360020a915084821115613e6357613e626134fd565b5b50613ec8565b5060208310610133831016604e8410600b8410161715613e9e5782820a905083811115613e9957613e986134fd565b5b613ec8565b613eab8484846001613da9565b92509050818404811115613ec257613ec16134fd565b5b81810290505b9392505050565b6000613eda82612d00565b9150613ee58361308e565b9250613f127fffffffffffffffffffffffffffffffffffffffffffffffffffffffffffffffff8484613dfc565b90509291505056fea264697066735822122079050bd6b463303ee25485b62e81a1972b46597a63d3e6748c3167f89dfd476c64736f6c634300081c0033",
  "linkReferences": {},
  "deployedLinkReferences": {}
}