{
  "_format": "hh-sol-artifact-1",
  "contractName": "TurboToken",
  "sourceName": "contracts/TurboToken.sol",
  "abi": [
    {
      "inputs": [
        {
          "internalType": "string",
          "name": "name_",
          "type": "string"
        },
        {
          "internalType": "string",
          "name": "symbol_",
          "type": "string"
        },
        {
          "internalType": "uint256",
          "name": "raiseTarget_",
          "type": "uint256"
        },
        {
          "internalType": "address",
          "name": "creator_",
          "type": "address"
        },
        {
          "internalType": "uint256",
          "name": "maxSupply_",
          "type": "uint256"
        },
        {
          "internalType": "address",
          "name": "platformFeeRecipient_",
          "type": "address"
        },
        {
          "internalType": "address",
          "name": "dexRouter_",
          "type": "address"
        }
      ],
      "stateMutability": "nonpayable",
      "type": "constructor"
    },
    {
      "inputs": [
        {
          "internalType": "address",
          "name": "spender",
          "type": "address"
        },
        {
          "internalType": "uint256",
          "name": "allowance",
          "type": "uint256"
        },
        {
          "internalType": "uint256",
          "name": "needed",
          "type": "uint256"
        }
      ],
      "name": "ERC20InsufficientAllowance",
      "type": "error"
    },
    {
      "inputs": [
        {
          "internalType": "address",
          "name": "sender",
          "type": "address"
        },
        {
          "internalType": "uint256",
          "name": "balance",
          "type": "uint256"
        },
        {
          "internalType": "uint256",
          "name": "needed",
          "type": "uint256"
        }
      ],
      "name": "ERC20InsufficientBalance",
      "type": "error"
    },
    {
      "inputs": [
        {
          "internalType": "address",
          "name": "approver",
          "type": "address"
        }
      ],
      "name": "ERC20InvalidApprover",
      "type": "error"
    },
    {
      "inputs": [
        {
          "internalType": "address",
          "name": "receiver",
          "type": "address"
        }
      ],
      "name": "ERC20InvalidReceiver",
      "type": "error"
    },
    {
      "inputs": [
        {
          "internalType": "address",
          "name": "sender",
          "type": "address"
        }
      ],
      "name": "ERC20InvalidSender",
      "type": "error"
    },
    {
      "inputs": [
        {
          "internalType": "address",
          "name": "spender",
          "type": "address"
        }
      ],
      "name": "ERC20InvalidSpender",
      "type": "error"
    },
    {
      "inputs": [
        {
          "internalType": "address",
          "name": "owner",
          "type": "address"
        }
      ],
      "name": "OwnableInvalidOwner",
      "type": "error"
    },
    {
      "inputs": [
        {
          "internalType": "address",
          "name": "account",
          "type": "address"
        }
      ],
      "name": "OwnableUnauthorizedAccount",
      "type": "error"
    },
    {
      "inputs": [],
      "name": "ReentrancyGuardReentrantCall",
      "type": "error"
    },
    {
      "anonymous": false,
      "inputs": [
        {
          "indexed": true,
          "internalType": "address",
          "name": "owner",
          "type": "address"
        },
        {
          "indexed": true,
          "internalType": "address",
          "name": "spender",
          "type": "address"
        },
        {
          "indexed": false,
          "internalType": "uint256",
          "name": "value",
          "type": "uint256"
        }
      ],
      "name": "Approval",
      "type": "event"
    },
    {
      "anonymous": false,
      "inputs": [
        {
          "indexed": true,
          "internalType": "address",
          "name": "to",
          "type": "address"
        },
        {
          "indexed": false,
          "internalType": "uint256",
          "name": "amount",
          "type": "uint256"
        }
      ],
      "name": "FeesTransferred",
      "type": "event"
    },
    {
      "anonymous": false,
      "inputs": [
        {
          "indexed": true,
          "internalType": "address",
          "name": "by",
          "type": "address"
        },
        {
          "indexed": false,
          "internalType": "uint256",
          "name": "ethAddedToLP",
          "type": "uint256"
        },
        {
          "indexed": false,
          "internalType": "uint256",
          "name": "tokensAddedToLP",
          "type": "uint256"
        }
      ],
      "name": "Graduated",
      "type": "event"
    },
    {
      "anonymous": false,
      "inputs": [
        {
          "indexed": true,
          "internalType": "address",
          "name": "pair",
          "type": "address"
        },
        {
          "indexed": false,
          "internalType": "uint256",
          "name": "creatorLP",
          "type": "uint256"
        },
        {
          "indexed": false,
          "internalType": "uint256",
          "name": "platformLP",
          "type": "uint256"
        }
      ],
      "name": "LPSplit",
      "type": "event"
    },
    {
      "anonymous": false,
      "inputs": [
        {
          "indexed": true,
          "internalType": "address",
          "name": "previousOwner",
          "type": "address"
        },
        {
          "indexed": true,
          "internalType": "address",
          "name": "newOwner",
          "type": "address"
        }
      ],
      "name": "OwnershipTransferred",
      "type": "event"
    },
    {
      "anonymous": false,
      "inputs": [
        {
          "indexed": true,
          "internalType": "address",
          "name": "pair",
          "type": "address"
        },
        {
          "indexed": false,
          "internalType": "uint256",
          "name": "liquidity",
          "type": "uint256"
        }
      ],
      "name": "PoolCreated",
      "type": "event"
    },
    {
      "anonymous": false,
      "inputs": [
        {
          "indexed": true,
          "internalType": "address",
          "name": "from",
          "type": "address"
        },
        {
          "indexed": true,
          "internalType": "address",
          "name": "to",
          "type": "address"
        },
        {
          "indexed": false,
          "internalType": "uint256",
          "name": "value",
          "type": "uint256"
        }
      ],
      "name": "Transfer",
      "type": "event"
    },
    {
      "inputs": [],
      "name": "MAX_AIRDROP_BPS",
      "outputs": [
        {
          "internalType": "uint256",
          "name": "",
          "type": "uint256"
        }
      ],
      "stateMutability": "view",
      "type": "function"
    },
    {
      "inputs": [],
      "name": "MAX_CREATOR_LOCK_BPS",
      "outputs": [
        {
          "internalType": "uint256",
          "name": "",
          "type": "uint256"
        }
      ],
      "stateMutability": "view",
      "type": "function"
    },
    {
      "inputs": [],
      "name": "MAX_SALE_BPS",
      "outputs": [
        {
          "internalType": "uint256",
          "name": "",
          "type": "uint256"
        }
      ],
      "stateMutability": "view",
      "type": "function"
    },
    {
      "inputs": [
        {
          "internalType": "address",
          "name": "",
          "type": "address"
        }
      ],
      "name": "airdropAllocations",
      "outputs": [
        {
          "internalType": "uint256",
          "name": "",
          "type": "uint256"
        }
      ],
      "stateMutability": "view",
      "type": "function"
    },
    {
      "inputs": [
        {
          "internalType": "address",
          "name": "",
          "type": "address"
        }
      ],
      "name": "airdropClaimed",
      "outputs": [
        {
          "internalType": "bool",
          "name": "",
          "type": "bool"
        }
      ],
      "stateMutability": "view",
      "type": "function"
    },
    {
      "inputs": [],
      "name": "airdropFinalized",
      "outputs": [
        {
          "internalType": "bool",
          "name": "",
          "type": "bool"
        }
      ],
      "stateMutability": "view",
      "type": "function"
    },
    {
      "inputs": [
        {
          "internalType": "uint256",
          "name": "",
          "type": "uint256"
        }
      ],
      "name": "airdropRecipients",
      "outputs": [
        {
          "internalType": "address",
          "name": "",
          "type": "address"
        }
      ],
      "stateMutability": "view",
      "type": "function"
    },
    {
      "inputs": [
        {
          "internalType": "address",
          "name": "owner",
          "type": "address"
        },
        {
          "internalType": "address",
          "name": "spender",
          "type": "address"
        }
      ],
      "name": "allowance",
      "outputs": [
        {
          "internalType": "uint256",
          "name": "",
          "type": "uint256"
        }
      ],
      "stateMutability": "view",
      "type": "function"
    },
    {
      "inputs": [
        {
          "internalType": "address",
          "name": "spender",
          "type": "address"
        },
        {
          "internalType": "uint256",
          "name": "value",
          "type": "uint256"
        }
      ],
      "name": "approve",
      "outputs": [
        {
          "internalType": "bool",
          "name": "",
          "type": "bool"
        }
      ],
      "stateMutability": "nonpayable",
      "type": "function"
    },
    {
      "inputs": [
        {
          "internalType": "address",
          "name": "account",
          "type": "address"
        }
      ],
      "name": "balanceOf",
      "outputs": [
        {
          "internalType": "uint256",
          "name": "",
          "type": "uint256"
        }
      ],
      "stateMutability": "view",
      "type": "function"
    },
    {
      "inputs": [],
      "name": "basePrice",
      "outputs": [
        {
          "internalType": "uint256",
          "name": "",
          "type": "uint256"
        }
      ],
      "stateMutability": "view",
      "type": "function"
    },
    {
      "inputs": [
        {
          "internalType": "uint256",
          "name": "amount",
          "type": "uint256"
        }
      ],
      "name": "buy",
      "outputs": [],
      "stateMutability": "payable",
      "type": "function"
    },
    {
      "inputs": [],
      "name": "claimAirdrop",
      "outputs": [],
      "stateMutability": "nonpayable",
      "type": "function"
    },
    {
      "inputs": [],
      "name": "creator",
      "outputs": [
        {
          "internalType": "address",
          "name": "",
          "type": "address"
        }
      ],
      "stateMutability": "view",
      "type": "function"
    },
    {
      "inputs": [
        {
          "internalType": "uint256",
          "name": "amount",
          "type": "uint256"
        }
      ],
      "name": "creatorBuy",
      "outputs": [],
      "stateMutability": "payable",
      "type": "function"
    },
    {
      "inputs": [],
      "name": "creatorLockAmount",
      "outputs": [
        {
          "internalType": "uint256",
          "name": "",
          "type": "uint256"
        }
      ],
      "stateMutability": "view",
      "type": "function"
    },
    {
      "inputs": [],
      "name": "decimals",
      "outputs": [
        {
          "internalType": "uint8",
          "name": "",
          "type": "uint8"
        }
      ],
      "stateMutability": "view",
      "type": "function"
    },
    {
      "inputs": [],
      "name": "dexRouter",
      "outputs": [
        {
          "internalType": "address",
          "name": "",
          "type": "address"
        }
      ],
      "stateMutability": "view",
      "type": "function"
    },
    {
      "inputs": [],
      "name": "feesAccruedWei",
      "outputs": [
        {
          "internalType": "uint256",
          "name": "",
          "type": "uint256"
        }
      ],
      "stateMutability": "view",
      "type": "function"
    },
    {
      "inputs": [],
      "name": "finalizeIfReady",
      "outputs": [],
      "stateMutability": "nonpayable",
      "type": "function"
    },
    {
      "inputs": [],
      "name": "getAirdropAllocations",
      "outputs": [
        {
          "internalType": "address[]",
          "name": "",
          "type": "address[]"
        },
        {
          "internalType": "uint256[]",
          "name": "",
          "type": "uint256[]"
        }
      ],
      "stateMutability": "view",
      "type": "function"
    },
    {
      "inputs": [],
      "name": "getCurrentPrice",
      "outputs": [
        {
          "internalType": "uint256",
          "name": "",
          "type": "uint256"
        }
      ],
      "stateMutability": "view",
      "type": "function"
    },
    {
      "inputs": [
        {
          "internalType": "uint256",
          "name": "amount",
          "type": "uint256"
        }
      ],
      "name": "getPrice",
      "outputs": [
        {
          "internalType": "uint256",
          "name": "",
          "type": "uint256"
        }
      ],
      "stateMutability": "view",
      "type": "function"
    },
    {
      "inputs": [
        {
          "internalType": "uint256",
          "name": "amount",
          "type": "uint256"
        }
      ],
      "name": "getSellPrice",
      "outputs": [
        {
          "internalType": "uint256",
          "name": "",
          "type": "uint256"
        }
      ],
      "stateMutability": "view",
      "type": "function"
    },
    {
      "inputs": [],
      "name": "graduate",
      "outputs": [],
      "stateMutability": "nonpayable",
      "type": "function"
    },
    {
      "inputs": [],
      "name": "graduated",
      "outputs": [
        {
          "internalType": "bool",
          "name": "",
          "type": "bool"
        }
      ],
      "stateMutability": "view",
      "type": "function"
    },
    {
      "inputs": [
        {
          "internalType": "address",
          "name": "",
          "type": "address"
        }
      ],
      "name": "lockedBalances",
      "outputs": [
        {
          "internalType": "uint256",
          "name": "",
          "type": "uint256"
        }
      ],
      "stateMutability": "view",
      "type": "function"
    },
    {
      "inputs": [],
      "name": "maxAirdropSupply",
      "outputs": [
        {
          "internalType": "uint256",
          "name": "",
          "type": "uint256"
        }
      ],
      "stateMutability": "view",
      "type": "function"
    },
    {
      "inputs": [],
      "name": "maxCreatorLock",
      "outputs": [
        {
          "internalType": "uint256",
          "name": "",
          "type": "uint256"
        }
      ],
      "stateMutability": "view",
      "type": "function"
    },
    {
      "inputs": [],
      "name": "maxSaleSupply",
      "outputs": [
        {
          "internalType": "uint256",
          "name": "",
          "type": "uint256"
        }
      ],
      "stateMutability": "view",
      "type": "function"
    },
    {
      "inputs": [],
      "name": "maxSupply",
      "outputs": [
        {
          "internalType": "uint256",
          "name": "",
          "type": "uint256"
        }
      ],
      "stateMutability": "view",
      "type": "function"
    },
    {
      "inputs": [],
      "name": "name",
      "outputs": [
        {
          "internalType": "string",
          "name": "",
          "type": "string"
        }
      ],
      "stateMutability": "view",
      "type": "function"
    },
    {
      "inputs": [],
      "name": "owner",
      "outputs": [
        {
          "internalType": "address",
          "name": "",
          "type": "address"
        }
      ],
      "stateMutability": "view",
      "type": "function"
    },
    {
      "inputs": [],
      "name": "platformFeeRecipient",
      "outputs": [
        {
          "internalType": "address",
          "name": "",
          "type": "address"
        }
      ],
      "stateMutability": "view",
      "type": "function"
    },
    {
      "inputs": [],
      "name": "raiseTarget",
      "outputs": [
        {
          "internalType": "uint256",
          "name": "",
          "type": "uint256"
        }
      ],
      "stateMutability": "view",
      "type": "function"
    },
    {
      "inputs": [],
      "name": "remainingForLP",
      "outputs": [
        {
          "internalType": "uint256",
          "name": "",
          "type": "uint256"
        }
      ],
      "stateMutability": "view",
      "type": "function"
    },
    {
      "inputs": [],
      "name": "renounceOwnership",
      "outputs": [],
      "stateMutability": "nonpayable",
      "type": "function"
    },
    {
      "inputs": [],
      "name": "reservedForAirdrop",
      "outputs": [
        {
          "internalType": "uint256",
          "name": "",
          "type": "uint256"
        }
      ],
      "stateMutability": "view",
      "type": "function"
    },
    {
      "inputs": [
        {
          "internalType": "uint256",
          "name": "amount",
          "type": "uint256"
        }
      ],
      "name": "sell",
      "outputs": [],
      "stateMutability": "nonpayable",
      "type": "function"
    },
    {
      "inputs": [
        {
          "internalType": "address[]",
          "name": "recipients",
          "type": "address[]"
        },
        {
          "internalType": "uint256[]",
          "name": "amounts",
          "type": "uint256[]"
        }
      ],
      "name": "setAirdropAllocations",
      "outputs": [],
      "stateMutability": "nonpayable",
      "type": "function"
    },
    {
      "inputs": [],
      "name": "slope",
      "outputs": [
        {
          "internalType": "uint256",
          "name": "",
          "type": "uint256"
        }
      ],
      "stateMutability": "view",
      "type": "function"
    },
    {
      "inputs": [],
      "name": "symbol",
      "outputs": [
        {
          "internalType": "string",
          "name": "",
          "type": "string"
        }
      ],
      "stateMutability": "view",
      "type": "function"
    },
    {
      "inputs": [],
      "name": "tokenInfo",
      "outputs": [
        {
          "internalType": "address",
          "name": "_creator",
          "type": "address"
        },
        {
          "internalType": "address",
          "name": "_platformFeeRecipient",
          "type": "address"
        },
        {
          "internalType": "uint256",
          "name": "_raiseTarget",
          "type": "uint256"
        },
        {
          "internalType": "uint256",
          "name": "_maxSupply",
          "type": "uint256"
        },
        {
          "internalType": "uint256",
          "name": "_basePrice",
          "type": "uint256"
        },
        {
          "internalType": "uint256",
          "name": "_slope",
          "type": "uint256"
        },
        {
          "internalType": "uint256",
          "name": "_totalRaised",
          "type": "uint256"
        },
        {
          "internalType": "bool",
          "name": "_graduated",
          "type": "bool"
        },
        {
          "internalType": "uint256",
          "name": "_creatorLockAmount",
          "type": "uint256"
        }
      ],
      "stateMutability": "view",
      "type": "function"
    },
    {
      "inputs": [],
      "name": "totalAirdropAllocated",
      "outputs": [
        {
          "internalType": "uint256",
          "name": "total",
          "type": "uint256"
        }
      ],
      "stateMutability": "view",
      "type": "function"
    },
    {
      "inputs": [],
      "name": "totalRaised",
      "outputs": [
        {
          "internalType": "uint256",
          "name": "",
          "type": "uint256"
        }
      ],
      "stateMutability": "view",
      "type": "function"
    },
    {
      "inputs": [],
      "name": "totalSupply",
      "outputs": [
        {
          "internalType": "uint256",
          "name": "",
          "type": "uint256"
        }
      ],
      "stateMutability": "view",
      "type": "function"
    },
    {
      "inputs": [
        {
          "internalType": "address",
          "name": "to",
          "type": "address"
        },
        {
          "internalType": "uint256",
          "name": "value",
          "type": "uint256"
        }
      ],
      "name": "transfer",
      "outputs": [
        {
          "internalType": "bool",
          "name": "",
          "type": "bool"
        }
      ],
      "stateMutability": "nonpayable",
      "type": "function"
    },
    {
      "inputs": [
        {
          "internalType": "address",
          "name": "from",
          "type": "address"
        },
        {
          "internalType": "address",
          "name": "to",
          "type": "address"
        },
        {
          "internalType": "uint256",
          "name": "value",
          "type": "uint256"
        }
      ],
      "name": "transferFrom",
      "outputs": [
        {
          "internalType": "bool",
          "name": "",
          "type": "bool"
        }
      ],
      "stateMutability": "nonpayable",
      "type": "function"
    },
    {
      "inputs": [
        {
          "internalType": "address",
          "name": "newOwner",
          "type": "address"
        }
      ],
      "name": "transferOwnership",
      "outputs": [],
      "stateMutability": "nonpayable",
      "type": "function"
    },
    {
      "inputs": [],
      "name": "unclaimedAirdropAmount",
      "outputs": [
        {
          "internalType": "uint256",
          "name": "total",
          "type": "uint256"
        }
      ],
      "stateMutability": "view",
      "type": "function"
    },
    {
      "inputs": [],
      "name": "unlockCreatorTokens",
      "outputs": [],
      "stateMutability": "nonpayable",
      "type": "function"
    },
    {
      "inputs": [],
      "name": "withdraw",
      "outputs": [],
      "stateMutability": "pure",
      "type": "function"
    },
    {
      "stateMutability": "payable",
      "type": "receive"
    }
  ],
  "bytecode": "0x60c060405234801561001057600080fd5b50604051615d91380380615d91833981810160405281019061003291906106b1565b838787816003908161004491906109a2565b50806004908161005491906109a2565b505050600073ffffffffffffffffffffffffffffffffffffffff168173ffffffffffffffffffffffffffffffffffffffff16036100c95760006040517f1e4fbdf70000000000000000000000000000000000000000000000000000000081526004016100c09190610a83565b60405180910390fd5b6100d8816103b560201b60201c565b506001600681905550600073ffffffffffffffffffffffffffffffffffffffff168473ffffffffffffffffffffffffffffffffffffffff1603610150576040517f08c379a000000000000000000000000000000000000000000000000000000000815260040161014790610afb565b60405180910390fd5b600073ffffffffffffffffffffffffffffffffffffffff168273ffffffffffffffffffffffffffffffffffffffff16036101bf576040517f08c379a00000000000000000000000000000000000000000000000000000000081526004016101b690610b67565b60405180910390fd5b600073ffffffffffffffffffffffffffffffffffffffff168173ffffffffffffffffffffffffffffffffffffffff160361022e576040517f08c379a000000000000000000000000000000000000000000000000000000000815260040161022590610bd3565b60405180910390fd5b8460078190555083600960006101000a81548173ffffffffffffffffffffffffffffffffffffffff021916908373ffffffffffffffffffffffffffffffffffffffff160217905550826080818152505081600860006101000a81548173ffffffffffffffffffffffffffffffffffffffff021916908373ffffffffffffffffffffffffffffffffffffffff1602179055508073ffffffffffffffffffffffffffffffffffffffff1660a08173ffffffffffffffffffffffffffffffffffffffff16815250506000612710611b58856103069190610c22565b6103109190610c93565b905060006104e1905061035f670de0b6b3a76400008860026103329190610c22565b61033c9190610c22565b8260016103499190610cc4565b846103549190610c22565b61047b60201b60201c565b6012819055506103a1670de0b6b3a76400006012546001846103819190610cf8565b61038b9190610c22565b6103959190610c22565b8361047b60201b60201c565b601381905550505050505050505050610d2c565b6000600560009054906101000a900473ffffffffffffffffffffffffffffffffffffffff16905081600560006101000a81548173ffffffffffffffffffffffffffffffffffffffff021916908373ffffffffffffffffffffffffffffffffffffffff1602179055508173ffffffffffffffffffffffffffffffffffffffff168173ffffffffffffffffffffffffffffffffffffffff167f8be0079c531659141344cd1fd0a4f28419497f9722a3daafe3b4186f6b6457e060405160405180910390a35050565b6000816001838561048c9190610cc4565b6104969190610cf8565b6104a09190610c93565b905092915050565b6000604051905090565b600080fd5b600080fd5b600080fd5b600080fd5b6000601f19601f8301169050919050565b7f4e487b7100000000000000000000000000000000000000000000000000000000600052604160045260246000fd5b61050f826104c6565b810181811067ffffffffffffffff8211171561052e5761052d6104d7565b5b80604052505050565b60006105416104a8565b905061054d8282610506565b919050565b600067ffffffffffffffff82111561056d5761056c6104d7565b5b610576826104c6565b9050602081019050919050565b60005b838110156105a1578082015181840152602081019050610586565b60008484015250505050565b60006105c06105bb84610552565b610537565b9050828152602081018484840111156105dc576105db6104c1565b5b6105e7848285610583565b509392505050565b600082601f830112610604576106036104bc565b5b81516106148482602086016105ad565b91505092915050565b6000819050919050565b6106308161061d565b811461063b57600080fd5b50565b60008151905061064d81610627565b92915050565b600073ffffffffffffffffffffffffffffffffffffffff82169050919050565b600061067e82610653565b9050919050565b61068e81610673565b811461069957600080fd5b50565b6000815190506106ab81610685565b92915050565b600080600080600080600060e0888a0312156106d0576106cf6104b2565b5b600088015167ffffffffffffffff8111156106ee576106ed6104b7565b5b6106fa8a828b016105ef565b975050602088015167ffffffffffffffff81111561071b5761071a6104b7565b5b6107278a828b016105ef565b96505060406107388a828b0161063e565b95505060606107498a828b0161069c565b945050608061075a8a828b0161063e565b93505060a061076b8a828b0161069c565b92505060c061077c8a828b0161069c565b91505092959891949750929550565b600081519050919050565b7f4e487b7100000000000000000000000000000000000000000000000000000000600052602260045260246000fd5b600060028204905060018216806107dd57607f821691505b6020821081036107f0576107ef610796565b5b50919050565b60008190508160005260206000209050919050565b60006020601f8301049050919050565b600082821b905092915050565b6000600883026108587fffffffffffffffffffffffffffffffffffffffffffffffffffffffffffffffff8261081b565b610862868361081b565b95508019841693508086168417925050509392505050565b6000819050919050565b600061089f61089a6108958461061d565b61087a565b61061d565b9050919050565b6000819050919050565b6108b983610884565b6108cd6108c5826108a6565b848454610828565b825550505050565b600090565b6108e26108d5565b6108ed8184846108b0565b505050565b5b81811015610911576109066000826108da565b6001810190506108f3565b5050565b601f82111561095657610927816107f6565b6109308461080b565b8101602085101561093f578190505b61095361094b8561080b565b8301826108f2565b50505b505050565b600082821c905092915050565b60006109796000198460080261095b565b1980831691505092915050565b60006109928383610968565b9150826002028217905092915050565b6109ab8261078b565b67ffffffffffffffff8111156109c4576109c36104d7565b5b6109ce82546107c5565b6109d9828285610915565b600060209050601f831160018114610a0c57600084156109fa578287015190505b610a048582610986565b865550610a6c565b601f198416610a1a866107f6565b60005b82811015610a4257848901518255600182019150602085019450602081019050610a1d565b86831015610a5f5784890151610a5b601f891682610968565b8355505b6001600288020188555050505b505050505050565b610a7d81610673565b82525050565b6000602082019050610a986000830184610a74565b92915050565b600082825260208201905092915050565b7f63726561746f723d300000000000000000000000000000000000000000000000600082015250565b6000610ae5600983610a9e565b9150610af082610aaf565b602082019050919050565b60006020820190508181036000830152610b1481610ad8565b9050919050565b7f706c6174666f726d3d3000000000000000000000000000000000000000000000600082015250565b6000610b51600a83610a9e565b9150610b5c82610b1b565b602082019050919050565b60006020820190508181036000830152610b8081610b44565b9050919050565b7f726f757465723d30000000000000000000000000000000000000000000000000600082015250565b6000610bbd600883610a9e565b9150610bc882610b87565b602082019050919050565b60006020820190508181036000830152610bec81610bb0565b9050919050565b7f4e487b7100000000000000000000000000000000000000000000000000000000600052601160045260246000fd5b6000610c2d8261061d565b9150610c388361061d565b9250828202610c468161061d565b91508282048414831517610c5d57610c5c610bf3565b5b5092915050565b7f4e487b7100000000000000000000000000000000000000000000000000000000600052601260045260246000fd5b6000610c9e8261061d565b9150610ca98361061d565b925082610cb957610cb8610c64565b5b828204905092915050565b6000610ccf8261061d565b9150610cda8361061d565b9250828201905080821115610cf257610cf1610bf3565b5b92915050565b6000610d038261061d565b9150610d0e8361061d565b9250828203905081811115610d2657610d25610bf3565b5b92915050565b60805160a051615008610d8960003960008181610cd601528181612fd6015261301d0152600081816112870152818161145a0152818161155e0152818161168901528181611f7501528181612659015261268c01526150086000f3fe6080604052600436106103035760003560e01c80639a24124711610190578063d3618cca116100dc578063e7c2b77211610095578063f0cf9e5a1161006f578063f0cf9e5a14610b56578063f2fde38b14610b81578063f4227e9514610baa578063fc6fec4c14610bd55761030a565b8063e7c2b77214610ad5578063eb13554f14610b00578063eb91d37e14610b2b5761030a565b8063d3618cca146109d4578063d5abeb01146109eb578063d96a094a14610a16578063dd62ed3e14610a32578063e4849b3214610a6f578063e757223014610a985761030a565b8063b4105e0611610149578063c5c4744c11610123578063c5c4744c14610904578063c7876ea41461092f578063cdbbf1861461095a578063d1b6dd30146109975761030a565b8063b4105e0614610885578063ba730e531461089c578063be8755a9146108d95761030a565b80639a24124714610794578063a9059cbb146107bf578063aa85be80146107fc578063ae762a0e14610813578063b29418d51461083e578063b34ffc5f146108695761030a565b8063646304a11161024f57806383caf275116102085780638da5cb5b116101e25780638da5cb5b146106e857806391961e321461071357806395d89b411461073e57806398423182146107695761030a565b806383caf2751461066757806385131976146106925780638b93b0f5146106bd5761030a565b8063646304a11461054d57806369437dca1461058a5780636addb663146105b557806370a08231146105e8578063715018a6146106255780638375f21b1461063c5761030a565b80630b579f1f116102bc57806323b872dd1161029657806323b872dd146104b7578063313ce567146104f45780633ccfd60b1461051f5780635b88349d146105365761030a565b80630b579f1f1461043557806318160ddd146104615780631df808151461048c5761030a565b806302d05d3f1461030f578063040bf0dd1461033a5780630483a7f61461036557806306fdde03146103a25780630758d924146103cd578063095ea7b3146103f85761030a565b3661030a57005b600080fd5b34801561031b57600080fd5b50610324610bfe565b6040516103319190613a0f565b60405180910390f35b34801561034657600080fd5b5061034f610c24565b60405161035c9190613a43565b60405180910390f35b34801561037157600080fd5b5061038c60048036038101906103879190613a94565b610c2a565b6040516103999190613a43565b60405180910390f35b3480156103ae57600080fd5b506103b7610c42565b6040516103c49190613b51565b60405180910390f35b3480156103d957600080fd5b506103e2610cd4565b6040516103ef9190613a0f565b60405180910390f35b34801561040457600080fd5b5061041f600480360381019061041a9190613b9f565b610cf8565b60405161042c9190613bfa565b60405180910390f35b34801561044157600080fd5b5061044a610d1b565b604051610458929190613d91565b60405180910390f35b34801561046d57600080fd5b50610476610eed565b6040516104839190613a43565b60405180910390f35b34801561049857600080fd5b506104a1610ef7565b6040516104ae9190613a43565b60405180910390f35b3480156104c357600080fd5b506104de60048036038101906104d99190613dc8565b610fae565b6040516104eb9190613bfa565b60405180910390f35b34801561050057600080fd5b50610509610fdd565b6040516105169190613e37565b60405180910390f35b34801561052b57600080fd5b50610534610fe6565b005b34801561054257600080fd5b5061054b611021565b005b34801561055957600080fd5b50610574600480360381019061056f9190613e52565b6111e9565b6040516105819190613a0f565b60405180910390f35b34801561059657600080fd5b5061059f611228565b6040516105ac9190613a43565b60405180910390f35b3480156105c157600080fd5b506105ca61122e565b6040516105df99989796959493929190613e7f565b60405180910390f35b3480156105f457600080fd5b5061060f600480360381019061060a9190613a94565b6112df565b60405161061c9190613a43565b60405180910390f35b34801561063157600080fd5b5061063a611327565b005b34801561064857600080fd5b5061065161133b565b60405161065e9190613a43565b60405180910390f35b34801561067357600080fd5b5061067c611444565b6040516106899190613a43565b60405180910390f35b34801561069e57600080fd5b506106a761144a565b6040516106b49190613a43565b60405180910390f35b3480156106c957600080fd5b506106d2611450565b6040516106df9190613a43565b60405180910390f35b3480156106f457600080fd5b506106fd611492565b60405161070a9190613a0f565b60405180910390f35b34801561071f57600080fd5b506107286114bc565b6040516107359190613a43565b60405180910390f35b34801561074a57600080fd5b506107536114c2565b6040516107609190613b51565b60405180910390f35b34801561077557600080fd5b5061077e611554565b60405161078b9190613a43565b60405180910390f35b3480156107a057600080fd5b506107a9611596565b6040516107b69190613bfa565b60405180910390f35b3480156107cb57600080fd5b506107e660048036038101906107e19190613b9f565b6115a5565b6040516107f39190613bfa565b60405180910390f35b34801561080857600080fd5b506108116115c8565b005b34801561081f57600080fd5b50610828611679565b6040516108359190613a43565b60405180910390f35b34801561084a57600080fd5b5061085361167f565b6040516108609190613a43565b60405180910390f35b610883600480360381019061087e9190613e52565b6116c1565b005b34801561089157600080fd5b5061089a611b0f565b005b3480156108a857600080fd5b506108c360048036038101906108be9190613e52565b611d97565b6040516108d09190613a43565b60405180910390f35b3480156108e557600080fd5b506108ee611e6f565b6040516108fb9190613a43565b60405180910390f35b34801561091057600080fd5b50610919611e7e565b6040516109269190613a43565b60405180910390f35b34801561093b57600080fd5b50610944611e84565b6040516109519190613a43565b60405180910390f35b34801561096657600080fd5b50610981600480360381019061097c9190613a94565b611e8a565b60405161098e9190613a43565b60405180910390f35b3480156109a357600080fd5b506109be60048036038101906109b99190613a94565b611ea2565b6040516109cb9190613bfa565b60405180910390f35b3480156109e057600080fd5b506109e9611ec2565b005b3480156109f757600080fd5b50610a00611f73565b604051610a0d9190613a43565b60405180910390f35b610a306004803603810190610a2b9190613e52565b611f97565b005b348015610a3e57600080fd5b50610a596004803603810190610a549190613f0c565b61220e565b604051610a669190613a43565b60405180910390f35b348015610a7b57600080fd5b50610a966004803603810190610a919190613e52565b612295565b005b348015610aa457600080fd5b50610abf6004803603810190610aba9190613e52565b612535565b604051610acc9190613a43565b60405180910390f35b348015610ae157600080fd5b50610aea6125bd565b604051610af79190613bfa565b60405180910390f35b348015610b0c57600080fd5b50610b156125d0565b604051610b229190613a0f565b60405180910390f35b348015610b3757600080fd5b50610b406125f6565b604051610b4d9190613a43565b60405180910390f35b348015610b6257600080fd5b50610b6b612632565b604051610b789190613a43565b60405180910390f35b348015610b8d57600080fd5b50610ba86004803603810190610ba39190613a94565b6126c7565b005b348015610bb657600080fd5b50610bbf61274d565b604051610bcc9190613a43565b60405180910390f35b348015610be157600080fd5b50610bfc6004803603810190610bf79190614007565b612753565b005b600960009054906101000a900473ffffffffffffffffffffffffffffffffffffffff1681565b6103e881565b600e6020528060005260406000206000915090505481565b606060038054610c51906140b7565b80601f0160208091040260200160405190810160405280929190818152602001828054610c7d906140b7565b8015610cca5780601f10610c9f57610100808354040283529160200191610cca565b820191906000526020600020905b815481529060010190602001808311610cad57829003601f168201915b5050505050905090565b7f000000000000000000000000000000000000000000000000000000000000000081565b600080610d03612a36565b9050610d10818585612a3e565b600191505092915050565b6060806000601180549050905060008167ffffffffffffffff811115610d4457610d436140e8565b5b604051908082528060200260200182016040528015610d725781602001602082028036833780820191505090505b50905060008267ffffffffffffffff811115610d9157610d906140e8565b5b604051908082528060200260200182016040528015610dbf5781602001602082028036833780820191505090505b50905060005b83811015610edf5760118181548110610de157610de0614117565b5b9060005260206000200160009054906101000a900473ffffffffffffffffffffffffffffffffffffffff16838281518110610e1f57610e1e614117565b5b602002602001019073ffffffffffffffffffffffffffffffffffffffff16908173ffffffffffffffffffffffffffffffffffffffff1681525050600f6000848381518110610e7057610e6f614117565b5b602002602001015173ffffffffffffffffffffffffffffffffffffffff1673ffffffffffffffffffffffffffffffffffffffff16815260200190815260200160002054828281518110610ec657610ec5614117565b5b6020026020010181815250508080600101915050610dc5565b508181945094505050509091565b6000600254905090565b600080600090505b601180549050811015610faa57600060118281548110610f2257610f21614117565b5b9060005260206000200160009054906101000a900473ffffffffffffffffffffffffffffffffffffffff169050600f60008273ffffffffffffffffffffffffffffffffffffffff1673ffffffffffffffffffffffffffffffffffffffff1681526020019081526020016000205483610f9a9190614175565b9250508080600101915050610eff565b5090565b600080610fb9612a36565b9050610fc6858285612a50565b610fd1858585612ae5565b60019150509392505050565b60006012905090565b6040517f08c379a00000000000000000000000000000000000000000000000000000000081526004016110189061421b565b60405180910390fd5b600c60009054906101000a900460ff16611070576040517f08c379a000000000000000000000000000000000000000000000000000000000815260040161106790614287565b60405180910390fd5b601060003373ffffffffffffffffffffffffffffffffffffffff1673ffffffffffffffffffffffffffffffffffffffff16815260200190815260200160002060009054906101000a900460ff16156110fd576040517f08c379a00000000000000000000000000000000000000000000000000000000081526004016110f4906142f3565b60405180910390fd5b6000600f60003373ffffffffffffffffffffffffffffffffffffffff1673ffffffffffffffffffffffffffffffffffffffff16815260200190815260200160002054905060008111611184576040517f08c379a000000000000000000000000000000000000000000000000000000000815260040161117b9061435f565b60405180910390fd5b6001601060003373ffffffffffffffffffffffffffffffffffffffff1673ffffffffffffffffffffffffffffffffffffffff16815260200190815260200160002060006101000a81548160ff0219169083151502179055506111e63382612bd9565b50565b601181815481106111f957600080fd5b906000526020600020016000915054906101000a900473ffffffffffffffffffffffffffffffffffffffff1681565b600b5481565b6000806000806000806000806000600960009054906101000a900473ffffffffffffffffffffffffffffffffffffffff16600860009054906101000a900473ffffffffffffffffffffffffffffffffffffffff166007547f0000000000000000000000000000000000000000000000000000000000000000601254601354600a54600c60009054906101000a900460ff16600d54985098509850985098509850985098509850909192939495969798565b60008060008373ffffffffffffffffffffffffffffffffffffffff1673ffffffffffffffffffffffffffffffffffffffff168152602001908152602001600020549050919050565b61132f612c5b565b6113396000612ce2565b565b600080600090505b6011805490508110156114405760006011828154811061136657611365614117565b5b9060005260206000200160009054906101000a900473ffffffffffffffffffffffffffffffffffffffff169050601060008273ffffffffffffffffffffffffffffffffffffffff1673ffffffffffffffffffffffffffffffffffffffff16815260200190815260200160002060009054906101000a900460ff1661143257600f60008273ffffffffffffffffffffffffffffffffffffffff1673ffffffffffffffffffffffffffffffffffffffff168152602001908152602001600020548361142f9190614175565b92505b508080600101915050611343565b5090565b60135481565b60075481565b60006127106103e87f0000000000000000000000000000000000000000000000000000000000000000611483919061437f565b61148d91906143f0565b905090565b6000600560009054906101000a900473ffffffffffffffffffffffffffffffffffffffff16905090565b6107d081565b6060600480546114d1906140b7565b80601f01602080910402602001604051908101604052809291908181526020018280546114fd906140b7565b801561154a5780601f1061151f5761010080835404028352916020019161154a565b820191906000526020600020905b81548152906001019060200180831161152d57829003601f168201915b5050505050905090565b60006127106107d07f0000000000000000000000000000000000000000000000000000000000000000611587919061437f565b61159191906143f0565b905090565b60008060118054905011905090565b6000806115b0612a36565b90506115bd818585612ae5565b600191505092915050565b6115d0612da8565b600c60009054906101000a900460ff1615611620576040517f08c379a00000000000000000000000000000000000000000000000000000000081526004016116179061446d565b60405180910390fd5b600754600a541015611667576040517f08c379a000000000000000000000000000000000000000000000000000000000815260040161165e906144d9565b60405180910390fd5b61166f612dee565b611677613515565b565b611b5881565b6000612710611b587f00000000000000000000000000000000000000000000000000000000000000006116b2919061437f565b6116bc91906143f0565b905090565b600960009054906101000a900473ffffffffffffffffffffffffffffffffffffffff1673ffffffffffffffffffffffffffffffffffffffff163373ffffffffffffffffffffffffffffffffffffffff1614611751576040517f08c379a000000000000000000000000000000000000000000000000000000000815260040161174890614545565b60405180910390fd5b600c60009054906101000a900460ff16156117a1576040517f08c379a00000000000000000000000000000000000000000000000000000000081526004016117989061446d565b60405180910390fd5b6117a9612da8565b600081116117ec576040517f08c379a00000000000000000000000000000000000000000000000000000000081526004016117e3906145b1565b60405180910390fd5b60006117f782612535565b90508034101561183c576040517f08c379a00000000000000000000000000000000000000000000000000000000081526004016118339061461d565b60405180910390fd5b61184461167f565b8261184d610eed565b6118579190614175565b1115611898576040517f08c379a000000000000000000000000000000000000000000000000000000000815260040161188f90614689565b60405180910390fd5b6118a0611554565b82600e6000600960009054906101000a900473ffffffffffffffffffffffffffffffffffffffff1673ffffffffffffffffffffffffffffffffffffffff1673ffffffffffffffffffffffffffffffffffffffff1681526020019081526020016000205461190d9190614175565b111561194e576040517f08c379a0000000000000000000000000000000000000000000000000000000008152600401611945906146f5565b60405180910390fd5b6000612710606483611960919061437f565b61196a91906143f0565b905081600a600082825461197e9190614175565b9250508190555080600b60008282546119979190614175565b925050819055506119a83084612bd9565b82600e6000600960009054906101000a900473ffffffffffffffffffffffffffffffffffffffff1673ffffffffffffffffffffffffffffffffffffffff1673ffffffffffffffffffffffffffffffffffffffff1681526020019081526020016000206000828254611a199190614175565b9250508190555082600d6000828254611a329190614175565b9250508190555081341115611afa5760003373ffffffffffffffffffffffffffffffffffffffff168334611a669190614715565b604051611a729061477a565b60006040518083038185875af1925050503d8060008114611aaf576040519150601f19603f3d011682016040523d82523d6000602084013e611ab4565b606091505b5050905080611af8576040517f08c379a0000000000000000000000000000000000000000000000000000000008152600401611aef906147db565b60405180910390fd5b505b611b0261351f565b5050611b0c613515565b50565b600960009054906101000a900473ffffffffffffffffffffffffffffffffffffffff1673ffffffffffffffffffffffffffffffffffffffff163373ffffffffffffffffffffffffffffffffffffffff1614611b9f576040517f08c379a0000000000000000000000000000000000000000000000000000000008152600401611b9690614545565b60405180910390fd5b600c60009054906101000a900460ff16611bee576040517f08c379a0000000000000000000000000000000000000000000000000000000008152600401611be590614847565b60405180910390fd5b6000600e6000600960009054906101000a900473ffffffffffffffffffffffffffffffffffffffff1673ffffffffffffffffffffffffffffffffffffffff1673ffffffffffffffffffffffffffffffffffffffff1681526020019081526020016000205411611c92576040517f08c379a0000000000000000000000000000000000000000000000000000000008152600401611c89906148b3565b60405180910390fd5b6000600e6000600960009054906101000a900473ffffffffffffffffffffffffffffffffffffffff1673ffffffffffffffffffffffffffffffffffffffff1673ffffffffffffffffffffffffffffffffffffffff1681526020019081526020016000205490506000600e6000600960009054906101000a900473ffffffffffffffffffffffffffffffffffffffff1673ffffffffffffffffffffffffffffffffffffffff1673ffffffffffffffffffffffffffffffffffffffff168152602001908152602001600020819055506000600d81905550611d9430600960009054906101000a900473ffffffffffffffffffffffffffffffffffffffff1683612ae5565b50565b600080611da2610eed565b905080831115611de7576040517f08c379a0000000000000000000000000000000000000000000000000000000008152600401611dde9061491f565b60405180910390fd5b6000611df16125f6565b90506000670de0b6b3a764000085601354611e0c919061437f565b611e1691906143f0565b82611e219190614715565b9050600060028284611e339190614175565b611e3d91906143f0565b90506000670de0b6b3a76400008288611e56919061437f565b611e6091906143f0565b90508095505050505050919050565b6000611e79611450565b905090565b600a5481565b60125481565b600f6020528060005260406000206000915090505481565b60106020528060005260406000206000915054906101000a900460ff1681565b611eca612da8565b600c60009054906101000a900460ff1615611f1a576040517f08c379a0000000000000000000000000000000000000000000000000000000008152600401611f119061446d565b60405180910390fd5b600754600a541015611f61576040517f08c379a0000000000000000000000000000000000000000000000000000000008152600401611f589061498b565b60405180910390fd5b611f69612dee565b611f71613515565b565b7f000000000000000000000000000000000000000000000000000000000000000081565b600c60009054906101000a900460ff1615611fe7576040517f08c379a0000000000000000000000000000000000000000000000000000000008152600401611fde9061446d565b60405180910390fd5b611fef612da8565b60008111612032576040517f08c379a0000000000000000000000000000000000000000000000000000000008152600401612029906145b1565b60405180910390fd5b600061203d82612535565b905080341015612082576040517f08c379a00000000000000000000000000000000000000000000000000000000081526004016120799061461d565b60405180910390fd5b61208a61167f565b82612093610eed565b61209d9190614175565b11156120de576040517f08c379a00000000000000000000000000000000000000000000000000000000081526004016120d590614689565b60405180910390fd5b60006127106064836120f0919061437f565b6120fa91906143f0565b905081600a600082825461210e9190614175565b9250508190555080600b60008282546121279190614175565b925050819055506121383384612bd9565b813411156121f95760003373ffffffffffffffffffffffffffffffffffffffff1683346121659190614715565b6040516121719061477a565b60006040518083038185875af1925050503d80600081146121ae576040519150601f19603f3d011682016040523d82523d6000602084013e6121b3565b606091505b50509050806121f7576040517f08c379a00000000000000000000000000000000000000000000000000000000081526004016121ee906147db565b60405180910390fd5b505b61220161351f565b505061220b613515565b50565b6000600160008473ffffffffffffffffffffffffffffffffffffffff1673ffffffffffffffffffffffffffffffffffffffff16815260200190815260200160002060008373ffffffffffffffffffffffffffffffffffffffff1673ffffffffffffffffffffffffffffffffffffffff16815260200190815260200160002054905092915050565b600c60009054906101000a900460ff16156122e5576040517f08c379a00000000000000000000000000000000000000000000000000000000081526004016122dc9061446d565b60405180910390fd5b6122ed612da8565b60008111612330576040517f08c379a0000000000000000000000000000000000000000000000000000000008152600401612327906149f7565b60405180910390fd5b8061233a336112df565b101561237b576040517f08c379a000000000000000000000000000000000000000000000000000000000815260040161237290614a63565b60405180910390fd5b600061238682611d97565b9050804710156123cb576040517f08c379a00000000000000000000000000000000000000000000000000000000081526004016123c290614acf565b60405180910390fd5b60006127106096836123dd919061437f565b6123e791906143f0565b9050600081836123f79190614715565b90506124033385613550565b60003373ffffffffffffffffffffffffffffffffffffffff16826040516124299061477a565b60006040518083038185875af1925050503d8060008114612466576040519150601f19603f3d011682016040523d82523d6000602084013e61246b565b606091505b50509050806124af576040517f08c379a00000000000000000000000000000000000000000000000000000000081526004016124a690614b3b565b60405180910390fd5b83600a5410156124f4576040517f08c379a00000000000000000000000000000000000000000000000000000000081526004016124eb90614ba7565b60405180910390fd5b83600a60008282546125069190614715565b9250508190555082600b600082825461251f9190614175565b9250508190555050505050612532613515565b50565b6000806125406125f6565b90506000670de0b6b3a76400008460135461255b919061437f565b61256591906143f0565b826125709190614175565b90506000600282846125829190614175565b61258c91906143f0565b90506000670de0b6b3a764000082876125a5919061437f565b6125af91906143f0565b905080945050505050919050565b600c60009054906101000a900460ff1681565b600860009054906101000a900473ffffffffffffffffffffffffffffffffffffffff1681565b6000670de0b6b3a7640000612609610eed565b601354612616919061437f565b61262091906143f0565b60125461262d9190614175565b905090565b60008061263d610eed565b9050600061264961133b565b905080826126579190614175565b7f000000000000000000000000000000000000000000000000000000000000000011612688576000925050506126c4565b80827f00000000000000000000000000000000000000000000000000000000000000006126b59190614715565b6126bf9190614715565b925050505b90565b6126cf612c5b565b600073ffffffffffffffffffffffffffffffffffffffff168173ffffffffffffffffffffffffffffffffffffffff16036127415760006040517f1e4fbdf70000000000000000000000000000000000000000000000000000000081526004016127389190613a0f565b60405180910390fd5b61274a81612ce2565b50565b600d5481565b600960009054906101000a900473ffffffffffffffffffffffffffffffffffffffff1673ffffffffffffffffffffffffffffffffffffffff163373ffffffffffffffffffffffffffffffffffffffff16146127e3576040517f08c379a00000000000000000000000000000000000000000000000000000000081526004016127da90614545565b60405180910390fd5b600c60009054906101000a900460ff1615612833576040517f08c379a000000000000000000000000000000000000000000000000000000000815260040161282a9061446d565b60405180910390fd5b81819050848490501461287b576040517f08c379a000000000000000000000000000000000000000000000000000000000815260040161287290614c13565b60405180910390fd5b60005b848490508110156129de57600085858381811061289e5761289d614117565b5b90506020020160208101906128b39190613a94565b905060008484848181106128ca576128c9614117565b5b9050602002013590506000600f60008473ffffffffffffffffffffffffffffffffffffffff1673ffffffffffffffffffffffffffffffffffffffff168152602001908152602001600020541480156129225750600081115b1561298b576011829080600181540180825580915050600190039060005260206000200160009091909190916101000a81548173ffffffffffffffffffffffffffffffffffffffff021916908373ffffffffffffffffffffffffffffffffffffffff1602179055505b80600f60008473ffffffffffffffffffffffffffffffffffffffff1673ffffffffffffffffffffffffffffffffffffffff168152602001908152602001600020819055505050808060010191505061287e565b506129e7611450565b6129ef610ef7565b1115612a30576040517f08c379a0000000000000000000000000000000000000000000000000000000008152600401612a2790614c7f565b60405180910390fd5b50505050565b600033905090565b612a4b83838360016135d2565b505050565b6000612a5c848461220e565b90507fffffffffffffffffffffffffffffffffffffffffffffffffffffffffffffffff811015612adf5781811015612acf578281836040517ffb8f41b2000000000000000000000000000000000000000000000000000000008152600401612ac693929190614c9f565b60405180910390fd5b612ade848484840360006135d2565b5b50505050565b600073ffffffffffffffffffffffffffffffffffffffff168373ffffffffffffffffffffffffffffffffffffffff1603612b575760006040517f96c6fd1e000000000000000000000000000000000000000000000000000000008152600401612b4e9190613a0f565b60405180910390fd5b600073ffffffffffffffffffffffffffffffffffffffff168273ffffffffffffffffffffffffffffffffffffffff1603612bc95760006040517fec442f05000000000000000000000000000000000000000000000000000000008152600401612bc09190613a0f565b60405180910390fd5b612bd48383836137a9565b505050565b600073ffffffffffffffffffffffffffffffffffffffff168273ffffffffffffffffffffffffffffffffffffffff1603612c4b5760006040517fec442f05000000000000000000000000000000000000000000000000000000008152600401612c429190613a0f565b60405180910390fd5b612c57600083836137a9565b5050565b612c63612a36565b73ffffffffffffffffffffffffffffffffffffffff16612c81611492565b73ffffffffffffffffffffffffffffffffffffffff1614612ce057612ca4612a36565b6040517f118cdaa7000000000000000000000000000000000000000000000000000000008152600401612cd79190613a0f565b60405180910390fd5b565b6000600560009054906101000a900473ffffffffffffffffffffffffffffffffffffffff16905081600560006101000a81548173ffffffffffffffffffffffffffffffffffffffff021916908373ffffffffffffffffffffffffffffffffffffffff1602179055508173ffffffffffffffffffffffffffffffffffffffff168173ffffffffffffffffffffffffffffffffffffffff167f8be0079c531659141344cd1fd0a4f28419497f9722a3daafe3b4186f6b6457e060405160405180910390a35050565b600260065403612de4576040517f3ee5aeb500000000000000000000000000000000000000000000000000000000815260040160405180910390fd5b6002600681905550565b600c60009054906101000a900460ff1615612e3e576040517f08c379a0000000000000000000000000000000000000000000000000000000008152600401612e359061446d565b60405180910390fd5b6000612e48612632565b90506001600c60006101000a81548160ff0219169083151502179055506000600b5490506000811115612fbd576000600b819055506000600860009054906101000a900473ffffffffffffffffffffffffffffffffffffffff1673ffffffffffffffffffffffffffffffffffffffff1682604051612ec59061477a565b60006040518083038185875af1925050503d8060008114612f02576040519150601f19603f3d011682016040523d82523d6000602084013e612f07565b606091505b5050905080612f4b576040517f08c379a0000000000000000000000000000000000000000000000000000000008152600401612f4290614d22565b60405180910390fd5b600860009054906101000a900473ffffffffffffffffffffffffffffffffffffffff1673ffffffffffffffffffffffffffffffffffffffff167fc812aa15be10cc23ff245a12080e7de523f13b7fd4a16277a703c4f8e311370983604051612fb39190613a43565b60405180910390a2505b6000821115612ffc57612fd03083612bd9565b612ffb307f000000000000000000000000000000000000000000000000000000000000000084612a3e565b5b60004790506000806000831180156130145750600085115b156134be5760007f000000000000000000000000000000000000000000000000000000000000000090508073ffffffffffffffffffffffffffffffffffffffff1663f305d719853089600080306103844261306f9190614175565b6040518863ffffffff1660e01b815260040161309096959493929190614d87565b60606040518083038185885af11580156130ae573d6000803e3d6000fd5b50505050506040513d601f19601f820116820180604052508101906130d39190614dfd565b90915090508093505060008173ffffffffffffffffffffffffffffffffffffffff1663c45a01556040518163ffffffff1660e01b8152600401602060405180830381865afa158015613129573d6000803e3d6000fd5b505050506040513d601f19601f8201168201806040525081019061314d9190614e65565b90508073ffffffffffffffffffffffffffffffffffffffff1663e6a43905308473ffffffffffffffffffffffffffffffffffffffff1663ad5c46486040518163ffffffff1660e01b8152600401602060405180830381865afa1580156131b7573d6000803e3d6000fd5b505050506040513d601f19601f820116820180604052508101906131db9190614e65565b6040518363ffffffff1660e01b81526004016131f8929190614e92565b602060405180830381865afa158015613215573d6000803e3d6000fd5b505050506040513d601f19601f820116820180604052508101906132399190614e65565b9250600073ffffffffffffffffffffffffffffffffffffffff168373ffffffffffffffffffffffffffffffffffffffff16036132aa576040517f08c379a00000000000000000000000000000000000000000000000000000000081526004016132a190614f07565b60405180910390fd5b8273ffffffffffffffffffffffffffffffffffffffff167f641e49906554552c8c33d7e09e02d1270590f405bc1da0c7b99a9c2808abdd05856040516132f09190613a43565b60405180910390a26000612710611b588661330b919061437f565b61331591906143f0565b9050600081866133259190614715565b90508473ffffffffffffffffffffffffffffffffffffffff1663a9059cbb600960009054906101000a900473ffffffffffffffffffffffffffffffffffffffff16846040518363ffffffff1660e01b8152600401613384929190614f27565b6020604051808303816000875af11580156133a3573d6000803e3d6000fd5b505050506040513d601f19601f820116820180604052508101906133c79190614f7c565b508473ffffffffffffffffffffffffffffffffffffffff1663a9059cbb600860009054906101000a900473ffffffffffffffffffffffffffffffffffffffff16836040518363ffffffff1660e01b8152600401613425929190614f27565b6020604051808303816000875af1158015613444573d6000803e3d6000fd5b505050506040513d601f19601f820116820180604052508101906134689190614f7c565b508473ffffffffffffffffffffffffffffffffffffffff167fab871a7f4724bcb6daa61a02ba6f11ac923ae12ff155179a9bfffb377c7861f983836040516134b1929190614fa9565b60405180910390a2505050505b3373ffffffffffffffffffffffffffffffffffffffff167f1c858049e704460ab9455025be4078f9e746e3fd426a56040d06389edb8197db8487604051613506929190614fa9565b60405180910390a25050505050565b6001600681905550565b600c60009054906101000a900460ff161580156135405750600754600a5410155b1561354e5761354d612dee565b5b565b600073ffffffffffffffffffffffffffffffffffffffff168273ffffffffffffffffffffffffffffffffffffffff16036135c25760006040517f96c6fd1e0000000000000000000000000000000000000000000000000000000081526004016135b99190613a0f565b60405180910390fd5b6135ce826000836137a9565b5050565b600073ffffffffffffffffffffffffffffffffffffffff168473ffffffffffffffffffffffffffffffffffffffff16036136445760006040517fe602df0500000000000000000000000000000000000000000000000000000000815260040161363b9190613a0f565b60405180910390fd5b600073ffffffffffffffffffffffffffffffffffffffff168373ffffffffffffffffffffffffffffffffffffffff16036136b65760006040517f94280d620000000000000000000000000000000000000000000000000000000081526004016136ad9190613a0f565b60405180910390fd5b81600160008673ffffffffffffffffffffffffffffffffffffffff1673ffffffffffffffffffffffffffffffffffffffff16815260200190815260200160002060008573ffffffffffffffffffffffffffffffffffffffff1673ffffffffffffffffffffffffffffffffffffffff1681526020019081526020016000208190555080156137a3578273ffffffffffffffffffffffffffffffffffffffff168473ffffffffffffffffffffffffffffffffffffffff167f8c5be1e5ebec7d5bd14f71427d1e84f3dd0314c0f7b2291e5b200ac8c7c3b9258460405161379a9190613a43565b60405180910390a35b50505050565b600073ffffffffffffffffffffffffffffffffffffffff168373ffffffffffffffffffffffffffffffffffffffff16036137fb5780600260008282546137ef9190614175565b925050819055506138ce565b60008060008573ffffffffffffffffffffffffffffffffffffffff1673ffffffffffffffffffffffffffffffffffffffff16815260200190815260200160002054905081811015613887578381836040517fe450d38c00000000000000000000000000000000000000000000000000000000815260040161387e93929190614c9f565b60405180910390fd5b8181036000808673ffffffffffffffffffffffffffffffffffffffff1673ffffffffffffffffffffffffffffffffffffffff16815260200190815260200160002081905550505b600073ffffffffffffffffffffffffffffffffffffffff168273ffffffffffffffffffffffffffffffffffffffff16036139175780600260008282540392505081905550613964565b806000808473ffffffffffffffffffffffffffffffffffffffff1673ffffffffffffffffffffffffffffffffffffffff168152602001908152602001600020600082825401925050819055505b8173ffffffffffffffffffffffffffffffffffffffff168373ffffffffffffffffffffffffffffffffffffffff167fddf252ad1be2c89b69c2b068fc378daa952ba7f163c4a11628f55a4df523b3ef836040516139c19190613a43565b60405180910390a3505050565b600073ffffffffffffffffffffffffffffffffffffffff82169050919050565b60006139f9826139ce565b9050919050565b613a09816139ee565b82525050565b6000602082019050613a246000830184613a00565b92915050565b6000819050919050565b613a3d81613a2a565b82525050565b6000602082019050613a586000830184613a34565b92915050565b600080fd5b600080fd5b613a71816139ee565b8114613a7c57600080fd5b50565b600081359050613a8e81613a68565b92915050565b600060208284031215613aaa57613aa9613a5e565b5b6000613ab884828501613a7f565b91505092915050565b600081519050919050565b600082825260208201905092915050565b60005b83811015613afb578082015181840152602081019050613ae0565b60008484015250505050565b6000601f19601f8301169050919050565b6000613b2382613ac1565b613b2d8185613acc565b9350613b3d818560208601613add565b613b4681613b07565b840191505092915050565b60006020820190508181036000830152613b6b8184613b18565b905092915050565b613b7c81613a2a565b8114613b8757600080fd5b50565b600081359050613b9981613b73565b92915050565b60008060408385031215613bb657613bb5613a5e565b5b6000613bc485828601613a7f565b9250506020613bd585828601613b8a565b9150509250929050565b60008115159050919050565b613bf481613bdf565b82525050565b6000602082019050613c0f6000830184613beb565b92915050565b600081519050919050565b600082825260208201905092915050565b6000819050602082019050919050565b613c4a816139ee565b82525050565b6000613c5c8383613c41565b60208301905092915050565b6000602082019050919050565b6000613c8082613c15565b613c8a8185613c20565b9350613c9583613c31565b8060005b83811015613cc6578151613cad8882613c50565b9750613cb883613c68565b925050600181019050613c99565b5085935050505092915050565b600081519050919050565b600082825260208201905092915050565b6000819050602082019050919050565b613d0881613a2a565b82525050565b6000613d1a8383613cff565b60208301905092915050565b6000602082019050919050565b6000613d3e82613cd3565b613d488185613cde565b9350613d5383613cef565b8060005b83811015613d84578151613d6b8882613d0e565b9750613d7683613d26565b925050600181019050613d57565b5085935050505092915050565b60006040820190508181036000830152613dab8185613c75565b90508181036020830152613dbf8184613d33565b90509392505050565b600080600060608486031215613de157613de0613a5e565b5b6000613def86828701613a7f565b9350506020613e0086828701613a7f565b9250506040613e1186828701613b8a565b9150509250925092565b600060ff82169050919050565b613e3181613e1b565b82525050565b6000602082019050613e4c6000830184613e28565b92915050565b600060208284031215613e6857613e67613a5e565b5b6000613e7684828501613b8a565b91505092915050565b600061012082019050613e95600083018c613a00565b613ea2602083018b613a00565b613eaf604083018a613a34565b613ebc6060830189613a34565b613ec96080830188613a34565b613ed660a0830187613a34565b613ee360c0830186613a34565b613ef060e0830185613beb565b613efe610100830184613a34565b9a9950505050505050505050565b60008060408385031215613f2357613f22613a5e565b5b6000613f3185828601613a7f565b9250506020613f4285828601613a7f565b9150509250929050565b600080fd5b600080fd5b600080fd5b60008083601f840112613f7157613f70613f4c565b5b8235905067ffffffffffffffff811115613f8e57613f8d613f51565b5b602083019150836020820283011115613faa57613fa9613f56565b5b9250929050565b60008083601f840112613fc757613fc6613f4c565b5b8235905067ffffffffffffffff811115613fe457613fe3613f51565b5b60208301915083602082028301111561400057613fff613f56565b5b9250929050565b6000806000806040858703121561402157614020613a5e565b5b600085013567ffffffffffffffff81111561403f5761403e613a63565b5b61404b87828801613f5b565b9450945050602085013567ffffffffffffffff81111561406e5761406d613a63565b5b61407a87828801613fb1565b925092505092959194509250565b7f4e487b7100000000000000000000000000000000000000000000000000000000600052602260045260246000fd5b600060028204905060018216806140cf57607f821691505b6020821081036140e2576140e1614088565b5b50919050565b7f4e487b7100000000000000000000000000000000000000000000000000000000600052604160045260246000fd5b7f4e487b7100000000000000000000000000000000000000000000000000000000600052603260045260246000fd5b7f4e487b7100000000000000000000000000000000000000000000000000000000600052601160045260246000fd5b600061418082613a2a565b915061418b83613a2a565b92508282019050808211156141a3576141a2614146565b5b92915050565b7f57697468647261772064697361626c65643a20455448207573656420666f722060008201527f4c502061742067726164756174696f6e00000000000000000000000000000000602082015250565b6000614205603083613acc565b9150614210826141a9565b604082019050919050565b60006020820190508181036000830152614234816141f8565b9050919050565b7f4e6f742067726164756174656400000000000000000000000000000000000000600082015250565b6000614271600d83613acc565b915061427c8261423b565b602082019050919050565b600060208201905081810360008301526142a081614264565b9050919050565b7f416c726561647920636c61696d65640000000000000000000000000000000000600082015250565b60006142dd600f83613acc565b91506142e8826142a7565b602082019050919050565b6000602082019050818103600083015261430c816142d0565b9050919050565b7f4e6f20616c6c6f636174696f6e00000000000000000000000000000000000000600082015250565b6000614349600d83613acc565b915061435482614313565b602082019050919050565b600060208201905081810360008301526143788161433c565b9050919050565b600061438a82613a2a565b915061439583613a2a565b92508282026143a381613a2a565b915082820484148315176143ba576143b9614146565b5b5092915050565b7f4e487b7100000000000000000000000000000000000000000000000000000000600052601260045260246000fd5b60006143fb82613a2a565b915061440683613a2a565b925082614416576144156143c1565b5b828204905092915050565b7f416c726561647920677261647561746564000000000000000000000000000000600082015250565b6000614457601183613acc565b915061446282614421565b602082019050919050565b600060208201905081810360008301526144868161444a565b9050919050565b7f546172676574206e6f7420726561636865640000000000000000000000000000600082015250565b60006144c3601283613acc565b91506144ce8261448d565b602082019050919050565b600060208201905081810360008301526144f2816144b6565b9050919050565b7f4e6f742063726561746f72000000000000000000000000000000000000000000600082015250565b600061452f600b83613acc565b915061453a826144f9565b602082019050919050565b6000602082019050818103600083015261455e81614522565b9050919050565b7f616d6f756e743d30000000000000000000000000000000000000000000000000600082015250565b600061459b600883613acc565b91506145a682614565565b602082019050919050565b600060208201905081810360008301526145ca8161458e565b9050919050565b7f496e73756666696369656e74204554482073656e740000000000000000000000600082015250565b6000614607601583613acc565b9150614612826145d1565b602082019050919050565b60006020820190508181036000830152614636816145fa565b9050919050565b7f457863656564732073616c652063617020283730252900000000000000000000600082015250565b6000614673601683613acc565b915061467e8261463d565b602082019050919050565b600060208201905081810360008301526146a281614666565b9050919050565b7f457863656564732063726561746f72206c6f636b206361702028323025290000600082015250565b60006146df601e83613acc565b91506146ea826146a9565b602082019050919050565b6000602082019050818103600083015261470e816146d2565b9050919050565b600061472082613a2a565b915061472b83613a2a565b925082820390508181111561474357614742614146565b5b92915050565b600081905092915050565b50565b6000614764600083614749565b915061476f82614754565b600082019050919050565b600061478582614757565b9150819050919050565b7f526566756e64206661696c656400000000000000000000000000000000000000600082015250565b60006147c5600d83613acc565b91506147d08261478f565b602082019050919050565b600060208201905081810360008301526147f4816147b8565b9050919050565b7f4e6f742067726164756174656420796574000000000000000000000000000000600082015250565b6000614831601183613acc565b915061483c826147fb565b602082019050919050565b6000602082019050818103600083015261486081614824565b9050919050565b7f4e6f206c6f636b656420746f6b656e7300000000000000000000000000000000600082015250565b600061489d601083613acc565b91506148a882614867565b602082019050919050565b600060208201905081810360008301526148cc81614890565b9050919050565b7f416d6f756e74206578636565647320737570706c790000000000000000000000600082015250565b6000614909601583613acc565b9150614914826148d3565b602082019050919050565b60006020820190508181036000830152614938816148fc565b9050919050565b7f526169736520746172676574206e6f74206d6574000000000000000000000000600082015250565b6000614975601483613acc565b91506149808261493f565b602082019050919050565b600060208201905081810360008301526149a481614968565b9050919050565b7f416d6f756e74206d757374206265203e20300000000000000000000000000000600082015250565b60006149e1601283613acc565b91506149ec826149ab565b602082019050919050565b60006020820190508181036000830152614a10816149d4565b9050919050565b7f496e73756666696369656e7420746f6b656e2062616c616e6365000000000000600082015250565b6000614a4d601a83613acc565b9150614a5882614a17565b602082019050919050565b60006020820190508181036000830152614a7c81614a40565b9050919050565b7f436f6e74726163742068617320696e73756666696369656e7420455448000000600082015250565b6000614ab9601d83613acc565b9150614ac482614a83565b602082019050919050565b60006020820190508181036000830152614ae881614aac565b9050919050565b7f455448207061796f7574206661696c6564000000000000000000000000000000600082015250565b6000614b25601183613acc565b9150614b3082614aef565b602082019050919050565b60006020820190508181036000830152614b5481614b18565b9050919050565b7f746f74616c52616973656420756e646572666c6f770000000000000000000000600082015250565b6000614b91601583613acc565b9150614b9c82614b5b565b602082019050919050565b60006020820190508181036000830152614bc081614b84565b9050919050565b7f4c656e677468206d69736d617463680000000000000000000000000000000000600082015250565b6000614bfd600f83613acc565b9150614c0882614bc7565b602082019050919050565b60006020820190508181036000830152614c2c81614bf0565b9050919050565b7f457863656564732061697264726f702031302520636170000000000000000000600082015250565b6000614c69601783613acc565b9150614c7482614c33565b602082019050919050565b60006020820190508181036000830152614c9881614c5c565b9050919050565b6000606082019050614cb46000830186613a00565b614cc16020830185613a34565b614cce6040830184613a34565b949350505050565b7f466565207472616e73666572206661696c656400000000000000000000000000600082015250565b6000614d0c601383613acc565b9150614d1782614cd6565b602082019050919050565b60006020820190508181036000830152614d3b81614cff565b9050919050565b6000819050919050565b6000819050919050565b6000614d71614d6c614d6784614d42565b614d4c565b613a2a565b9050919050565b614d8181614d56565b82525050565b600060c082019050614d9c6000830189613a00565b614da96020830188613a34565b614db66040830187614d78565b614dc36060830186614d78565b614dd06080830185613a00565b614ddd60a0830184613a34565b979650505050505050565b600081519050614df781613b73565b92915050565b600080600060608486031215614e1657614e15613a5e565b5b6000614e2486828701614de8565b9350506020614e3586828701614de8565b9250506040614e4686828701614de8565b9150509250925092565b600081519050614e5f81613a68565b92915050565b600060208284031215614e7b57614e7a613a5e565b5b6000614e8984828501614e50565b91505092915050565b6000604082019050614ea76000830185613a00565b614eb46020830184613a00565b9392505050565b7f50616972206e6f74206372656174656400000000000000000000000000000000600082015250565b6000614ef1601083613acc565b9150614efc82614ebb565b602082019050919050565b60006020820190508181036000830152614f2081614ee4565b9050919050565b6000604082019050614f3c6000830185613a00565b614f496020830184613a34565b9392505050565b614f5981613bdf565b8114614f6457600080fd5b50565b600081519050614f7681614f50565b92915050565b600060208284031215614f9257614f91613a5e565b5b6000614fa084828501614f67565b91505092915050565b6000604082019050614fbe6000830185613a34565b614fcb6020830184613a34565b939250505056fea2646970667358221220b11de21ba918c67b4911cabd828d3de03cdb3fa5c94575cfa34f76b025cb4b7d64736f6c634300081c0033",
  "linkReferences": {},
  "deployedLinkReferences": {}
}