{
  "_format": "hh-sol-artifact-1",
  "contractName": "TurboToken",
  "sourceName": "contracts/TurboToken.sol",
  "abi": [
    {
      "inputs": [
        {
          "internalType": "string",
          "name": "name_",
          "type": "string"
        },
        {
          "internalType": "string",
          "name": "symbol_",
          "type": "string"
        },
        {
          "internalType": "uint256",
          "name": "raiseTarget_",
          "type": "uint256"
        },
        {
          "internalType": "address",
          "name": "creator_",
          "type": "address"
        },
        {
          "internalType": "uint256",
          "name": "maxSupply_",
          "type": "uint256"
        },
        {
          "internalType": "address",
          "name": "platformFeeRecipient_",
          "type": "address"
        }
      ],
      "stateMutability": "nonpayable",
      "type": "constructor"
    },
    {
      "inputs": [
        {
          "internalType": "address",
          "name": "spender",
          "type": "address"
        },
        {
          "internalType": "uint256",
          "name": "allowance",
          "type": "uint256"
        },
        {
          "internalType": "uint256",
          "name": "needed",
          "type": "uint256"
        }
      ],
      "name": "ERC20InsufficientAllowance",
      "type": "error"
    },
    {
      "inputs": [
        {
          "internalType": "address",
          "name": "sender",
          "type": "address"
        },
        {
          "internalType": "uint256",
          "name": "balance",
          "type": "uint256"
        },
        {
          "internalType": "uint256",
          "name": "needed",
          "type": "uint256"
        }
      ],
      "name": "ERC20InsufficientBalance",
      "type": "error"
    },
    {
      "inputs": [
        {
          "internalType": "address",
          "name": "approver",
          "type": "address"
        }
      ],
      "name": "ERC20InvalidApprover",
      "type": "error"
    },
    {
      "inputs": [
        {
          "internalType": "address",
          "name": "receiver",
          "type": "address"
        }
      ],
      "name": "ERC20InvalidReceiver",
      "type": "error"
    },
    {
      "inputs": [
        {
          "internalType": "address",
          "name": "sender",
          "type": "address"
        }
      ],
      "name": "ERC20InvalidSender",
      "type": "error"
    },
    {
      "inputs": [
        {
          "internalType": "address",
          "name": "spender",
          "type": "address"
        }
      ],
      "name": "ERC20InvalidSpender",
      "type": "error"
    },
    {
      "inputs": [
        {
          "internalType": "address",
          "name": "owner",
          "type": "address"
        }
      ],
      "name": "OwnableInvalidOwner",
      "type": "error"
    },
    {
      "inputs": [
        {
          "internalType": "address",
          "name": "account",
          "type": "address"
        }
      ],
      "name": "OwnableUnauthorizedAccount",
      "type": "error"
    },
    {
      "anonymous": false,
      "inputs": [
        {
          "indexed": true,
          "internalType": "address",
          "name": "owner",
          "type": "address"
        },
        {
          "indexed": true,
          "internalType": "address",
          "name": "spender",
          "type": "address"
        },
        {
          "indexed": false,
          "internalType": "uint256",
          "name": "value",
          "type": "uint256"
        }
      ],
      "name": "Approval",
      "type": "event"
    },
    {
      "anonymous": false,
      "inputs": [
        {
          "indexed": false,
          "internalType": "address",
          "name": "recipient",
          "type": "address"
        },
        {
          "indexed": false,
          "internalType": "uint256",
          "name": "amount",
          "type": "uint256"
        }
      ],
      "name": "FeeAttempt",
      "type": "event"
    },
    {
      "anonymous": false,
      "inputs": [
        {
          "indexed": true,
          "internalType": "address",
          "name": "previousOwner",
          "type": "address"
        },
        {
          "indexed": true,
          "internalType": "address",
          "name": "newOwner",
          "type": "address"
        }
      ],
      "name": "OwnershipTransferred",
      "type": "event"
    },
    {
      "anonymous": false,
      "inputs": [
        {
          "indexed": true,
          "internalType": "address",
          "name": "from",
          "type": "address"
        },
        {
          "indexed": true,
          "internalType": "address",
          "name": "to",
          "type": "address"
        },
        {
          "indexed": false,
          "internalType": "uint256",
          "name": "value",
          "type": "uint256"
        }
      ],
      "name": "Transfer",
      "type": "event"
    },
    {
      "inputs": [],
      "name": "LP_AND_AIRDROP_PERCENT",
      "outputs": [
        {
          "internalType": "uint256",
          "name": "",
          "type": "uint256"
        }
      ],
      "stateMutability": "view",
      "type": "function"
    },
    {
      "inputs": [
        {
          "internalType": "address",
          "name": "",
          "type": "address"
        }
      ],
      "name": "airdropAllocations",
      "outputs": [
        {
          "internalType": "uint256",
          "name": "",
          "type": "uint256"
        }
      ],
      "stateMutability": "view",
      "type": "function"
    },
    {
      "inputs": [
        {
          "internalType": "address",
          "name": "",
          "type": "address"
        }
      ],
      "name": "airdropClaimed",
      "outputs": [
        {
          "internalType": "bool",
          "name": "",
          "type": "bool"
        }
      ],
      "stateMutability": "view",
      "type": "function"
    },
    {
      "inputs": [],
      "name": "airdropFinalized",
      "outputs": [
        {
          "internalType": "bool",
          "name": "",
          "type": "bool"
        }
      ],
      "stateMutability": "view",
      "type": "function"
    },
    {
      "inputs": [
        {
          "internalType": "uint256",
          "name": "",
          "type": "uint256"
        }
      ],
      "name": "airdropRecipients",
      "outputs": [
        {
          "internalType": "address",
          "name": "",
          "type": "address"
        }
      ],
      "stateMutability": "view",
      "type": "function"
    },
    {
      "inputs": [
        {
          "internalType": "address",
          "name": "owner",
          "type": "address"
        },
        {
          "internalType": "address",
          "name": "spender",
          "type": "address"
        }
      ],
      "name": "allowance",
      "outputs": [
        {
          "internalType": "uint256",
          "name": "",
          "type": "uint256"
        }
      ],
      "stateMutability": "view",
      "type": "function"
    },
    {
      "inputs": [
        {
          "internalType": "address",
          "name": "spender",
          "type": "address"
        },
        {
          "internalType": "uint256",
          "name": "value",
          "type": "uint256"
        }
      ],
      "name": "approve",
      "outputs": [
        {
          "internalType": "bool",
          "name": "",
          "type": "bool"
        }
      ],
      "stateMutability": "nonpayable",
      "type": "function"
    },
    {
      "inputs": [
        {
          "internalType": "address",
          "name": "account",
          "type": "address"
        }
      ],
      "name": "balanceOf",
      "outputs": [
        {
          "internalType": "uint256",
          "name": "",
          "type": "uint256"
        }
      ],
      "stateMutability": "view",
      "type": "function"
    },
    {
      "inputs": [],
      "name": "basePrice",
      "outputs": [
        {
          "internalType": "uint256",
          "name": "",
          "type": "uint256"
        }
      ],
      "stateMutability": "view",
      "type": "function"
    },
    {
      "inputs": [
        {
          "internalType": "uint256",
          "name": "amount",
          "type": "uint256"
        }
      ],
      "name": "buy",
      "outputs": [],
      "stateMutability": "payable",
      "type": "function"
    },
    {
      "inputs": [],
      "name": "claimAirdrop",
      "outputs": [],
      "stateMutability": "nonpayable",
      "type": "function"
    },
    {
      "inputs": [],
      "name": "creator",
      "outputs": [
        {
          "internalType": "address",
          "name": "",
          "type": "address"
        }
      ],
      "stateMutability": "view",
      "type": "function"
    },
    {
      "inputs": [
        {
          "internalType": "uint256",
          "name": "amount",
          "type": "uint256"
        }
      ],
      "name": "creatorBuy",
      "outputs": [],
      "stateMutability": "payable",
      "type": "function"
    },
    {
      "inputs": [],
      "name": "creatorLockAmount",
      "outputs": [
        {
          "internalType": "uint256",
          "name": "",
          "type": "uint256"
        }
      ],
      "stateMutability": "view",
      "type": "function"
    },
    {
      "inputs": [],
      "name": "decimals",
      "outputs": [
        {
          "internalType": "uint8",
          "name": "",
          "type": "uint8"
        }
      ],
      "stateMutability": "view",
      "type": "function"
    },
    {
      "inputs": [],
      "name": "getAirdropAllocations",
      "outputs": [
        {
          "internalType": "address[]",
          "name": "",
          "type": "address[]"
        },
        {
          "internalType": "uint256[]",
          "name": "",
          "type": "uint256[]"
        }
      ],
      "stateMutability": "view",
      "type": "function"
    },
    {
      "inputs": [],
      "name": "getCurrentPrice",
      "outputs": [
        {
          "internalType": "uint256",
          "name": "",
          "type": "uint256"
        }
      ],
      "stateMutability": "view",
      "type": "function"
    },
    {
      "inputs": [
        {
          "internalType": "uint256",
          "name": "amount",
          "type": "uint256"
        }
      ],
      "name": "getPrice",
      "outputs": [
        {
          "internalType": "uint256",
          "name": "",
          "type": "uint256"
        }
      ],
      "stateMutability": "view",
      "type": "function"
    },
    {
      "inputs": [
        {
          "internalType": "uint256",
          "name": "amount",
          "type": "uint256"
        }
      ],
      "name": "getSellPrice",
      "outputs": [
        {
          "internalType": "uint256",
          "name": "",
          "type": "uint256"
        }
      ],
      "stateMutability": "view",
      "type": "function"
    },
    {
      "inputs": [],
      "name": "graduate",
      "outputs": [],
      "stateMutability": "nonpayable",
      "type": "function"
    },
    {
      "inputs": [],
      "name": "graduated",
      "outputs": [
        {
          "internalType": "bool",
          "name": "",
          "type": "bool"
        }
      ],
      "stateMutability": "view",
      "type": "function"
    },
    {
      "inputs": [
        {
          "internalType": "address",
          "name": "",
          "type": "address"
        }
      ],
      "name": "lockedBalances",
      "outputs": [
        {
          "internalType": "uint256",
          "name": "",
          "type": "uint256"
        }
      ],
      "stateMutability": "view",
      "type": "function"
    },
    {
      "inputs": [],
      "name": "maxSupply",
      "outputs": [
        {
          "internalType": "uint256",
          "name": "",
          "type": "uint256"
        }
      ],
      "stateMutability": "view",
      "type": "function"
    },
    {
      "inputs": [],
      "name": "maxSupplyForSale",
      "outputs": [
        {
          "internalType": "uint256",
          "name": "",
          "type": "uint256"
        }
      ],
      "stateMutability": "view",
      "type": "function"
    },
    {
      "inputs": [],
      "name": "name",
      "outputs": [
        {
          "internalType": "string",
          "name": "",
          "type": "string"
        }
      ],
      "stateMutability": "view",
      "type": "function"
    },
    {
      "inputs": [],
      "name": "owner",
      "outputs": [
        {
          "internalType": "address",
          "name": "",
          "type": "address"
        }
      ],
      "stateMutability": "view",
      "type": "function"
    },
    {
      "inputs": [],
      "name": "platformFeeRecipient",
      "outputs": [
        {
          "internalType": "address",
          "name": "",
          "type": "address"
        }
      ],
      "stateMutability": "view",
      "type": "function"
    },
    {
      "inputs": [],
      "name": "raiseTarget",
      "outputs": [
        {
          "internalType": "uint256",
          "name": "",
          "type": "uint256"
        }
      ],
      "stateMutability": "view",
      "type": "function"
    },
    {
      "inputs": [],
      "name": "renounceOwnership",
      "outputs": [],
      "stateMutability": "nonpayable",
      "type": "function"
    },
    {
      "inputs": [],
      "name": "reservedForAirdrop",
      "outputs": [
        {
          "internalType": "uint256",
          "name": "",
          "type": "uint256"
        }
      ],
      "stateMutability": "view",
      "type": "function"
    },
    {
      "inputs": [
        {
          "internalType": "uint256",
          "name": "amount",
          "type": "uint256"
        }
      ],
      "name": "sell",
      "outputs": [],
      "stateMutability": "nonpayable",
      "type": "function"
    },
    {
      "inputs": [
        {
          "internalType": "address[]",
          "name": "recipients",
          "type": "address[]"
        },
        {
          "internalType": "uint256[]",
          "name": "amounts",
          "type": "uint256[]"
        }
      ],
      "name": "setAirdropAllocations",
      "outputs": [],
      "stateMutability": "nonpayable",
      "type": "function"
    },
    {
      "inputs": [],
      "name": "slope",
      "outputs": [
        {
          "internalType": "uint256",
          "name": "",
          "type": "uint256"
        }
      ],
      "stateMutability": "view",
      "type": "function"
    },
    {
      "inputs": [],
      "name": "symbol",
      "outputs": [
        {
          "internalType": "string",
          "name": "",
          "type": "string"
        }
      ],
      "stateMutability": "view",
      "type": "function"
    },
    {
      "inputs": [],
      "name": "tokenInfo",
      "outputs": [
        {
          "internalType": "address",
          "name": "_creator",
          "type": "address"
        },
        {
          "internalType": "address",
          "name": "_platformFeeRecipient",
          "type": "address"
        },
        {
          "internalType": "uint256",
          "name": "_raiseTarget",
          "type": "uint256"
        },
        {
          "internalType": "uint256",
          "name": "_maxSupply",
          "type": "uint256"
        },
        {
          "internalType": "uint256",
          "name": "_basePrice",
          "type": "uint256"
        },
        {
          "internalType": "uint256",
          "name": "_slope",
          "type": "uint256"
        },
        {
          "internalType": "uint256",
          "name": "_totalRaised",
          "type": "uint256"
        },
        {
          "internalType": "bool",
          "name": "_graduated",
          "type": "bool"
        },
        {
          "internalType": "uint256",
          "name": "_creatorLockAmount",
          "type": "uint256"
        }
      ],
      "stateMutability": "view",
      "type": "function"
    },
    {
      "inputs": [],
      "name": "totalRaised",
      "outputs": [
        {
          "internalType": "uint256",
          "name": "",
          "type": "uint256"
        }
      ],
      "stateMutability": "view",
      "type": "function"
    },
    {
      "inputs": [],
      "name": "totalSupply",
      "outputs": [
        {
          "internalType": "uint256",
          "name": "",
          "type": "uint256"
        }
      ],
      "stateMutability": "view",
      "type": "function"
    },
    {
      "inputs": [
        {
          "internalType": "address",
          "name": "to",
          "type": "address"
        },
        {
          "internalType": "uint256",
          "name": "value",
          "type": "uint256"
        }
      ],
      "name": "transfer",
      "outputs": [
        {
          "internalType": "bool",
          "name": "",
          "type": "bool"
        }
      ],
      "stateMutability": "nonpayable",
      "type": "function"
    },
    {
      "inputs": [
        {
          "internalType": "address",
          "name": "from",
          "type": "address"
        },
        {
          "internalType": "address",
          "name": "to",
          "type": "address"
        },
        {
          "internalType": "uint256",
          "name": "value",
          "type": "uint256"
        }
      ],
      "name": "transferFrom",
      "outputs": [
        {
          "internalType": "bool",
          "name": "",
          "type": "bool"
        }
      ],
      "stateMutability": "nonpayable",
      "type": "function"
    },
    {
      "inputs": [
        {
          "internalType": "address",
          "name": "newOwner",
          "type": "address"
        }
      ],
      "name": "transferOwnership",
      "outputs": [],
      "stateMutability": "nonpayable",
      "type": "function"
    },
    {
      "inputs": [],
      "name": "unlockCreatorTokens",
      "outputs": [],
      "stateMutability": "nonpayable",
      "type": "function"
    },
    {
      "inputs": [],
      "name": "withdraw",
      "outputs": [],
      "stateMutability": "nonpayable",
      "type": "function"
    },
    {
      "stateMutability": "payable",
      "type": "receive"
    }
  ],
  "bytecode": "0x60a060405234801561001057600080fd5b50604051614ea6380380614ea683398181016040528101906100329190610527565b82868681600390816100449190610803565b5080600490816100549190610803565b505050600073ffffffffffffffffffffffffffffffffffffffff168173ffffffffffffffffffffffffffffffffffffffff16036100c95760006040517f1e4fbdf70000000000000000000000000000000000000000000000000000000081526004016100c091906108e4565b60405180910390fd5b6100d88161025860201b60201c565b508360068190555082600860006101000a81548173ffffffffffffffffffffffffffffffffffffffff021916908373ffffffffffffffffffffffffffffffffffffffff160217905550816080818152505080600760006101000a81548173ffffffffffffffffffffffffffffffffffffffff021916908373ffffffffffffffffffffffffffffffffffffffff1602179055506000674563918244f4000090506000608051610a28610189919061092e565b713965adec3190f1c65b6733417400000000006101a6919061099f565b905060006103e860805160046101bc919061092e565b6101c6919061099f565b9050600083836006546101d9919061092e565b6101e3919061099f565b90508082600654671bc16d674ec800006101fd919061092e565b610207919061099f565b61021191906109d0565b601081905550816010548261022691906109d0565b670de0b6b3a7640000610239919061092e565b610243919061099f565b60118190555050505050505050505050610a04565b6000600560009054906101000a900473ffffffffffffffffffffffffffffffffffffffff16905081600560006101000a81548173ffffffffffffffffffffffffffffffffffffffff021916908373ffffffffffffffffffffffffffffffffffffffff1602179055508173ffffffffffffffffffffffffffffffffffffffff168173ffffffffffffffffffffffffffffffffffffffff167f8be0079c531659141344cd1fd0a4f28419497f9722a3daafe3b4186f6b6457e060405160405180910390a35050565b6000604051905090565b600080fd5b600080fd5b600080fd5b600080fd5b6000601f19601f8301169050919050565b7f4e487b7100000000000000000000000000000000000000000000000000000000600052604160045260246000fd5b6103858261033c565b810181811067ffffffffffffffff821117156103a4576103a361034d565b5b80604052505050565b60006103b761031e565b90506103c3828261037c565b919050565b600067ffffffffffffffff8211156103e3576103e261034d565b5b6103ec8261033c565b9050602081019050919050565b60005b838110156104175780820151818401526020810190506103fc565b60008484015250505050565b6000610436610431846103c8565b6103ad565b90508281526020810184848401111561045257610451610337565b5b61045d8482856103f9565b509392505050565b600082601f83011261047a57610479610332565b5b815161048a848260208601610423565b91505092915050565b6000819050919050565b6104a681610493565b81146104b157600080fd5b50565b6000815190506104c38161049d565b92915050565b600073ffffffffffffffffffffffffffffffffffffffff82169050919050565b60006104f4826104c9565b9050919050565b610504816104e9565b811461050f57600080fd5b50565b600081519050610521816104fb565b92915050565b60008060008060008060c0878903121561054457610543610328565b5b600087015167ffffffffffffffff8111156105625761056161032d565b5b61056e89828a01610465565b965050602087015167ffffffffffffffff81111561058f5761058e61032d565b5b61059b89828a01610465565b95505060406105ac89828a016104b4565b94505060606105bd89828a01610512565b93505060806105ce89828a016104b4565b92505060a06105df89828a01610512565b9150509295509295509295565b600081519050919050565b7f4e487b7100000000000000000000000000000000000000000000000000000000600052602260045260246000fd5b6000600282049050600182168061063e57607f821691505b602082108103610651576106506105f7565b5b50919050565b60008190508160005260206000209050919050565b60006020601f8301049050919050565b600082821b905092915050565b6000600883026106b97fffffffffffffffffffffffffffffffffffffffffffffffffffffffffffffffff8261067c565b6106c3868361067c565b95508019841693508086168417925050509392505050565b6000819050919050565b60006107006106fb6106f684610493565b6106db565b610493565b9050919050565b6000819050919050565b61071a836106e5565b61072e61072682610707565b848454610689565b825550505050565b600090565b610743610736565b61074e818484610711565b505050565b5b818110156107725761076760008261073b565b600181019050610754565b5050565b601f8211156107b75761078881610657565b6107918461066c565b810160208510156107a0578190505b6107b46107ac8561066c565b830182610753565b50505b505050565b600082821c905092915050565b60006107da600019846008026107bc565b1980831691505092915050565b60006107f383836107c9565b9150826002028217905092915050565b61080c826105ec565b67ffffffffffffffff8111156108255761082461034d565b5b61082f8254610626565b61083a828285610776565b600060209050601f83116001811461086d576000841561085b578287015190505b61086585826107e7565b8655506108cd565b601f19841661087b86610657565b60005b828110156108a35784890151825560018201915060208501945060208101905061087e565b868310156108c057848901516108bc601f8916826107c9565b8355505b6001600288020188555050505b505050505050565b6108de816104e9565b82525050565b60006020820190506108f960008301846108d5565b92915050565b7f4e487b7100000000000000000000000000000000000000000000000000000000600052601160045260246000fd5b600061093982610493565b915061094483610493565b925082820261095281610493565b91508282048414831517610969576109686108ff565b5b5092915050565b7f4e487b7100000000000000000000000000000000000000000000000000000000600052601260045260246000fd5b60006109aa82610493565b91506109b583610493565b9250826109c5576109c4610970565b5b828204905092915050565b60006109db82610493565b91506109e683610493565b92508282039050818111156109fe576109fd6108ff565b5b92915050565b608051614472610a34600039600081816111ae01528181611bd301528181611d5601526120e501526144726000f3fe6080604052600436106102555760003560e01c8063b34ffc5f11610139578063d96a094a116100b6578063e7c2b7721161007a578063e7c2b772146108b8578063eb13554f146108e3578063eb91d37e1461090e578063f2fde38b14610939578063f4227e9514610962578063fc6fec4c1461098d5761025c565b8063d96a094a146107ce578063dd62ed3e146107ea578063e388010d14610827578063e4849b3214610852578063e75722301461087b5761025c565b8063c7876ea4116100fd578063c7876ea4146106e7578063cdbbf18614610712578063d1b6dd301461074f578063d3618cca1461078c578063d5abeb01146107a35761025c565b8063b34ffc5f14610621578063b4105e061461063d578063ba730e5314610654578063be8755a914610691578063c5c4744c146106bc5761025c565b80635b88349d116101d257806383caf2751161019657806383caf2751461050d57806385131976146105385780638da5cb5b1461056357806395d89b411461058e5780639a241247146105b9578063a9059cbb146105e45761025c565b80635b88349d14610432578063646304a1146104495780636addb6631461048657806370a08231146104b9578063715018a6146104f65761025c565b806318160ddd1161021957806318160ddd1461035d57806323b872dd1461038857806324d4de70146103c5578063313ce567146103f05780633ccfd60b1461041b5761025c565b806302d05d3f146102615780630483a7f61461028c57806306fdde03146102c9578063095ea7b3146102f45780630b579f1f146103315761025c565b3661025c57005b600080fd5b34801561026d57600080fd5b506102766109b6565b6040516102839190613106565b60405180910390f35b34801561029857600080fd5b506102b360048036038101906102ae9190613157565b6109dc565b6040516102c0919061319d565b60405180910390f35b3480156102d557600080fd5b506102de6109f4565b6040516102eb9190613248565b60405180910390f35b34801561030057600080fd5b5061031b60048036038101906103169190613296565b610a86565b60405161032891906132f1565b60405180910390f35b34801561033d57600080fd5b50610346610aa9565b604051610354929190613488565b60405180910390f35b34801561036957600080fd5b50610372610c7b565b60405161037f919061319d565b60405180910390f35b34801561039457600080fd5b506103af60048036038101906103aa91906134bf565b610c85565b6040516103bc91906132f1565b60405180910390f35b3480156103d157600080fd5b506103da610cb4565b6040516103e7919061319d565b60405180910390f35b3480156103fc57600080fd5b50610405610cb9565b604051610412919061352e565b60405180910390f35b34801561042757600080fd5b50610430610cc2565b005b34801561043e57600080fd5b50610447610f4e565b005b34801561045557600080fd5b50610470600480360381019061046b9190613549565b611116565b60405161047d9190613106565b60405180910390f35b34801561049257600080fd5b5061049b611155565b6040516104b099989796959493929190613576565b60405180910390f35b3480156104c557600080fd5b506104e060048036038101906104db9190613157565b611206565b6040516104ed919061319d565b60405180910390f35b34801561050257600080fd5b5061050b61124e565b005b34801561051957600080fd5b50610522611262565b60405161052f919061319d565b60405180910390f35b34801561054457600080fd5b5061054d611268565b60405161055a919061319d565b60405180910390f35b34801561056f57600080fd5b5061057861126e565b6040516105859190613106565b60405180910390f35b34801561059a57600080fd5b506105a3611298565b6040516105b09190613248565b60405180910390f35b3480156105c557600080fd5b506105ce61132a565b6040516105db91906132f1565b60405180910390f35b3480156105f057600080fd5b5061060b60048036038101906106069190613296565b611339565b60405161061891906132f1565b60405180910390f35b61063b60048036038101906106369190613549565b61135c565b005b34801561064957600080fd5b5061065261186b565b005b34801561066057600080fd5b5061067b60048036038101906106769190613549565b611af3565b604051610688919061319d565b60405180910390f35b34801561069d57600080fd5b506106a6611bcb565b6040516106b3919061319d565b60405180910390f35b3480156106c857600080fd5b506106d1611c0b565b6040516106de919061319d565b60405180910390f35b3480156106f357600080fd5b506106fc611c11565b604051610709919061319d565b60405180910390f35b34801561071e57600080fd5b5061073960048036038101906107349190613157565b611c17565b604051610746919061319d565b60405180910390f35b34801561075b57600080fd5b5061077660048036038101906107719190613157565b611c2f565b60405161078391906132f1565b60405180910390f35b34801561079857600080fd5b506107a1611c4f565b005b3480156107af57600080fd5b506107b8611d54565b6040516107c5919061319d565b60405180910390f35b6107e860048036038101906107e39190613549565b611d78565b005b3480156107f657600080fd5b50610811600480360381019061080c9190613603565b61204a565b60405161081e919061319d565b60405180910390f35b34801561083357600080fd5b5061083c6120d1565b604051610849919061319d565b60405180910390f35b34801561085e57600080fd5b5061087960048036038101906108749190613549565b61211d565b005b34801561088757600080fd5b506108a2600480360381019061089d9190613549565b612460565b6040516108af919061319d565b60405180910390f35b3480156108c457600080fd5b506108cd6124e8565b6040516108da91906132f1565b60405180910390f35b3480156108ef57600080fd5b506108f86124fb565b6040516109059190613106565b60405180910390f35b34801561091a57600080fd5b50610923612521565b604051610930919061319d565b60405180910390f35b34801561094557600080fd5b50610960600480360381019061095b9190613157565b61255d565b005b34801561096e57600080fd5b506109776125e3565b604051610984919061319d565b60405180910390f35b34801561099957600080fd5b506109b460048036038101906109af91906136fe565b6125e9565b005b600860009054906101000a900473ffffffffffffffffffffffffffffffffffffffff1681565b600c6020528060005260406000206000915090505481565b606060038054610a03906137ae565b80601f0160208091040260200160405190810160405280929190818152602001828054610a2f906137ae565b8015610a7c5780601f10610a5157610100808354040283529160200191610a7c565b820191906000526020600020905b815481529060010190602001808311610a5f57829003601f168201915b5050505050905090565b600080610a916128d5565b9050610a9e8185856128dd565b600191505092915050565b6060806000600f80549050905060008167ffffffffffffffff811115610ad257610ad16137df565b5b604051908082528060200260200182016040528015610b005781602001602082028036833780820191505090505b50905060008267ffffffffffffffff811115610b1f57610b1e6137df565b5b604051908082528060200260200182016040528015610b4d5781602001602082028036833780820191505090505b50905060005b83811015610c6d57600f8181548110610b6f57610b6e61380e565b5b9060005260206000200160009054906101000a900473ffffffffffffffffffffffffffffffffffffffff16838281518110610bad57610bac61380e565b5b602002602001019073ffffffffffffffffffffffffffffffffffffffff16908173ffffffffffffffffffffffffffffffffffffffff1681525050600d6000848381518110610bfe57610bfd61380e565b5b602002602001015173ffffffffffffffffffffffffffffffffffffffff1673ffffffffffffffffffffffffffffffffffffffff16815260200190815260200160002054828281518110610c5457610c5361380e565b5b6020026020010181815250508080600101915050610b53565b508181945094505050509091565b6000600254905090565b600080610c906128d5565b9050610c9d8582856128ef565b610ca8858585612984565b60019150509392505050565b601481565b60006012905090565b600860009054906101000a900473ffffffffffffffffffffffffffffffffffffffff1673ffffffffffffffffffffffffffffffffffffffff163373ffffffffffffffffffffffffffffffffffffffff1614610d52576040517f08c379a0000000000000000000000000000000000000000000000000000000008152600401610d4990613889565b60405180910390fd5b60004711610d95576040517f08c379a0000000000000000000000000000000000000000000000000000000008152600401610d8c906138f5565b60405180910390fd5b600a60009054906101000a900460ff16610de4576040517f08c379a0000000000000000000000000000000000000000000000000000000008152600401610ddb90613961565b60405180910390fd5b600061271060c847610df691906139b0565b610e009190613a21565b905060008147610e109190613a52565b90506000600760009054906101000a900473ffffffffffffffffffffffffffffffffffffffff1673ffffffffffffffffffffffffffffffffffffffff1683604051610e5a90613ab7565b60006040518083038185875af1925050503d8060008114610e97576040519150601f19603f3d011682016040523d82523d6000602084013e610e9c565b606091505b5050905080610ee0576040517f08c379a0000000000000000000000000000000000000000000000000000000008152600401610ed790613b18565b60405180910390fd5b600860009054906101000a900473ffffffffffffffffffffffffffffffffffffffff1673ffffffffffffffffffffffffffffffffffffffff166108fc839081150290604051600060405180830381858888f19350505050158015610f48573d6000803e3d6000fd5b50505050565b600a60009054906101000a900460ff16610f9d576040517f08c379a0000000000000000000000000000000000000000000000000000000008152600401610f9490613b84565b60405180910390fd5b600e60003373ffffffffffffffffffffffffffffffffffffffff1673ffffffffffffffffffffffffffffffffffffffff16815260200190815260200160002060009054906101000a900460ff161561102a576040517f08c379a000000000000000000000000000000000000000000000000000000000815260040161102190613bf0565b60405180910390fd5b6000600d60003373ffffffffffffffffffffffffffffffffffffffff1673ffffffffffffffffffffffffffffffffffffffff168152602001908152602001600020549050600081116110b1576040517f08c379a00000000000000000000000000000000000000000000000000000000081526004016110a890613c5c565b60405180910390fd5b6001600e60003373ffffffffffffffffffffffffffffffffffffffff1673ffffffffffffffffffffffffffffffffffffffff16815260200190815260200160002060006101000a81548160ff0219169083151502179055506111133382612a78565b50565b600f818154811061112657600080fd5b906000526020600020016000915054906101000a900473ffffffffffffffffffffffffffffffffffffffff1681565b6000806000806000806000806000600860009054906101000a900473ffffffffffffffffffffffffffffffffffffffff16600760009054906101000a900473ffffffffffffffffffffffffffffffffffffffff166006547f0000000000000000000000000000000000000000000000000000000000000000601054601154600954600a60009054906101000a900460ff16600b54985098509850985098509850985098509850909192939495969798565b60008060008373ffffffffffffffffffffffffffffffffffffffff1673ffffffffffffffffffffffffffffffffffffffff168152602001908152602001600020549050919050565b611256612afa565b6112606000612b81565b565b60115481565b60065481565b6000600560009054906101000a900473ffffffffffffffffffffffffffffffffffffffff16905090565b6060600480546112a7906137ae565b80601f01602080910402602001604051908101604052809291908181526020018280546112d3906137ae565b80156113205780601f106112f557610100808354040283529160200191611320565b820191906000526020600020905b81548152906001019060200180831161130357829003601f168201915b5050505050905090565b600080600f8054905011905090565b6000806113446128d5565b9050611351818585612984565b600191505092915050565b600860009054906101000a900473ffffffffffffffffffffffffffffffffffffffff1673ffffffffffffffffffffffffffffffffffffffff163373ffffffffffffffffffffffffffffffffffffffff16146113ec576040517f08c379a00000000000000000000000000000000000000000000000000000000081526004016113e390613889565b60405180910390fd5b600a60009054906101000a900460ff161561143c576040517f08c379a000000000000000000000000000000000000000000000000000000000815260040161143390613cc8565b60405180910390fd5b600061144782612460565b90508034101561148c576040517f08c379a000000000000000000000000000000000000000000000000000000000815260040161148390613d34565b60405180910390fd5b6114946120d1565b8261149d610c7b565b6114a79190613d54565b11156114e8576040517f08c379a00000000000000000000000000000000000000000000000000000000081526004016114df90613dd4565b60405180910390fd5b6114f0611bcb565b82600c6000600860009054906101000a900473ffffffffffffffffffffffffffffffffffffffff1673ffffffffffffffffffffffffffffffffffffffff1673ffffffffffffffffffffffffffffffffffffffff1681526020019081526020016000205461155d9190613d54565b111561159e576040517f08c379a000000000000000000000000000000000000000000000000000000000815260040161159590613e40565b60405180910390fd5b60006127106064836115b091906139b0565b6115ba9190613a21565b905080826115c89190613a52565b600960008282546115d99190613d54565b925050819055506115ea3084612a78565b82600c6000600860009054906101000a900473ffffffffffffffffffffffffffffffffffffffff1673ffffffffffffffffffffffffffffffffffffffff1673ffffffffffffffffffffffffffffffffffffffff168152602001908152602001600020600082825461165b9190613d54565b9250508190555082600b60008282546116749190613d54565b925050819055507f77c4ff2d3de977cf4bd36aa220db7839bc74bdd1c7a1c3d47bbb34ba89d16a61600760009054906101000a900473ffffffffffffffffffffffffffffffffffffffff16826040516116ce929190613e60565b60405180910390a16000600760009054906101000a900473ffffffffffffffffffffffffffffffffffffffff1673ffffffffffffffffffffffffffffffffffffffff168260405161171e90613ab7565b60006040518083038185875af1925050503d806000811461175b576040519150601f19603f3d011682016040523d82523d6000602084013e611760565b606091505b50509050806117a4576040517f08c379a000000000000000000000000000000000000000000000000000000000815260040161179b90613ed5565b60405180910390fd5b823411156118655760003373ffffffffffffffffffffffffffffffffffffffff1684346117d19190613a52565b6040516117dd90613ab7565b60006040518083038185875af1925050503d806000811461181a576040519150601f19603f3d011682016040523d82523d6000602084013e61181f565b606091505b5050905080611863576040517f08c379a000000000000000000000000000000000000000000000000000000000815260040161185a90613f41565b60405180910390fd5b505b50505050565b600860009054906101000a900473ffffffffffffffffffffffffffffffffffffffff1673ffffffffffffffffffffffffffffffffffffffff163373ffffffffffffffffffffffffffffffffffffffff16146118fb576040517f08c379a00000000000000000000000000000000000000000000000000000000081526004016118f290613889565b60405180910390fd5b600a60009054906101000a900460ff1661194a576040517f08c379a000000000000000000000000000000000000000000000000000000000815260040161194190613961565b60405180910390fd5b6000600c6000600860009054906101000a900473ffffffffffffffffffffffffffffffffffffffff1673ffffffffffffffffffffffffffffffffffffffff1673ffffffffffffffffffffffffffffffffffffffff16815260200190815260200160002054116119ee576040517f08c379a00000000000000000000000000000000000000000000000000000000081526004016119e590613fad565b60405180910390fd5b6000600c6000600860009054906101000a900473ffffffffffffffffffffffffffffffffffffffff1673ffffffffffffffffffffffffffffffffffffffff1673ffffffffffffffffffffffffffffffffffffffff1681526020019081526020016000205490506000600c6000600860009054906101000a900473ffffffffffffffffffffffffffffffffffffffff1673ffffffffffffffffffffffffffffffffffffffff1673ffffffffffffffffffffffffffffffffffffffff168152602001908152602001600020819055506000600b81905550611af030600860009054906101000a900473ffffffffffffffffffffffffffffffffffffffff1683612984565b50565b600080611afe610c7b565b905080831115611b43576040517f08c379a0000000000000000000000000000000000000000000000000000000008152600401611b3a90614019565b60405180910390fd5b6000611b4d612521565b90506000670de0b6b3a764000085601154611b6891906139b0565b611b729190613a21565b82611b7d9190613a52565b9050600060028284611b8f9190613d54565b611b999190613a21565b90506000670de0b6b3a76400008288611bb291906139b0565b611bbc9190613a21565b90508095505050505050919050565b6000606460147f0000000000000000000000000000000000000000000000000000000000000000611bfc91906139b0565b611c069190613a21565b905090565b60095481565b60105481565b600d6020528060005260406000206000915090505481565b600e6020528060005260406000206000915054906101000a900460ff1681565b600a60009054906101000a900460ff1615611c9f576040517f08c379a0000000000000000000000000000000000000000000000000000000008152600401611c9690613cc8565b60405180910390fd5b6006546009541015611ce6576040517f08c379a0000000000000000000000000000000000000000000000000000000008152600401611cdd90614085565b60405180910390fd5b611cee6120d1565b611cf6610c7b565b1115611d37576040517f08c379a0000000000000000000000000000000000000000000000000000000008152600401611d2e906140f1565b60405180910390fd5b6001600a60006101000a81548160ff021916908315150217905550565b7f000000000000000000000000000000000000000000000000000000000000000081565b600a60009054906101000a900460ff1615611dc8576040517f08c379a0000000000000000000000000000000000000000000000000000000008152600401611dbf90613cc8565b60405180910390fd5b6000611dd382612460565b905080341015611e18576040517f08c379a0000000000000000000000000000000000000000000000000000000008152600401611e0f90613d34565b60405180910390fd5b611e206120d1565b82611e29610c7b565b611e339190613d54565b1115611e74576040517f08c379a0000000000000000000000000000000000000000000000000000000008152600401611e6b90613dd4565b60405180910390fd5b6000612710606483611e8691906139b0565b611e909190613a21565b90508082611e9e9190613a52565b60096000828254611eaf9190613d54565b92505081905550611ec03384612a78565b7f77c4ff2d3de977cf4bd36aa220db7839bc74bdd1c7a1c3d47bbb34ba89d16a61600760009054906101000a900473ffffffffffffffffffffffffffffffffffffffff1682604051611f13929190613e60565b60405180910390a16000600760009054906101000a900473ffffffffffffffffffffffffffffffffffffffff1673ffffffffffffffffffffffffffffffffffffffff1682604051611f6390613ab7565b60006040518083038185875af1925050503d8060008114611fa0576040519150601f19603f3d011682016040523d82523d6000602084013e611fa5565b606091505b5050905080611fe9576040517f08c379a0000000000000000000000000000000000000000000000000000000008152600401611fe09061415d565b60405180910390fd5b82341115612044573373ffffffffffffffffffffffffffffffffffffffff166108fc84346120179190613a52565b9081150290604051600060405180830381858888f19350505050158015612042573d6000803e3d6000fd5b505b50505050565b6000600160008473ffffffffffffffffffffffffffffffffffffffff1673ffffffffffffffffffffffffffffffffffffffff16815260200190815260200160002060008373ffffffffffffffffffffffffffffffffffffffff1673ffffffffffffffffffffffffffffffffffffffff16815260200190815260200160002054905092915050565b60006064601460646120e39190613a52565b7f000000000000000000000000000000000000000000000000000000000000000061210e91906139b0565b6121189190613a21565b905090565b600a60009054906101000a900460ff161561216d576040517f08c379a000000000000000000000000000000000000000000000000000000000815260040161216490613cc8565b60405180910390fd5b600081116121b0576040517f08c379a00000000000000000000000000000000000000000000000000000000081526004016121a7906141c9565b60405180910390fd5b806121ba33611206565b10156121fb576040517f08c379a00000000000000000000000000000000000000000000000000000000081526004016121f290614235565b60405180910390fd5b600061220682611af3565b90508047101561224b576040517f08c379a0000000000000000000000000000000000000000000000000000000008152600401612242906142a1565b60405180910390fd5b600061271060968361225d91906139b0565b6122679190613a21565b9050600081836122779190613a52565b90506122833385612c47565b60003373ffffffffffffffffffffffffffffffffffffffff16826040516122a990613ab7565b60006040518083038185875af1925050503d80600081146122e6576040519150601f19603f3d011682016040523d82523d6000602084013e6122eb565b606091505b505090508061232f576040517f08c379a00000000000000000000000000000000000000000000000000000000081526004016123269061430d565b60405180910390fd5b7f77c4ff2d3de977cf4bd36aa220db7839bc74bdd1c7a1c3d47bbb34ba89d16a61600760009054906101000a900473ffffffffffffffffffffffffffffffffffffffff1684604051612382929190613e60565b60405180910390a16000600760009054906101000a900473ffffffffffffffffffffffffffffffffffffffff1673ffffffffffffffffffffffffffffffffffffffff16846040516123d290613ab7565b60006040518083038185875af1925050503d806000811461240f576040519150601f19603f3d011682016040523d82523d6000602084013e612414565b606091505b5050905080612458576040517f08c379a000000000000000000000000000000000000000000000000000000000815260040161244f9061415d565b60405180910390fd5b505050505050565b60008061246b612521565b90506000670de0b6b3a76400008460115461248691906139b0565b6124909190613a21565b8261249b9190613d54565b90506000600282846124ad9190613d54565b6124b79190613a21565b90506000670de0b6b3a764000082876124d091906139b0565b6124da9190613a21565b905080945050505050919050565b600a60009054906101000a900460ff1681565b600760009054906101000a900473ffffffffffffffffffffffffffffffffffffffff1681565b6000670de0b6b3a7640000612534610c7b565b60115461254191906139b0565b61254b9190613a21565b6010546125589190613d54565b905090565b612565612afa565b600073ffffffffffffffffffffffffffffffffffffffff168173ffffffffffffffffffffffffffffffffffffffff16036125d75760006040517f1e4fbdf70000000000000000000000000000000000000000000000000000000081526004016125ce9190613106565b60405180910390fd5b6125e081612b81565b50565b600b5481565b600860009054906101000a900473ffffffffffffffffffffffffffffffffffffffff1673ffffffffffffffffffffffffffffffffffffffff163373ffffffffffffffffffffffffffffffffffffffff1614612679576040517f08c379a000000000000000000000000000000000000000000000000000000000815260040161267090613889565b60405180910390fd5b600a60009054906101000a900460ff16156126c9576040517f08c379a00000000000000000000000000000000000000000000000000000000081526004016126c090613cc8565b60405180910390fd5b818190508484905014612711576040517f08c379a000000000000000000000000000000000000000000000000000000000815260040161270890614379565b60405180910390fd5b6000805b858590508110156128835760008686838181106127355761273461380e565b5b905060200201602081019061274a9190613157565b905060008585848181106127615761276061380e565b5b9050602002013590506000600d60008473ffffffffffffffffffffffffffffffffffffffff1673ffffffffffffffffffffffffffffffffffffffff168152602001908152602001600020541480156127b95750600081115b1561282257600f829080600181540180825580915050600190039060005260206000200160009091909190916101000a81548173ffffffffffffffffffffffffffffffffffffffff021916908373ffffffffffffffffffffffffffffffffffffffff1602179055505b80600d60008473ffffffffffffffffffffffffffffffffffffffff1673ffffffffffffffffffffffffffffffffffffffff1681526020019081526020016000208190555080846128729190613d54565b935050508080600101915050612715565b5061288c611bcb565b8111156128ce576040517f08c379a00000000000000000000000000000000000000000000000000000000081526004016128c5906143e5565b60405180910390fd5b5050505050565b600033905090565b6128ea8383836001612cc9565b505050565b60006128fb848461204a565b90507fffffffffffffffffffffffffffffffffffffffffffffffffffffffffffffffff81101561297e578181101561296e578281836040517ffb8f41b200000000000000000000000000000000000000000000000000000000815260040161296593929190614405565b60405180910390fd5b61297d84848484036000612cc9565b5b50505050565b600073ffffffffffffffffffffffffffffffffffffffff168373ffffffffffffffffffffffffffffffffffffffff16036129f65760006040517f96c6fd1e0000000000000000000000000000000000000000000000000000000081526004016129ed9190613106565b60405180910390fd5b600073ffffffffffffffffffffffffffffffffffffffff168273ffffffffffffffffffffffffffffffffffffffff1603612a685760006040517fec442f05000000000000000000000000000000000000000000000000000000008152600401612a5f9190613106565b60405180910390fd5b612a73838383612ea0565b505050565b600073ffffffffffffffffffffffffffffffffffffffff168273ffffffffffffffffffffffffffffffffffffffff1603612aea5760006040517fec442f05000000000000000000000000000000000000000000000000000000008152600401612ae19190613106565b60405180910390fd5b612af660008383612ea0565b5050565b612b026128d5565b73ffffffffffffffffffffffffffffffffffffffff16612b2061126e565b73ffffffffffffffffffffffffffffffffffffffff1614612b7f57612b436128d5565b6040517f118cdaa7000000000000000000000000000000000000000000000000000000008152600401612b769190613106565b60405180910390fd5b565b6000600560009054906101000a900473ffffffffffffffffffffffffffffffffffffffff16905081600560006101000a81548173ffffffffffffffffffffffffffffffffffffffff021916908373ffffffffffffffffffffffffffffffffffffffff1602179055508173ffffffffffffffffffffffffffffffffffffffff168173ffffffffffffffffffffffffffffffffffffffff167f8be0079c531659141344cd1fd0a4f28419497f9722a3daafe3b4186f6b6457e060405160405180910390a35050565b600073ffffffffffffffffffffffffffffffffffffffff168273ffffffffffffffffffffffffffffffffffffffff1603612cb95760006040517f96c6fd1e000000000000000000000000000000000000000000000000000000008152600401612cb09190613106565b60405180910390fd5b612cc582600083612ea0565b5050565b600073ffffffffffffffffffffffffffffffffffffffff168473ffffffffffffffffffffffffffffffffffffffff1603612d3b5760006040517fe602df05000000000000000000000000000000000000000000000000000000008152600401612d329190613106565b60405180910390fd5b600073ffffffffffffffffffffffffffffffffffffffff168373ffffffffffffffffffffffffffffffffffffffff1603612dad5760006040517f94280d62000000000000000000000000000000000000000000000000000000008152600401612da49190613106565b60405180910390fd5b81600160008673ffffffffffffffffffffffffffffffffffffffff1673ffffffffffffffffffffffffffffffffffffffff16815260200190815260200160002060008573ffffffffffffffffffffffffffffffffffffffff1673ffffffffffffffffffffffffffffffffffffffff168152602001908152602001600020819055508015612e9a578273ffffffffffffffffffffffffffffffffffffffff168473ffffffffffffffffffffffffffffffffffffffff167f8c5be1e5ebec7d5bd14f71427d1e84f3dd0314c0f7b2291e5b200ac8c7c3b92584604051612e91919061319d565b60405180910390a35b50505050565b600073ffffffffffffffffffffffffffffffffffffffff168373ffffffffffffffffffffffffffffffffffffffff1603612ef2578060026000828254612ee69190613d54565b92505081905550612fc5565b60008060008573ffffffffffffffffffffffffffffffffffffffff1673ffffffffffffffffffffffffffffffffffffffff16815260200190815260200160002054905081811015612f7e578381836040517fe450d38c000000000000000000000000000000000000000000000000000000008152600401612f7593929190614405565b60405180910390fd5b8181036000808673ffffffffffffffffffffffffffffffffffffffff1673ffffffffffffffffffffffffffffffffffffffff16815260200190815260200160002081905550505b600073ffffffffffffffffffffffffffffffffffffffff168273ffffffffffffffffffffffffffffffffffffffff160361300e578060026000828254039250508190555061305b565b806000808473ffffffffffffffffffffffffffffffffffffffff1673ffffffffffffffffffffffffffffffffffffffff168152602001908152602001600020600082825401925050819055505b8173ffffffffffffffffffffffffffffffffffffffff168373ffffffffffffffffffffffffffffffffffffffff167fddf252ad1be2c89b69c2b068fc378daa952ba7f163c4a11628f55a4df523b3ef836040516130b8919061319d565b60405180910390a3505050565b600073ffffffffffffffffffffffffffffffffffffffff82169050919050565b60006130f0826130c5565b9050919050565b613100816130e5565b82525050565b600060208201905061311b60008301846130f7565b92915050565b600080fd5b600080fd5b613134816130e5565b811461313f57600080fd5b50565b6000813590506131518161312b565b92915050565b60006020828403121561316d5761316c613121565b5b600061317b84828501613142565b91505092915050565b6000819050919050565b61319781613184565b82525050565b60006020820190506131b2600083018461318e565b92915050565b600081519050919050565b600082825260208201905092915050565b60005b838110156131f25780820151818401526020810190506131d7565b60008484015250505050565b6000601f19601f8301169050919050565b600061321a826131b8565b61322481856131c3565b93506132348185602086016131d4565b61323d816131fe565b840191505092915050565b60006020820190508181036000830152613262818461320f565b905092915050565b61327381613184565b811461327e57600080fd5b50565b6000813590506132908161326a565b92915050565b600080604083850312156132ad576132ac613121565b5b60006132bb85828601613142565b92505060206132cc85828601613281565b9150509250929050565b60008115159050919050565b6132eb816132d6565b82525050565b600060208201905061330660008301846132e2565b92915050565b600081519050919050565b600082825260208201905092915050565b6000819050602082019050919050565b613341816130e5565b82525050565b60006133538383613338565b60208301905092915050565b6000602082019050919050565b60006133778261330c565b6133818185613317565b935061338c83613328565b8060005b838110156133bd5781516133a48882613347565b97506133af8361335f565b925050600181019050613390565b5085935050505092915050565b600081519050919050565b600082825260208201905092915050565b6000819050602082019050919050565b6133ff81613184565b82525050565b600061341183836133f6565b60208301905092915050565b6000602082019050919050565b6000613435826133ca565b61343f81856133d5565b935061344a836133e6565b8060005b8381101561347b5781516134628882613405565b975061346d8361341d565b92505060018101905061344e565b5085935050505092915050565b600060408201905081810360008301526134a2818561336c565b905081810360208301526134b6818461342a565b90509392505050565b6000806000606084860312156134d8576134d7613121565b5b60006134e686828701613142565b93505060206134f786828701613142565b925050604061350886828701613281565b9150509250925092565b600060ff82169050919050565b61352881613512565b82525050565b6000602082019050613543600083018461351f565b92915050565b60006020828403121561355f5761355e613121565b5b600061356d84828501613281565b91505092915050565b60006101208201905061358c600083018c6130f7565b613599602083018b6130f7565b6135a6604083018a61318e565b6135b3606083018961318e565b6135c0608083018861318e565b6135cd60a083018761318e565b6135da60c083018661318e565b6135e760e08301856132e2565b6135f561010083018461318e565b9a9950505050505050505050565b6000806040838503121561361a57613619613121565b5b600061362885828601613142565b925050602061363985828601613142565b9150509250929050565b600080fd5b600080fd5b600080fd5b60008083601f84011261366857613667613643565b5b8235905067ffffffffffffffff81111561368557613684613648565b5b6020830191508360208202830111156136a1576136a061364d565b5b9250929050565b60008083601f8401126136be576136bd613643565b5b8235905067ffffffffffffffff8111156136db576136da613648565b5b6020830191508360208202830111156136f7576136f661364d565b5b9250929050565b6000806000806040858703121561371857613717613121565b5b600085013567ffffffffffffffff81111561373657613735613126565b5b61374287828801613652565b9450945050602085013567ffffffffffffffff81111561376557613764613126565b5b613771878288016136a8565b925092505092959194509250565b7f4e487b7100000000000000000000000000000000000000000000000000000000600052602260045260246000fd5b600060028204905060018216806137c657607f821691505b6020821081036137d9576137d861377f565b5b50919050565b7f4e487b7100000000000000000000000000000000000000000000000000000000600052604160045260246000fd5b7f4e487b7100000000000000000000000000000000000000000000000000000000600052603260045260246000fd5b7f4e6f742063726561746f72000000000000000000000000000000000000000000600082015250565b6000613873600b836131c3565b915061387e8261383d565b602082019050919050565b600060208201905081810360008301526138a281613866565b9050919050565b7f4e6f7468696e6720746f20776974686472617700000000000000000000000000600082015250565b60006138df6013836131c3565b91506138ea826138a9565b602082019050919050565b6000602082019050818103600083015261390e816138d2565b9050919050565b7f4e6f742067726164756174656420796574000000000000000000000000000000600082015250565b600061394b6011836131c3565b915061395682613915565b602082019050919050565b6000602082019050818103600083015261397a8161393e565b9050919050565b7f4e487b7100000000000000000000000000000000000000000000000000000000600052601160045260246000fd5b60006139bb82613184565b91506139c683613184565b92508282026139d481613184565b915082820484148315176139eb576139ea613981565b5b5092915050565b7f4e487b7100000000000000000000000000000000000000000000000000000000600052601260045260246000fd5b6000613a2c82613184565b9150613a3783613184565b925082613a4757613a466139f2565b5b828204905092915050565b6000613a5d82613184565b9150613a6883613184565b9250828203905081811115613a8057613a7f613981565b5b92915050565b600081905092915050565b50565b6000613aa1600083613a86565b9150613aac82613a91565b600082019050919050565b6000613ac282613a94565b9150819050919050565b7f506c6174666f726d207769746864726177616c206661696c6564000000000000600082015250565b6000613b02601a836131c3565b9150613b0d82613acc565b602082019050919050565b60006020820190508181036000830152613b3181613af5565b9050919050565b7f4e6f742067726164756174656400000000000000000000000000000000000000600082015250565b6000613b6e600d836131c3565b9150613b7982613b38565b602082019050919050565b60006020820190508181036000830152613b9d81613b61565b9050919050565b7f416c726561647920636c61696d65640000000000000000000000000000000000600082015250565b6000613bda600f836131c3565b9150613be582613ba4565b602082019050919050565b60006020820190508181036000830152613c0981613bcd565b9050919050565b7f4e6f20616c6c6f636174696f6e00000000000000000000000000000000000000600082015250565b6000613c46600d836131c3565b9150613c5182613c10565b602082019050919050565b60006020820190508181036000830152613c7581613c39565b9050919050565b7f416c726561647920677261647561746564000000000000000000000000000000600082015250565b6000613cb26011836131c3565b9150613cbd82613c7c565b602082019050919050565b60006020820190508181036000830152613ce181613ca5565b9050919050565b7f496e73756666696369656e74204554482073656e740000000000000000000000600082015250565b6000613d1e6015836131c3565b9150613d2982613ce8565b602082019050919050565b60006020820190508181036000830152613d4d81613d11565b9050919050565b6000613d5f82613184565b9150613d6a83613184565b9250828201905080821115613d8257613d81613981565b5b92915050565b7f4578636565647320617661696c61626c6520737570706c790000000000000000600082015250565b6000613dbe6018836131c3565b9150613dc982613d88565b602082019050919050565b60006020820190508181036000830152613ded81613db1565b9050919050565b7f45786365656473206c6f636b20616c6c6f636174696f6e000000000000000000600082015250565b6000613e2a6017836131c3565b9150613e3582613df4565b602082019050919050565b60006020820190508181036000830152613e5981613e1d565b9050919050565b6000604082019050613e7560008301856130f7565b613e82602083018461318e565b9392505050565b7f506c6174666f726d206665652063616c6c206661696c65640000000000000000600082015250565b6000613ebf6018836131c3565b9150613eca82613e89565b602082019050919050565b60006020820190508181036000830152613eee81613eb2565b9050919050565b7f526566756e64206661696c656400000000000000000000000000000000000000600082015250565b6000613f2b600d836131c3565b9150613f3682613ef5565b602082019050919050565b60006020820190508181036000830152613f5a81613f1e565b9050919050565b7f4e6f206c6f636b656420746f6b656e7300000000000000000000000000000000600082015250565b6000613f976010836131c3565b9150613fa282613f61565b602082019050919050565b60006020820190508181036000830152613fc681613f8a565b9050919050565b7f416d6f756e74206578636565647320737570706c790000000000000000000000600082015250565b60006140036015836131c3565b915061400e82613fcd565b602082019050919050565b6000602082019050818103600083015261403281613ff6565b9050919050565b7f526169736520746172676574206e6f74206d6574000000000000000000000000600082015250565b600061406f6014836131c3565b915061407a82614039565b602082019050919050565b6000602082019050818103600083015261409e81614062565b9050919050565b7f4d7573742072657365727665204c502f61697264726f70000000000000000000600082015250565b60006140db6017836131c3565b91506140e6826140a5565b602082019050919050565b6000602082019050818103600083015261410a816140ce565b9050919050565b7f506c6174666f726d20666565207472616e73666572206661696c656400000000600082015250565b6000614147601c836131c3565b915061415282614111565b602082019050919050565b600060208201905081810360008301526141768161413a565b9050919050565b7f416d6f756e74206d7573742062652067726561746572207468616e207a65726f600082015250565b60006141b36020836131c3565b91506141be8261417d565b602082019050919050565b600060208201905081810360008301526141e2816141a6565b9050919050565b7f496e73756666696369656e7420746f6b656e2062616c616e6365000000000000600082015250565b600061421f601a836131c3565b915061422a826141e9565b602082019050919050565b6000602082019050818103600083015261424e81614212565b9050919050565b7f436f6e74726163742068617320696e73756666696369656e7420455448000000600082015250565b600061428b601d836131c3565b915061429682614255565b602082019050919050565b600060208201905081810360008301526142ba8161427e565b9050919050565b7f455448207061796f7574206661696c6564000000000000000000000000000000600082015250565b60006142f76011836131c3565b9150614302826142c1565b602082019050919050565b60006020820190508181036000830152614326816142ea565b9050919050565b7f4c656e677468206d69736d617463680000000000000000000000000000000000600082015250565b6000614363600f836131c3565b915061436e8261432d565b602082019050919050565b6000602082019050818103600083015261439281614356565b9050919050565b7f457863656564732061697264726f702072657365727665000000000000000000600082015250565b60006143cf6017836131c3565b91506143da82614399565b602082019050919050565b600060208201905081810360008301526143fe816143c2565b9050919050565b600060608201905061441a60008301866130f7565b614427602083018561318e565b614434604083018461318e565b94935050505056fea2646970667358221220e64194f3c26a589b00be18eab18cd352831ababfaf86dfa8e78e74158f94c78f64736f6c634300081c0033",
  "linkReferences": {},
  "deployedLinkReferences": {}
}